{
	"tipjar.sol": {
		"Tips": {
			"abi": [
				{
					"inputs": [],
					"stateMutability": "nonpayable",
					"type": "constructor"
				},
				{
					"anonymous": false,
					"inputs": [
						{
							"indexed": true,
							"internalType": "address",
							"name": "from",
							"type": "address"
						},
						{
							"indexed": false,
							"internalType": "uint256",
							"name": "amount",
							"type": "uint256"
						}
					],
					"name": "TipAdded",
					"type": "event"
				},
				{
					"anonymous": false,
					"inputs": [
						{
							"indexed": false,
							"internalType": "uint256",
							"name": "totalAmount",
							"type": "uint256"
						},
						{
							"indexed": false,
							"internalType": "uint256",
							"name": "timestamp",
							"type": "uint256"
						}
					],
					"name": "TipsDistributed",
					"type": "event"
				},
				{
					"anonymous": false,
					"inputs": [
						{
							"indexed": true,
							"internalType": "address",
							"name": "wallet",
							"type": "address"
						},
						{
							"indexed": false,
							"internalType": "string",
							"name": "name",
							"type": "string"
						},
						{
							"indexed": false,
							"internalType": "uint256",
							"name": "percent",
							"type": "uint256"
						}
					],
					"name": "WaitressAdded",
					"type": "event"
				},
				{
					"anonymous": false,
					"inputs": [
						{
							"indexed": true,
							"internalType": "address",
							"name": "wallet",
							"type": "address"
						}
					],
					"name": "WaitressRemoved",
					"type": "event"
				},
				{
					"inputs": [
						{
							"internalType": "address payable",
							"name": "_walletAddress",
							"type": "address"
						},
						{
							"internalType": "string",
							"name": "_name",
							"type": "string"
						},
						{
							"internalType": "uint256",
							"name": "_percent",
							"type": "uint256"
						}
					],
					"name": "addWaitress",
					"outputs": [],
					"stateMutability": "nonpayable",
					"type": "function"
				},
				{
					"inputs": [],
					"name": "addtips",
					"outputs": [],
					"stateMutability": "payable",
					"type": "function"
				},
				{
					"inputs": [],
					"name": "distributeBalance",
					"outputs": [],
					"stateMutability": "nonpayable",
					"type": "function"
				},
				{
					"inputs": [
						{
							"internalType": "address",
							"name": "",
							"type": "address"
						}
					],
					"name": "isWaitress",
					"outputs": [
						{
							"internalType": "bool",
							"name": "",
							"type": "bool"
						}
					],
					"stateMutability": "view",
					"type": "function"
				},
				{
					"inputs": [],
					"name": "owner",
					"outputs": [
						{
							"internalType": "address",
							"name": "",
							"type": "address"
						}
					],
					"stateMutability": "view",
					"type": "function"
				},
				{
					"inputs": [
						{
							"internalType": "address",
							"name": "_walletAddress",
							"type": "address"
						}
					],
					"name": "removeWaitress",
					"outputs": [],
					"stateMutability": "nonpayable",
					"type": "function"
				},
				{
					"inputs": [],
					"name": "totalShares",
					"outputs": [
						{
							"internalType": "uint256",
							"name": "",
							"type": "uint256"
						}
					],
					"stateMutability": "view",
					"type": "function"
				},
				{
					"inputs": [],
					"name": "viewWaitress",
					"outputs": [
						{
							"components": [
								{
									"internalType": "address payable",
									"name": "walletAddress",
									"type": "address"
								},
								{
									"internalType": "string",
									"name": "name",
									"type": "string"
								},
								{
									"internalType": "uint256",
									"name": "percent",
									"type": "uint256"
								}
							],
							"internalType": "struct Tips.Waitress[]",
							"name": "",
							"type": "tuple[]"
						}
					],
					"stateMutability": "view",
					"type": "function"
				},
				{
					"inputs": [],
					"name": "viewtips",
					"outputs": [
						{
							"internalType": "uint256",
							"name": "",
							"type": "uint256"
						}
					],
					"stateMutability": "view",
					"type": "function"
				},
				{
					"inputs": [
						{
							"internalType": "uint256",
							"name": "",
							"type": "uint256"
						}
					],
					"name": "waitresses",
					"outputs": [
						{
							"internalType": "address payable",
							"name": "walletAddress",
							"type": "address"
						},
						{
							"internalType": "string",
							"name": "name",
							"type": "string"
						},
						{
							"internalType": "uint256",
							"name": "percent",
							"type": "uint256"
						}
					],
					"stateMutability": "view",
					"type": "function"
				}
			],
			"devdoc": {
				"kind": "dev",
				"methods": {},
				"version": 1
			},
			"evm": {
				"assembly": "    /* \"tipjar.sol\":64:4451  contract Tips {... */\n  mstore(0x40, 0x80)\n    /* \"tipjar.sol\":820:869  constructor() {... */\n  callvalue\n  dup1\n  iszero\n  tag_1\n  jumpi\n  revert(0x00, 0x00)\ntag_1:\n  pop\n    /* \"tipjar.sol\":852:862  msg.sender */\n  caller\n    /* \"tipjar.sol\":844:849  owner */\n  0x00\n  0x00\n    /* \"tipjar.sol\":844:862  owner = msg.sender */\n  0x0100\n  exp\n  dup2\n  sload\n  dup2\n  0xffffffffffffffffffffffffffffffffffffffff\n  mul\n  not\n  and\n  swap1\n  dup4\n  0xffffffffffffffffffffffffffffffffffffffff\n  and\n  mul\n  or\n  swap1\n  sstore\n  pop\n    /* \"tipjar.sol\":64:4451  contract Tips {... */\n  dataSize(sub_0)\n  dup1\n  dataOffset(sub_0)\n  0x00\n  codecopy\n  0x00\n  return\nstop\n\nsub_0: assembly {\n        /* \"tipjar.sol\":64:4451  contract Tips {... */\n      mstore(0x40, 0x80)\n      jumpi(tag_1, lt(calldatasize, 0x04))\n      shr(0xe0, calldataload(0x00))\n      dup1\n      0x85d739cd\n      gt\n      tag_12\n      jumpi\n      dup1\n      0x85d739cd\n      eq\n      tag_7\n      jumpi\n      dup1\n      0x8da5cb5b\n      eq\n      tag_8\n      jumpi\n      dup1\n      0xb499b79a\n      eq\n      tag_9\n      jumpi\n      dup1\n      0xccbf1234\n      eq\n      tag_10\n      jumpi\n      dup1\n      0xe83a1b00\n      eq\n      tag_11\n      jumpi\n      jump(tag_1)\n    tag_12:\n      dup1\n      0x2a08deda\n      eq\n      tag_2\n      jumpi\n      dup1\n      0x369a489d\n      eq\n      tag_3\n      jumpi\n      dup1\n      0x3a98ef39\n      eq\n      tag_4\n      jumpi\n      dup1\n      0x6e7301fd\n      eq\n      tag_5\n      jumpi\n      dup1\n      0x7943da69\n      eq\n      tag_6\n      jumpi\n    tag_1:\n      revert(0x00, 0x00)\n        /* \"tipjar.sol\":1196:1291  function viewtips() public view returns (uint256) {... */\n    tag_2:\n      callvalue\n      dup1\n      iszero\n      tag_13\n      jumpi\n      revert(0x00, 0x00)\n    tag_13:\n      pop\n      tag_14\n      tag_15\n      jump\t// in\n    tag_14:\n      mload(0x40)\n      tag_16\n      swap2\n      swap1\n      tag_17\n      jump\t// in\n    tag_16:\n      mload(0x40)\n      dup1\n      swap2\n      sub\n      swap1\n      return\n        /* \"tipjar.sol\":2285:3267  function removeWaitress(address _walletAddress) public onlyOwner {... */\n    tag_3:\n      callvalue\n      dup1\n      iszero\n      tag_18\n      jumpi\n      revert(0x00, 0x00)\n    tag_18:\n      pop\n      tag_19\n      0x04\n      dup1\n      calldatasize\n      sub\n      dup2\n      add\n      swap1\n      tag_20\n      swap2\n      swap1\n      tag_21\n      jump\t// in\n    tag_20:\n      tag_22\n      jump\t// in\n    tag_19:\n      stop\n        /* \"tipjar.sol\":110:136  uint256 public totalShares */\n    tag_4:\n      callvalue\n      dup1\n      iszero\n      tag_23\n      jumpi\n      revert(0x00, 0x00)\n    tag_23:\n      pop\n      tag_24\n      tag_25\n      jump\t// in\n    tag_24:\n      mload(0x40)\n      tag_26\n      swap2\n      swap1\n      tag_17\n      jump\t// in\n    tag_26:\n      mload(0x40)\n      dup1\n      swap2\n      sub\n      swap1\n      return\n        /* \"tipjar.sol\":1018:1167  function addtips() public payable {... */\n    tag_5:\n      tag_27\n      tag_28\n      jump\t// in\n    tag_27:\n      stop\n        /* \"tipjar.sol\":3309:4230  function distributeBalance() public onlyOwner {... */\n    tag_6:\n      callvalue\n      dup1\n      iszero\n      tag_29\n      jumpi\n      revert(0x00, 0x00)\n    tag_29:\n      pop\n      tag_30\n      tag_31\n      jump\t// in\n    tag_30:\n      stop\n        /* \"tipjar.sol\":429:471  mapping(address => bool) public isWaitress */\n    tag_7:\n      callvalue\n      dup1\n      iszero\n      tag_32\n      jumpi\n      revert(0x00, 0x00)\n    tag_32:\n      pop\n      tag_33\n      0x04\n      dup1\n      calldatasize\n      sub\n      dup2\n      add\n      swap1\n      tag_34\n      swap2\n      swap1\n      tag_21\n      jump\t// in\n    tag_34:\n      tag_35\n      jump\t// in\n    tag_33:\n      mload(0x40)\n      tag_36\n      swap2\n      swap1\n      tag_37\n      jump\t// in\n    tag_36:\n      mload(0x40)\n      dup1\n      swap2\n      sub\n      swap1\n      return\n        /* \"tipjar.sol\":84:104  address public owner */\n    tag_8:\n      callvalue\n      dup1\n      iszero\n      tag_38\n      jumpi\n      revert(0x00, 0x00)\n    tag_38:\n      pop\n      tag_39\n      tag_40\n      jump\t// in\n    tag_39:\n      mload(0x40)\n      tag_41\n      swap2\n      swap1\n      tag_42\n      jump\t// in\n    tag_41:\n      mload(0x40)\n      dup1\n      swap2\n      sub\n      swap1\n      return\n        /* \"tipjar.sol\":1476:2253  function addWaitress(... */\n    tag_9:\n      callvalue\n      dup1\n      iszero\n      tag_43\n      jumpi\n      revert(0x00, 0x00)\n    tag_43:\n      pop\n      tag_44\n      0x04\n      dup1\n      calldatasize\n      sub\n      dup2\n      add\n      swap1\n      tag_45\n      swap2\n      swap1\n      tag_46\n      jump\t// in\n    tag_45:\n      tag_47\n      jump\t// in\n    tag_44:\n      stop\n        /* \"tipjar.sol\":350:378  Waitress[] public waitresses */\n    tag_10:\n      callvalue\n      dup1\n      iszero\n      tag_48\n      jumpi\n      revert(0x00, 0x00)\n    tag_48:\n      pop\n      tag_49\n      0x04\n      dup1\n      calldatasize\n      sub\n      dup2\n      add\n      swap1\n      tag_50\n      swap2\n      swap1\n      tag_51\n      jump\t// in\n    tag_50:\n      tag_52\n      jump\t// in\n    tag_49:\n      mload(0x40)\n      tag_53\n      swap4\n      swap3\n      swap2\n      swap1\n      tag_54\n      jump\t// in\n    tag_53:\n      mload(0x40)\n      dup1\n      swap2\n      sub\n      swap1\n      return\n        /* \"tipjar.sol\":1327:1425  function viewWaitress() public view returns (Waitress[] memory) {... */\n    tag_11:\n      callvalue\n      dup1\n      iszero\n      tag_55\n      jumpi\n      revert(0x00, 0x00)\n    tag_55:\n      pop\n      tag_56\n      tag_57\n      jump\t// in\n    tag_56:\n      mload(0x40)\n      tag_58\n      swap2\n      swap1\n      tag_59\n      jump\t// in\n    tag_58:\n      mload(0x40)\n      dup1\n      swap2\n      sub\n      swap1\n      return\n        /* \"tipjar.sol\":1196:1291  function viewtips() public view returns (uint256) {... */\n    tag_15:\n        /* \"tipjar.sol\":1237:1244  uint256 */\n      0x00\n        /* \"tipjar.sol\":1263:1284  address(this).balance */\n      selfbalance\n        /* \"tipjar.sol\":1256:1284  return address(this).balance */\n      swap1\n      pop\n        /* \"tipjar.sol\":1196:1291  function viewtips() public view returns (uint256) {... */\n      swap1\n      jump\t// out\n        /* \"tipjar.sol\":2285:3267  function removeWaitress(address _walletAddress) public onlyOwner {... */\n    tag_22:\n        /* \"tipjar.sol\":928:933  owner */\n      0x00\n      0x00\n      swap1\n      sload\n      swap1\n      0x0100\n      exp\n      swap1\n      div\n      0xffffffffffffffffffffffffffffffffffffffff\n      and\n        /* \"tipjar.sol\":914:933  msg.sender == owner */\n      0xffffffffffffffffffffffffffffffffffffffff\n      and\n        /* \"tipjar.sol\":914:924  msg.sender */\n      caller\n        /* \"tipjar.sol\":914:933  msg.sender == owner */\n      0xffffffffffffffffffffffffffffffffffffffff\n      and\n      eq\n        /* \"tipjar.sol\":906:957  require(msg.sender == owner, \"Only owner can call\") */\n      tag_62\n      jumpi\n      mload(0x40)\n      0x08c379a000000000000000000000000000000000000000000000000000000000\n      dup2\n      mstore\n      0x04\n      add\n      tag_63\n      swap1\n      tag_64\n      jump\t// in\n    tag_63:\n      mload(0x40)\n      dup1\n      swap2\n      sub\n      swap1\n      revert\n    tag_62:\n        /* \"tipjar.sol\":2368:2378  isWaitress */\n      0x03\n        /* \"tipjar.sol\":2368:2394  isWaitress[_walletAddress] */\n      0x00\n        /* \"tipjar.sol\":2379:2393  _walletAddress */\n      dup3\n        /* \"tipjar.sol\":2368:2394  isWaitress[_walletAddress] */\n      0xffffffffffffffffffffffffffffffffffffffff\n      and\n      0xffffffffffffffffffffffffffffffffffffffff\n      and\n      dup2\n      mstore\n      0x20\n      add\n      swap1\n      dup2\n      mstore\n      0x20\n      add\n      0x00\n      keccak256\n      0x00\n      swap1\n      sload\n      swap1\n      0x0100\n      exp\n      swap1\n      div\n      0xff\n      and\n        /* \"tipjar.sol\":2360:2417  require(isWaitress[_walletAddress], \"Waitress not found\") */\n      tag_66\n      jumpi\n      mload(0x40)\n      0x08c379a000000000000000000000000000000000000000000000000000000000\n      dup2\n      mstore\n      0x04\n      add\n      tag_67\n      swap1\n      tag_68\n      jump\t// in\n    tag_67:\n      mload(0x40)\n      dup1\n      swap2\n      sub\n      swap1\n      revert\n    tag_66:\n        /* \"tipjar.sol\":2428:2449  uint256 indexToDelete */\n      0x00\n        /* \"tipjar.sol\":2452:2465  waitressIndex */\n      0x04\n        /* \"tipjar.sol\":2452:2481  waitressIndex[_walletAddress] */\n      0x00\n        /* \"tipjar.sol\":2466:2480  _walletAddress */\n      dup4\n        /* \"tipjar.sol\":2452:2481  waitressIndex[_walletAddress] */\n      0xffffffffffffffffffffffffffffffffffffffff\n      and\n      0xffffffffffffffffffffffffffffffffffffffff\n      and\n      dup2\n      mstore\n      0x20\n      add\n      swap1\n      dup2\n      mstore\n      0x20\n      add\n      0x00\n      keccak256\n      sload\n        /* \"tipjar.sol\":2428:2481  uint256 indexToDelete = waitressIndex[_walletAddress] */\n      swap1\n      pop\n        /* \"tipjar.sol\":2491:2514  uint256 percentToRemove */\n      0x00\n        /* \"tipjar.sol\":2517:2527  waitresses */\n      0x02\n        /* \"tipjar.sol\":2528:2541  indexToDelete */\n      dup3\n        /* \"tipjar.sol\":2517:2542  waitresses[indexToDelete] */\n      dup2\n      sload\n      dup2\n      lt\n      tag_69\n      jumpi\n      tag_70\n      tag_71\n      jump\t// in\n    tag_70:\n    tag_69:\n      swap1\n      0x00\n      mstore\n      keccak256(0x00, 0x20)\n      swap1\n      0x03\n      mul\n      add\n        /* \"tipjar.sol\":2517:2550  waitresses[indexToDelete].percent */\n      0x02\n      add\n      sload\n        /* \"tipjar.sol\":2491:2550  uint256 percentToRemove = waitresses[indexToDelete].percent */\n      swap1\n      pop\n        /* \"tipjar.sol\":2611:2626  percentToRemove */\n      dup1\n        /* \"tipjar.sol\":2596:2607  totalShares */\n      sload(0x01)\n        /* \"tipjar.sol\":2596:2626  totalShares >= percentToRemove */\n      lt\n        /* \"tipjar.sol\":2592:2683  if (totalShares >= percentToRemove) {... */\n      tag_73\n      jumpi\n        /* \"tipjar.sol\":2657:2672  percentToRemove */\n      dup1\n        /* \"tipjar.sol\":2642:2653  totalShares */\n      0x01\n      0x00\n        /* \"tipjar.sol\":2642:2672  totalShares -= percentToRemove */\n      dup3\n      dup3\n      sload\n      tag_74\n      swap2\n      swap1\n      tag_75\n      jump\t// in\n    tag_74:\n      swap3\n      pop\n      pop\n      dup2\n      swap1\n      sstore\n      pop\n        /* \"tipjar.sol\":2592:2683  if (totalShares >= percentToRemove) {... */\n    tag_73:\n        /* \"tipjar.sol\":2812:2829  uint256 lastIndex */\n      0x00\n        /* \"tipjar.sol\":2852:2853  1 */\n      0x01\n        /* \"tipjar.sol\":2832:2842  waitresses */\n      0x02\n        /* \"tipjar.sol\":2832:2849  waitresses.length */\n      dup1\n      sload\n      swap1\n      pop\n        /* \"tipjar.sol\":2832:2853  waitresses.length - 1 */\n      tag_76\n      swap2\n      swap1\n      tag_75\n      jump\t// in\n    tag_76:\n        /* \"tipjar.sol\":2812:2853  uint256 lastIndex = waitresses.length - 1 */\n      swap1\n      pop\n        /* \"tipjar.sol\":2863:2891  Waitress memory lastWaitress */\n      0x00\n        /* \"tipjar.sol\":2894:2904  waitresses */\n      0x02\n        /* \"tipjar.sol\":2905:2914  lastIndex */\n      dup3\n        /* \"tipjar.sol\":2894:2915  waitresses[lastIndex] */\n      dup2\n      sload\n      dup2\n      lt\n      tag_77\n      jumpi\n      tag_78\n      tag_71\n      jump\t// in\n    tag_78:\n    tag_77:\n      swap1\n      0x00\n      mstore\n      keccak256(0x00, 0x20)\n      swap1\n      0x03\n      mul\n      add\n        /* \"tipjar.sol\":2863:2915  Waitress memory lastWaitress = waitresses[lastIndex] */\n      mload(0x40)\n      dup1\n      0x60\n      add\n      0x40\n      mstore\n      swap1\n      dup2\n      0x00\n      dup3\n      add\n      0x00\n      swap1\n      sload\n      swap1\n      0x0100\n      exp\n      swap1\n      div\n      0xffffffffffffffffffffffffffffffffffffffff\n      and\n      0xffffffffffffffffffffffffffffffffffffffff\n      and\n      0xffffffffffffffffffffffffffffffffffffffff\n      and\n      dup2\n      mstore\n      0x20\n      add\n      0x01\n      dup3\n      add\n      dup1\n      sload\n      tag_80\n      swap1\n      tag_81\n      jump\t// in\n    tag_80:\n      dup1\n      0x1f\n      add\n      0x20\n      dup1\n      swap2\n      div\n      mul\n      0x20\n      add\n      mload(0x40)\n      swap1\n      dup2\n      add\n      0x40\n      mstore\n      dup1\n      swap3\n      swap2\n      swap1\n      dup2\n      dup2\n      mstore\n      0x20\n      add\n      dup3\n      dup1\n      sload\n      tag_82\n      swap1\n      tag_81\n      jump\t// in\n    tag_82:\n      dup1\n      iszero\n      tag_83\n      jumpi\n      dup1\n      0x1f\n      lt\n      tag_84\n      jumpi\n      0x0100\n      dup1\n      dup4\n      sload\n      div\n      mul\n      dup4\n      mstore\n      swap2\n      0x20\n      add\n      swap2\n      jump(tag_83)\n    tag_84:\n      dup3\n      add\n      swap2\n      swap1\n      0x00\n      mstore\n      keccak256(0x00, 0x20)\n      swap1\n    tag_85:\n      dup2\n      sload\n      dup2\n      mstore\n      swap1\n      0x01\n      add\n      swap1\n      0x20\n      add\n      dup1\n      dup4\n      gt\n      tag_85\n      jumpi\n      dup3\n      swap1\n      sub\n      0x1f\n      and\n      dup3\n      add\n      swap2\n    tag_83:\n      pop\n      pop\n      pop\n      pop\n      pop\n      dup2\n      mstore\n      0x20\n      add\n      0x02\n      dup3\n      add\n      sload\n      dup2\n      mstore\n      pop\n      pop\n      swap1\n      pop\n        /* \"tipjar.sol\":2954:2966  lastWaitress */\n      dup1\n        /* \"tipjar.sol\":2926:2936  waitresses */\n      0x02\n        /* \"tipjar.sol\":2937:2950  indexToDelete */\n      dup6\n        /* \"tipjar.sol\":2926:2951  waitresses[indexToDelete] */\n      dup2\n      sload\n      dup2\n      lt\n      tag_86\n      jumpi\n      tag_87\n      tag_71\n      jump\t// in\n    tag_87:\n    tag_86:\n      swap1\n      0x00\n      mstore\n      keccak256(0x00, 0x20)\n      swap1\n      0x03\n      mul\n      add\n        /* \"tipjar.sol\":2926:2966  waitresses[indexToDelete] = lastWaitress */\n      0x00\n      dup3\n      add\n      mload\n      dup2\n      0x00\n      add\n      exp(0x0100, 0x00)\n      dup2\n      sload\n      dup2\n      0xffffffffffffffffffffffffffffffffffffffff\n      mul\n      not\n      and\n      swap1\n      dup4\n      0xffffffffffffffffffffffffffffffffffffffff\n      and\n      mul\n      or\n      swap1\n      sstore\n      pop\n      0x20\n      dup3\n      add\n      mload\n      dup2\n      0x01\n      add\n      swap1\n      dup2\n      tag_89\n      swap2\n      swap1\n      tag_90\n      jump\t// in\n    tag_89:\n      pop\n      0x40\n      dup3\n      add\n      mload\n      dup2\n      0x02\n      add\n      sstore\n      swap1\n      pop\n      pop\n        /* \"tipjar.sol\":3020:3033  indexToDelete */\n      dup4\n        /* \"tipjar.sol\":2976:2989  waitressIndex */\n      0x04\n        /* \"tipjar.sol\":2976:3017  waitressIndex[lastWaitress.walletAddress] */\n      0x00\n        /* \"tipjar.sol\":2990:3002  lastWaitress */\n      dup4\n        /* \"tipjar.sol\":2990:3016  lastWaitress.walletAddress */\n      0x00\n      add\n      mload\n        /* \"tipjar.sol\":2976:3017  waitressIndex[lastWaitress.walletAddress] */\n      0xffffffffffffffffffffffffffffffffffffffff\n      and\n      0xffffffffffffffffffffffffffffffffffffffff\n      and\n      dup2\n      mstore\n      0x20\n      add\n      swap1\n      dup2\n      mstore\n      0x20\n      add\n      0x00\n      keccak256\n        /* \"tipjar.sol\":2976:3033  waitressIndex[lastWaitress.walletAddress] = indexToDelete */\n      dup2\n      swap1\n      sstore\n      pop\n        /* \"tipjar.sol\":3079:3089  waitresses */\n      0x02\n        /* \"tipjar.sol\":3079:3095  waitresses.pop() */\n      dup1\n      sload\n      dup1\n      tag_91\n      jumpi\n      tag_92\n      tag_93\n      jump\t// in\n    tag_92:\n    tag_91:\n      0x01\n      swap1\n      sub\n      dup2\n      dup2\n      swap1\n      0x00\n      mstore\n      keccak256(0x00, 0x20)\n      swap1\n      0x03\n      mul\n      add\n      0x00\n      0x00\n      dup3\n      add\n      exp(0x0100, 0x00)\n      dup2\n      sload\n      swap1\n      0xffffffffffffffffffffffffffffffffffffffff\n      mul\n      not\n      and\n      swap1\n      sstore\n      0x01\n      dup3\n      add\n      0x00\n      tag_95\n      swap2\n      swap1\n      tag_96\n      jump\t// in\n    tag_95:\n      0x02\n      dup3\n      add\n      0x00\n      swap1\n      sstore\n      pop\n      pop\n      swap1\n      sstore\n        /* \"tipjar.sol\":3141:3151  isWaitress */\n      0x03\n        /* \"tipjar.sol\":3141:3167  isWaitress[_walletAddress] */\n      0x00\n        /* \"tipjar.sol\":3152:3166  _walletAddress */\n      dup7\n        /* \"tipjar.sol\":3141:3167  isWaitress[_walletAddress] */\n      0xffffffffffffffffffffffffffffffffffffffff\n      and\n      0xffffffffffffffffffffffffffffffffffffffff\n      and\n      dup2\n      mstore\n      0x20\n      add\n      swap1\n      dup2\n      mstore\n      0x20\n      add\n      0x00\n      keccak256\n      0x00\n        /* \"tipjar.sol\":3134:3167  delete isWaitress[_walletAddress] */\n      0x0100\n      exp\n      dup2\n      sload\n      swap1\n      0xff\n      mul\n      not\n      and\n      swap1\n      sstore\n        /* \"tipjar.sol\":3184:3197  waitressIndex */\n      0x04\n        /* \"tipjar.sol\":3184:3213  waitressIndex[_walletAddress] */\n      0x00\n        /* \"tipjar.sol\":3198:3212  _walletAddress */\n      dup7\n        /* \"tipjar.sol\":3184:3213  waitressIndex[_walletAddress] */\n      0xffffffffffffffffffffffffffffffffffffffff\n      and\n      0xffffffffffffffffffffffffffffffffffffffff\n      and\n      dup2\n      mstore\n      0x20\n      add\n      swap1\n      dup2\n      mstore\n      0x20\n      add\n      0x00\n      keccak256\n        /* \"tipjar.sol\":3177:3213  delete waitressIndex[_walletAddress] */\n      0x00\n      swap1\n      sstore\n        /* \"tipjar.sol\":3245:3259  _walletAddress */\n      dup5\n        /* \"tipjar.sol\":3229:3260  WaitressRemoved(_walletAddress) */\n      0xffffffffffffffffffffffffffffffffffffffff\n      and\n      0xaa8a2cde35658a953f9046664110aeda782ed3f853f2c4402a374355d331cc92\n      mload(0x40)\n      mload(0x40)\n      dup1\n      swap2\n      sub\n      swap1\n      log2\n        /* \"tipjar.sol\":2350:3267  {... */\n      pop\n      pop\n      pop\n      pop\n        /* \"tipjar.sol\":2285:3267  function removeWaitress(address _walletAddress) public onlyOwner {... */\n      pop\n      jump\t// out\n        /* \"tipjar.sol\":110:136  uint256 public totalShares */\n    tag_25:\n      sload(0x01)\n      dup2\n      jump\t// out\n        /* \"tipjar.sol\":1018:1167  function addtips() public payable {... */\n    tag_28:\n        /* \"tipjar.sol\":1082:1083  0 */\n      0x00\n        /* \"tipjar.sol\":1070:1079  msg.value */\n      callvalue\n        /* \"tipjar.sol\":1070:1083  msg.value > 0 */\n      gt\n        /* \"tipjar.sol\":1062:1114  require(msg.value > 0, \"Tip must be greater than 0\") */\n      tag_98\n      jumpi\n      mload(0x40)\n      0x08c379a000000000000000000000000000000000000000000000000000000000\n      dup2\n      mstore\n      0x04\n      add\n      tag_99\n      swap1\n      tag_100\n      jump\t// in\n    tag_99:\n      mload(0x40)\n      dup1\n      swap2\n      sub\n      swap1\n      revert\n    tag_98:\n        /* \"tipjar.sol\":1138:1148  msg.sender */\n      caller\n        /* \"tipjar.sol\":1129:1160  TipAdded(msg.sender, msg.value) */\n      0xffffffffffffffffffffffffffffffffffffffff\n      and\n      0xfcc53a89cbb091f0bda44f5b348eee98c73231f4ebc48f95bd3d4c1f79c4727a\n        /* \"tipjar.sol\":1150:1159  msg.value */\n      callvalue\n        /* \"tipjar.sol\":1129:1160  TipAdded(msg.sender, msg.value) */\n      mload(0x40)\n      tag_101\n      swap2\n      swap1\n      tag_17\n      jump\t// in\n    tag_101:\n      mload(0x40)\n      dup1\n      swap2\n      sub\n      swap1\n      log2\n        /* \"tipjar.sol\":1018:1167  function addtips() public payable {... */\n      jump\t// out\n        /* \"tipjar.sol\":3309:4230  function distributeBalance() public onlyOwner {... */\n    tag_31:\n        /* \"tipjar.sol\":928:933  owner */\n      0x00\n      0x00\n      swap1\n      sload\n      swap1\n      0x0100\n      exp\n      swap1\n      div\n      0xffffffffffffffffffffffffffffffffffffffff\n      and\n        /* \"tipjar.sol\":914:933  msg.sender == owner */\n      0xffffffffffffffffffffffffffffffffffffffff\n      and\n        /* \"tipjar.sol\":914:924  msg.sender */\n      caller\n        /* \"tipjar.sol\":914:933  msg.sender == owner */\n      0xffffffffffffffffffffffffffffffffffffffff\n      and\n      eq\n        /* \"tipjar.sol\":906:957  require(msg.sender == owner, \"Only owner can call\") */\n      tag_103\n      jumpi\n      mload(0x40)\n      0x08c379a000000000000000000000000000000000000000000000000000000000\n      dup2\n      mstore\n      0x04\n      add\n      tag_104\n      swap1\n      tag_64\n      jump\t// in\n    tag_104:\n      mload(0x40)\n      dup1\n      swap2\n      sub\n      swap1\n      revert\n    tag_103:\n        /* \"tipjar.sol\":3365:3387  uint256 currentBalance */\n      0x00\n        /* \"tipjar.sol\":3390:3411  address(this).balance */\n      selfbalance\n        /* \"tipjar.sol\":3365:3411  uint256 currentBalance = address(this).balance */\n      swap1\n      pop\n        /* \"tipjar.sol\":3446:3447  0 */\n      0x00\n        /* \"tipjar.sol\":3429:3443  currentBalance */\n      dup2\n        /* \"tipjar.sol\":3429:3447  currentBalance > 0 */\n      gt\n        /* \"tipjar.sol\":3421:3474  require(currentBalance > 0, \"No Money to distribute\") */\n      tag_106\n      jumpi\n      mload(0x40)\n      0x08c379a000000000000000000000000000000000000000000000000000000000\n      dup2\n      mstore\n      0x04\n      add\n      tag_107\n      swap1\n      tag_108\n      jump\t// in\n    tag_107:\n      mload(0x40)\n      dup1\n      swap2\n      sub\n      swap1\n      revert\n    tag_106:\n        /* \"tipjar.sol\":3512:3513  0 */\n      0x00\n        /* \"tipjar.sol\":3492:3502  waitresses */\n      0x02\n        /* \"tipjar.sol\":3492:3509  waitresses.length */\n      dup1\n      sload\n      swap1\n      pop\n        /* \"tipjar.sol\":3492:3513  waitresses.length > 0 */\n      gt\n        /* \"tipjar.sol\":3484:3538  require(waitresses.length > 0, \"No waitresses to pay\") */\n      tag_109\n      jumpi\n      mload(0x40)\n      0x08c379a000000000000000000000000000000000000000000000000000000000\n      dup2\n      mstore\n      0x04\n      add\n      tag_110\n      swap1\n      tag_111\n      jump\t// in\n    tag_110:\n      mload(0x40)\n      dup1\n      swap2\n      sub\n      swap1\n      revert\n    tag_109:\n        /* \"tipjar.sol\":3720:3729  uint256 i */\n      0x00\n        /* \"tipjar.sol\":3732:3733  0 */\n      0x00\n        /* \"tipjar.sol\":3720:3733  uint256 i = 0 */\n      swap1\n      pop\n        /* \"tipjar.sol\":3715:4160  for (uint256 i = 0; i < waitresses.length; i++) {... */\n    tag_112:\n        /* \"tipjar.sol\":3739:3749  waitresses */\n      0x02\n        /* \"tipjar.sol\":3739:3756  waitresses.length */\n      dup1\n      sload\n      swap1\n      pop\n        /* \"tipjar.sol\":3735:3736  i */\n      dup2\n        /* \"tipjar.sol\":3735:3756  i < waitresses.length */\n      lt\n        /* \"tipjar.sol\":3715:4160  for (uint256 i = 0; i < waitresses.length; i++) {... */\n      iszero\n      tag_113\n      jumpi\n        /* \"tipjar.sol\":3926:3950  uint256 distributeAmount */\n      0x00\n        /* \"tipjar.sol\":4012:4015  100 */\n      0x64\n        /* \"tipjar.sol\":3987:3997  waitresses */\n      0x02\n        /* \"tipjar.sol\":3998:3999  i */\n      dup4\n        /* \"tipjar.sol\":3987:4000  waitresses[i] */\n      dup2\n      sload\n      dup2\n      lt\n      tag_115\n      jumpi\n      tag_116\n      tag_71\n      jump\t// in\n    tag_116:\n    tag_115:\n      swap1\n      0x00\n      mstore\n      keccak256(0x00, 0x20)\n      swap1\n      0x03\n      mul\n      add\n        /* \"tipjar.sol\":3987:4008  waitresses[i].percent */\n      0x02\n      add\n      sload\n        /* \"tipjar.sol\":3954:3968  currentBalance */\n      dup5\n        /* \"tipjar.sol\":3954:4008  currentBalance *... */\n      tag_118\n      swap2\n      swap1\n      tag_119\n      jump\t// in\n    tag_118:\n        /* \"tipjar.sol\":3953:4015  (currentBalance *... */\n      tag_120\n      swap2\n      swap1\n      tag_121\n      jump\t// in\n    tag_120:\n        /* \"tipjar.sol\":3926:4015  uint256 distributeAmount = (currentBalance *... */\n      swap1\n      pop\n        /* \"tipjar.sol\":4053:4054  0 */\n      0x00\n        /* \"tipjar.sol\":4034:4050  distributeAmount */\n      dup2\n        /* \"tipjar.sol\":4034:4054  distributeAmount > 0 */\n      gt\n        /* \"tipjar.sol\":4030:4150  if (distributeAmount > 0) {... */\n      iszero\n      tag_122\n      jumpi\n        /* \"tipjar.sol\":4074:4135  _transferFunds(waitresses[i].walletAddress, distributeAmount) */\n      tag_123\n        /* \"tipjar.sol\":4089:4099  waitresses */\n      0x02\n        /* \"tipjar.sol\":4100:4101  i */\n      dup4\n        /* \"tipjar.sol\":4089:4102  waitresses[i] */\n      dup2\n      sload\n      dup2\n      lt\n      tag_124\n      jumpi\n      tag_125\n      tag_71\n      jump\t// in\n    tag_125:\n    tag_124:\n      swap1\n      0x00\n      mstore\n      keccak256(0x00, 0x20)\n      swap1\n      0x03\n      mul\n      add\n        /* \"tipjar.sol\":4089:4116  waitresses[i].walletAddress */\n      0x00\n      add\n      0x00\n      swap1\n      sload\n      swap1\n      0x0100\n      exp\n      swap1\n      div\n      0xffffffffffffffffffffffffffffffffffffffff\n      and\n        /* \"tipjar.sol\":4118:4134  distributeAmount */\n      dup3\n        /* \"tipjar.sol\":4074:4088  _transferFunds */\n      tag_127\n        /* \"tipjar.sol\":4074:4135  _transferFunds(waitresses[i].walletAddress, distributeAmount) */\n      jump\t// in\n    tag_123:\n        /* \"tipjar.sol\":4030:4150  if (distributeAmount > 0) {... */\n    tag_122:\n        /* \"tipjar.sol\":3763:4160  {... */\n      pop\n        /* \"tipjar.sol\":3758:3761  i++ */\n      dup1\n      dup1\n      0x01\n      add\n      swap2\n      pop\n      pop\n        /* \"tipjar.sol\":3715:4160  for (uint256 i = 0; i < waitresses.length; i++) {... */\n      jump(tag_112)\n    tag_113:\n      pop\n        /* \"tipjar.sol\":4175:4223  TipsDistributed(currentBalance, block.timestamp) */\n      0xe61fbbcbb80212a215ddab6c39a899bc47d7b2d8ff904edb54864650d368aa80\n        /* \"tipjar.sol\":4191:4205  currentBalance */\n      dup2\n        /* \"tipjar.sol\":4207:4222  block.timestamp */\n      timestamp\n        /* \"tipjar.sol\":4175:4223  TipsDistributed(currentBalance, block.timestamp) */\n      mload(0x40)\n      tag_128\n      swap3\n      swap2\n      swap1\n      tag_129\n      jump\t// in\n    tag_128:\n      mload(0x40)\n      dup1\n      swap2\n      sub\n      swap1\n      log1\n        /* \"tipjar.sol\":3355:4230  {... */\n      pop\n        /* \"tipjar.sol\":3309:4230  function distributeBalance() public onlyOwner {... */\n      jump\t// out\n        /* \"tipjar.sol\":429:471  mapping(address => bool) public isWaitress */\n    tag_35:\n      mstore(0x20, 0x03)\n      dup1\n      0x00\n      mstore\n      keccak256(0x00, 0x40)\n      0x00\n      swap2\n      pop\n      sload\n      swap1\n      0x0100\n      exp\n      swap1\n      div\n      0xff\n      and\n      dup2\n      jump\t// out\n        /* \"tipjar.sol\":84:104  address public owner */\n    tag_40:\n      0x00\n      0x00\n      swap1\n      sload\n      swap1\n      0x0100\n      exp\n      swap1\n      div\n      0xffffffffffffffffffffffffffffffffffffffff\n      and\n      dup2\n      jump\t// out\n        /* \"tipjar.sol\":1476:2253  function addWaitress(... */\n    tag_47:\n        /* \"tipjar.sol\":928:933  owner */\n      0x00\n      0x00\n      swap1\n      sload\n      swap1\n      0x0100\n      exp\n      swap1\n      div\n      0xffffffffffffffffffffffffffffffffffffffff\n      and\n        /* \"tipjar.sol\":914:933  msg.sender == owner */\n      0xffffffffffffffffffffffffffffffffffffffff\n      and\n        /* \"tipjar.sol\":914:924  msg.sender */\n      caller\n        /* \"tipjar.sol\":914:933  msg.sender == owner */\n      0xffffffffffffffffffffffffffffffffffffffff\n      and\n      eq\n        /* \"tipjar.sol\":906:957  require(msg.sender == owner, \"Only owner can call\") */\n      tag_131\n      jumpi\n      mload(0x40)\n      0x08c379a000000000000000000000000000000000000000000000000000000000\n      dup2\n      mstore\n      0x04\n      add\n      tag_132\n      swap1\n      tag_64\n      jump\t// in\n    tag_132:\n      mload(0x40)\n      dup1\n      swap2\n      sub\n      swap1\n      revert\n    tag_131:\n        /* \"tipjar.sol\":1659:1660  0 */\n      0x00\n        /* \"tipjar.sol\":1633:1661  _walletAddress != address(0) */\n      0xffffffffffffffffffffffffffffffffffffffff\n      and\n        /* \"tipjar.sol\":1633:1647  _walletAddress */\n      dup4\n        /* \"tipjar.sol\":1633:1661  _walletAddress != address(0) */\n      0xffffffffffffffffffffffffffffffffffffffff\n      and\n      sub\n        /* \"tipjar.sol\":1625:1681  require(_walletAddress != address(0), \"Invalid address\") */\n      tag_134\n      jumpi\n      mload(0x40)\n      0x08c379a000000000000000000000000000000000000000000000000000000000\n      dup2\n      mstore\n      0x04\n      add\n      tag_135\n      swap1\n      tag_136\n      jump\t// in\n    tag_135:\n      mload(0x40)\n      dup1\n      swap2\n      sub\n      swap1\n      revert\n    tag_134:\n        /* \"tipjar.sol\":1710:1711  0 */\n      0x00\n        /* \"tipjar.sol\":1699:1707  _percent */\n      dup2\n        /* \"tipjar.sol\":1699:1711  _percent > 0 */\n      gt\n        /* \"tipjar.sol\":1691:1735  require(_percent > 0, \"Percent must be > 0\") */\n      tag_137\n      jumpi\n      mload(0x40)\n      0x08c379a000000000000000000000000000000000000000000000000000000000\n      dup2\n      mstore\n      0x04\n      add\n      tag_138\n      swap1\n      tag_139\n      jump\t// in\n    tag_138:\n      mload(0x40)\n      dup1\n      swap2\n      sub\n      swap1\n      revert\n    tag_137:\n        /* \"tipjar.sol\":1754:1764  isWaitress */\n      0x03\n        /* \"tipjar.sol\":1754:1780  isWaitress[_walletAddress] */\n      0x00\n        /* \"tipjar.sol\":1765:1779  _walletAddress */\n      dup5\n        /* \"tipjar.sol\":1754:1780  isWaitress[_walletAddress] */\n      0xffffffffffffffffffffffffffffffffffffffff\n      and\n      0xffffffffffffffffffffffffffffffffffffffff\n      and\n      dup2\n      mstore\n      0x20\n      add\n      swap1\n      dup2\n      mstore\n      0x20\n      add\n      0x00\n      keccak256\n      0x00\n      swap1\n      sload\n      swap1\n      0x0100\n      exp\n      swap1\n      div\n      0xff\n      and\n        /* \"tipjar.sol\":1753:1780  !isWaitress[_walletAddress] */\n      iszero\n        /* \"tipjar.sol\":1745:1808  require(!isWaitress[_walletAddress], \"Waitress already exists\") */\n      tag_140\n      jumpi\n      mload(0x40)\n      0x08c379a000000000000000000000000000000000000000000000000000000000\n      dup2\n      mstore\n      0x04\n      add\n      tag_141\n      swap1\n      tag_142\n      jump\t// in\n    tag_141:\n      mload(0x40)\n      dup1\n      swap2\n      sub\n      swap1\n      revert\n    tag_140:\n        /* \"tipjar.sol\":1915:1918  100 */\n      0x64\n        /* \"tipjar.sol\":1903:1911  _percent */\n      dup2\n        /* \"tipjar.sol\":1889:1900  totalShares */\n      sload(0x01)\n        /* \"tipjar.sol\":1889:1911  totalShares + _percent */\n      tag_143\n      swap2\n      swap1\n      tag_144\n      jump\t// in\n    tag_143:\n        /* \"tipjar.sol\":1889:1918  totalShares + _percent <= 100 */\n      gt\n      iszero\n        /* \"tipjar.sol\":1868:1975  require(... */\n      tag_145\n      jumpi\n      mload(0x40)\n      0x08c379a000000000000000000000000000000000000000000000000000000000\n      dup2\n      mstore\n      0x04\n      add\n      tag_146\n      swap1\n      tag_147\n      jump\t// in\n    tag_146:\n      mload(0x40)\n      dup1\n      swap2\n      sub\n      swap1\n      revert\n    tag_145:\n        /* \"tipjar.sol\":1986:1996  waitresses */\n      0x02\n        /* \"tipjar.sol\":2002:2043  Waitress(_walletAddress, _name, _percent) */\n      mload(0x40)\n      dup1\n      0x60\n      add\n      0x40\n      mstore\n      dup1\n        /* \"tipjar.sol\":2011:2025  _walletAddress */\n      dup6\n        /* \"tipjar.sol\":2002:2043  Waitress(_walletAddress, _name, _percent) */\n      0xffffffffffffffffffffffffffffffffffffffff\n      and\n      dup2\n      mstore\n      0x20\n      add\n        /* \"tipjar.sol\":2027:2032  _name */\n      dup5\n        /* \"tipjar.sol\":2002:2043  Waitress(_walletAddress, _name, _percent) */\n      dup2\n      mstore\n      0x20\n      add\n        /* \"tipjar.sol\":2034:2042  _percent */\n      dup4\n        /* \"tipjar.sol\":2002:2043  Waitress(_walletAddress, _name, _percent) */\n      dup2\n      mstore\n      pop\n        /* \"tipjar.sol\":1986:2044  waitresses.push(Waitress(_walletAddress, _name, _percent)) */\n      swap1\n      dup1\n      0x01\n      dup2\n      sload\n      add\n      dup1\n      dup3\n      sstore\n      dup1\n      swap2\n      pop\n      pop\n      0x01\n      swap1\n      sub\n      swap1\n      0x00\n      mstore\n      keccak256(0x00, 0x20)\n      swap1\n      0x03\n      mul\n      add\n      0x00\n      swap1\n      swap2\n      swap1\n      swap2\n      swap1\n      swap2\n      pop\n      0x00\n      dup3\n      add\n      mload\n      dup2\n      0x00\n      add\n      exp(0x0100, 0x00)\n      dup2\n      sload\n      dup2\n      0xffffffffffffffffffffffffffffffffffffffff\n      mul\n      not\n      and\n      swap1\n      dup4\n      0xffffffffffffffffffffffffffffffffffffffff\n      and\n      mul\n      or\n      swap1\n      sstore\n      pop\n      0x20\n      dup3\n      add\n      mload\n      dup2\n      0x01\n      add\n      swap1\n      dup2\n      tag_149\n      swap2\n      swap1\n      tag_90\n      jump\t// in\n    tag_149:\n      pop\n      0x40\n      dup3\n      add\n      mload\n      dup2\n      0x02\n      add\n      sstore\n      pop\n      pop\n        /* \"tipjar.sol\":2083:2087  true */\n      0x01\n        /* \"tipjar.sol\":2054:2064  isWaitress */\n      0x03\n        /* \"tipjar.sol\":2054:2080  isWaitress[_walletAddress] */\n      0x00\n        /* \"tipjar.sol\":2065:2079  _walletAddress */\n      dup6\n        /* \"tipjar.sol\":2054:2080  isWaitress[_walletAddress] */\n      0xffffffffffffffffffffffffffffffffffffffff\n      and\n      0xffffffffffffffffffffffffffffffffffffffff\n      and\n      dup2\n      mstore\n      0x20\n      add\n      swap1\n      dup2\n      mstore\n      0x20\n      add\n      0x00\n      keccak256\n      0x00\n        /* \"tipjar.sol\":2054:2087  isWaitress[_walletAddress] = true */\n      0x0100\n      exp\n      dup2\n      sload\n      dup2\n      0xff\n      mul\n      not\n      and\n      swap1\n      dup4\n      iszero\n      iszero\n      mul\n      or\n      swap1\n      sstore\n      pop\n        /* \"tipjar.sol\":2149:2150  1 */\n      0x01\n        /* \"tipjar.sol\":2129:2139  waitresses */\n      0x02\n        /* \"tipjar.sol\":2129:2146  waitresses.length */\n      dup1\n      sload\n      swap1\n      pop\n        /* \"tipjar.sol\":2129:2150  waitresses.length - 1 */\n      tag_150\n      swap2\n      swap1\n      tag_75\n      jump\t// in\n    tag_150:\n        /* \"tipjar.sol\":2097:2110  waitressIndex */\n      0x04\n        /* \"tipjar.sol\":2097:2126  waitressIndex[_walletAddress] */\n      0x00\n        /* \"tipjar.sol\":2111:2125  _walletAddress */\n      dup6\n        /* \"tipjar.sol\":2097:2126  waitressIndex[_walletAddress] */\n      0xffffffffffffffffffffffffffffffffffffffff\n      and\n      0xffffffffffffffffffffffffffffffffffffffff\n      and\n      dup2\n      mstore\n      0x20\n      add\n      swap1\n      dup2\n      mstore\n      0x20\n      add\n      0x00\n      keccak256\n        /* \"tipjar.sol\":2097:2150  waitressIndex[_walletAddress] = waitresses.length - 1 */\n      dup2\n      swap1\n      sstore\n      pop\n        /* \"tipjar.sol\":2176:2184  _percent */\n      dup1\n        /* \"tipjar.sol\":2161:2172  totalShares */\n      0x01\n      0x00\n        /* \"tipjar.sol\":2161:2184  totalShares += _percent */\n      dup3\n      dup3\n      sload\n      tag_151\n      swap2\n      swap1\n      tag_144\n      jump\t// in\n    tag_151:\n      swap3\n      pop\n      pop\n      dup2\n      swap1\n      sstore\n      pop\n        /* \"tipjar.sol\":2214:2228  _walletAddress */\n      dup3\n        /* \"tipjar.sol\":2200:2246  WaitressAdded(_walletAddress, _name, _percent) */\n      0xffffffffffffffffffffffffffffffffffffffff\n      and\n      0x5da355631bc21e0e9851931f277f2dcb08de611f14d70eca9b0b7274a861377a\n        /* \"tipjar.sol\":2230:2235  _name */\n      dup4\n        /* \"tipjar.sol\":2237:2245  _percent */\n      dup4\n        /* \"tipjar.sol\":2200:2246  WaitressAdded(_walletAddress, _name, _percent) */\n      mload(0x40)\n      tag_152\n      swap3\n      swap2\n      swap1\n      tag_153\n      jump\t// in\n    tag_152:\n      mload(0x40)\n      dup1\n      swap2\n      sub\n      swap1\n      log2\n        /* \"tipjar.sol\":1476:2253  function addWaitress(... */\n      pop\n      pop\n      pop\n      jump\t// out\n        /* \"tipjar.sol\":350:378  Waitress[] public waitresses */\n    tag_52:\n      0x02\n      dup2\n      dup2\n      sload\n      dup2\n      lt\n      tag_154\n      jumpi\n      0x00\n      dup1\n      revert\n    tag_154:\n      swap1\n      0x00\n      mstore\n      keccak256(0x00, 0x20)\n      swap1\n      0x03\n      mul\n      add\n      0x00\n      swap2\n      pop\n      swap1\n      pop\n      dup1\n      0x00\n      add\n      0x00\n      swap1\n      sload\n      swap1\n      0x0100\n      exp\n      swap1\n      div\n      0xffffffffffffffffffffffffffffffffffffffff\n      and\n      swap1\n      dup1\n      0x01\n      add\n      dup1\n      sload\n      tag_156\n      swap1\n      tag_81\n      jump\t// in\n    tag_156:\n      dup1\n      0x1f\n      add\n      0x20\n      dup1\n      swap2\n      div\n      mul\n      0x20\n      add\n      mload(0x40)\n      swap1\n      dup2\n      add\n      0x40\n      mstore\n      dup1\n      swap3\n      swap2\n      swap1\n      dup2\n      dup2\n      mstore\n      0x20\n      add\n      dup3\n      dup1\n      sload\n      tag_157\n      swap1\n      tag_81\n      jump\t// in\n    tag_157:\n      dup1\n      iszero\n      tag_158\n      jumpi\n      dup1\n      0x1f\n      lt\n      tag_159\n      jumpi\n      0x0100\n      dup1\n      dup4\n      sload\n      div\n      mul\n      dup4\n      mstore\n      swap2\n      0x20\n      add\n      swap2\n      jump(tag_158)\n    tag_159:\n      dup3\n      add\n      swap2\n      swap1\n      0x00\n      mstore\n      keccak256(0x00, 0x20)\n      swap1\n    tag_160:\n      dup2\n      sload\n      dup2\n      mstore\n      swap1\n      0x01\n      add\n      swap1\n      0x20\n      add\n      dup1\n      dup4\n      gt\n      tag_160\n      jumpi\n      dup3\n      swap1\n      sub\n      0x1f\n      and\n      dup3\n      add\n      swap2\n    tag_158:\n      pop\n      pop\n      pop\n      pop\n      pop\n      swap1\n      dup1\n      0x02\n      add\n      sload\n      swap1\n      pop\n      dup4\n      jump\t// out\n        /* \"tipjar.sol\":1327:1425  function viewWaitress() public view returns (Waitress[] memory) {... */\n    tag_57:\n        /* \"tipjar.sol\":1372:1389  Waitress[] memory */\n      0x60\n        /* \"tipjar.sol\":1408:1418  waitresses */\n      0x02\n        /* \"tipjar.sol\":1401:1418  return waitresses */\n      dup1\n      sload\n      dup1\n      0x20\n      mul\n      0x20\n      add\n      mload(0x40)\n      swap1\n      dup2\n      add\n      0x40\n      mstore\n      dup1\n      swap3\n      swap2\n      swap1\n      dup2\n      dup2\n      mstore\n      0x20\n      add\n      0x00\n      swap1\n    tag_162:\n      dup3\n      dup3\n      lt\n      iszero\n      tag_163\n      jumpi\n      dup4\n      dup3\n      swap1\n      0x00\n      mstore\n      keccak256(0x00, 0x20)\n      swap1\n      0x03\n      mul\n      add\n      mload(0x40)\n      dup1\n      0x60\n      add\n      0x40\n      mstore\n      swap1\n      dup2\n      0x00\n      dup3\n      add\n      0x00\n      swap1\n      sload\n      swap1\n      0x0100\n      exp\n      swap1\n      div\n      0xffffffffffffffffffffffffffffffffffffffff\n      and\n      0xffffffffffffffffffffffffffffffffffffffff\n      and\n      0xffffffffffffffffffffffffffffffffffffffff\n      and\n      dup2\n      mstore\n      0x20\n      add\n      0x01\n      dup3\n      add\n      dup1\n      sload\n      tag_165\n      swap1\n      tag_81\n      jump\t// in\n    tag_165:\n      dup1\n      0x1f\n      add\n      0x20\n      dup1\n      swap2\n      div\n      mul\n      0x20\n      add\n      mload(0x40)\n      swap1\n      dup2\n      add\n      0x40\n      mstore\n      dup1\n      swap3\n      swap2\n      swap1\n      dup2\n      dup2\n      mstore\n      0x20\n      add\n      dup3\n      dup1\n      sload\n      tag_166\n      swap1\n      tag_81\n      jump\t// in\n    tag_166:\n      dup1\n      iszero\n      tag_167\n      jumpi\n      dup1\n      0x1f\n      lt\n      tag_168\n      jumpi\n      0x0100\n      dup1\n      dup4\n      sload\n      div\n      mul\n      dup4\n      mstore\n      swap2\n      0x20\n      add\n      swap2\n      jump(tag_167)\n    tag_168:\n      dup3\n      add\n      swap2\n      swap1\n      0x00\n      mstore\n      keccak256(0x00, 0x20)\n      swap1\n    tag_169:\n      dup2\n      sload\n      dup2\n      mstore\n      swap1\n      0x01\n      add\n      swap1\n      0x20\n      add\n      dup1\n      dup4\n      gt\n      tag_169\n      jumpi\n      dup3\n      swap1\n      sub\n      0x1f\n      and\n      dup3\n      add\n      swap2\n    tag_167:\n      pop\n      pop\n      pop\n      pop\n      pop\n      dup2\n      mstore\n      0x20\n      add\n      0x02\n      dup3\n      add\n      sload\n      dup2\n      mstore\n      pop\n      pop\n      dup2\n      mstore\n      0x20\n      add\n      swap1\n      0x01\n      add\n      swap1\n      jump(tag_162)\n    tag_163:\n      pop\n      pop\n      pop\n      pop\n      swap1\n      pop\n        /* \"tipjar.sol\":1327:1425  function viewWaitress() public view returns (Waitress[] memory) {... */\n      swap1\n      jump\t// out\n        /* \"tipjar.sol\":4236:4449  function _transferFunds(... */\n    tag_127:\n        /* \"tipjar.sol\":4345:4357  bool success */\n      0x00\n        /* \"tipjar.sol\":4363:4372  recipient */\n      dup3\n        /* \"tipjar.sol\":4363:4377  recipient.call */\n      0xffffffffffffffffffffffffffffffffffffffff\n      and\n        /* \"tipjar.sol\":4385:4391  amount */\n      dup3\n        /* \"tipjar.sol\":4363:4396  recipient.call{value: amount}(\"\") */\n      mload(0x40)\n      tag_171\n      swap1\n      tag_172\n      jump\t// in\n    tag_171:\n      0x00\n      mload(0x40)\n      dup1\n      dup4\n      sub\n      dup2\n      dup6\n      dup8\n      gas\n      call\n      swap3\n      pop\n      pop\n      pop\n      returndatasize\n      dup1\n      0x00\n      dup2\n      eq\n      tag_175\n      jumpi\n      mload(0x40)\n      swap2\n      pop\n      and(add(returndatasize, 0x3f), not(0x1f))\n      dup3\n      add\n      0x40\n      mstore\n      returndatasize\n      dup3\n      mstore\n      returndatasize\n      0x00\n      0x20\n      dup5\n      add\n      returndatacopy\n      jump(tag_174)\n    tag_175:\n      0x60\n      swap2\n      pop\n    tag_174:\n      pop\n        /* \"tipjar.sol\":4344:4396  (bool success, ) = recipient.call{value: amount}(\"\") */\n      pop\n      swap1\n      pop\n        /* \"tipjar.sol\":4414:4421  success */\n      dup1\n        /* \"tipjar.sol\":4406:4442  require(success, \"Transfer failed.\") */\n      tag_176\n      jumpi\n      mload(0x40)\n      0x08c379a000000000000000000000000000000000000000000000000000000000\n      dup2\n      mstore\n      0x04\n      add\n      tag_177\n      swap1\n      tag_178\n      jump\t// in\n    tag_177:\n      mload(0x40)\n      dup1\n      swap2\n      sub\n      swap1\n      revert\n    tag_176:\n        /* \"tipjar.sol\":4334:4449  {... */\n      pop\n        /* \"tipjar.sol\":4236:4449  function _transferFunds(... */\n      pop\n      pop\n      jump\t// out\n    tag_96:\n      pop\n      dup1\n      sload\n      tag_179\n      swap1\n      tag_81\n      jump\t// in\n    tag_179:\n      0x00\n      dup3\n      sstore\n      dup1\n      0x1f\n      lt\n      tag_181\n      jumpi\n      pop\n      jump(tag_180)\n    tag_181:\n      0x1f\n      add\n      0x20\n      swap1\n      div\n      swap1\n      0x00\n      mstore\n      keccak256(0x00, 0x20)\n      swap1\n      dup2\n      add\n      swap1\n      tag_182\n      swap2\n      swap1\n      tag_183\n      jump\t// in\n    tag_182:\n    tag_180:\n      pop\n      jump\t// out\n    tag_183:\n    tag_184:\n      dup1\n      dup3\n      gt\n      iszero\n      tag_185\n      jumpi\n      0x00\n      dup2\n      0x00\n      swap1\n      sstore\n      pop\n      0x01\n      add\n      jump(tag_184)\n    tag_185:\n      pop\n      swap1\n      jump\t// out\n        /* \"#utility.yul\":7:84   */\n    tag_186:\n        /* \"#utility.yul\":44:51   */\n      0x00\n        /* \"#utility.yul\":73:78   */\n      dup2\n        /* \"#utility.yul\":62:78   */\n      swap1\n      pop\n        /* \"#utility.yul\":7:84   */\n      swap2\n      swap1\n      pop\n      jump\t// out\n        /* \"#utility.yul\":90:208   */\n    tag_187:\n        /* \"#utility.yul\":177:201   */\n      tag_273\n        /* \"#utility.yul\":195:200   */\n      dup2\n        /* \"#utility.yul\":177:201   */\n      tag_186\n      jump\t// in\n    tag_273:\n        /* \"#utility.yul\":172:175   */\n      dup3\n        /* \"#utility.yul\":165:202   */\n      mstore\n        /* \"#utility.yul\":90:208   */\n      pop\n      pop\n      jump\t// out\n        /* \"#utility.yul\":214:436   */\n    tag_17:\n        /* \"#utility.yul\":307:311   */\n      0x00\n        /* \"#utility.yul\":345:347   */\n      0x20\n        /* \"#utility.yul\":334:343   */\n      dup3\n        /* \"#utility.yul\":330:348   */\n      add\n        /* \"#utility.yul\":322:348   */\n      swap1\n      pop\n        /* \"#utility.yul\":358:429   */\n      tag_275\n        /* \"#utility.yul\":426:427   */\n      0x00\n        /* \"#utility.yul\":415:424   */\n      dup4\n        /* \"#utility.yul\":411:428   */\n      add\n        /* \"#utility.yul\":402:408   */\n      dup5\n        /* \"#utility.yul\":358:429   */\n      tag_187\n      jump\t// in\n    tag_275:\n        /* \"#utility.yul\":214:436   */\n      swap3\n      swap2\n      pop\n      pop\n      jump\t// out\n        /* \"#utility.yul\":442:517   */\n    tag_188:\n        /* \"#utility.yul\":475:481   */\n      0x00\n        /* \"#utility.yul\":508:510   */\n      0x40\n        /* \"#utility.yul\":502:511   */\n      mload\n        /* \"#utility.yul\":492:511   */\n      swap1\n      pop\n        /* \"#utility.yul\":442:517   */\n      swap1\n      jump\t// out\n        /* \"#utility.yul\":523:640   */\n    tag_189:\n        /* \"#utility.yul\":632:633   */\n      0x00\n        /* \"#utility.yul\":629:630   */\n      0x00\n        /* \"#utility.yul\":622:634   */\n      revert\n        /* \"#utility.yul\":646:763   */\n    tag_190:\n        /* \"#utility.yul\":755:756   */\n      0x00\n        /* \"#utility.yul\":752:753   */\n      0x00\n        /* \"#utility.yul\":745:757   */\n      revert\n        /* \"#utility.yul\":769:895   */\n    tag_191:\n        /* \"#utility.yul\":806:813   */\n      0x00\n        /* \"#utility.yul\":846:888   */\n      0xffffffffffffffffffffffffffffffffffffffff\n        /* \"#utility.yul\":839:844   */\n      dup3\n        /* \"#utility.yul\":835:889   */\n      and\n        /* \"#utility.yul\":824:889   */\n      swap1\n      pop\n        /* \"#utility.yul\":769:895   */\n      swap2\n      swap1\n      pop\n      jump\t// out\n        /* \"#utility.yul\":901:997   */\n    tag_192:\n        /* \"#utility.yul\":938:945   */\n      0x00\n        /* \"#utility.yul\":967:991   */\n      tag_281\n        /* \"#utility.yul\":985:990   */\n      dup3\n        /* \"#utility.yul\":967:991   */\n      tag_191\n      jump\t// in\n    tag_281:\n        /* \"#utility.yul\":956:991   */\n      swap1\n      pop\n        /* \"#utility.yul\":901:997   */\n      swap2\n      swap1\n      pop\n      jump\t// out\n        /* \"#utility.yul\":1003:1125   */\n    tag_193:\n        /* \"#utility.yul\":1076:1100   */\n      tag_283\n        /* \"#utility.yul\":1094:1099   */\n      dup2\n        /* \"#utility.yul\":1076:1100   */\n      tag_192\n      jump\t// in\n    tag_283:\n        /* \"#utility.yul\":1069:1074   */\n      dup2\n        /* \"#utility.yul\":1066:1101   */\n      eq\n        /* \"#utility.yul\":1056:1119   */\n      tag_284\n      jumpi\n        /* \"#utility.yul\":1115:1116   */\n      0x00\n        /* \"#utility.yul\":1112:1113   */\n      0x00\n        /* \"#utility.yul\":1105:1117   */\n      revert\n        /* \"#utility.yul\":1056:1119   */\n    tag_284:\n        /* \"#utility.yul\":1003:1125   */\n      pop\n      jump\t// out\n        /* \"#utility.yul\":1131:1270   */\n    tag_194:\n        /* \"#utility.yul\":1177:1182   */\n      0x00\n        /* \"#utility.yul\":1215:1221   */\n      dup2\n        /* \"#utility.yul\":1202:1222   */\n      calldataload\n        /* \"#utility.yul\":1193:1222   */\n      swap1\n      pop\n        /* \"#utility.yul\":1231:1264   */\n      tag_286\n        /* \"#utility.yul\":1258:1263   */\n      dup2\n        /* \"#utility.yul\":1231:1264   */\n      tag_193\n      jump\t// in\n    tag_286:\n        /* \"#utility.yul\":1131:1270   */\n      swap3\n      swap2\n      pop\n      pop\n      jump\t// out\n        /* \"#utility.yul\":1276:1605   */\n    tag_21:\n        /* \"#utility.yul\":1335:1341   */\n      0x00\n        /* \"#utility.yul\":1384:1386   */\n      0x20\n        /* \"#utility.yul\":1372:1381   */\n      dup3\n        /* \"#utility.yul\":1363:1370   */\n      dup5\n        /* \"#utility.yul\":1359:1382   */\n      sub\n        /* \"#utility.yul\":1355:1387   */\n      slt\n        /* \"#utility.yul\":1352:1471   */\n      iszero\n      tag_288\n      jumpi\n        /* \"#utility.yul\":1390:1469   */\n      tag_289\n      tag_189\n      jump\t// in\n    tag_289:\n        /* \"#utility.yul\":1352:1471   */\n    tag_288:\n        /* \"#utility.yul\":1510:1511   */\n      0x00\n        /* \"#utility.yul\":1535:1588   */\n      tag_290\n        /* \"#utility.yul\":1580:1587   */\n      dup5\n        /* \"#utility.yul\":1571:1577   */\n      dup3\n        /* \"#utility.yul\":1560:1569   */\n      dup6\n        /* \"#utility.yul\":1556:1578   */\n      add\n        /* \"#utility.yul\":1535:1588   */\n      tag_194\n      jump\t// in\n    tag_290:\n        /* \"#utility.yul\":1525:1588   */\n      swap2\n      pop\n        /* \"#utility.yul\":1481:1598   */\n      pop\n        /* \"#utility.yul\":1276:1605   */\n      swap3\n      swap2\n      pop\n      pop\n      jump\t// out\n        /* \"#utility.yul\":1611:1701   */\n    tag_195:\n        /* \"#utility.yul\":1645:1652   */\n      0x00\n        /* \"#utility.yul\":1688:1693   */\n      dup2\n        /* \"#utility.yul\":1681:1694   */\n      iszero\n        /* \"#utility.yul\":1674:1695   */\n      iszero\n        /* \"#utility.yul\":1663:1695   */\n      swap1\n      pop\n        /* \"#utility.yul\":1611:1701   */\n      swap2\n      swap1\n      pop\n      jump\t// out\n        /* \"#utility.yul\":1707:1816   */\n    tag_196:\n        /* \"#utility.yul\":1788:1809   */\n      tag_293\n        /* \"#utility.yul\":1803:1808   */\n      dup2\n        /* \"#utility.yul\":1788:1809   */\n      tag_195\n      jump\t// in\n    tag_293:\n        /* \"#utility.yul\":1783:1786   */\n      dup3\n        /* \"#utility.yul\":1776:1810   */\n      mstore\n        /* \"#utility.yul\":1707:1816   */\n      pop\n      pop\n      jump\t// out\n        /* \"#utility.yul\":1822:2032   */\n    tag_37:\n        /* \"#utility.yul\":1909:1913   */\n      0x00\n        /* \"#utility.yul\":1947:1949   */\n      0x20\n        /* \"#utility.yul\":1936:1945   */\n      dup3\n        /* \"#utility.yul\":1932:1950   */\n      add\n        /* \"#utility.yul\":1924:1950   */\n      swap1\n      pop\n        /* \"#utility.yul\":1960:2025   */\n      tag_295\n        /* \"#utility.yul\":2022:2023   */\n      0x00\n        /* \"#utility.yul\":2011:2020   */\n      dup4\n        /* \"#utility.yul\":2007:2024   */\n      add\n        /* \"#utility.yul\":1998:2004   */\n      dup5\n        /* \"#utility.yul\":1960:2025   */\n      tag_196\n      jump\t// in\n    tag_295:\n        /* \"#utility.yul\":1822:2032   */\n      swap3\n      swap2\n      pop\n      pop\n      jump\t// out\n        /* \"#utility.yul\":2038:2156   */\n    tag_197:\n        /* \"#utility.yul\":2125:2149   */\n      tag_297\n        /* \"#utility.yul\":2143:2148   */\n      dup2\n        /* \"#utility.yul\":2125:2149   */\n      tag_192\n      jump\t// in\n    tag_297:\n        /* \"#utility.yul\":2120:2123   */\n      dup3\n        /* \"#utility.yul\":2113:2150   */\n      mstore\n        /* \"#utility.yul\":2038:2156   */\n      pop\n      pop\n      jump\t// out\n        /* \"#utility.yul\":2162:2384   */\n    tag_42:\n        /* \"#utility.yul\":2255:2259   */\n      0x00\n        /* \"#utility.yul\":2293:2295   */\n      0x20\n        /* \"#utility.yul\":2282:2291   */\n      dup3\n        /* \"#utility.yul\":2278:2296   */\n      add\n        /* \"#utility.yul\":2270:2296   */\n      swap1\n      pop\n        /* \"#utility.yul\":2306:2377   */\n      tag_299\n        /* \"#utility.yul\":2374:2375   */\n      0x00\n        /* \"#utility.yul\":2363:2372   */\n      dup4\n        /* \"#utility.yul\":2359:2376   */\n      add\n        /* \"#utility.yul\":2350:2356   */\n      dup5\n        /* \"#utility.yul\":2306:2377   */\n      tag_197\n      jump\t// in\n    tag_299:\n        /* \"#utility.yul\":2162:2384   */\n      swap3\n      swap2\n      pop\n      pop\n      jump\t// out\n        /* \"#utility.yul\":2390:2494   */\n    tag_198:\n        /* \"#utility.yul\":2435:2442   */\n      0x00\n        /* \"#utility.yul\":2464:2488   */\n      tag_301\n        /* \"#utility.yul\":2482:2487   */\n      dup3\n        /* \"#utility.yul\":2464:2488   */\n      tag_191\n      jump\t// in\n    tag_301:\n        /* \"#utility.yul\":2453:2488   */\n      swap1\n      pop\n        /* \"#utility.yul\":2390:2494   */\n      swap2\n      swap1\n      pop\n      jump\t// out\n        /* \"#utility.yul\":2500:2638   */\n    tag_199:\n        /* \"#utility.yul\":2581:2613   */\n      tag_303\n        /* \"#utility.yul\":2607:2612   */\n      dup2\n        /* \"#utility.yul\":2581:2613   */\n      tag_198\n      jump\t// in\n    tag_303:\n        /* \"#utility.yul\":2574:2579   */\n      dup2\n        /* \"#utility.yul\":2571:2614   */\n      eq\n        /* \"#utility.yul\":2561:2632   */\n      tag_304\n      jumpi\n        /* \"#utility.yul\":2628:2629   */\n      0x00\n        /* \"#utility.yul\":2625:2626   */\n      0x00\n        /* \"#utility.yul\":2618:2630   */\n      revert\n        /* \"#utility.yul\":2561:2632   */\n    tag_304:\n        /* \"#utility.yul\":2500:2638   */\n      pop\n      jump\t// out\n        /* \"#utility.yul\":2644:2799   */\n    tag_200:\n        /* \"#utility.yul\":2698:2703   */\n      0x00\n        /* \"#utility.yul\":2736:2742   */\n      dup2\n        /* \"#utility.yul\":2723:2743   */\n      calldataload\n        /* \"#utility.yul\":2714:2743   */\n      swap1\n      pop\n        /* \"#utility.yul\":2752:2793   */\n      tag_306\n        /* \"#utility.yul\":2787:2792   */\n      dup2\n        /* \"#utility.yul\":2752:2793   */\n      tag_199\n      jump\t// in\n    tag_306:\n        /* \"#utility.yul\":2644:2799   */\n      swap3\n      swap2\n      pop\n      pop\n      jump\t// out\n        /* \"#utility.yul\":2805:2922   */\n    tag_201:\n        /* \"#utility.yul\":2914:2915   */\n      0x00\n        /* \"#utility.yul\":2911:2912   */\n      0x00\n        /* \"#utility.yul\":2904:2916   */\n      revert\n        /* \"#utility.yul\":2928:3045   */\n    tag_202:\n        /* \"#utility.yul\":3037:3038   */\n      0x00\n        /* \"#utility.yul\":3034:3035   */\n      0x00\n        /* \"#utility.yul\":3027:3039   */\n      revert\n        /* \"#utility.yul\":3051:3153   */\n    tag_203:\n        /* \"#utility.yul\":3092:3098   */\n      0x00\n        /* \"#utility.yul\":3143:3145   */\n      0x1f\n        /* \"#utility.yul\":3139:3146   */\n      not\n        /* \"#utility.yul\":3134:3136   */\n      0x1f\n        /* \"#utility.yul\":3127:3132   */\n      dup4\n        /* \"#utility.yul\":3123:3137   */\n      add\n        /* \"#utility.yul\":3119:3147   */\n      and\n        /* \"#utility.yul\":3109:3147   */\n      swap1\n      pop\n        /* \"#utility.yul\":3051:3153   */\n      swap2\n      swap1\n      pop\n      jump\t// out\n        /* \"#utility.yul\":3159:3339   */\n    tag_204:\n        /* \"#utility.yul\":3207:3284   */\n      0x4e487b7100000000000000000000000000000000000000000000000000000000\n        /* \"#utility.yul\":3204:3205   */\n      0x00\n        /* \"#utility.yul\":3197:3285   */\n      mstore\n        /* \"#utility.yul\":3304:3308   */\n      0x41\n        /* \"#utility.yul\":3301:3302   */\n      0x04\n        /* \"#utility.yul\":3294:3309   */\n      mstore\n        /* \"#utility.yul\":3328:3332   */\n      0x24\n        /* \"#utility.yul\":3325:3326   */\n      0x00\n        /* \"#utility.yul\":3318:3333   */\n      revert\n        /* \"#utility.yul\":3345:3626   */\n    tag_205:\n        /* \"#utility.yul\":3428:3455   */\n      tag_312\n        /* \"#utility.yul\":3450:3454   */\n      dup3\n        /* \"#utility.yul\":3428:3455   */\n      tag_203\n      jump\t// in\n    tag_312:\n        /* \"#utility.yul\":3420:3426   */\n      dup2\n        /* \"#utility.yul\":3416:3456   */\n      add\n        /* \"#utility.yul\":3558:3564   */\n      dup2\n        /* \"#utility.yul\":3546:3556   */\n      dup2\n        /* \"#utility.yul\":3543:3565   */\n      lt\n        /* \"#utility.yul\":3522:3540   */\n      0xffffffffffffffff\n        /* \"#utility.yul\":3510:3520   */\n      dup3\n        /* \"#utility.yul\":3507:3541   */\n      gt\n        /* \"#utility.yul\":3504:3566   */\n      or\n        /* \"#utility.yul\":3501:3589   */\n      iszero\n      tag_313\n      jumpi\n        /* \"#utility.yul\":3569:3587   */\n      tag_314\n      tag_204\n      jump\t// in\n    tag_314:\n        /* \"#utility.yul\":3501:3589   */\n    tag_313:\n        /* \"#utility.yul\":3609:3619   */\n      dup1\n        /* \"#utility.yul\":3605:3607   */\n      0x40\n        /* \"#utility.yul\":3598:3620   */\n      mstore\n        /* \"#utility.yul\":3388:3626   */\n      pop\n        /* \"#utility.yul\":3345:3626   */\n      pop\n      pop\n      jump\t// out\n        /* \"#utility.yul\":3632:3761   */\n    tag_206:\n        /* \"#utility.yul\":3666:3672   */\n      0x00\n        /* \"#utility.yul\":3693:3713   */\n      tag_316\n      tag_188\n      jump\t// in\n    tag_316:\n        /* \"#utility.yul\":3683:3713   */\n      swap1\n      pop\n        /* \"#utility.yul\":3722:3755   */\n      tag_317\n        /* \"#utility.yul\":3750:3754   */\n      dup3\n        /* \"#utility.yul\":3742:3748   */\n      dup3\n        /* \"#utility.yul\":3722:3755   */\n      tag_205\n      jump\t// in\n    tag_317:\n        /* \"#utility.yul\":3632:3761   */\n      swap2\n      swap1\n      pop\n      jump\t// out\n        /* \"#utility.yul\":3767:4075   */\n    tag_207:\n        /* \"#utility.yul\":3829:3833   */\n      0x00\n        /* \"#utility.yul\":3919:3937   */\n      0xffffffffffffffff\n        /* \"#utility.yul\":3911:3917   */\n      dup3\n        /* \"#utility.yul\":3908:3938   */\n      gt\n        /* \"#utility.yul\":3905:3961   */\n      iszero\n      tag_319\n      jumpi\n        /* \"#utility.yul\":3941:3959   */\n      tag_320\n      tag_204\n      jump\t// in\n    tag_320:\n        /* \"#utility.yul\":3905:3961   */\n    tag_319:\n        /* \"#utility.yul\":3979:4008   */\n      tag_321\n        /* \"#utility.yul\":4001:4007   */\n      dup3\n        /* \"#utility.yul\":3979:4008   */\n      tag_203\n      jump\t// in\n    tag_321:\n        /* \"#utility.yul\":3971:4008   */\n      swap1\n      pop\n        /* \"#utility.yul\":4063:4067   */\n      0x20\n        /* \"#utility.yul\":4057:4061   */\n      dup2\n        /* \"#utility.yul\":4053:4068   */\n      add\n        /* \"#utility.yul\":4045:4068   */\n      swap1\n      pop\n        /* \"#utility.yul\":3767:4075   */\n      swap2\n      swap1\n      pop\n      jump\t// out\n        /* \"#utility.yul\":4081:4229   */\n    tag_208:\n        /* \"#utility.yul\":4179:4185   */\n      dup3\n        /* \"#utility.yul\":4174:4177   */\n      dup2\n        /* \"#utility.yul\":4169:4172   */\n      dup4\n        /* \"#utility.yul\":4156:4186   */\n      calldatacopy\n        /* \"#utility.yul\":4220:4221   */\n      0x00\n        /* \"#utility.yul\":4211:4217   */\n      dup4\n        /* \"#utility.yul\":4206:4209   */\n      dup4\n        /* \"#utility.yul\":4202:4218   */\n      add\n        /* \"#utility.yul\":4195:4222   */\n      mstore\n        /* \"#utility.yul\":4081:4229   */\n      pop\n      pop\n      pop\n      jump\t// out\n        /* \"#utility.yul\":4235:4660   */\n    tag_209:\n        /* \"#utility.yul\":4313:4318   */\n      0x00\n        /* \"#utility.yul\":4338:4404   */\n      tag_324\n        /* \"#utility.yul\":4354:4403   */\n      tag_325\n        /* \"#utility.yul\":4396:4402   */\n      dup5\n        /* \"#utility.yul\":4354:4403   */\n      tag_207\n      jump\t// in\n    tag_325:\n        /* \"#utility.yul\":4338:4404   */\n      tag_206\n      jump\t// in\n    tag_324:\n        /* \"#utility.yul\":4329:4404   */\n      swap1\n      pop\n        /* \"#utility.yul\":4427:4433   */\n      dup3\n        /* \"#utility.yul\":4420:4425   */\n      dup2\n        /* \"#utility.yul\":4413:4434   */\n      mstore\n        /* \"#utility.yul\":4465:4469   */\n      0x20\n        /* \"#utility.yul\":4458:4463   */\n      dup2\n        /* \"#utility.yul\":4454:4470   */\n      add\n        /* \"#utility.yul\":4503:4506   */\n      dup5\n        /* \"#utility.yul\":4494:4500   */\n      dup5\n        /* \"#utility.yul\":4489:4492   */\n      dup5\n        /* \"#utility.yul\":4485:4501   */\n      add\n        /* \"#utility.yul\":4482:4507   */\n      gt\n        /* \"#utility.yul\":4479:4591   */\n      iszero\n      tag_326\n      jumpi\n        /* \"#utility.yul\":4510:4589   */\n      tag_327\n      tag_202\n      jump\t// in\n    tag_327:\n        /* \"#utility.yul\":4479:4591   */\n    tag_326:\n        /* \"#utility.yul\":4600:4654   */\n      tag_328\n        /* \"#utility.yul\":4647:4653   */\n      dup5\n        /* \"#utility.yul\":4642:4645   */\n      dup3\n        /* \"#utility.yul\":4637:4640   */\n      dup6\n        /* \"#utility.yul\":4600:4654   */\n      tag_208\n      jump\t// in\n    tag_328:\n        /* \"#utility.yul\":4319:4660   */\n      pop\n        /* \"#utility.yul\":4235:4660   */\n      swap4\n      swap3\n      pop\n      pop\n      pop\n      jump\t// out\n        /* \"#utility.yul\":4680:5020   */\n    tag_210:\n        /* \"#utility.yul\":4736:4741   */\n      0x00\n        /* \"#utility.yul\":4785:4788   */\n      dup3\n        /* \"#utility.yul\":4778:4782   */\n      0x1f\n        /* \"#utility.yul\":4770:4776   */\n      dup4\n        /* \"#utility.yul\":4766:4783   */\n      add\n        /* \"#utility.yul\":4762:4789   */\n      slt\n        /* \"#utility.yul\":4752:4874   */\n      tag_330\n      jumpi\n        /* \"#utility.yul\":4793:4872   */\n      tag_331\n      tag_201\n      jump\t// in\n    tag_331:\n        /* \"#utility.yul\":4752:4874   */\n    tag_330:\n        /* \"#utility.yul\":4910:4916   */\n      dup2\n        /* \"#utility.yul\":4897:4917   */\n      calldataload\n        /* \"#utility.yul\":4935:5014   */\n      tag_332\n        /* \"#utility.yul\":5010:5013   */\n      dup5\n        /* \"#utility.yul\":5002:5008   */\n      dup3\n        /* \"#utility.yul\":4995:4999   */\n      0x20\n        /* \"#utility.yul\":4987:4993   */\n      dup7\n        /* \"#utility.yul\":4983:5000   */\n      add\n        /* \"#utility.yul\":4935:5014   */\n      tag_209\n      jump\t// in\n    tag_332:\n        /* \"#utility.yul\":4926:5014   */\n      swap2\n      pop\n        /* \"#utility.yul\":4742:5020   */\n      pop\n        /* \"#utility.yul\":4680:5020   */\n      swap3\n      swap2\n      pop\n      pop\n      jump\t// out\n        /* \"#utility.yul\":5026:5148   */\n    tag_211:\n        /* \"#utility.yul\":5099:5123   */\n      tag_334\n        /* \"#utility.yul\":5117:5122   */\n      dup2\n        /* \"#utility.yul\":5099:5123   */\n      tag_186\n      jump\t// in\n    tag_334:\n        /* \"#utility.yul\":5092:5097   */\n      dup2\n        /* \"#utility.yul\":5089:5124   */\n      eq\n        /* \"#utility.yul\":5079:5142   */\n      tag_335\n      jumpi\n        /* \"#utility.yul\":5138:5139   */\n      0x00\n        /* \"#utility.yul\":5135:5136   */\n      0x00\n        /* \"#utility.yul\":5128:5140   */\n      revert\n        /* \"#utility.yul\":5079:5142   */\n    tag_335:\n        /* \"#utility.yul\":5026:5148   */\n      pop\n      jump\t// out\n        /* \"#utility.yul\":5154:5293   */\n    tag_212:\n        /* \"#utility.yul\":5200:5205   */\n      0x00\n        /* \"#utility.yul\":5238:5244   */\n      dup2\n        /* \"#utility.yul\":5225:5245   */\n      calldataload\n        /* \"#utility.yul\":5216:5245   */\n      swap1\n      pop\n        /* \"#utility.yul\":5254:5287   */\n      tag_337\n        /* \"#utility.yul\":5281:5286   */\n      dup2\n        /* \"#utility.yul\":5254:5287   */\n      tag_211\n      jump\t// in\n    tag_337:\n        /* \"#utility.yul\":5154:5293   */\n      swap3\n      swap2\n      pop\n      pop\n      jump\t// out\n        /* \"#utility.yul\":5299:6114   */\n    tag_46:\n        /* \"#utility.yul\":5394:5400   */\n      0x00\n        /* \"#utility.yul\":5402:5408   */\n      0x00\n        /* \"#utility.yul\":5410:5416   */\n      0x00\n        /* \"#utility.yul\":5459:5461   */\n      0x60\n        /* \"#utility.yul\":5447:5456   */\n      dup5\n        /* \"#utility.yul\":5438:5445   */\n      dup7\n        /* \"#utility.yul\":5434:5457   */\n      sub\n        /* \"#utility.yul\":5430:5462   */\n      slt\n        /* \"#utility.yul\":5427:5546   */\n      iszero\n      tag_339\n      jumpi\n        /* \"#utility.yul\":5465:5544   */\n      tag_340\n      tag_189\n      jump\t// in\n    tag_340:\n        /* \"#utility.yul\":5427:5546   */\n    tag_339:\n        /* \"#utility.yul\":5585:5586   */\n      0x00\n        /* \"#utility.yul\":5610:5671   */\n      tag_341\n        /* \"#utility.yul\":5663:5670   */\n      dup7\n        /* \"#utility.yul\":5654:5660   */\n      dup3\n        /* \"#utility.yul\":5643:5652   */\n      dup8\n        /* \"#utility.yul\":5639:5661   */\n      add\n        /* \"#utility.yul\":5610:5671   */\n      tag_200\n      jump\t// in\n    tag_341:\n        /* \"#utility.yul\":5600:5671   */\n      swap4\n      pop\n        /* \"#utility.yul\":5556:5681   */\n      pop\n        /* \"#utility.yul\":5748:5750   */\n      0x20\n        /* \"#utility.yul\":5737:5746   */\n      dup5\n        /* \"#utility.yul\":5733:5751   */\n      add\n        /* \"#utility.yul\":5720:5752   */\n      calldataload\n        /* \"#utility.yul\":5779:5797   */\n      0xffffffffffffffff\n        /* \"#utility.yul\":5771:5777   */\n      dup2\n        /* \"#utility.yul\":5768:5798   */\n      gt\n        /* \"#utility.yul\":5765:5882   */\n      iszero\n      tag_342\n      jumpi\n        /* \"#utility.yul\":5801:5880   */\n      tag_343\n      tag_190\n      jump\t// in\n    tag_343:\n        /* \"#utility.yul\":5765:5882   */\n    tag_342:\n        /* \"#utility.yul\":5906:5969   */\n      tag_344\n        /* \"#utility.yul\":5961:5968   */\n      dup7\n        /* \"#utility.yul\":5952:5958   */\n      dup3\n        /* \"#utility.yul\":5941:5950   */\n      dup8\n        /* \"#utility.yul\":5937:5959   */\n      add\n        /* \"#utility.yul\":5906:5969   */\n      tag_210\n      jump\t// in\n    tag_344:\n        /* \"#utility.yul\":5896:5969   */\n      swap3\n      pop\n        /* \"#utility.yul\":5691:5979   */\n      pop\n        /* \"#utility.yul\":6018:6020   */\n      0x40\n        /* \"#utility.yul\":6044:6097   */\n      tag_345\n        /* \"#utility.yul\":6089:6096   */\n      dup7\n        /* \"#utility.yul\":6080:6086   */\n      dup3\n        /* \"#utility.yul\":6069:6078   */\n      dup8\n        /* \"#utility.yul\":6065:6087   */\n      add\n        /* \"#utility.yul\":6044:6097   */\n      tag_212\n      jump\t// in\n    tag_345:\n        /* \"#utility.yul\":6034:6097   */\n      swap2\n      pop\n        /* \"#utility.yul\":5989:6107   */\n      pop\n        /* \"#utility.yul\":5299:6114   */\n      swap3\n      pop\n      swap3\n      pop\n      swap3\n      jump\t// out\n        /* \"#utility.yul\":6120:6449   */\n    tag_51:\n        /* \"#utility.yul\":6179:6185   */\n      0x00\n        /* \"#utility.yul\":6228:6230   */\n      0x20\n        /* \"#utility.yul\":6216:6225   */\n      dup3\n        /* \"#utility.yul\":6207:6214   */\n      dup5\n        /* \"#utility.yul\":6203:6226   */\n      sub\n        /* \"#utility.yul\":6199:6231   */\n      slt\n        /* \"#utility.yul\":6196:6315   */\n      iszero\n      tag_347\n      jumpi\n        /* \"#utility.yul\":6234:6313   */\n      tag_348\n      tag_189\n      jump\t// in\n    tag_348:\n        /* \"#utility.yul\":6196:6315   */\n    tag_347:\n        /* \"#utility.yul\":6354:6355   */\n      0x00\n        /* \"#utility.yul\":6379:6432   */\n      tag_349\n        /* \"#utility.yul\":6424:6431   */\n      dup5\n        /* \"#utility.yul\":6415:6421   */\n      dup3\n        /* \"#utility.yul\":6404:6413   */\n      dup6\n        /* \"#utility.yul\":6400:6422   */\n      add\n        /* \"#utility.yul\":6379:6432   */\n      tag_212\n      jump\t// in\n    tag_349:\n        /* \"#utility.yul\":6369:6432   */\n      swap2\n      pop\n        /* \"#utility.yul\":6325:6442   */\n      pop\n        /* \"#utility.yul\":6120:6449   */\n      swap3\n      swap2\n      pop\n      pop\n      jump\t// out\n        /* \"#utility.yul\":6455:6597   */\n    tag_213:\n        /* \"#utility.yul\":6558:6590   */\n      tag_351\n        /* \"#utility.yul\":6584:6589   */\n      dup2\n        /* \"#utility.yul\":6558:6590   */\n      tag_198\n      jump\t// in\n    tag_351:\n        /* \"#utility.yul\":6553:6556   */\n      dup3\n        /* \"#utility.yul\":6546:6591   */\n      mstore\n        /* \"#utility.yul\":6455:6597   */\n      pop\n      pop\n      jump\t// out\n        /* \"#utility.yul\":6603:6702   */\n    tag_214:\n        /* \"#utility.yul\":6655:6661   */\n      0x00\n        /* \"#utility.yul\":6689:6694   */\n      dup2\n        /* \"#utility.yul\":6683:6695   */\n      mload\n        /* \"#utility.yul\":6673:6695   */\n      swap1\n      pop\n        /* \"#utility.yul\":6603:6702   */\n      swap2\n      swap1\n      pop\n      jump\t// out\n        /* \"#utility.yul\":6708:6877   */\n    tag_215:\n        /* \"#utility.yul\":6792:6803   */\n      0x00\n        /* \"#utility.yul\":6826:6832   */\n      dup3\n        /* \"#utility.yul\":6821:6824   */\n      dup3\n        /* \"#utility.yul\":6814:6833   */\n      mstore\n        /* \"#utility.yul\":6866:6870   */\n      0x20\n        /* \"#utility.yul\":6861:6864   */\n      dup3\n        /* \"#utility.yul\":6857:6871   */\n      add\n        /* \"#utility.yul\":6842:6871   */\n      swap1\n      pop\n        /* \"#utility.yul\":6708:6877   */\n      swap3\n      swap2\n      pop\n      pop\n      jump\t// out\n        /* \"#utility.yul\":6883:7022   */\n    tag_216:\n        /* \"#utility.yul\":6972:6978   */\n      dup3\n        /* \"#utility.yul\":6967:6970   */\n      dup2\n        /* \"#utility.yul\":6962:6965   */\n      dup4\n        /* \"#utility.yul\":6956:6979   */\n      mcopy\n        /* \"#utility.yul\":7013:7014   */\n      0x00\n        /* \"#utility.yul\":7004:7010   */\n      dup4\n        /* \"#utility.yul\":6999:7002   */\n      dup4\n        /* \"#utility.yul\":6995:7011   */\n      add\n        /* \"#utility.yul\":6988:7015   */\n      mstore\n        /* \"#utility.yul\":6883:7022   */\n      pop\n      pop\n      pop\n      jump\t// out\n        /* \"#utility.yul\":7028:7405   */\n    tag_217:\n        /* \"#utility.yul\":7116:7119   */\n      0x00\n        /* \"#utility.yul\":7144:7183   */\n      tag_356\n        /* \"#utility.yul\":7177:7182   */\n      dup3\n        /* \"#utility.yul\":7144:7183   */\n      tag_214\n      jump\t// in\n    tag_356:\n        /* \"#utility.yul\":7199:7270   */\n      tag_357\n        /* \"#utility.yul\":7263:7269   */\n      dup2\n        /* \"#utility.yul\":7258:7261   */\n      dup6\n        /* \"#utility.yul\":7199:7270   */\n      tag_215\n      jump\t// in\n    tag_357:\n        /* \"#utility.yul\":7192:7270   */\n      swap4\n      pop\n        /* \"#utility.yul\":7279:7344   */\n      tag_358\n        /* \"#utility.yul\":7337:7343   */\n      dup2\n        /* \"#utility.yul\":7332:7335   */\n      dup6\n        /* \"#utility.yul\":7325:7329   */\n      0x20\n        /* \"#utility.yul\":7318:7323   */\n      dup7\n        /* \"#utility.yul\":7314:7330   */\n      add\n        /* \"#utility.yul\":7279:7344   */\n      tag_216\n      jump\t// in\n    tag_358:\n        /* \"#utility.yul\":7369:7398   */\n      tag_359\n        /* \"#utility.yul\":7391:7397   */\n      dup2\n        /* \"#utility.yul\":7369:7398   */\n      tag_203\n      jump\t// in\n    tag_359:\n        /* \"#utility.yul\":7364:7367   */\n      dup5\n        /* \"#utility.yul\":7360:7399   */\n      add\n        /* \"#utility.yul\":7353:7399   */\n      swap2\n      pop\n        /* \"#utility.yul\":7120:7405   */\n      pop\n        /* \"#utility.yul\":7028:7405   */\n      swap3\n      swap2\n      pop\n      pop\n      jump\t// out\n        /* \"#utility.yul\":7411:7976   */\n    tag_54:\n        /* \"#utility.yul\":7596:7600   */\n      0x00\n        /* \"#utility.yul\":7634:7636   */\n      0x60\n        /* \"#utility.yul\":7623:7632   */\n      dup3\n        /* \"#utility.yul\":7619:7637   */\n      add\n        /* \"#utility.yul\":7611:7637   */\n      swap1\n      pop\n        /* \"#utility.yul\":7647:7734   */\n      tag_361\n        /* \"#utility.yul\":7731:7732   */\n      0x00\n        /* \"#utility.yul\":7720:7729   */\n      dup4\n        /* \"#utility.yul\":7716:7733   */\n      add\n        /* \"#utility.yul\":7707:7713   */\n      dup7\n        /* \"#utility.yul\":7647:7734   */\n      tag_213\n      jump\t// in\n    tag_361:\n        /* \"#utility.yul\":7781:7790   */\n      dup2\n        /* \"#utility.yul\":7775:7779   */\n      dup2\n        /* \"#utility.yul\":7771:7791   */\n      sub\n        /* \"#utility.yul\":7766:7768   */\n      0x20\n        /* \"#utility.yul\":7755:7764   */\n      dup4\n        /* \"#utility.yul\":7751:7769   */\n      add\n        /* \"#utility.yul\":7744:7792   */\n      mstore\n        /* \"#utility.yul\":7809:7887   */\n      tag_362\n        /* \"#utility.yul\":7882:7886   */\n      dup2\n        /* \"#utility.yul\":7873:7879   */\n      dup6\n        /* \"#utility.yul\":7809:7887   */\n      tag_217\n      jump\t// in\n    tag_362:\n        /* \"#utility.yul\":7801:7887   */\n      swap1\n      pop\n        /* \"#utility.yul\":7897:7969   */\n      tag_363\n        /* \"#utility.yul\":7965:7967   */\n      0x40\n        /* \"#utility.yul\":7954:7963   */\n      dup4\n        /* \"#utility.yul\":7950:7968   */\n      add\n        /* \"#utility.yul\":7941:7947   */\n      dup5\n        /* \"#utility.yul\":7897:7969   */\n      tag_187\n      jump\t// in\n    tag_363:\n        /* \"#utility.yul\":7411:7976   */\n      swap5\n      swap4\n      pop\n      pop\n      pop\n      pop\n      jump\t// out\n        /* \"#utility.yul\":7982:8120   */\n    tag_218:\n        /* \"#utility.yul\":8073:8079   */\n      0x00\n        /* \"#utility.yul\":8107:8112   */\n      dup2\n        /* \"#utility.yul\":8101:8113   */\n      mload\n        /* \"#utility.yul\":8091:8113   */\n      swap1\n      pop\n        /* \"#utility.yul\":7982:8120   */\n      swap2\n      swap1\n      pop\n      jump\t// out\n        /* \"#utility.yul\":8126:8334   */\n    tag_219:\n        /* \"#utility.yul\":8249:8260   */\n      0x00\n        /* \"#utility.yul\":8283:8289   */\n      dup3\n        /* \"#utility.yul\":8278:8281   */\n      dup3\n        /* \"#utility.yul\":8271:8290   */\n      mstore\n        /* \"#utility.yul\":8323:8327   */\n      0x20\n        /* \"#utility.yul\":8318:8321   */\n      dup3\n        /* \"#utility.yul\":8314:8328   */\n      add\n        /* \"#utility.yul\":8299:8328   */\n      swap1\n      pop\n        /* \"#utility.yul\":8126:8334   */\n      swap3\n      swap2\n      pop\n      pop\n      jump\t// out\n        /* \"#utility.yul\":8340:8496   */\n    tag_220:\n        /* \"#utility.yul\":8431:8435   */\n      0x00\n        /* \"#utility.yul\":8454:8457   */\n      dup2\n        /* \"#utility.yul\":8446:8457   */\n      swap1\n      pop\n        /* \"#utility.yul\":8484:8488   */\n      0x20\n        /* \"#utility.yul\":8479:8482   */\n      dup3\n        /* \"#utility.yul\":8475:8489   */\n      add\n        /* \"#utility.yul\":8467:8489   */\n      swap1\n      pop\n        /* \"#utility.yul\":8340:8496   */\n      swap2\n      swap1\n      pop\n      jump\t// out\n        /* \"#utility.yul\":8502:8634   */\n    tag_221:\n        /* \"#utility.yul\":8595:8627   */\n      tag_368\n        /* \"#utility.yul\":8621:8626   */\n      dup2\n        /* \"#utility.yul\":8595:8627   */\n      tag_198\n      jump\t// in\n    tag_368:\n        /* \"#utility.yul\":8590:8593   */\n      dup3\n        /* \"#utility.yul\":8583:8628   */\n      mstore\n        /* \"#utility.yul\":8502:8634   */\n      pop\n      pop\n      jump\t// out\n        /* \"#utility.yul\":8640:8799   */\n    tag_222:\n        /* \"#utility.yul\":8714:8725   */\n      0x00\n        /* \"#utility.yul\":8748:8754   */\n      dup3\n        /* \"#utility.yul\":8743:8746   */\n      dup3\n        /* \"#utility.yul\":8736:8755   */\n      mstore\n        /* \"#utility.yul\":8788:8792   */\n      0x20\n        /* \"#utility.yul\":8783:8786   */\n      dup3\n        /* \"#utility.yul\":8779:8793   */\n      add\n        /* \"#utility.yul\":8764:8793   */\n      swap1\n      pop\n        /* \"#utility.yul\":8640:8799   */\n      swap3\n      swap2\n      pop\n      pop\n      jump\t// out\n        /* \"#utility.yul\":8805:9162   */\n    tag_223:\n        /* \"#utility.yul\":8883:8886   */\n      0x00\n        /* \"#utility.yul\":8911:8950   */\n      tag_371\n        /* \"#utility.yul\":8944:8949   */\n      dup3\n        /* \"#utility.yul\":8911:8950   */\n      tag_214\n      jump\t// in\n    tag_371:\n        /* \"#utility.yul\":8966:9027   */\n      tag_372\n        /* \"#utility.yul\":9020:9026   */\n      dup2\n        /* \"#utility.yul\":9015:9018   */\n      dup6\n        /* \"#utility.yul\":8966:9027   */\n      tag_222\n      jump\t// in\n    tag_372:\n        /* \"#utility.yul\":8959:9027   */\n      swap4\n      pop\n        /* \"#utility.yul\":9036:9101   */\n      tag_373\n        /* \"#utility.yul\":9094:9100   */\n      dup2\n        /* \"#utility.yul\":9089:9092   */\n      dup6\n        /* \"#utility.yul\":9082:9086   */\n      0x20\n        /* \"#utility.yul\":9075:9080   */\n      dup7\n        /* \"#utility.yul\":9071:9087   */\n      add\n        /* \"#utility.yul\":9036:9101   */\n      tag_216\n      jump\t// in\n    tag_373:\n        /* \"#utility.yul\":9126:9155   */\n      tag_374\n        /* \"#utility.yul\":9148:9154   */\n      dup2\n        /* \"#utility.yul\":9126:9155   */\n      tag_203\n      jump\t// in\n    tag_374:\n        /* \"#utility.yul\":9121:9124   */\n      dup5\n        /* \"#utility.yul\":9117:9156   */\n      add\n        /* \"#utility.yul\":9110:9156   */\n      swap2\n      pop\n        /* \"#utility.yul\":8887:9162   */\n      pop\n        /* \"#utility.yul\":8805:9162   */\n      swap3\n      swap2\n      pop\n      pop\n      jump\t// out\n        /* \"#utility.yul\":9168:9276   */\n    tag_224:\n        /* \"#utility.yul\":9245:9269   */\n      tag_376\n        /* \"#utility.yul\":9263:9268   */\n      dup2\n        /* \"#utility.yul\":9245:9269   */\n      tag_186\n      jump\t// in\n    tag_376:\n        /* \"#utility.yul\":9240:9243   */\n      dup3\n        /* \"#utility.yul\":9233:9270   */\n      mstore\n        /* \"#utility.yul\":9168:9276   */\n      pop\n      pop\n      jump\t// out\n        /* \"#utility.yul\":9334:10130   */\n    tag_225:\n        /* \"#utility.yul\":9441:9444   */\n      0x00\n        /* \"#utility.yul\":9477:9481   */\n      0x60\n        /* \"#utility.yul\":9472:9475   */\n      dup4\n        /* \"#utility.yul\":9468:9482   */\n      add\n        /* \"#utility.yul\":9573:9577   */\n      0x00\n        /* \"#utility.yul\":9566:9571   */\n      dup4\n        /* \"#utility.yul\":9562:9578   */\n      add\n        /* \"#utility.yul\":9556:9579   */\n      mload\n        /* \"#utility.yul\":9592:9671   */\n      tag_378\n        /* \"#utility.yul\":9665:9669   */\n      0x00\n        /* \"#utility.yul\":9660:9663   */\n      dup7\n        /* \"#utility.yul\":9656:9670   */\n      add\n        /* \"#utility.yul\":9642:9654   */\n      dup3\n        /* \"#utility.yul\":9592:9671   */\n      tag_221\n      jump\t// in\n    tag_378:\n        /* \"#utility.yul\":9492:9681   */\n      pop\n        /* \"#utility.yul\":9763:9767   */\n      0x20\n        /* \"#utility.yul\":9756:9761   */\n      dup4\n        /* \"#utility.yul\":9752:9768   */\n      add\n        /* \"#utility.yul\":9746:9769   */\n      mload\n        /* \"#utility.yul\":9816:9819   */\n      dup5\n        /* \"#utility.yul\":9810:9814   */\n      dup3\n        /* \"#utility.yul\":9806:9820   */\n      sub\n        /* \"#utility.yul\":9799:9803   */\n      0x20\n        /* \"#utility.yul\":9794:9797   */\n      dup7\n        /* \"#utility.yul\":9790:9804   */\n      add\n        /* \"#utility.yul\":9783:9821   */\n      mstore\n        /* \"#utility.yul\":9842:9915   */\n      tag_379\n        /* \"#utility.yul\":9910:9914   */\n      dup3\n        /* \"#utility.yul\":9896:9908   */\n      dup3\n        /* \"#utility.yul\":9842:9915   */\n      tag_223\n      jump\t// in\n    tag_379:\n        /* \"#utility.yul\":9834:9915   */\n      swap2\n      pop\n        /* \"#utility.yul\":9691:9926   */\n      pop\n        /* \"#utility.yul\":10011:10015   */\n      0x40\n        /* \"#utility.yul\":10004:10009   */\n      dup4\n        /* \"#utility.yul\":10000:10016   */\n      add\n        /* \"#utility.yul\":9994:10017   */\n      mload\n        /* \"#utility.yul\":10030:10093   */\n      tag_380\n        /* \"#utility.yul\":10087:10091   */\n      0x40\n        /* \"#utility.yul\":10082:10085   */\n      dup7\n        /* \"#utility.yul\":10078:10092   */\n      add\n        /* \"#utility.yul\":10064:10076   */\n      dup3\n        /* \"#utility.yul\":10030:10093   */\n      tag_224\n      jump\t// in\n    tag_380:\n        /* \"#utility.yul\":9936:10103   */\n      pop\n        /* \"#utility.yul\":10120:10124   */\n      dup1\n        /* \"#utility.yul\":10113:10124   */\n      swap2\n      pop\n        /* \"#utility.yul\":9446:10130   */\n      pop\n        /* \"#utility.yul\":9334:10130   */\n      swap3\n      swap2\n      pop\n      pop\n      jump\t// out\n        /* \"#utility.yul\":10136:10388   */\n    tag_226:\n        /* \"#utility.yul\":10253:10263   */\n      0x00\n        /* \"#utility.yul\":10288:10382   */\n      tag_382\n        /* \"#utility.yul\":10378:10381   */\n      dup4\n        /* \"#utility.yul\":10370:10376   */\n      dup4\n        /* \"#utility.yul\":10288:10382   */\n      tag_225\n      jump\t// in\n    tag_382:\n        /* \"#utility.yul\":10274:10382   */\n      swap1\n      pop\n        /* \"#utility.yul\":10136:10388   */\n      swap3\n      swap2\n      pop\n      pop\n      jump\t// out\n        /* \"#utility.yul\":10394:10531   */\n    tag_227:\n        /* \"#utility.yul\":10488:10492   */\n      0x00\n        /* \"#utility.yul\":10520:10524   */\n      0x20\n        /* \"#utility.yul\":10515:10518   */\n      dup3\n        /* \"#utility.yul\":10511:10525   */\n      add\n        /* \"#utility.yul\":10503:10525   */\n      swap1\n      pop\n        /* \"#utility.yul\":10394:10531   */\n      swap2\n      swap1\n      pop\n      jump\t// out\n        /* \"#utility.yul\":10593:11696   */\n    tag_228:\n        /* \"#utility.yul\":10760:10763   */\n      0x00\n        /* \"#utility.yul\":10789:10867   */\n      tag_385\n        /* \"#utility.yul\":10861:10866   */\n      dup3\n        /* \"#utility.yul\":10789:10867   */\n      tag_218\n      jump\t// in\n    tag_385:\n        /* \"#utility.yul\":10883:10993   */\n      tag_386\n        /* \"#utility.yul\":10986:10992   */\n      dup2\n        /* \"#utility.yul\":10981:10984   */\n      dup6\n        /* \"#utility.yul\":10883:10993   */\n      tag_219\n      jump\t// in\n    tag_386:\n        /* \"#utility.yul\":10876:10993   */\n      swap4\n      pop\n        /* \"#utility.yul\":11019:11022   */\n      dup4\n        /* \"#utility.yul\":11064:11068   */\n      0x20\n        /* \"#utility.yul\":11056:11062   */\n      dup3\n        /* \"#utility.yul\":11052:11069   */\n      mul\n        /* \"#utility.yul\":11047:11050   */\n      dup6\n        /* \"#utility.yul\":11043:11070   */\n      add\n        /* \"#utility.yul\":11094:11174   */\n      tag_387\n        /* \"#utility.yul\":11168:11173   */\n      dup6\n        /* \"#utility.yul\":11094:11174   */\n      tag_220\n      jump\t// in\n    tag_387:\n        /* \"#utility.yul\":11197:11204   */\n      dup1\n        /* \"#utility.yul\":11228:11229   */\n      0x00\n        /* \"#utility.yul\":11213:11651   */\n    tag_388:\n        /* \"#utility.yul\":11238:11244   */\n      dup6\n        /* \"#utility.yul\":11235:11236   */\n      dup2\n        /* \"#utility.yul\":11232:11245   */\n      lt\n        /* \"#utility.yul\":11213:11651   */\n      iszero\n      tag_390\n      jumpi\n        /* \"#utility.yul\":11309:11318   */\n      dup5\n        /* \"#utility.yul\":11303:11307   */\n      dup5\n        /* \"#utility.yul\":11299:11319   */\n      sub\n        /* \"#utility.yul\":11294:11297   */\n      dup10\n        /* \"#utility.yul\":11287:11320   */\n      mstore\n        /* \"#utility.yul\":11360:11366   */\n      dup2\n        /* \"#utility.yul\":11354:11367   */\n      mload\n        /* \"#utility.yul\":11388:11500   */\n      tag_391\n        /* \"#utility.yul\":11495:11499   */\n      dup6\n        /* \"#utility.yul\":11480:11493   */\n      dup3\n        /* \"#utility.yul\":11388:11500   */\n      tag_226\n      jump\t// in\n    tag_391:\n        /* \"#utility.yul\":11380:11500   */\n      swap5\n      pop\n        /* \"#utility.yul\":11523:11607   */\n      tag_392\n        /* \"#utility.yul\":11600:11606   */\n      dup4\n        /* \"#utility.yul\":11523:11607   */\n      tag_227\n      jump\t// in\n    tag_392:\n        /* \"#utility.yul\":11513:11607   */\n      swap3\n      pop\n        /* \"#utility.yul\":11636:11640   */\n      0x20\n        /* \"#utility.yul\":11631:11634   */\n      dup11\n        /* \"#utility.yul\":11627:11641   */\n      add\n        /* \"#utility.yul\":11620:11641   */\n      swap10\n      pop\n        /* \"#utility.yul\":11273:11651   */\n      pop\n        /* \"#utility.yul\":11260:11261   */\n      0x01\n        /* \"#utility.yul\":11257:11258   */\n      dup2\n        /* \"#utility.yul\":11253:11262   */\n      add\n        /* \"#utility.yul\":11248:11262   */\n      swap1\n      pop\n        /* \"#utility.yul\":11213:11651   */\n      jump(tag_388)\n    tag_390:\n        /* \"#utility.yul\":11217:11231   */\n      pop\n        /* \"#utility.yul\":11667:11671   */\n      dup3\n        /* \"#utility.yul\":11660:11671   */\n      swap8\n      pop\n        /* \"#utility.yul\":11687:11690   */\n      dup8\n        /* \"#utility.yul\":11680:11690   */\n      swap6\n      pop\n        /* \"#utility.yul\":10765:11696   */\n      pop\n      pop\n      pop\n      pop\n      pop\n        /* \"#utility.yul\":10593:11696   */\n      swap3\n      swap2\n      pop\n      pop\n      jump\t// out\n        /* \"#utility.yul\":11702:12171   */\n    tag_59:\n        /* \"#utility.yul\":11893:11897   */\n      0x00\n        /* \"#utility.yul\":11931:11933   */\n      0x20\n        /* \"#utility.yul\":11920:11929   */\n      dup3\n        /* \"#utility.yul\":11916:11934   */\n      add\n        /* \"#utility.yul\":11908:11934   */\n      swap1\n      pop\n        /* \"#utility.yul\":11980:11989   */\n      dup2\n        /* \"#utility.yul\":11974:11978   */\n      dup2\n        /* \"#utility.yul\":11970:11990   */\n      sub\n        /* \"#utility.yul\":11966:11967   */\n      0x00\n        /* \"#utility.yul\":11955:11964   */\n      dup4\n        /* \"#utility.yul\":11951:11968   */\n      add\n        /* \"#utility.yul\":11944:11991   */\n      mstore\n        /* \"#utility.yul\":12008:12164   */\n      tag_394\n        /* \"#utility.yul\":12159:12163   */\n      dup2\n        /* \"#utility.yul\":12150:12156   */\n      dup5\n        /* \"#utility.yul\":12008:12164   */\n      tag_228\n      jump\t// in\n    tag_394:\n        /* \"#utility.yul\":12000:12164   */\n      swap1\n      pop\n        /* \"#utility.yul\":11702:12171   */\n      swap3\n      swap2\n      pop\n      pop\n      jump\t// out\n        /* \"#utility.yul\":12177:12346   */\n    tag_229:\n        /* \"#utility.yul\":12317:12338   */\n      0x4f6e6c79206f776e65722063616e2063616c6c00000000000000000000000000\n        /* \"#utility.yul\":12313:12314   */\n      0x00\n        /* \"#utility.yul\":12305:12311   */\n      dup3\n        /* \"#utility.yul\":12301:12315   */\n      add\n        /* \"#utility.yul\":12294:12339   */\n      mstore\n        /* \"#utility.yul\":12177:12346   */\n      pop\n      jump\t// out\n        /* \"#utility.yul\":12352:12718   */\n    tag_230:\n        /* \"#utility.yul\":12494:12497   */\n      0x00\n        /* \"#utility.yul\":12515:12582   */\n      tag_397\n        /* \"#utility.yul\":12579:12581   */\n      0x13\n        /* \"#utility.yul\":12574:12577   */\n      dup4\n        /* \"#utility.yul\":12515:12582   */\n      tag_215\n      jump\t// in\n    tag_397:\n        /* \"#utility.yul\":12508:12582   */\n      swap2\n      pop\n        /* \"#utility.yul\":12591:12684   */\n      tag_398\n        /* \"#utility.yul\":12680:12683   */\n      dup3\n        /* \"#utility.yul\":12591:12684   */\n      tag_229\n      jump\t// in\n    tag_398:\n        /* \"#utility.yul\":12709:12711   */\n      0x20\n        /* \"#utility.yul\":12704:12707   */\n      dup3\n        /* \"#utility.yul\":12700:12712   */\n      add\n        /* \"#utility.yul\":12693:12712   */\n      swap1\n      pop\n        /* \"#utility.yul\":12352:12718   */\n      swap2\n      swap1\n      pop\n      jump\t// out\n        /* \"#utility.yul\":12724:13143   */\n    tag_64:\n        /* \"#utility.yul\":12890:12894   */\n      0x00\n        /* \"#utility.yul\":12928:12930   */\n      0x20\n        /* \"#utility.yul\":12917:12926   */\n      dup3\n        /* \"#utility.yul\":12913:12931   */\n      add\n        /* \"#utility.yul\":12905:12931   */\n      swap1\n      pop\n        /* \"#utility.yul\":12977:12986   */\n      dup2\n        /* \"#utility.yul\":12971:12975   */\n      dup2\n        /* \"#utility.yul\":12967:12987   */\n      sub\n        /* \"#utility.yul\":12963:12964   */\n      0x00\n        /* \"#utility.yul\":12952:12961   */\n      dup4\n        /* \"#utility.yul\":12948:12965   */\n      add\n        /* \"#utility.yul\":12941:12988   */\n      mstore\n        /* \"#utility.yul\":13005:13136   */\n      tag_400\n        /* \"#utility.yul\":13131:13135   */\n      dup2\n        /* \"#utility.yul\":13005:13136   */\n      tag_230\n      jump\t// in\n    tag_400:\n        /* \"#utility.yul\":12997:13136   */\n      swap1\n      pop\n        /* \"#utility.yul\":12724:13143   */\n      swap2\n      swap1\n      pop\n      jump\t// out\n        /* \"#utility.yul\":13149:13317   */\n    tag_231:\n        /* \"#utility.yul\":13289:13309   */\n      0x5761697472657373206e6f7420666f756e640000000000000000000000000000\n        /* \"#utility.yul\":13285:13286   */\n      0x00\n        /* \"#utility.yul\":13277:13283   */\n      dup3\n        /* \"#utility.yul\":13273:13287   */\n      add\n        /* \"#utility.yul\":13266:13310   */\n      mstore\n        /* \"#utility.yul\":13149:13317   */\n      pop\n      jump\t// out\n        /* \"#utility.yul\":13323:13689   */\n    tag_232:\n        /* \"#utility.yul\":13465:13468   */\n      0x00\n        /* \"#utility.yul\":13486:13553   */\n      tag_403\n        /* \"#utility.yul\":13550:13552   */\n      0x12\n        /* \"#utility.yul\":13545:13548   */\n      dup4\n        /* \"#utility.yul\":13486:13553   */\n      tag_215\n      jump\t// in\n    tag_403:\n        /* \"#utility.yul\":13479:13553   */\n      swap2\n      pop\n        /* \"#utility.yul\":13562:13655   */\n      tag_404\n        /* \"#utility.yul\":13651:13654   */\n      dup3\n        /* \"#utility.yul\":13562:13655   */\n      tag_231\n      jump\t// in\n    tag_404:\n        /* \"#utility.yul\":13680:13682   */\n      0x20\n        /* \"#utility.yul\":13675:13678   */\n      dup3\n        /* \"#utility.yul\":13671:13683   */\n      add\n        /* \"#utility.yul\":13664:13683   */\n      swap1\n      pop\n        /* \"#utility.yul\":13323:13689   */\n      swap2\n      swap1\n      pop\n      jump\t// out\n        /* \"#utility.yul\":13695:14114   */\n    tag_68:\n        /* \"#utility.yul\":13861:13865   */\n      0x00\n        /* \"#utility.yul\":13899:13901   */\n      0x20\n        /* \"#utility.yul\":13888:13897   */\n      dup3\n        /* \"#utility.yul\":13884:13902   */\n      add\n        /* \"#utility.yul\":13876:13902   */\n      swap1\n      pop\n        /* \"#utility.yul\":13948:13957   */\n      dup2\n        /* \"#utility.yul\":13942:13946   */\n      dup2\n        /* \"#utility.yul\":13938:13958   */\n      sub\n        /* \"#utility.yul\":13934:13935   */\n      0x00\n        /* \"#utility.yul\":13923:13932   */\n      dup4\n        /* \"#utility.yul\":13919:13936   */\n      add\n        /* \"#utility.yul\":13912:13959   */\n      mstore\n        /* \"#utility.yul\":13976:14107   */\n      tag_406\n        /* \"#utility.yul\":14102:14106   */\n      dup2\n        /* \"#utility.yul\":13976:14107   */\n      tag_232\n      jump\t// in\n    tag_406:\n        /* \"#utility.yul\":13968:14107   */\n      swap1\n      pop\n        /* \"#utility.yul\":13695:14114   */\n      swap2\n      swap1\n      pop\n      jump\t// out\n        /* \"#utility.yul\":14120:14300   */\n    tag_71:\n        /* \"#utility.yul\":14168:14245   */\n      0x4e487b7100000000000000000000000000000000000000000000000000000000\n        /* \"#utility.yul\":14165:14166   */\n      0x00\n        /* \"#utility.yul\":14158:14246   */\n      mstore\n        /* \"#utility.yul\":14265:14269   */\n      0x32\n        /* \"#utility.yul\":14262:14263   */\n      0x04\n        /* \"#utility.yul\":14255:14270   */\n      mstore\n        /* \"#utility.yul\":14289:14293   */\n      0x24\n        /* \"#utility.yul\":14286:14287   */\n      0x00\n        /* \"#utility.yul\":14279:14294   */\n      revert\n        /* \"#utility.yul\":14306:14486   */\n    tag_233:\n        /* \"#utility.yul\":14354:14431   */\n      0x4e487b7100000000000000000000000000000000000000000000000000000000\n        /* \"#utility.yul\":14351:14352   */\n      0x00\n        /* \"#utility.yul\":14344:14432   */\n      mstore\n        /* \"#utility.yul\":14451:14455   */\n      0x11\n        /* \"#utility.yul\":14448:14449   */\n      0x04\n        /* \"#utility.yul\":14441:14456   */\n      mstore\n        /* \"#utility.yul\":14475:14479   */\n      0x24\n        /* \"#utility.yul\":14472:14473   */\n      0x00\n        /* \"#utility.yul\":14465:14480   */\n      revert\n        /* \"#utility.yul\":14492:14686   */\n    tag_75:\n        /* \"#utility.yul\":14532:14536   */\n      0x00\n        /* \"#utility.yul\":14552:14572   */\n      tag_410\n        /* \"#utility.yul\":14570:14571   */\n      dup3\n        /* \"#utility.yul\":14552:14572   */\n      tag_186\n      jump\t// in\n    tag_410:\n        /* \"#utility.yul\":14547:14572   */\n      swap2\n      pop\n        /* \"#utility.yul\":14586:14606   */\n      tag_411\n        /* \"#utility.yul\":14604:14605   */\n      dup4\n        /* \"#utility.yul\":14586:14606   */\n      tag_186\n      jump\t// in\n    tag_411:\n        /* \"#utility.yul\":14581:14606   */\n      swap3\n      pop\n        /* \"#utility.yul\":14630:14631   */\n      dup3\n        /* \"#utility.yul\":14627:14628   */\n      dup3\n        /* \"#utility.yul\":14623:14632   */\n      sub\n        /* \"#utility.yul\":14615:14632   */\n      swap1\n      pop\n        /* \"#utility.yul\":14654:14655   */\n      dup2\n        /* \"#utility.yul\":14648:14652   */\n      dup2\n        /* \"#utility.yul\":14645:14656   */\n      gt\n        /* \"#utility.yul\":14642:14679   */\n      iszero\n      tag_412\n      jumpi\n        /* \"#utility.yul\":14659:14677   */\n      tag_413\n      tag_233\n      jump\t// in\n    tag_413:\n        /* \"#utility.yul\":14642:14679   */\n    tag_412:\n        /* \"#utility.yul\":14492:14686   */\n      swap3\n      swap2\n      pop\n      pop\n      jump\t// out\n        /* \"#utility.yul\":14692:14872   */\n    tag_234:\n        /* \"#utility.yul\":14740:14817   */\n      0x4e487b7100000000000000000000000000000000000000000000000000000000\n        /* \"#utility.yul\":14737:14738   */\n      0x00\n        /* \"#utility.yul\":14730:14818   */\n      mstore\n        /* \"#utility.yul\":14837:14841   */\n      0x22\n        /* \"#utility.yul\":14834:14835   */\n      0x04\n        /* \"#utility.yul\":14827:14842   */\n      mstore\n        /* \"#utility.yul\":14861:14865   */\n      0x24\n        /* \"#utility.yul\":14858:14859   */\n      0x00\n        /* \"#utility.yul\":14851:14866   */\n      revert\n        /* \"#utility.yul\":14878:15198   */\n    tag_81:\n        /* \"#utility.yul\":14922:14928   */\n      0x00\n        /* \"#utility.yul\":14959:14960   */\n      0x02\n        /* \"#utility.yul\":14953:14957   */\n      dup3\n        /* \"#utility.yul\":14949:14961   */\n      div\n        /* \"#utility.yul\":14939:14961   */\n      swap1\n      pop\n        /* \"#utility.yul\":15006:15007   */\n      0x01\n        /* \"#utility.yul\":15000:15004   */\n      dup3\n        /* \"#utility.yul\":14996:15008   */\n      and\n        /* \"#utility.yul\":15027:15045   */\n      dup1\n        /* \"#utility.yul\":15017:15098   */\n      tag_416\n      jumpi\n        /* \"#utility.yul\":15083:15087   */\n      0x7f\n        /* \"#utility.yul\":15075:15081   */\n      dup3\n        /* \"#utility.yul\":15071:15088   */\n      and\n        /* \"#utility.yul\":15061:15088   */\n      swap2\n      pop\n        /* \"#utility.yul\":15017:15098   */\n    tag_416:\n        /* \"#utility.yul\":15145:15147   */\n      0x20\n        /* \"#utility.yul\":15137:15143   */\n      dup3\n        /* \"#utility.yul\":15134:15148   */\n      lt\n        /* \"#utility.yul\":15114:15132   */\n      dup2\n        /* \"#utility.yul\":15111:15149   */\n      sub\n        /* \"#utility.yul\":15108:15192   */\n      tag_417\n      jumpi\n        /* \"#utility.yul\":15164:15182   */\n      tag_418\n      tag_234\n      jump\t// in\n    tag_418:\n        /* \"#utility.yul\":15108:15192   */\n    tag_417:\n        /* \"#utility.yul\":14929:15198   */\n      pop\n        /* \"#utility.yul\":14878:15198   */\n      swap2\n      swap1\n      pop\n      jump\t// out\n        /* \"#utility.yul\":15204:15345   */\n    tag_235:\n        /* \"#utility.yul\":15253:15257   */\n      0x00\n        /* \"#utility.yul\":15276:15279   */\n      dup2\n        /* \"#utility.yul\":15268:15279   */\n      swap1\n      pop\n        /* \"#utility.yul\":15299:15302   */\n      dup2\n        /* \"#utility.yul\":15296:15297   */\n      0x00\n        /* \"#utility.yul\":15289:15303   */\n      mstore\n        /* \"#utility.yul\":15333:15337   */\n      0x20\n        /* \"#utility.yul\":15330:15331   */\n      0x00\n        /* \"#utility.yul\":15320:15338   */\n      keccak256\n        /* \"#utility.yul\":15312:15338   */\n      swap1\n      pop\n        /* \"#utility.yul\":15204:15345   */\n      swap2\n      swap1\n      pop\n      jump\t// out\n        /* \"#utility.yul\":15351:15444   */\n    tag_236:\n        /* \"#utility.yul\":15388:15394   */\n      0x00\n        /* \"#utility.yul\":15435:15437   */\n      0x20\n        /* \"#utility.yul\":15430:15432   */\n      0x1f\n        /* \"#utility.yul\":15423:15428   */\n      dup4\n        /* \"#utility.yul\":15419:15433   */\n      add\n        /* \"#utility.yul\":15415:15438   */\n      div\n        /* \"#utility.yul\":15405:15438   */\n      swap1\n      pop\n        /* \"#utility.yul\":15351:15444   */\n      swap2\n      swap1\n      pop\n      jump\t// out\n        /* \"#utility.yul\":15450:15557   */\n    tag_237:\n        /* \"#utility.yul\":15494:15502   */\n      0x00\n        /* \"#utility.yul\":15544:15549   */\n      dup3\n        /* \"#utility.yul\":15538:15542   */\n      dup3\n        /* \"#utility.yul\":15534:15550   */\n      shl\n        /* \"#utility.yul\":15513:15550   */\n      swap1\n      pop\n        /* \"#utility.yul\":15450:15557   */\n      swap3\n      swap2\n      pop\n      pop\n      jump\t// out\n        /* \"#utility.yul\":15563:15956   */\n    tag_238:\n        /* \"#utility.yul\":15632:15638   */\n      0x00\n        /* \"#utility.yul\":15682:15683   */\n      0x08\n        /* \"#utility.yul\":15670:15680   */\n      dup4\n        /* \"#utility.yul\":15666:15684   */\n      mul\n        /* \"#utility.yul\":15705:15802   */\n      tag_423\n        /* \"#utility.yul\":15735:15801   */\n      0xffffffffffffffffffffffffffffffffffffffffffffffffffffffffffffffff\n        /* \"#utility.yul\":15724:15733   */\n      dup3\n        /* \"#utility.yul\":15705:15802   */\n      tag_237\n      jump\t// in\n    tag_423:\n        /* \"#utility.yul\":15823:15862   */\n      tag_424\n        /* \"#utility.yul\":15853:15861   */\n      dup7\n        /* \"#utility.yul\":15842:15851   */\n      dup4\n        /* \"#utility.yul\":15823:15862   */\n      tag_237\n      jump\t// in\n    tag_424:\n        /* \"#utility.yul\":15811:15862   */\n      swap6\n      pop\n        /* \"#utility.yul\":15895:15899   */\n      dup1\n        /* \"#utility.yul\":15891:15900   */\n      not\n        /* \"#utility.yul\":15884:15889   */\n      dup5\n        /* \"#utility.yul\":15880:15901   */\n      and\n        /* \"#utility.yul\":15871:15901   */\n      swap4\n      pop\n        /* \"#utility.yul\":15944:15948   */\n      dup1\n        /* \"#utility.yul\":15934:15942   */\n      dup7\n        /* \"#utility.yul\":15930:15949   */\n      and\n        /* \"#utility.yul\":15923:15928   */\n      dup5\n        /* \"#utility.yul\":15920:15950   */\n      or\n        /* \"#utility.yul\":15910:15950   */\n      swap3\n      pop\n        /* \"#utility.yul\":15639:15956   */\n      pop\n      pop\n        /* \"#utility.yul\":15563:15956   */\n      swap4\n      swap3\n      pop\n      pop\n      pop\n      jump\t// out\n        /* \"#utility.yul\":15962:16022   */\n    tag_239:\n        /* \"#utility.yul\":15990:15993   */\n      0x00\n        /* \"#utility.yul\":16011:16016   */\n      dup2\n        /* \"#utility.yul\":16004:16016   */\n      swap1\n      pop\n        /* \"#utility.yul\":15962:16022   */\n      swap2\n      swap1\n      pop\n      jump\t// out\n        /* \"#utility.yul\":16028:16170   */\n    tag_240:\n        /* \"#utility.yul\":16078:16087   */\n      0x00\n        /* \"#utility.yul\":16111:16164   */\n      tag_427\n        /* \"#utility.yul\":16129:16163   */\n      tag_428\n        /* \"#utility.yul\":16138:16162   */\n      tag_429\n        /* \"#utility.yul\":16156:16161   */\n      dup5\n        /* \"#utility.yul\":16138:16162   */\n      tag_186\n      jump\t// in\n    tag_429:\n        /* \"#utility.yul\":16129:16163   */\n      tag_239\n      jump\t// in\n    tag_428:\n        /* \"#utility.yul\":16111:16164   */\n      tag_186\n      jump\t// in\n    tag_427:\n        /* \"#utility.yul\":16098:16164   */\n      swap1\n      pop\n        /* \"#utility.yul\":16028:16170   */\n      swap2\n      swap1\n      pop\n      jump\t// out\n        /* \"#utility.yul\":16176:16251   */\n    tag_241:\n        /* \"#utility.yul\":16219:16222   */\n      0x00\n        /* \"#utility.yul\":16240:16245   */\n      dup2\n        /* \"#utility.yul\":16233:16245   */\n      swap1\n      pop\n        /* \"#utility.yul\":16176:16251   */\n      swap2\n      swap1\n      pop\n      jump\t// out\n        /* \"#utility.yul\":16257:16526   */\n    tag_242:\n        /* \"#utility.yul\":16367:16406   */\n      tag_432\n        /* \"#utility.yul\":16398:16405   */\n      dup4\n        /* \"#utility.yul\":16367:16406   */\n      tag_240\n      jump\t// in\n    tag_432:\n        /* \"#utility.yul\":16428:16519   */\n      tag_433\n        /* \"#utility.yul\":16477:16518   */\n      tag_434\n        /* \"#utility.yul\":16501:16517   */\n      dup3\n        /* \"#utility.yul\":16477:16518   */\n      tag_241\n      jump\t// in\n    tag_434:\n        /* \"#utility.yul\":16469:16475   */\n      dup5\n        /* \"#utility.yul\":16462:16466   */\n      dup5\n        /* \"#utility.yul\":16456:16467   */\n      sload\n        /* \"#utility.yul\":16428:16519   */\n      tag_238\n      jump\t// in\n    tag_433:\n        /* \"#utility.yul\":16422:16426   */\n      dup3\n        /* \"#utility.yul\":16415:16520   */\n      sstore\n        /* \"#utility.yul\":16333:16526   */\n      pop\n        /* \"#utility.yul\":16257:16526   */\n      pop\n      pop\n      pop\n      jump\t// out\n        /* \"#utility.yul\":16532:16605   */\n    tag_243:\n        /* \"#utility.yul\":16577:16580   */\n      0x00\n        /* \"#utility.yul\":16598:16599   */\n      0x00\n        /* \"#utility.yul\":16591:16599   */\n      swap1\n      pop\n        /* \"#utility.yul\":16532:16605   */\n      swap1\n      jump\t// out\n        /* \"#utility.yul\":16611:16800   */\n    tag_244:\n        /* \"#utility.yul\":16688:16720   */\n      tag_437\n      tag_243\n      jump\t// in\n    tag_437:\n        /* \"#utility.yul\":16729:16794   */\n      tag_438\n        /* \"#utility.yul\":16787:16793   */\n      dup2\n        /* \"#utility.yul\":16779:16785   */\n      dup5\n        /* \"#utility.yul\":16773:16777   */\n      dup5\n        /* \"#utility.yul\":16729:16794   */\n      tag_242\n      jump\t// in\n    tag_438:\n        /* \"#utility.yul\":16664:16800   */\n      pop\n        /* \"#utility.yul\":16611:16800   */\n      pop\n      pop\n      jump\t// out\n        /* \"#utility.yul\":16806:16992   */\n    tag_245:\n        /* \"#utility.yul\":16866:16986   */\n    tag_440:\n        /* \"#utility.yul\":16883:16886   */\n      dup2\n        /* \"#utility.yul\":16876:16881   */\n      dup2\n        /* \"#utility.yul\":16873:16887   */\n      lt\n        /* \"#utility.yul\":16866:16986   */\n      iszero\n      tag_442\n      jumpi\n        /* \"#utility.yul\":16937:16976   */\n      tag_443\n        /* \"#utility.yul\":16974:16975   */\n      0x00\n        /* \"#utility.yul\":16967:16972   */\n      dup3\n        /* \"#utility.yul\":16937:16976   */\n      tag_244\n      jump\t// in\n    tag_443:\n        /* \"#utility.yul\":16910:16911   */\n      0x01\n        /* \"#utility.yul\":16903:16908   */\n      dup2\n        /* \"#utility.yul\":16899:16912   */\n      add\n        /* \"#utility.yul\":16890:16912   */\n      swap1\n      pop\n        /* \"#utility.yul\":16866:16986   */\n      jump(tag_440)\n    tag_442:\n        /* \"#utility.yul\":16806:16992   */\n      pop\n      pop\n      jump\t// out\n        /* \"#utility.yul\":16998:17541   */\n    tag_246:\n        /* \"#utility.yul\":17099:17101   */\n      0x1f\n        /* \"#utility.yul\":17094:17097   */\n      dup3\n        /* \"#utility.yul\":17091:17102   */\n      gt\n        /* \"#utility.yul\":17088:17534   */\n      iszero\n      tag_445\n      jumpi\n        /* \"#utility.yul\":17133:17171   */\n      tag_446\n        /* \"#utility.yul\":17165:17170   */\n      dup2\n        /* \"#utility.yul\":17133:17171   */\n      tag_235\n      jump\t// in\n    tag_446:\n        /* \"#utility.yul\":17217:17246   */\n      tag_447\n        /* \"#utility.yul\":17235:17245   */\n      dup5\n        /* \"#utility.yul\":17217:17246   */\n      tag_236\n      jump\t// in\n    tag_447:\n        /* \"#utility.yul\":17207:17215   */\n      dup2\n        /* \"#utility.yul\":17203:17247   */\n      add\n        /* \"#utility.yul\":17400:17402   */\n      0x20\n        /* \"#utility.yul\":17388:17398   */\n      dup6\n        /* \"#utility.yul\":17385:17403   */\n      lt\n        /* \"#utility.yul\":17382:17431   */\n      iszero\n      tag_448\n      jumpi\n        /* \"#utility.yul\":17421:17429   */\n      dup2\n        /* \"#utility.yul\":17406:17429   */\n      swap1\n      pop\n        /* \"#utility.yul\":17382:17431   */\n    tag_448:\n        /* \"#utility.yul\":17444:17524   */\n      tag_449\n        /* \"#utility.yul\":17500:17522   */\n      tag_450\n        /* \"#utility.yul\":17518:17521   */\n      dup6\n        /* \"#utility.yul\":17500:17522   */\n      tag_236\n      jump\t// in\n    tag_450:\n        /* \"#utility.yul\":17490:17498   */\n      dup4\n        /* \"#utility.yul\":17486:17523   */\n      add\n        /* \"#utility.yul\":17473:17484   */\n      dup3\n        /* \"#utility.yul\":17444:17524   */\n      tag_245\n      jump\t// in\n    tag_449:\n        /* \"#utility.yul\":17103:17534   */\n      pop\n      pop\n        /* \"#utility.yul\":17088:17534   */\n    tag_445:\n        /* \"#utility.yul\":16998:17541   */\n      pop\n      pop\n      pop\n      jump\t// out\n        /* \"#utility.yul\":17547:17664   */\n    tag_247:\n        /* \"#utility.yul\":17601:17609   */\n      0x00\n        /* \"#utility.yul\":17651:17656   */\n      dup3\n        /* \"#utility.yul\":17645:17649   */\n      dup3\n        /* \"#utility.yul\":17641:17657   */\n      shr\n        /* \"#utility.yul\":17620:17657   */\n      swap1\n      pop\n        /* \"#utility.yul\":17547:17664   */\n      swap3\n      swap2\n      pop\n      pop\n      jump\t// out\n        /* \"#utility.yul\":17670:17839   */\n    tag_248:\n        /* \"#utility.yul\":17714:17720   */\n      0x00\n        /* \"#utility.yul\":17747:17798   */\n      tag_453\n        /* \"#utility.yul\":17795:17796   */\n      0x00\n        /* \"#utility.yul\":17791:17797   */\n      not\n        /* \"#utility.yul\":17783:17788   */\n      dup5\n        /* \"#utility.yul\":17780:17781   */\n      0x08\n        /* \"#utility.yul\":17776:17789   */\n      mul\n        /* \"#utility.yul\":17747:17798   */\n      tag_247\n      jump\t// in\n    tag_453:\n        /* \"#utility.yul\":17743:17799   */\n      not\n        /* \"#utility.yul\":17828:17832   */\n      dup1\n        /* \"#utility.yul\":17822:17826   */\n      dup4\n        /* \"#utility.yul\":17818:17833   */\n      and\n        /* \"#utility.yul\":17808:17833   */\n      swap2\n      pop\n        /* \"#utility.yul\":17721:17839   */\n      pop\n        /* \"#utility.yul\":17670:17839   */\n      swap3\n      swap2\n      pop\n      pop\n      jump\t// out\n        /* \"#utility.yul\":17844:18139   */\n    tag_249:\n        /* \"#utility.yul\":17920:17924   */\n      0x00\n        /* \"#utility.yul\":18066:18095   */\n      tag_455\n        /* \"#utility.yul\":18091:18094   */\n      dup4\n        /* \"#utility.yul\":18085:18089   */\n      dup4\n        /* \"#utility.yul\":18066:18095   */\n      tag_248\n      jump\t// in\n    tag_455:\n        /* \"#utility.yul\":18058:18095   */\n      swap2\n      pop\n        /* \"#utility.yul\":18128:18131   */\n      dup3\n        /* \"#utility.yul\":18125:18126   */\n      0x02\n        /* \"#utility.yul\":18121:18132   */\n      mul\n        /* \"#utility.yul\":18115:18119   */\n      dup3\n        /* \"#utility.yul\":18112:18133   */\n      or\n        /* \"#utility.yul\":18104:18133   */\n      swap1\n      pop\n        /* \"#utility.yul\":17844:18139   */\n      swap3\n      swap2\n      pop\n      pop\n      jump\t// out\n        /* \"#utility.yul\":18144:19539   */\n    tag_90:\n        /* \"#utility.yul\":18261:18298   */\n      tag_457\n        /* \"#utility.yul\":18294:18297   */\n      dup3\n        /* \"#utility.yul\":18261:18298   */\n      tag_214\n      jump\t// in\n    tag_457:\n        /* \"#utility.yul\":18363:18381   */\n      0xffffffffffffffff\n        /* \"#utility.yul\":18355:18361   */\n      dup2\n        /* \"#utility.yul\":18352:18382   */\n      gt\n        /* \"#utility.yul\":18349:18405   */\n      iszero\n      tag_458\n      jumpi\n        /* \"#utility.yul\":18385:18403   */\n      tag_459\n      tag_204\n      jump\t// in\n    tag_459:\n        /* \"#utility.yul\":18349:18405   */\n    tag_458:\n        /* \"#utility.yul\":18429:18467   */\n      tag_460\n        /* \"#utility.yul\":18461:18465   */\n      dup3\n        /* \"#utility.yul\":18455:18466   */\n      sload\n        /* \"#utility.yul\":18429:18467   */\n      tag_81\n      jump\t// in\n    tag_460:\n        /* \"#utility.yul\":18514:18581   */\n      tag_461\n        /* \"#utility.yul\":18574:18580   */\n      dup3\n        /* \"#utility.yul\":18566:18572   */\n      dup3\n        /* \"#utility.yul\":18560:18564   */\n      dup6\n        /* \"#utility.yul\":18514:18581   */\n      tag_246\n      jump\t// in\n    tag_461:\n        /* \"#utility.yul\":18608:18609   */\n      0x00\n        /* \"#utility.yul\":18632:18636   */\n      0x20\n        /* \"#utility.yul\":18619:18636   */\n      swap1\n      pop\n        /* \"#utility.yul\":18664:18666   */\n      0x1f\n        /* \"#utility.yul\":18656:18662   */\n      dup4\n        /* \"#utility.yul\":18653:18667   */\n      gt\n        /* \"#utility.yul\":18681:18682   */\n      0x01\n        /* \"#utility.yul\":18676:19294   */\n      dup2\n      eq\n      tag_463\n      jumpi\n        /* \"#utility.yul\":19338:19339   */\n      0x00\n        /* \"#utility.yul\":19355:19361   */\n      dup5\n        /* \"#utility.yul\":19352:19429   */\n      iszero\n      tag_464\n      jumpi\n        /* \"#utility.yul\":19404:19413   */\n      dup3\n        /* \"#utility.yul\":19399:19402   */\n      dup8\n        /* \"#utility.yul\":19395:19414   */\n      add\n        /* \"#utility.yul\":19389:19415   */\n      mload\n        /* \"#utility.yul\":19380:19415   */\n      swap1\n      pop\n        /* \"#utility.yul\":19352:19429   */\n    tag_464:\n        /* \"#utility.yul\":19455:19522   */\n      tag_465\n        /* \"#utility.yul\":19515:19521   */\n      dup6\n        /* \"#utility.yul\":19508:19513   */\n      dup3\n        /* \"#utility.yul\":19455:19522   */\n      tag_249\n      jump\t// in\n    tag_465:\n        /* \"#utility.yul\":19449:19453   */\n      dup7\n        /* \"#utility.yul\":19442:19523   */\n      sstore\n        /* \"#utility.yul\":19311:19533   */\n      pop\n        /* \"#utility.yul\":18646:19533   */\n      jump(tag_462)\n        /* \"#utility.yul\":18676:19294   */\n    tag_463:\n        /* \"#utility.yul\":18728:18732   */\n      0x1f\n        /* \"#utility.yul\":18724:18733   */\n      not\n        /* \"#utility.yul\":18716:18722   */\n      dup5\n        /* \"#utility.yul\":18712:18734   */\n      and\n        /* \"#utility.yul\":18762:18799   */\n      tag_466\n        /* \"#utility.yul\":18794:18798   */\n      dup7\n        /* \"#utility.yul\":18762:18799   */\n      tag_235\n      jump\t// in\n    tag_466:\n        /* \"#utility.yul\":18821:18822   */\n      0x00\n        /* \"#utility.yul\":18835:19043   */\n    tag_467:\n        /* \"#utility.yul\":18849:18856   */\n      dup3\n        /* \"#utility.yul\":18846:18847   */\n      dup2\n        /* \"#utility.yul\":18843:18857   */\n      lt\n        /* \"#utility.yul\":18835:19043   */\n      iszero\n      tag_469\n      jumpi\n        /* \"#utility.yul\":18928:18937   */\n      dup5\n        /* \"#utility.yul\":18923:18926   */\n      dup10\n        /* \"#utility.yul\":18919:18938   */\n      add\n        /* \"#utility.yul\":18913:18939   */\n      mload\n        /* \"#utility.yul\":18905:18911   */\n      dup3\n        /* \"#utility.yul\":18898:18940   */\n      sstore\n        /* \"#utility.yul\":18979:18980   */\n      0x01\n        /* \"#utility.yul\":18971:18977   */\n      dup3\n        /* \"#utility.yul\":18967:18981   */\n      add\n        /* \"#utility.yul\":18957:18981   */\n      swap2\n      pop\n        /* \"#utility.yul\":19026:19028   */\n      0x20\n        /* \"#utility.yul\":19015:19024   */\n      dup6\n        /* \"#utility.yul\":19011:19029   */\n      add\n        /* \"#utility.yul\":18998:19029   */\n      swap5\n      pop\n        /* \"#utility.yul\":18872:18876   */\n      0x20\n        /* \"#utility.yul\":18869:18870   */\n      dup2\n        /* \"#utility.yul\":18865:18877   */\n      add\n        /* \"#utility.yul\":18860:18877   */\n      swap1\n      pop\n        /* \"#utility.yul\":18835:19043   */\n      jump(tag_467)\n    tag_469:\n        /* \"#utility.yul\":19071:19077   */\n      dup7\n        /* \"#utility.yul\":19062:19069   */\n      dup4\n        /* \"#utility.yul\":19059:19078   */\n      lt\n        /* \"#utility.yul\":19056:19235   */\n      iszero\n      tag_470\n      jumpi\n        /* \"#utility.yul\":19129:19138   */\n      dup5\n        /* \"#utility.yul\":19124:19127   */\n      dup10\n        /* \"#utility.yul\":19120:19139   */\n      add\n        /* \"#utility.yul\":19114:19140   */\n      mload\n        /* \"#utility.yul\":19172:19220   */\n      tag_471\n        /* \"#utility.yul\":19214:19218   */\n      0x1f\n        /* \"#utility.yul\":19206:19212   */\n      dup10\n        /* \"#utility.yul\":19202:19219   */\n      and\n        /* \"#utility.yul\":19191:19200   */\n      dup3\n        /* \"#utility.yul\":19172:19220   */\n      tag_248\n      jump\t// in\n    tag_471:\n        /* \"#utility.yul\":19164:19170   */\n      dup4\n        /* \"#utility.yul\":19157:19221   */\n      sstore\n        /* \"#utility.yul\":19079:19235   */\n      pop\n        /* \"#utility.yul\":19056:19235   */\n    tag_470:\n        /* \"#utility.yul\":19281:19282   */\n      0x01\n        /* \"#utility.yul\":19277:19278   */\n      0x02\n        /* \"#utility.yul\":19269:19275   */\n      dup9\n        /* \"#utility.yul\":19265:19279   */\n      mul\n        /* \"#utility.yul\":19261:19283   */\n      add\n        /* \"#utility.yul\":19255:19259   */\n      dup9\n        /* \"#utility.yul\":19248:19284   */\n      sstore\n        /* \"#utility.yul\":18683:19294   */\n      pop\n      pop\n      pop\n        /* \"#utility.yul\":18646:19533   */\n    tag_462:\n      pop\n        /* \"#utility.yul\":18236:19539   */\n      pop\n      pop\n      pop\n        /* \"#utility.yul\":18144:19539   */\n      pop\n      pop\n      jump\t// out\n        /* \"#utility.yul\":19545:19725   */\n    tag_93:\n        /* \"#utility.yul\":19593:19670   */\n      0x4e487b7100000000000000000000000000000000000000000000000000000000\n        /* \"#utility.yul\":19590:19591   */\n      0x00\n        /* \"#utility.yul\":19583:19671   */\n      mstore\n        /* \"#utility.yul\":19690:19694   */\n      0x31\n        /* \"#utility.yul\":19687:19688   */\n      0x04\n        /* \"#utility.yul\":19680:19695   */\n      mstore\n        /* \"#utility.yul\":19714:19718   */\n      0x24\n        /* \"#utility.yul\":19711:19712   */\n      0x00\n        /* \"#utility.yul\":19704:19719   */\n      revert\n        /* \"#utility.yul\":19731:19907   */\n    tag_250:\n        /* \"#utility.yul\":19871:19899   */\n      0x546970206d7573742062652067726561746572207468616e2030000000000000\n        /* \"#utility.yul\":19867:19868   */\n      0x00\n        /* \"#utility.yul\":19859:19865   */\n      dup3\n        /* \"#utility.yul\":19855:19869   */\n      add\n        /* \"#utility.yul\":19848:19900   */\n      mstore\n        /* \"#utility.yul\":19731:19907   */\n      pop\n      jump\t// out\n        /* \"#utility.yul\":19913:20279   */\n    tag_251:\n        /* \"#utility.yul\":20055:20058   */\n      0x00\n        /* \"#utility.yul\":20076:20143   */\n      tag_475\n        /* \"#utility.yul\":20140:20142   */\n      0x1a\n        /* \"#utility.yul\":20135:20138   */\n      dup4\n        /* \"#utility.yul\":20076:20143   */\n      tag_215\n      jump\t// in\n    tag_475:\n        /* \"#utility.yul\":20069:20143   */\n      swap2\n      pop\n        /* \"#utility.yul\":20152:20245   */\n      tag_476\n        /* \"#utility.yul\":20241:20244   */\n      dup3\n        /* \"#utility.yul\":20152:20245   */\n      tag_250\n      jump\t// in\n    tag_476:\n        /* \"#utility.yul\":20270:20272   */\n      0x20\n        /* \"#utility.yul\":20265:20268   */\n      dup3\n        /* \"#utility.yul\":20261:20273   */\n      add\n        /* \"#utility.yul\":20254:20273   */\n      swap1\n      pop\n        /* \"#utility.yul\":19913:20279   */\n      swap2\n      swap1\n      pop\n      jump\t// out\n        /* \"#utility.yul\":20285:20704   */\n    tag_100:\n        /* \"#utility.yul\":20451:20455   */\n      0x00\n        /* \"#utility.yul\":20489:20491   */\n      0x20\n        /* \"#utility.yul\":20478:20487   */\n      dup3\n        /* \"#utility.yul\":20474:20492   */\n      add\n        /* \"#utility.yul\":20466:20492   */\n      swap1\n      pop\n        /* \"#utility.yul\":20538:20547   */\n      dup2\n        /* \"#utility.yul\":20532:20536   */\n      dup2\n        /* \"#utility.yul\":20528:20548   */\n      sub\n        /* \"#utility.yul\":20524:20525   */\n      0x00\n        /* \"#utility.yul\":20513:20522   */\n      dup4\n        /* \"#utility.yul\":20509:20526   */\n      add\n        /* \"#utility.yul\":20502:20549   */\n      mstore\n        /* \"#utility.yul\":20566:20697   */\n      tag_478\n        /* \"#utility.yul\":20692:20696   */\n      dup2\n        /* \"#utility.yul\":20566:20697   */\n      tag_251\n      jump\t// in\n    tag_478:\n        /* \"#utility.yul\":20558:20697   */\n      swap1\n      pop\n        /* \"#utility.yul\":20285:20704   */\n      swap2\n      swap1\n      pop\n      jump\t// out\n        /* \"#utility.yul\":20710:20882   */\n    tag_252:\n        /* \"#utility.yul\":20850:20874   */\n      0x4e6f204d6f6e657920746f206469737472696275746500000000000000000000\n        /* \"#utility.yul\":20846:20847   */\n      0x00\n        /* \"#utility.yul\":20838:20844   */\n      dup3\n        /* \"#utility.yul\":20834:20848   */\n      add\n        /* \"#utility.yul\":20827:20875   */\n      mstore\n        /* \"#utility.yul\":20710:20882   */\n      pop\n      jump\t// out\n        /* \"#utility.yul\":20888:21254   */\n    tag_253:\n        /* \"#utility.yul\":21030:21033   */\n      0x00\n        /* \"#utility.yul\":21051:21118   */\n      tag_481\n        /* \"#utility.yul\":21115:21117   */\n      0x16\n        /* \"#utility.yul\":21110:21113   */\n      dup4\n        /* \"#utility.yul\":21051:21118   */\n      tag_215\n      jump\t// in\n    tag_481:\n        /* \"#utility.yul\":21044:21118   */\n      swap2\n      pop\n        /* \"#utility.yul\":21127:21220   */\n      tag_482\n        /* \"#utility.yul\":21216:21219   */\n      dup3\n        /* \"#utility.yul\":21127:21220   */\n      tag_252\n      jump\t// in\n    tag_482:\n        /* \"#utility.yul\":21245:21247   */\n      0x20\n        /* \"#utility.yul\":21240:21243   */\n      dup3\n        /* \"#utility.yul\":21236:21248   */\n      add\n        /* \"#utility.yul\":21229:21248   */\n      swap1\n      pop\n        /* \"#utility.yul\":20888:21254   */\n      swap2\n      swap1\n      pop\n      jump\t// out\n        /* \"#utility.yul\":21260:21679   */\n    tag_108:\n        /* \"#utility.yul\":21426:21430   */\n      0x00\n        /* \"#utility.yul\":21464:21466   */\n      0x20\n        /* \"#utility.yul\":21453:21462   */\n      dup3\n        /* \"#utility.yul\":21449:21467   */\n      add\n        /* \"#utility.yul\":21441:21467   */\n      swap1\n      pop\n        /* \"#utility.yul\":21513:21522   */\n      dup2\n        /* \"#utility.yul\":21507:21511   */\n      dup2\n        /* \"#utility.yul\":21503:21523   */\n      sub\n        /* \"#utility.yul\":21499:21500   */\n      0x00\n        /* \"#utility.yul\":21488:21497   */\n      dup4\n        /* \"#utility.yul\":21484:21501   */\n      add\n        /* \"#utility.yul\":21477:21524   */\n      mstore\n        /* \"#utility.yul\":21541:21672   */\n      tag_484\n        /* \"#utility.yul\":21667:21671   */\n      dup2\n        /* \"#utility.yul\":21541:21672   */\n      tag_253\n      jump\t// in\n    tag_484:\n        /* \"#utility.yul\":21533:21672   */\n      swap1\n      pop\n        /* \"#utility.yul\":21260:21679   */\n      swap2\n      swap1\n      pop\n      jump\t// out\n        /* \"#utility.yul\":21685:21855   */\n    tag_254:\n        /* \"#utility.yul\":21825:21847   */\n      0x4e6f207761697472657373657320746f20706179000000000000000000000000\n        /* \"#utility.yul\":21821:21822   */\n      0x00\n        /* \"#utility.yul\":21813:21819   */\n      dup3\n        /* \"#utility.yul\":21809:21823   */\n      add\n        /* \"#utility.yul\":21802:21848   */\n      mstore\n        /* \"#utility.yul\":21685:21855   */\n      pop\n      jump\t// out\n        /* \"#utility.yul\":21861:22227   */\n    tag_255:\n        /* \"#utility.yul\":22003:22006   */\n      0x00\n        /* \"#utility.yul\":22024:22091   */\n      tag_487\n        /* \"#utility.yul\":22088:22090   */\n      0x14\n        /* \"#utility.yul\":22083:22086   */\n      dup4\n        /* \"#utility.yul\":22024:22091   */\n      tag_215\n      jump\t// in\n    tag_487:\n        /* \"#utility.yul\":22017:22091   */\n      swap2\n      pop\n        /* \"#utility.yul\":22100:22193   */\n      tag_488\n        /* \"#utility.yul\":22189:22192   */\n      dup3\n        /* \"#utility.yul\":22100:22193   */\n      tag_254\n      jump\t// in\n    tag_488:\n        /* \"#utility.yul\":22218:22220   */\n      0x20\n        /* \"#utility.yul\":22213:22216   */\n      dup3\n        /* \"#utility.yul\":22209:22221   */\n      add\n        /* \"#utility.yul\":22202:22221   */\n      swap1\n      pop\n        /* \"#utility.yul\":21861:22227   */\n      swap2\n      swap1\n      pop\n      jump\t// out\n        /* \"#utility.yul\":22233:22652   */\n    tag_111:\n        /* \"#utility.yul\":22399:22403   */\n      0x00\n        /* \"#utility.yul\":22437:22439   */\n      0x20\n        /* \"#utility.yul\":22426:22435   */\n      dup3\n        /* \"#utility.yul\":22422:22440   */\n      add\n        /* \"#utility.yul\":22414:22440   */\n      swap1\n      pop\n        /* \"#utility.yul\":22486:22495   */\n      dup2\n        /* \"#utility.yul\":22480:22484   */\n      dup2\n        /* \"#utility.yul\":22476:22496   */\n      sub\n        /* \"#utility.yul\":22472:22473   */\n      0x00\n        /* \"#utility.yul\":22461:22470   */\n      dup4\n        /* \"#utility.yul\":22457:22474   */\n      add\n        /* \"#utility.yul\":22450:22497   */\n      mstore\n        /* \"#utility.yul\":22514:22645   */\n      tag_490\n        /* \"#utility.yul\":22640:22644   */\n      dup2\n        /* \"#utility.yul\":22514:22645   */\n      tag_255\n      jump\t// in\n    tag_490:\n        /* \"#utility.yul\":22506:22645   */\n      swap1\n      pop\n        /* \"#utility.yul\":22233:22652   */\n      swap2\n      swap1\n      pop\n      jump\t// out\n        /* \"#utility.yul\":22658:23068   */\n    tag_119:\n        /* \"#utility.yul\":22698:22705   */\n      0x00\n        /* \"#utility.yul\":22721:22741   */\n      tag_492\n        /* \"#utility.yul\":22739:22740   */\n      dup3\n        /* \"#utility.yul\":22721:22741   */\n      tag_186\n      jump\t// in\n    tag_492:\n        /* \"#utility.yul\":22716:22741   */\n      swap2\n      pop\n        /* \"#utility.yul\":22755:22775   */\n      tag_493\n        /* \"#utility.yul\":22773:22774   */\n      dup4\n        /* \"#utility.yul\":22755:22775   */\n      tag_186\n      jump\t// in\n    tag_493:\n        /* \"#utility.yul\":22750:22775   */\n      swap3\n      pop\n        /* \"#utility.yul\":22810:22811   */\n      dup3\n        /* \"#utility.yul\":22807:22808   */\n      dup3\n        /* \"#utility.yul\":22803:22812   */\n      mul\n        /* \"#utility.yul\":22832:22862   */\n      tag_494\n        /* \"#utility.yul\":22850:22861   */\n      dup2\n        /* \"#utility.yul\":22832:22862   */\n      tag_186\n      jump\t// in\n    tag_494:\n        /* \"#utility.yul\":22821:22862   */\n      swap2\n      pop\n        /* \"#utility.yul\":23011:23012   */\n      dup3\n        /* \"#utility.yul\":23002:23009   */\n      dup3\n        /* \"#utility.yul\":22998:23013   */\n      div\n        /* \"#utility.yul\":22995:22996   */\n      dup5\n        /* \"#utility.yul\":22992:23014   */\n      eq\n        /* \"#utility.yul\":22972:22973   */\n      dup4\n        /* \"#utility.yul\":22965:22974   */\n      iszero\n        /* \"#utility.yul\":22945:23028   */\n      or\n        /* \"#utility.yul\":22922:23061   */\n      tag_495\n      jumpi\n        /* \"#utility.yul\":23041:23059   */\n      tag_496\n      tag_233\n      jump\t// in\n    tag_496:\n        /* \"#utility.yul\":22922:23061   */\n    tag_495:\n        /* \"#utility.yul\":22706:23068   */\n      pop\n        /* \"#utility.yul\":22658:23068   */\n      swap3\n      swap2\n      pop\n      pop\n      jump\t// out\n        /* \"#utility.yul\":23074:23254   */\n    tag_256:\n        /* \"#utility.yul\":23122:23199   */\n      0x4e487b7100000000000000000000000000000000000000000000000000000000\n        /* \"#utility.yul\":23119:23120   */\n      0x00\n        /* \"#utility.yul\":23112:23200   */\n      mstore\n        /* \"#utility.yul\":23219:23223   */\n      0x12\n        /* \"#utility.yul\":23216:23217   */\n      0x04\n        /* \"#utility.yul\":23209:23224   */\n      mstore\n        /* \"#utility.yul\":23243:23247   */\n      0x24\n        /* \"#utility.yul\":23240:23241   */\n      0x00\n        /* \"#utility.yul\":23233:23248   */\n      revert\n        /* \"#utility.yul\":23260:23445   */\n    tag_121:\n        /* \"#utility.yul\":23300:23301   */\n      0x00\n        /* \"#utility.yul\":23317:23337   */\n      tag_499\n        /* \"#utility.yul\":23335:23336   */\n      dup3\n        /* \"#utility.yul\":23317:23337   */\n      tag_186\n      jump\t// in\n    tag_499:\n        /* \"#utility.yul\":23312:23337   */\n      swap2\n      pop\n        /* \"#utility.yul\":23351:23371   */\n      tag_500\n        /* \"#utility.yul\":23369:23370   */\n      dup4\n        /* \"#utility.yul\":23351:23371   */\n      tag_186\n      jump\t// in\n    tag_500:\n        /* \"#utility.yul\":23346:23371   */\n      swap3\n      pop\n        /* \"#utility.yul\":23390:23391   */\n      dup3\n        /* \"#utility.yul\":23380:23415   */\n      tag_501\n      jumpi\n        /* \"#utility.yul\":23395:23413   */\n      tag_502\n      tag_256\n      jump\t// in\n    tag_502:\n        /* \"#utility.yul\":23380:23415   */\n    tag_501:\n        /* \"#utility.yul\":23437:23438   */\n      dup3\n        /* \"#utility.yul\":23434:23435   */\n      dup3\n        /* \"#utility.yul\":23430:23439   */\n      div\n        /* \"#utility.yul\":23425:23439   */\n      swap1\n      pop\n        /* \"#utility.yul\":23260:23445   */\n      swap3\n      swap2\n      pop\n      pop\n      jump\t// out\n        /* \"#utility.yul\":23451:23783   */\n    tag_129:\n        /* \"#utility.yul\":23572:23576   */\n      0x00\n        /* \"#utility.yul\":23610:23612   */\n      0x40\n        /* \"#utility.yul\":23599:23608   */\n      dup3\n        /* \"#utility.yul\":23595:23613   */\n      add\n        /* \"#utility.yul\":23587:23613   */\n      swap1\n      pop\n        /* \"#utility.yul\":23623:23694   */\n      tag_504\n        /* \"#utility.yul\":23691:23692   */\n      0x00\n        /* \"#utility.yul\":23680:23689   */\n      dup4\n        /* \"#utility.yul\":23676:23693   */\n      add\n        /* \"#utility.yul\":23667:23673   */\n      dup6\n        /* \"#utility.yul\":23623:23694   */\n      tag_187\n      jump\t// in\n    tag_504:\n        /* \"#utility.yul\":23704:23776   */\n      tag_505\n        /* \"#utility.yul\":23772:23774   */\n      0x20\n        /* \"#utility.yul\":23761:23770   */\n      dup4\n        /* \"#utility.yul\":23757:23775   */\n      add\n        /* \"#utility.yul\":23748:23754   */\n      dup5\n        /* \"#utility.yul\":23704:23776   */\n      tag_187\n      jump\t// in\n    tag_505:\n        /* \"#utility.yul\":23451:23783   */\n      swap4\n      swap3\n      pop\n      pop\n      pop\n      jump\t// out\n        /* \"#utility.yul\":23789:23954   */\n    tag_257:\n        /* \"#utility.yul\":23929:23946   */\n      0x496e76616c696420616464726573730000000000000000000000000000000000\n        /* \"#utility.yul\":23925:23926   */\n      0x00\n        /* \"#utility.yul\":23917:23923   */\n      dup3\n        /* \"#utility.yul\":23913:23927   */\n      add\n        /* \"#utility.yul\":23906:23947   */\n      mstore\n        /* \"#utility.yul\":23789:23954   */\n      pop\n      jump\t// out\n        /* \"#utility.yul\":23960:24326   */\n    tag_258:\n        /* \"#utility.yul\":24102:24105   */\n      0x00\n        /* \"#utility.yul\":24123:24190   */\n      tag_508\n        /* \"#utility.yul\":24187:24189   */\n      0x0f\n        /* \"#utility.yul\":24182:24185   */\n      dup4\n        /* \"#utility.yul\":24123:24190   */\n      tag_215\n      jump\t// in\n    tag_508:\n        /* \"#utility.yul\":24116:24190   */\n      swap2\n      pop\n        /* \"#utility.yul\":24199:24292   */\n      tag_509\n        /* \"#utility.yul\":24288:24291   */\n      dup3\n        /* \"#utility.yul\":24199:24292   */\n      tag_257\n      jump\t// in\n    tag_509:\n        /* \"#utility.yul\":24317:24319   */\n      0x20\n        /* \"#utility.yul\":24312:24315   */\n      dup3\n        /* \"#utility.yul\":24308:24320   */\n      add\n        /* \"#utility.yul\":24301:24320   */\n      swap1\n      pop\n        /* \"#utility.yul\":23960:24326   */\n      swap2\n      swap1\n      pop\n      jump\t// out\n        /* \"#utility.yul\":24332:24751   */\n    tag_136:\n        /* \"#utility.yul\":24498:24502   */\n      0x00\n        /* \"#utility.yul\":24536:24538   */\n      0x20\n        /* \"#utility.yul\":24525:24534   */\n      dup3\n        /* \"#utility.yul\":24521:24539   */\n      add\n        /* \"#utility.yul\":24513:24539   */\n      swap1\n      pop\n        /* \"#utility.yul\":24585:24594   */\n      dup2\n        /* \"#utility.yul\":24579:24583   */\n      dup2\n        /* \"#utility.yul\":24575:24595   */\n      sub\n        /* \"#utility.yul\":24571:24572   */\n      0x00\n        /* \"#utility.yul\":24560:24569   */\n      dup4\n        /* \"#utility.yul\":24556:24573   */\n      add\n        /* \"#utility.yul\":24549:24596   */\n      mstore\n        /* \"#utility.yul\":24613:24744   */\n      tag_511\n        /* \"#utility.yul\":24739:24743   */\n      dup2\n        /* \"#utility.yul\":24613:24744   */\n      tag_258\n      jump\t// in\n    tag_511:\n        /* \"#utility.yul\":24605:24744   */\n      swap1\n      pop\n        /* \"#utility.yul\":24332:24751   */\n      swap2\n      swap1\n      pop\n      jump\t// out\n        /* \"#utility.yul\":24757:24926   */\n    tag_259:\n        /* \"#utility.yul\":24897:24918   */\n      0x50657263656e74206d757374206265203e203000000000000000000000000000\n        /* \"#utility.yul\":24893:24894   */\n      0x00\n        /* \"#utility.yul\":24885:24891   */\n      dup3\n        /* \"#utility.yul\":24881:24895   */\n      add\n        /* \"#utility.yul\":24874:24919   */\n      mstore\n        /* \"#utility.yul\":24757:24926   */\n      pop\n      jump\t// out\n        /* \"#utility.yul\":24932:25298   */\n    tag_260:\n        /* \"#utility.yul\":25074:25077   */\n      0x00\n        /* \"#utility.yul\":25095:25162   */\n      tag_514\n        /* \"#utility.yul\":25159:25161   */\n      0x13\n        /* \"#utility.yul\":25154:25157   */\n      dup4\n        /* \"#utility.yul\":25095:25162   */\n      tag_215\n      jump\t// in\n    tag_514:\n        /* \"#utility.yul\":25088:25162   */\n      swap2\n      pop\n        /* \"#utility.yul\":25171:25264   */\n      tag_515\n        /* \"#utility.yul\":25260:25263   */\n      dup3\n        /* \"#utility.yul\":25171:25264   */\n      tag_259\n      jump\t// in\n    tag_515:\n        /* \"#utility.yul\":25289:25291   */\n      0x20\n        /* \"#utility.yul\":25284:25287   */\n      dup3\n        /* \"#utility.yul\":25280:25292   */\n      add\n        /* \"#utility.yul\":25273:25292   */\n      swap1\n      pop\n        /* \"#utility.yul\":24932:25298   */\n      swap2\n      swap1\n      pop\n      jump\t// out\n        /* \"#utility.yul\":25304:25723   */\n    tag_139:\n        /* \"#utility.yul\":25470:25474   */\n      0x00\n        /* \"#utility.yul\":25508:25510   */\n      0x20\n        /* \"#utility.yul\":25497:25506   */\n      dup3\n        /* \"#utility.yul\":25493:25511   */\n      add\n        /* \"#utility.yul\":25485:25511   */\n      swap1\n      pop\n        /* \"#utility.yul\":25557:25566   */\n      dup2\n        /* \"#utility.yul\":25551:25555   */\n      dup2\n        /* \"#utility.yul\":25547:25567   */\n      sub\n        /* \"#utility.yul\":25543:25544   */\n      0x00\n        /* \"#utility.yul\":25532:25541   */\n      dup4\n        /* \"#utility.yul\":25528:25545   */\n      add\n        /* \"#utility.yul\":25521:25568   */\n      mstore\n        /* \"#utility.yul\":25585:25716   */\n      tag_517\n        /* \"#utility.yul\":25711:25715   */\n      dup2\n        /* \"#utility.yul\":25585:25716   */\n      tag_260\n      jump\t// in\n    tag_517:\n        /* \"#utility.yul\":25577:25716   */\n      swap1\n      pop\n        /* \"#utility.yul\":25304:25723   */\n      swap2\n      swap1\n      pop\n      jump\t// out\n        /* \"#utility.yul\":25729:25902   */\n    tag_261:\n        /* \"#utility.yul\":25869:25894   */\n      0x576169747265737320616c726561647920657869737473000000000000000000\n        /* \"#utility.yul\":25865:25866   */\n      0x00\n        /* \"#utility.yul\":25857:25863   */\n      dup3\n        /* \"#utility.yul\":25853:25867   */\n      add\n        /* \"#utility.yul\":25846:25895   */\n      mstore\n        /* \"#utility.yul\":25729:25902   */\n      pop\n      jump\t// out\n        /* \"#utility.yul\":25908:26274   */\n    tag_262:\n        /* \"#utility.yul\":26050:26053   */\n      0x00\n        /* \"#utility.yul\":26071:26138   */\n      tag_520\n        /* \"#utility.yul\":26135:26137   */\n      0x17\n        /* \"#utility.yul\":26130:26133   */\n      dup4\n        /* \"#utility.yul\":26071:26138   */\n      tag_215\n      jump\t// in\n    tag_520:\n        /* \"#utility.yul\":26064:26138   */\n      swap2\n      pop\n        /* \"#utility.yul\":26147:26240   */\n      tag_521\n        /* \"#utility.yul\":26236:26239   */\n      dup3\n        /* \"#utility.yul\":26147:26240   */\n      tag_261\n      jump\t// in\n    tag_521:\n        /* \"#utility.yul\":26265:26267   */\n      0x20\n        /* \"#utility.yul\":26260:26263   */\n      dup3\n        /* \"#utility.yul\":26256:26268   */\n      add\n        /* \"#utility.yul\":26249:26268   */\n      swap1\n      pop\n        /* \"#utility.yul\":25908:26274   */\n      swap2\n      swap1\n      pop\n      jump\t// out\n        /* \"#utility.yul\":26280:26699   */\n    tag_142:\n        /* \"#utility.yul\":26446:26450   */\n      0x00\n        /* \"#utility.yul\":26484:26486   */\n      0x20\n        /* \"#utility.yul\":26473:26482   */\n      dup3\n        /* \"#utility.yul\":26469:26487   */\n      add\n        /* \"#utility.yul\":26461:26487   */\n      swap1\n      pop\n        /* \"#utility.yul\":26533:26542   */\n      dup2\n        /* \"#utility.yul\":26527:26531   */\n      dup2\n        /* \"#utility.yul\":26523:26543   */\n      sub\n        /* \"#utility.yul\":26519:26520   */\n      0x00\n        /* \"#utility.yul\":26508:26517   */\n      dup4\n        /* \"#utility.yul\":26504:26521   */\n      add\n        /* \"#utility.yul\":26497:26544   */\n      mstore\n        /* \"#utility.yul\":26561:26692   */\n      tag_523\n        /* \"#utility.yul\":26687:26691   */\n      dup2\n        /* \"#utility.yul\":26561:26692   */\n      tag_262\n      jump\t// in\n    tag_523:\n        /* \"#utility.yul\":26553:26692   */\n      swap1\n      pop\n        /* \"#utility.yul\":26280:26699   */\n      swap2\n      swap1\n      pop\n      jump\t// out\n        /* \"#utility.yul\":26705:26896   */\n    tag_144:\n        /* \"#utility.yul\":26745:26748   */\n      0x00\n        /* \"#utility.yul\":26764:26784   */\n      tag_525\n        /* \"#utility.yul\":26782:26783   */\n      dup3\n        /* \"#utility.yul\":26764:26784   */\n      tag_186\n      jump\t// in\n    tag_525:\n        /* \"#utility.yul\":26759:26784   */\n      swap2\n      pop\n        /* \"#utility.yul\":26798:26818   */\n      tag_526\n        /* \"#utility.yul\":26816:26817   */\n      dup4\n        /* \"#utility.yul\":26798:26818   */\n      tag_186\n      jump\t// in\n    tag_526:\n        /* \"#utility.yul\":26793:26818   */\n      swap3\n      pop\n        /* \"#utility.yul\":26841:26842   */\n      dup3\n        /* \"#utility.yul\":26838:26839   */\n      dup3\n        /* \"#utility.yul\":26834:26843   */\n      add\n        /* \"#utility.yul\":26827:26843   */\n      swap1\n      pop\n        /* \"#utility.yul\":26862:26865   */\n      dup1\n        /* \"#utility.yul\":26859:26860   */\n      dup3\n        /* \"#utility.yul\":26856:26866   */\n      gt\n        /* \"#utility.yul\":26853:26889   */\n      iszero\n      tag_527\n      jumpi\n        /* \"#utility.yul\":26869:26887   */\n      tag_528\n      tag_233\n      jump\t// in\n    tag_528:\n        /* \"#utility.yul\":26853:26889   */\n    tag_527:\n        /* \"#utility.yul\":26705:26896   */\n      swap3\n      swap2\n      pop\n      pop\n      jump\t// out\n        /* \"#utility.yul\":26902:27083   */\n    tag_263:\n        /* \"#utility.yul\":27042:27075   */\n      0x546f74616c207368617265732063616e6e6f7420657863656564203130302500\n        /* \"#utility.yul\":27038:27039   */\n      0x00\n        /* \"#utility.yul\":27030:27036   */\n      dup3\n        /* \"#utility.yul\":27026:27040   */\n      add\n        /* \"#utility.yul\":27019:27076   */\n      mstore\n        /* \"#utility.yul\":26902:27083   */\n      pop\n      jump\t// out\n        /* \"#utility.yul\":27089:27455   */\n    tag_264:\n        /* \"#utility.yul\":27231:27234   */\n      0x00\n        /* \"#utility.yul\":27252:27319   */\n      tag_531\n        /* \"#utility.yul\":27316:27318   */\n      0x1f\n        /* \"#utility.yul\":27311:27314   */\n      dup4\n        /* \"#utility.yul\":27252:27319   */\n      tag_215\n      jump\t// in\n    tag_531:\n        /* \"#utility.yul\":27245:27319   */\n      swap2\n      pop\n        /* \"#utility.yul\":27328:27421   */\n      tag_532\n        /* \"#utility.yul\":27417:27420   */\n      dup3\n        /* \"#utility.yul\":27328:27421   */\n      tag_263\n      jump\t// in\n    tag_532:\n        /* \"#utility.yul\":27446:27448   */\n      0x20\n        /* \"#utility.yul\":27441:27444   */\n      dup3\n        /* \"#utility.yul\":27437:27449   */\n      add\n        /* \"#utility.yul\":27430:27449   */\n      swap1\n      pop\n        /* \"#utility.yul\":27089:27455   */\n      swap2\n      swap1\n      pop\n      jump\t// out\n        /* \"#utility.yul\":27461:27880   */\n    tag_147:\n        /* \"#utility.yul\":27627:27631   */\n      0x00\n        /* \"#utility.yul\":27665:27667   */\n      0x20\n        /* \"#utility.yul\":27654:27663   */\n      dup3\n        /* \"#utility.yul\":27650:27668   */\n      add\n        /* \"#utility.yul\":27642:27668   */\n      swap1\n      pop\n        /* \"#utility.yul\":27714:27723   */\n      dup2\n        /* \"#utility.yul\":27708:27712   */\n      dup2\n        /* \"#utility.yul\":27704:27724   */\n      sub\n        /* \"#utility.yul\":27700:27701   */\n      0x00\n        /* \"#utility.yul\":27689:27698   */\n      dup4\n        /* \"#utility.yul\":27685:27702   */\n      add\n        /* \"#utility.yul\":27678:27725   */\n      mstore\n        /* \"#utility.yul\":27742:27873   */\n      tag_534\n        /* \"#utility.yul\":27868:27872   */\n      dup2\n        /* \"#utility.yul\":27742:27873   */\n      tag_264\n      jump\t// in\n    tag_534:\n        /* \"#utility.yul\":27734:27873   */\n      swap1\n      pop\n        /* \"#utility.yul\":27461:27880   */\n      swap2\n      swap1\n      pop\n      jump\t// out\n        /* \"#utility.yul\":27886:28309   */\n    tag_153:\n        /* \"#utility.yul\":28027:28031   */\n      0x00\n        /* \"#utility.yul\":28065:28067   */\n      0x40\n        /* \"#utility.yul\":28054:28063   */\n      dup3\n        /* \"#utility.yul\":28050:28068   */\n      add\n        /* \"#utility.yul\":28042:28068   */\n      swap1\n      pop\n        /* \"#utility.yul\":28114:28123   */\n      dup2\n        /* \"#utility.yul\":28108:28112   */\n      dup2\n        /* \"#utility.yul\":28104:28124   */\n      sub\n        /* \"#utility.yul\":28100:28101   */\n      0x00\n        /* \"#utility.yul\":28089:28098   */\n      dup4\n        /* \"#utility.yul\":28085:28102   */\n      add\n        /* \"#utility.yul\":28078:28125   */\n      mstore\n        /* \"#utility.yul\":28142:28220   */\n      tag_536\n        /* \"#utility.yul\":28215:28219   */\n      dup2\n        /* \"#utility.yul\":28206:28212   */\n      dup6\n        /* \"#utility.yul\":28142:28220   */\n      tag_217\n      jump\t// in\n    tag_536:\n        /* \"#utility.yul\":28134:28220   */\n      swap1\n      pop\n        /* \"#utility.yul\":28230:28302   */\n      tag_537\n        /* \"#utility.yul\":28298:28300   */\n      0x20\n        /* \"#utility.yul\":28287:28296   */\n      dup4\n        /* \"#utility.yul\":28283:28301   */\n      add\n        /* \"#utility.yul\":28274:28280   */\n      dup5\n        /* \"#utility.yul\":28230:28302   */\n      tag_187\n      jump\t// in\n    tag_537:\n        /* \"#utility.yul\":27886:28309   */\n      swap4\n      swap3\n      pop\n      pop\n      pop\n      jump\t// out\n        /* \"#utility.yul\":28315:28462   */\n    tag_265:\n        /* \"#utility.yul\":28416:28427   */\n      0x00\n        /* \"#utility.yul\":28453:28456   */\n      dup2\n        /* \"#utility.yul\":28438:28456   */\n      swap1\n      pop\n        /* \"#utility.yul\":28315:28462   */\n      swap3\n      swap2\n      pop\n      pop\n      jump\t// out\n        /* \"#utility.yul\":28468:28582   */\n    tag_266:\n      pop\n      jump\t// out\n        /* \"#utility.yul\":28588:28986   */\n    tag_267:\n        /* \"#utility.yul\":28747:28750   */\n      0x00\n        /* \"#utility.yul\":28768:28851   */\n      tag_541\n        /* \"#utility.yul\":28849:28850   */\n      0x00\n        /* \"#utility.yul\":28844:28847   */\n      dup4\n        /* \"#utility.yul\":28768:28851   */\n      tag_265\n      jump\t// in\n    tag_541:\n        /* \"#utility.yul\":28761:28851   */\n      swap2\n      pop\n        /* \"#utility.yul\":28860:28953   */\n      tag_542\n        /* \"#utility.yul\":28949:28952   */\n      dup3\n        /* \"#utility.yul\":28860:28953   */\n      tag_266\n      jump\t// in\n    tag_542:\n        /* \"#utility.yul\":28978:28979   */\n      0x00\n        /* \"#utility.yul\":28973:28976   */\n      dup3\n        /* \"#utility.yul\":28969:28980   */\n      add\n        /* \"#utility.yul\":28962:28980   */\n      swap1\n      pop\n        /* \"#utility.yul\":28588:28986   */\n      swap2\n      swap1\n      pop\n      jump\t// out\n        /* \"#utility.yul\":28992:29371   */\n    tag_172:\n        /* \"#utility.yul\":29176:29179   */\n      0x00\n        /* \"#utility.yul\":29198:29345   */\n      tag_544\n        /* \"#utility.yul\":29341:29344   */\n      dup3\n        /* \"#utility.yul\":29198:29345   */\n      tag_267\n      jump\t// in\n    tag_544:\n        /* \"#utility.yul\":29191:29345   */\n      swap2\n      pop\n        /* \"#utility.yul\":29362:29365   */\n      dup2\n        /* \"#utility.yul\":29355:29365   */\n      swap1\n      pop\n        /* \"#utility.yul\":28992:29371   */\n      swap2\n      swap1\n      pop\n      jump\t// out\n        /* \"#utility.yul\":29377:29543   */\n    tag_268:\n        /* \"#utility.yul\":29517:29535   */\n      0x5472616e73666572206661696c65642e00000000000000000000000000000000\n        /* \"#utility.yul\":29513:29514   */\n      0x00\n        /* \"#utility.yul\":29505:29511   */\n      dup3\n        /* \"#utility.yul\":29501:29515   */\n      add\n        /* \"#utility.yul\":29494:29536   */\n      mstore\n        /* \"#utility.yul\":29377:29543   */\n      pop\n      jump\t// out\n        /* \"#utility.yul\":29549:29915   */\n    tag_269:\n        /* \"#utility.yul\":29691:29694   */\n      0x00\n        /* \"#utility.yul\":29712:29779   */\n      tag_547\n        /* \"#utility.yul\":29776:29778   */\n      0x10\n        /* \"#utility.yul\":29771:29774   */\n      dup4\n        /* \"#utility.yul\":29712:29779   */\n      tag_215\n      jump\t// in\n    tag_547:\n        /* \"#utility.yul\":29705:29779   */\n      swap2\n      pop\n        /* \"#utility.yul\":29788:29881   */\n      tag_548\n        /* \"#utility.yul\":29877:29880   */\n      dup3\n        /* \"#utility.yul\":29788:29881   */\n      tag_268\n      jump\t// in\n    tag_548:\n        /* \"#utility.yul\":29906:29908   */\n      0x20\n        /* \"#utility.yul\":29901:29904   */\n      dup3\n        /* \"#utility.yul\":29897:29909   */\n      add\n        /* \"#utility.yul\":29890:29909   */\n      swap1\n      pop\n        /* \"#utility.yul\":29549:29915   */\n      swap2\n      swap1\n      pop\n      jump\t// out\n        /* \"#utility.yul\":29921:30340   */\n    tag_178:\n        /* \"#utility.yul\":30087:30091   */\n      0x00\n        /* \"#utility.yul\":30125:30127   */\n      0x20\n        /* \"#utility.yul\":30114:30123   */\n      dup3\n        /* \"#utility.yul\":30110:30128   */\n      add\n        /* \"#utility.yul\":30102:30128   */\n      swap1\n      pop\n        /* \"#utility.yul\":30174:30183   */\n      dup2\n        /* \"#utility.yul\":30168:30172   */\n      dup2\n        /* \"#utility.yul\":30164:30184   */\n      sub\n        /* \"#utility.yul\":30160:30161   */\n      0x00\n        /* \"#utility.yul\":30149:30158   */\n      dup4\n        /* \"#utility.yul\":30145:30162   */\n      add\n        /* \"#utility.yul\":30138:30185   */\n      mstore\n        /* \"#utility.yul\":30202:30333   */\n      tag_550\n        /* \"#utility.yul\":30328:30332   */\n      dup2\n        /* \"#utility.yul\":30202:30333   */\n      tag_269\n      jump\t// in\n    tag_550:\n        /* \"#utility.yul\":30194:30333   */\n      swap1\n      pop\n        /* \"#utility.yul\":29921:30340   */\n      swap2\n      swap1\n      pop\n      jump\t// out\n\n    auxdata: 0xa26469706673582212208856198bf01b2606edec928f12a93932644fab71cbe58135b585296e57154a6564736f6c634300081f0033\n}\n",
				"bytecode": {
					"linkReferences": {},
					"object": "6080604052348015600e575f5ffd5b50335f5f6101000a81548173ffffffffffffffffffffffffffffffffffffffff021916908373ffffffffffffffffffffffffffffffffffffffff160217905550611fc58061005b5f395ff3fe608060405260043610610090575f3560e01c806385d739cd1161005857806385d739cd146101305780638da5cb5b1461016c578063b499b79a14610196578063ccbf1234146101be578063e83a1b00146101fc57610090565b80632a08deda14610094578063369a489d146100be5780633a98ef39146100e65780636e7301fd146101105780637943da691461011a575b5f5ffd5b34801561009f575f5ffd5b506100a8610226565b6040516100b59190611117565b60405180910390f35b3480156100c9575f5ffd5b506100e460048036038101906100df919061119b565b61022d565b005b3480156100f1575f5ffd5b506100fa610706565b6040516101079190611117565b60405180910390f35b61011861070c565b005b348015610125575f5ffd5b5061012e61079e565b005b34801561013b575f5ffd5b506101566004803603810190610151919061119b565b6109a8565b60405161016391906111e0565b60405180910390f35b348015610177575f5ffd5b506101806109c5565b60405161018d9190611208565b60405180910390f35b3480156101a1575f5ffd5b506101bc60048036038101906101b791906113c2565b6109e9565b005b3480156101c9575f5ffd5b506101e460048036038101906101df919061142e565b610dd6565b6040516101f3939291906114c8565b60405180910390f35b348015610207575f5ffd5b50610210610eb0565b60405161021d9190611672565b60405180910390f35b5f47905090565b5f5f9054906101000a900473ffffffffffffffffffffffffffffffffffffffff1673ffffffffffffffffffffffffffffffffffffffff163373ffffffffffffffffffffffffffffffffffffffff16146102bb576040517f08c379a00000000000000000000000000000000000000000000000000000000081526004016102b2906116dc565b60405180910390fd5b60035f8273ffffffffffffffffffffffffffffffffffffffff1673ffffffffffffffffffffffffffffffffffffffff1681526020019081526020015f205f9054906101000a900460ff16610344576040517f08c379a000000000000000000000000000000000000000000000000000000000815260040161033b90611744565b60405180910390fd5b5f60045f8373ffffffffffffffffffffffffffffffffffffffff1673ffffffffffffffffffffffffffffffffffffffff1681526020019081526020015f205490505f6002828154811061039a57610399611762565b5b905f5260205f20906003020160020154905080600154106103ce578060015f8282546103c691906117bc565b925050819055505b5f60016002805490506103e191906117bc565b90505f600282815481106103f8576103f7611762565b5b905f5260205f2090600302016040518060600160405290815f82015f9054906101000a900473ffffffffffffffffffffffffffffffffffffffff1673ffffffffffffffffffffffffffffffffffffffff1673ffffffffffffffffffffffffffffffffffffffff1681526020016001820180546104739061181c565b80601f016020809104026020016040519081016040528092919081815260200182805461049f9061181c565b80156104ea5780601f106104c1576101008083540402835291602001916104ea565b820191905f5260205f20905b8154815290600101906020018083116104cd57829003601f168201915b505050505081526020016002820154815250509050806002858154811061051457610513611762565b5b905f5260205f2090600302015f820151815f015f6101000a81548173ffffffffffffffffffffffffffffffffffffffff021916908373ffffffffffffffffffffffffffffffffffffffff160217905550602082015181600101908161057991906119ec565b50604082015181600201559050508360045f835f015173ffffffffffffffffffffffffffffffffffffffff1673ffffffffffffffffffffffffffffffffffffffff1681526020019081526020015f208190555060028054806105de576105dd611abb565b5b600190038181905f5260205f2090600302015f5f82015f6101000a81549073ffffffffffffffffffffffffffffffffffffffff0219169055600182015f61062591906110a7565b600282015f90555050905560035f8673ffffffffffffffffffffffffffffffffffffffff1673ffffffffffffffffffffffffffffffffffffffff1681526020019081526020015f205f6101000a81549060ff021916905560045f8673ffffffffffffffffffffffffffffffffffffffff1673ffffffffffffffffffffffffffffffffffffffff1681526020019081526020015f205f90558473ffffffffffffffffffffffffffffffffffffffff167faa8a2cde35658a953f9046664110aeda782ed3f853f2c4402a374355d331cc9260405160405180910390a25050505050565b60015481565b5f341161074e576040517f08c379a000000000000000000000000000000000000000000000000000000000815260040161074590611b32565b60405180910390fd5b3373ffffffffffffffffffffffffffffffffffffffff167ffcc53a89cbb091f0bda44f5b348eee98c73231f4ebc48f95bd3d4c1f79c4727a346040516107949190611117565b60405180910390a2565b5f5f9054906101000a900473ffffffffffffffffffffffffffffffffffffffff1673ffffffffffffffffffffffffffffffffffffffff163373ffffffffffffffffffffffffffffffffffffffff161461082c576040517f08c379a0000000000000000000000000000000000000000000000000000000008152600401610823906116dc565b60405180910390fd5b5f4790505f8111610872576040517f08c379a000000000000000000000000000000000000000000000000000000000815260040161086990611b9a565b60405180910390fd5b5f600280549050116108b9576040517f08c379a00000000000000000000000000000000000000000000000000000000081526004016108b090611c02565b60405180910390fd5b5f5f90505b60028054905081101561096b575f6064600283815481106108e2576108e1611762565b5b905f5260205f20906003020160020154846108fd9190611c20565b6109079190611c8e565b90505f81111561095d5761095c6002838154811061092857610927611762565b5b905f5260205f2090600302015f015f9054906101000a900473ffffffffffffffffffffffffffffffffffffffff1682610ffa565b5b5080806001019150506108be565b507fe61fbbcbb80212a215ddab6c39a899bc47d7b2d8ff904edb54864650d368aa80814260405161099d929190611cbe565b60405180910390a150565b6003602052805f5260405f205f915054906101000a900460ff1681565b5f5f9054906101000a900473ffffffffffffffffffffffffffffffffffffffff1681565b5f5f9054906101000a900473ffffffffffffffffffffffffffffffffffffffff1673ffffffffffffffffffffffffffffffffffffffff163373ffffffffffffffffffffffffffffffffffffffff1614610a77576040517f08c379a0000000000000000000000000000000000000000000000000000000008152600401610a6e906116dc565b60405180910390fd5b5f73ffffffffffffffffffffffffffffffffffffffff168373ffffffffffffffffffffffffffffffffffffffff1603610ae5576040517f08c379a0000000000000000000000000000000000000000000000000000000008152600401610adc90611d2f565b60405180910390fd5b5f8111610b27576040517f08c379a0000000000000000000000000000000000000000000000000000000008152600401610b1e90611d97565b60405180910390fd5b60035f8473ffffffffffffffffffffffffffffffffffffffff1673ffffffffffffffffffffffffffffffffffffffff1681526020019081526020015f205f9054906101000a900460ff1615610bb1576040517f08c379a0000000000000000000000000000000000000000000000000000000008152600401610ba890611dff565b60405180910390fd5b606481600154610bc19190611e1d565b1115610c02576040517f08c379a0000000000000000000000000000000000000000000000000000000008152600401610bf990611e9a565b60405180910390fd5b600260405180606001604052808573ffffffffffffffffffffffffffffffffffffffff16815260200184815260200183815250908060018154018082558091505060019003905f5260205f2090600302015f909190919091505f820151815f015f6101000a81548173ffffffffffffffffffffffffffffffffffffffff021916908373ffffffffffffffffffffffffffffffffffffffff1602179055506020820151816001019081610cb491906119ec565b50604082015181600201555050600160035f8573ffffffffffffffffffffffffffffffffffffffff1673ffffffffffffffffffffffffffffffffffffffff1681526020019081526020015f205f6101000a81548160ff0219169083151502179055506001600280549050610d2891906117bc565b60045f8573ffffffffffffffffffffffffffffffffffffffff1673ffffffffffffffffffffffffffffffffffffffff1681526020019081526020015f20819055508060015f828254610d7a9190611e1d565b925050819055508273ffffffffffffffffffffffffffffffffffffffff167f5da355631bc21e0e9851931f277f2dcb08de611f14d70eca9b0b7274a861377a8383604051610dc9929190611eb8565b60405180910390a2505050565b60028181548110610de5575f80fd5b905f5260205f2090600302015f91509050805f015f9054906101000a900473ffffffffffffffffffffffffffffffffffffffff1690806001018054610e299061181c565b80601f0160208091040260200160405190810160405280929190818152602001828054610e559061181c565b8015610ea05780601f10610e7757610100808354040283529160200191610ea0565b820191905f5260205f20905b815481529060010190602001808311610e8357829003601f168201915b5050505050908060020154905083565b60606002805480602002602001604051908101604052809291908181526020015f905b82821015610ff1578382905f5260205f2090600302016040518060600160405290815f82015f9054906101000a900473ffffffffffffffffffffffffffffffffffffffff1673ffffffffffffffffffffffffffffffffffffffff1673ffffffffffffffffffffffffffffffffffffffff168152602001600182018054610f589061181c565b80601f0160208091040260200160405190810160405280929190818152602001828054610f849061181c565b8015610fcf5780601f10610fa657610100808354040283529160200191610fcf565b820191905f5260205f20905b815481529060010190602001808311610fb257829003601f168201915b5050505050815260200160028201548152505081526020019060010190610ed3565b50505050905090565b5f8273ffffffffffffffffffffffffffffffffffffffff168260405161101f90611f13565b5f6040518083038185875af1925050503d805f8114611059576040519150601f19603f3d011682016040523d82523d5f602084013e61105e565b606091505b50509050806110a2576040517f08c379a000000000000000000000000000000000000000000000000000000000815260040161109990611f71565b60405180910390fd5b505050565b5080546110b39061181c565b5f825580601f106110c457506110e1565b601f0160209004905f5260205f20908101906110e091906110e4565b5b50565b5b808211156110fb575f815f9055506001016110e5565b5090565b5f819050919050565b611111816110ff565b82525050565b5f60208201905061112a5f830184611108565b92915050565b5f604051905090565b5f5ffd5b5f5ffd5b5f73ffffffffffffffffffffffffffffffffffffffff82169050919050565b5f61116a82611141565b9050919050565b61117a81611160565b8114611184575f5ffd5b50565b5f8135905061119581611171565b92915050565b5f602082840312156111b0576111af611139565b5b5f6111bd84828501611187565b91505092915050565b5f8115159050919050565b6111da816111c6565b82525050565b5f6020820190506111f35f8301846111d1565b92915050565b61120281611160565b82525050565b5f60208201905061121b5f8301846111f9565b92915050565b5f61122b82611141565b9050919050565b61123b81611221565b8114611245575f5ffd5b50565b5f8135905061125681611232565b92915050565b5f5ffd5b5f5ffd5b5f601f19601f8301169050919050565b7f4e487b71000000000000000000000000000000000000000000000000000000005f52604160045260245ffd5b6112aa82611264565b810181811067ffffffffffffffff821117156112c9576112c8611274565b5b80604052505050565b5f6112db611130565b90506112e782826112a1565b919050565b5f67ffffffffffffffff82111561130657611305611274565b5b61130f82611264565b9050602081019050919050565b828183375f83830152505050565b5f61133c611337846112ec565b6112d2565b90508281526020810184848401111561135857611357611260565b5b61136384828561131c565b509392505050565b5f82601f83011261137f5761137e61125c565b5b813561138f84826020860161132a565b91505092915050565b6113a1816110ff565b81146113ab575f5ffd5b50565b5f813590506113bc81611398565b92915050565b5f5f5f606084860312156113d9576113d8611139565b5b5f6113e686828701611248565b935050602084013567ffffffffffffffff8111156114075761140661113d565b5b6114138682870161136b565b9250506040611424868287016113ae565b9150509250925092565b5f6020828403121561144357611442611139565b5b5f611450848285016113ae565b91505092915050565b61146281611221565b82525050565b5f81519050919050565b5f82825260208201905092915050565b8281835e5f83830152505050565b5f61149a82611468565b6114a48185611472565b93506114b4818560208601611482565b6114bd81611264565b840191505092915050565b5f6060820190506114db5f830186611459565b81810360208301526114ed8185611490565b90506114fc6040830184611108565b949350505050565b5f81519050919050565b5f82825260208201905092915050565b5f819050602082019050919050565b61153681611221565b82525050565b5f82825260208201905092915050565b5f61155682611468565b611560818561153c565b9350611570818560208601611482565b61157981611264565b840191505092915050565b61158d816110ff565b82525050565b5f606083015f8301516115a85f86018261152d565b50602083015184820360208601526115c0828261154c565b91505060408301516115d56040860182611584565b508091505092915050565b5f6115eb8383611593565b905092915050565b5f602082019050919050565b5f61160982611504565b611613818561150e565b9350836020820285016116258561151e565b805f5b85811015611660578484038952815161164185826115e0565b945061164c836115f3565b925060208a01995050600181019050611628565b50829750879550505050505092915050565b5f6020820190508181035f83015261168a81846115ff565b905092915050565b7f4f6e6c79206f776e65722063616e2063616c6c000000000000000000000000005f82015250565b5f6116c6601383611472565b91506116d182611692565b602082019050919050565b5f6020820190508181035f8301526116f3816116ba565b9050919050565b7f5761697472657373206e6f7420666f756e6400000000000000000000000000005f82015250565b5f61172e601283611472565b9150611739826116fa565b602082019050919050565b5f6020820190508181035f83015261175b81611722565b9050919050565b7f4e487b71000000000000000000000000000000000000000000000000000000005f52603260045260245ffd5b7f4e487b71000000000000000000000000000000000000000000000000000000005f52601160045260245ffd5b5f6117c6826110ff565b91506117d1836110ff565b92508282039050818111156117e9576117e861178f565b5b92915050565b7f4e487b71000000000000000000000000000000000000000000000000000000005f52602260045260245ffd5b5f600282049050600182168061183357607f821691505b602082108103611846576118456117ef565b5b50919050565b5f819050815f5260205f209050919050565b5f6020601f8301049050919050565b5f82821b905092915050565b5f600883026118a87fffffffffffffffffffffffffffffffffffffffffffffffffffffffffffffffff8261186d565b6118b2868361186d565b95508019841693508086168417925050509392505050565b5f819050919050565b5f6118ed6118e86118e3846110ff565b6118ca565b6110ff565b9050919050565b5f819050919050565b611906836118d3565b61191a611912826118f4565b848454611879565b825550505050565b5f5f905090565b611931611922565b61193c8184846118fd565b505050565b5b8181101561195f576119545f82611929565b600181019050611942565b5050565b601f8211156119a4576119758161184c565b61197e8461185e565b8101602085101561198d578190505b6119a16119998561185e565b830182611941565b50505b505050565b5f82821c905092915050565b5f6119c45f19846008026119a9565b1980831691505092915050565b5f6119dc83836119b5565b9150826002028217905092915050565b6119f582611468565b67ffffffffffffffff811115611a0e57611a0d611274565b5b611a18825461181c565b611a23828285611963565b5f60209050601f831160018114611a54575f8415611a42578287015190505b611a4c85826119d1565b865550611ab3565b601f198416611a628661184c565b5f5b82811015611a8957848901518255600182019150602085019450602081019050611a64565b86831015611aa65784890151611aa2601f8916826119b5565b8355505b6001600288020188555050505b505050505050565b7f4e487b71000000000000000000000000000000000000000000000000000000005f52603160045260245ffd5b7f546970206d7573742062652067726561746572207468616e20300000000000005f82015250565b5f611b1c601a83611472565b9150611b2782611ae8565b602082019050919050565b5f6020820190508181035f830152611b4981611b10565b9050919050565b7f4e6f204d6f6e657920746f2064697374726962757465000000000000000000005f82015250565b5f611b84601683611472565b9150611b8f82611b50565b602082019050919050565b5f6020820190508181035f830152611bb181611b78565b9050919050565b7f4e6f207761697472657373657320746f207061790000000000000000000000005f82015250565b5f611bec601483611472565b9150611bf782611bb8565b602082019050919050565b5f6020820190508181035f830152611c1981611be0565b9050919050565b5f611c2a826110ff565b9150611c35836110ff565b9250828202611c43816110ff565b91508282048414831517611c5a57611c5961178f565b5b5092915050565b7f4e487b71000000000000000000000000000000000000000000000000000000005f52601260045260245ffd5b5f611c98826110ff565b9150611ca3836110ff565b925082611cb357611cb2611c61565b5b828204905092915050565b5f604082019050611cd15f830185611108565b611cde6020830184611108565b9392505050565b7f496e76616c6964206164647265737300000000000000000000000000000000005f82015250565b5f611d19600f83611472565b9150611d2482611ce5565b602082019050919050565b5f6020820190508181035f830152611d4681611d0d565b9050919050565b7f50657263656e74206d757374206265203e2030000000000000000000000000005f82015250565b5f611d81601383611472565b9150611d8c82611d4d565b602082019050919050565b5f6020820190508181035f830152611dae81611d75565b9050919050565b7f576169747265737320616c7265616479206578697374730000000000000000005f82015250565b5f611de9601783611472565b9150611df482611db5565b602082019050919050565b5f6020820190508181035f830152611e1681611ddd565b9050919050565b5f611e27826110ff565b9150611e32836110ff565b9250828201905080821115611e4a57611e4961178f565b5b92915050565b7f546f74616c207368617265732063616e6e6f74206578636565642031303025005f82015250565b5f611e84601f83611472565b9150611e8f82611e50565b602082019050919050565b5f6020820190508181035f830152611eb181611e78565b9050919050565b5f6040820190508181035f830152611ed08185611490565b9050611edf6020830184611108565b9392505050565b5f81905092915050565b50565b5f611efe5f83611ee6565b9150611f0982611ef0565b5f82019050919050565b5f611f1d82611ef3565b9150819050919050565b7f5472616e73666572206661696c65642e000000000000000000000000000000005f82015250565b5f611f5b601083611472565b9150611f6682611f27565b602082019050919050565b5f6020820190508181035f830152611f8881611f4f565b905091905056fea26469706673582212208856198bf01b2606edec928f12a93932644fab71cbe58135b585296e57154a6564736f6c634300081f0033",
					"opcodes": "PUSH1 0x80 PUSH1 0x40 MSTORE CALLVALUE DUP1 ISZERO PUSH1 0xE JUMPI PUSH0 PUSH0 REVERT JUMPDEST POP CALLER PUSH0 PUSH0 PUSH2 0x100 EXP DUP2 SLOAD DUP2 PUSH20 0xFFFFFFFFFFFFFFFFFFFFFFFFFFFFFFFFFFFFFFFF MUL NOT AND SWAP1 DUP4 PUSH20 0xFFFFFFFFFFFFFFFFFFFFFFFFFFFFFFFFFFFFFFFF AND MUL OR SWAP1 SSTORE POP PUSH2 0x1FC5 DUP1 PUSH2 0x5B PUSH0 CODECOPY PUSH0 RETURN INVALID PUSH1 0x80 PUSH1 0x40 MSTORE PUSH1 0x4 CALLDATASIZE LT PUSH2 0x90 JUMPI PUSH0 CALLDATALOAD PUSH1 0xE0 SHR DUP1 PUSH4 0x85D739CD GT PUSH2 0x58 JUMPI DUP1 PUSH4 0x85D739CD EQ PUSH2 0x130 JUMPI DUP1 PUSH4 0x8DA5CB5B EQ PUSH2 0x16C JUMPI DUP1 PUSH4 0xB499B79A EQ PUSH2 0x196 JUMPI DUP1 PUSH4 0xCCBF1234 EQ PUSH2 0x1BE JUMPI DUP1 PUSH4 0xE83A1B00 EQ PUSH2 0x1FC JUMPI PUSH2 0x90 JUMP JUMPDEST DUP1 PUSH4 0x2A08DEDA EQ PUSH2 0x94 JUMPI DUP1 PUSH4 0x369A489D EQ PUSH2 0xBE JUMPI DUP1 PUSH4 0x3A98EF39 EQ PUSH2 0xE6 JUMPI DUP1 PUSH4 0x6E7301FD EQ PUSH2 0x110 JUMPI DUP1 PUSH4 0x7943DA69 EQ PUSH2 0x11A JUMPI JUMPDEST PUSH0 PUSH0 REVERT JUMPDEST CALLVALUE DUP1 ISZERO PUSH2 0x9F JUMPI PUSH0 PUSH0 REVERT JUMPDEST POP PUSH2 0xA8 PUSH2 0x226 JUMP JUMPDEST PUSH1 0x40 MLOAD PUSH2 0xB5 SWAP2 SWAP1 PUSH2 0x1117 JUMP JUMPDEST PUSH1 0x40 MLOAD DUP1 SWAP2 SUB SWAP1 RETURN JUMPDEST CALLVALUE DUP1 ISZERO PUSH2 0xC9 JUMPI PUSH0 PUSH0 REVERT JUMPDEST POP PUSH2 0xE4 PUSH1 0x4 DUP1 CALLDATASIZE SUB DUP2 ADD SWAP1 PUSH2 0xDF SWAP2 SWAP1 PUSH2 0x119B JUMP JUMPDEST PUSH2 0x22D JUMP JUMPDEST STOP JUMPDEST CALLVALUE DUP1 ISZERO PUSH2 0xF1 JUMPI PUSH0 PUSH0 REVERT JUMPDEST POP PUSH2 0xFA PUSH2 0x706 JUMP JUMPDEST PUSH1 0x40 MLOAD PUSH2 0x107 SWAP2 SWAP1 PUSH2 0x1117 JUMP JUMPDEST PUSH1 0x40 MLOAD DUP1 SWAP2 SUB SWAP1 RETURN JUMPDEST PUSH2 0x118 PUSH2 0x70C JUMP JUMPDEST STOP JUMPDEST CALLVALUE DUP1 ISZERO PUSH2 0x125 JUMPI PUSH0 PUSH0 REVERT JUMPDEST POP PUSH2 0x12E PUSH2 0x79E JUMP JUMPDEST STOP JUMPDEST CALLVALUE DUP1 ISZERO PUSH2 0x13B JUMPI PUSH0 PUSH0 REVERT JUMPDEST POP PUSH2 0x156 PUSH1 0x4 DUP1 CALLDATASIZE SUB DUP2 ADD SWAP1 PUSH2 0x151 SWAP2 SWAP1 PUSH2 0x119B JUMP JUMPDEST PUSH2 0x9A8 JUMP JUMPDEST PUSH1 0x40 MLOAD PUSH2 0x163 SWAP2 SWAP1 PUSH2 0x11E0 JUMP JUMPDEST PUSH1 0x40 MLOAD DUP1 SWAP2 SUB SWAP1 RETURN JUMPDEST CALLVALUE DUP1 ISZERO PUSH2 0x177 JUMPI PUSH0 PUSH0 REVERT JUMPDEST POP PUSH2 0x180 PUSH2 0x9C5 JUMP JUMPDEST PUSH1 0x40 MLOAD PUSH2 0x18D SWAP2 SWAP1 PUSH2 0x1208 JUMP JUMPDEST PUSH1 0x40 MLOAD DUP1 SWAP2 SUB SWAP1 RETURN JUMPDEST CALLVALUE DUP1 ISZERO PUSH2 0x1A1 JUMPI PUSH0 PUSH0 REVERT JUMPDEST POP PUSH2 0x1BC PUSH1 0x4 DUP1 CALLDATASIZE SUB DUP2 ADD SWAP1 PUSH2 0x1B7 SWAP2 SWAP1 PUSH2 0x13C2 JUMP JUMPDEST PUSH2 0x9E9 JUMP JUMPDEST STOP JUMPDEST CALLVALUE DUP1 ISZERO PUSH2 0x1C9 JUMPI PUSH0 PUSH0 REVERT JUMPDEST POP PUSH2 0x1E4 PUSH1 0x4 DUP1 CALLDATASIZE SUB DUP2 ADD SWAP1 PUSH2 0x1DF SWAP2 SWAP1 PUSH2 0x142E JUMP JUMPDEST PUSH2 0xDD6 JUMP JUMPDEST PUSH1 0x40 MLOAD PUSH2 0x1F3 SWAP4 SWAP3 SWAP2 SWAP1 PUSH2 0x14C8 JUMP JUMPDEST PUSH1 0x40 MLOAD DUP1 SWAP2 SUB SWAP1 RETURN JUMPDEST CALLVALUE DUP1 ISZERO PUSH2 0x207 JUMPI PUSH0 PUSH0 REVERT JUMPDEST POP PUSH2 0x210 PUSH2 0xEB0 JUMP JUMPDEST PUSH1 0x40 MLOAD PUSH2 0x21D SWAP2 SWAP1 PUSH2 0x1672 JUMP JUMPDEST PUSH1 0x40 MLOAD DUP1 SWAP2 SUB SWAP1 RETURN JUMPDEST PUSH0 SELFBALANCE SWAP1 POP SWAP1 JUMP JUMPDEST PUSH0 PUSH0 SWAP1 SLOAD SWAP1 PUSH2 0x100 EXP SWAP1 DIV PUSH20 0xFFFFFFFFFFFFFFFFFFFFFFFFFFFFFFFFFFFFFFFF AND PUSH20 0xFFFFFFFFFFFFFFFFFFFFFFFFFFFFFFFFFFFFFFFF AND CALLER PUSH20 0xFFFFFFFFFFFFFFFFFFFFFFFFFFFFFFFFFFFFFFFF AND EQ PUSH2 0x2BB JUMPI PUSH1 0x40 MLOAD PUSH32 0x8C379A000000000000000000000000000000000000000000000000000000000 DUP2 MSTORE PUSH1 0x4 ADD PUSH2 0x2B2 SWAP1 PUSH2 0x16DC JUMP JUMPDEST PUSH1 0x40 MLOAD DUP1 SWAP2 SUB SWAP1 REVERT JUMPDEST PUSH1 0x3 PUSH0 DUP3 PUSH20 0xFFFFFFFFFFFFFFFFFFFFFFFFFFFFFFFFFFFFFFFF AND PUSH20 0xFFFFFFFFFFFFFFFFFFFFFFFFFFFFFFFFFFFFFFFF AND DUP2 MSTORE PUSH1 0x20 ADD SWAP1 DUP2 MSTORE PUSH1 0x20 ADD PUSH0 KECCAK256 PUSH0 SWAP1 SLOAD SWAP1 PUSH2 0x100 EXP SWAP1 DIV PUSH1 0xFF AND PUSH2 0x344 JUMPI PUSH1 0x40 MLOAD PUSH32 0x8C379A000000000000000000000000000000000000000000000000000000000 DUP2 MSTORE PUSH1 0x4 ADD PUSH2 0x33B SWAP1 PUSH2 0x1744 JUMP JUMPDEST PUSH1 0x40 MLOAD DUP1 SWAP2 SUB SWAP1 REVERT JUMPDEST PUSH0 PUSH1 0x4 PUSH0 DUP4 PUSH20 0xFFFFFFFFFFFFFFFFFFFFFFFFFFFFFFFFFFFFFFFF AND PUSH20 0xFFFFFFFFFFFFFFFFFFFFFFFFFFFFFFFFFFFFFFFF AND DUP2 MSTORE PUSH1 0x20 ADD SWAP1 DUP2 MSTORE PUSH1 0x20 ADD PUSH0 KECCAK256 SLOAD SWAP1 POP PUSH0 PUSH1 0x2 DUP3 DUP2 SLOAD DUP2 LT PUSH2 0x39A JUMPI PUSH2 0x399 PUSH2 0x1762 JUMP JUMPDEST JUMPDEST SWAP1 PUSH0 MSTORE PUSH1 0x20 PUSH0 KECCAK256 SWAP1 PUSH1 0x3 MUL ADD PUSH1 0x2 ADD SLOAD SWAP1 POP DUP1 PUSH1 0x1 SLOAD LT PUSH2 0x3CE JUMPI DUP1 PUSH1 0x1 PUSH0 DUP3 DUP3 SLOAD PUSH2 0x3C6 SWAP2 SWAP1 PUSH2 0x17BC JUMP JUMPDEST SWAP3 POP POP DUP2 SWAP1 SSTORE POP JUMPDEST PUSH0 PUSH1 0x1 PUSH1 0x2 DUP1 SLOAD SWAP1 POP PUSH2 0x3E1 SWAP2 SWAP1 PUSH2 0x17BC JUMP JUMPDEST SWAP1 POP PUSH0 PUSH1 0x2 DUP3 DUP2 SLOAD DUP2 LT PUSH2 0x3F8 JUMPI PUSH2 0x3F7 PUSH2 0x1762 JUMP JUMPDEST JUMPDEST SWAP1 PUSH0 MSTORE PUSH1 0x20 PUSH0 KECCAK256 SWAP1 PUSH1 0x3 MUL ADD PUSH1 0x40 MLOAD DUP1 PUSH1 0x60 ADD PUSH1 0x40 MSTORE SWAP1 DUP2 PUSH0 DUP3 ADD PUSH0 SWAP1 SLOAD SWAP1 PUSH2 0x100 EXP SWAP1 DIV PUSH20 0xFFFFFFFFFFFFFFFFFFFFFFFFFFFFFFFFFFFFFFFF AND PUSH20 0xFFFFFFFFFFFFFFFFFFFFFFFFFFFFFFFFFFFFFFFF AND PUSH20 0xFFFFFFFFFFFFFFFFFFFFFFFFFFFFFFFFFFFFFFFF AND DUP2 MSTORE PUSH1 0x20 ADD PUSH1 0x1 DUP3 ADD DUP1 SLOAD PUSH2 0x473 SWAP1 PUSH2 0x181C JUMP JUMPDEST DUP1 PUSH1 0x1F ADD PUSH1 0x20 DUP1 SWAP2 DIV MUL PUSH1 0x20 ADD PUSH1 0x40 MLOAD SWAP1 DUP2 ADD PUSH1 0x40 MSTORE DUP1 SWAP3 SWAP2 SWAP1 DUP2 DUP2 MSTORE PUSH1 0x20 ADD DUP3 DUP1 SLOAD PUSH2 0x49F SWAP1 PUSH2 0x181C JUMP JUMPDEST DUP1 ISZERO PUSH2 0x4EA JUMPI DUP1 PUSH1 0x1F LT PUSH2 0x4C1 JUMPI PUSH2 0x100 DUP1 DUP4 SLOAD DIV MUL DUP4 MSTORE SWAP2 PUSH1 0x20 ADD SWAP2 PUSH2 0x4EA JUMP JUMPDEST DUP3 ADD SWAP2 SWAP1 PUSH0 MSTORE PUSH1 0x20 PUSH0 KECCAK256 SWAP1 JUMPDEST DUP2 SLOAD DUP2 MSTORE SWAP1 PUSH1 0x1 ADD SWAP1 PUSH1 0x20 ADD DUP1 DUP4 GT PUSH2 0x4CD JUMPI DUP3 SWAP1 SUB PUSH1 0x1F AND DUP3 ADD SWAP2 JUMPDEST POP POP POP POP POP DUP2 MSTORE PUSH1 0x20 ADD PUSH1 0x2 DUP3 ADD SLOAD DUP2 MSTORE POP POP SWAP1 POP DUP1 PUSH1 0x2 DUP6 DUP2 SLOAD DUP2 LT PUSH2 0x514 JUMPI PUSH2 0x513 PUSH2 0x1762 JUMP JUMPDEST JUMPDEST SWAP1 PUSH0 MSTORE PUSH1 0x20 PUSH0 KECCAK256 SWAP1 PUSH1 0x3 MUL ADD PUSH0 DUP3 ADD MLOAD DUP2 PUSH0 ADD PUSH0 PUSH2 0x100 EXP DUP2 SLOAD DUP2 PUSH20 0xFFFFFFFFFFFFFFFFFFFFFFFFFFFFFFFFFFFFFFFF MUL NOT AND SWAP1 DUP4 PUSH20 0xFFFFFFFFFFFFFFFFFFFFFFFFFFFFFFFFFFFFFFFF AND MUL OR SWAP1 SSTORE POP PUSH1 0x20 DUP3 ADD MLOAD DUP2 PUSH1 0x1 ADD SWAP1 DUP2 PUSH2 0x579 SWAP2 SWAP1 PUSH2 0x19EC JUMP JUMPDEST POP PUSH1 0x40 DUP3 ADD MLOAD DUP2 PUSH1 0x2 ADD SSTORE SWAP1 POP POP DUP4 PUSH1 0x4 PUSH0 DUP4 PUSH0 ADD MLOAD PUSH20 0xFFFFFFFFFFFFFFFFFFFFFFFFFFFFFFFFFFFFFFFF AND PUSH20 0xFFFFFFFFFFFFFFFFFFFFFFFFFFFFFFFFFFFFFFFF AND DUP2 MSTORE PUSH1 0x20 ADD SWAP1 DUP2 MSTORE PUSH1 0x20 ADD PUSH0 KECCAK256 DUP2 SWAP1 SSTORE POP PUSH1 0x2 DUP1 SLOAD DUP1 PUSH2 0x5DE JUMPI PUSH2 0x5DD PUSH2 0x1ABB JUMP JUMPDEST JUMPDEST PUSH1 0x1 SWAP1 SUB DUP2 DUP2 SWAP1 PUSH0 MSTORE PUSH1 0x20 PUSH0 KECCAK256 SWAP1 PUSH1 0x3 MUL ADD PUSH0 PUSH0 DUP3 ADD PUSH0 PUSH2 0x100 EXP DUP2 SLOAD SWAP1 PUSH20 0xFFFFFFFFFFFFFFFFFFFFFFFFFFFFFFFFFFFFFFFF MUL NOT AND SWAP1 SSTORE PUSH1 0x1 DUP3 ADD PUSH0 PUSH2 0x625 SWAP2 SWAP1 PUSH2 0x10A7 JUMP JUMPDEST PUSH1 0x2 DUP3 ADD PUSH0 SWAP1 SSTORE POP POP SWAP1 SSTORE PUSH1 0x3 PUSH0 DUP7 PUSH20 0xFFFFFFFFFFFFFFFFFFFFFFFFFFFFFFFFFFFFFFFF AND PUSH20 0xFFFFFFFFFFFFFFFFFFFFFFFFFFFFFFFFFFFFFFFF AND DUP2 MSTORE PUSH1 0x20 ADD SWAP1 DUP2 MSTORE PUSH1 0x20 ADD PUSH0 KECCAK256 PUSH0 PUSH2 0x100 EXP DUP2 SLOAD SWAP1 PUSH1 0xFF MUL NOT AND SWAP1 SSTORE PUSH1 0x4 PUSH0 DUP7 PUSH20 0xFFFFFFFFFFFFFFFFFFFFFFFFFFFFFFFFFFFFFFFF AND PUSH20 0xFFFFFFFFFFFFFFFFFFFFFFFFFFFFFFFFFFFFFFFF AND DUP2 MSTORE PUSH1 0x20 ADD SWAP1 DUP2 MSTORE PUSH1 0x20 ADD PUSH0 KECCAK256 PUSH0 SWAP1 SSTORE DUP5 PUSH20 0xFFFFFFFFFFFFFFFFFFFFFFFFFFFFFFFFFFFFFFFF AND PUSH32 0xAA8A2CDE35658A953F9046664110AEDA782ED3F853F2C4402A374355D331CC92 PUSH1 0x40 MLOAD PUSH1 0x40 MLOAD DUP1 SWAP2 SUB SWAP1 LOG2 POP POP POP POP POP JUMP JUMPDEST PUSH1 0x1 SLOAD DUP2 JUMP JUMPDEST PUSH0 CALLVALUE GT PUSH2 0x74E JUMPI PUSH1 0x40 MLOAD PUSH32 0x8C379A000000000000000000000000000000000000000000000000000000000 DUP2 MSTORE PUSH1 0x4 ADD PUSH2 0x745 SWAP1 PUSH2 0x1B32 JUMP JUMPDEST PUSH1 0x40 MLOAD DUP1 SWAP2 SUB SWAP1 REVERT JUMPDEST CALLER PUSH20 0xFFFFFFFFFFFFFFFFFFFFFFFFFFFFFFFFFFFFFFFF AND PUSH32 0xFCC53A89CBB091F0BDA44F5B348EEE98C73231F4EBC48F95BD3D4C1F79C4727A CALLVALUE PUSH1 0x40 MLOAD PUSH2 0x794 SWAP2 SWAP1 PUSH2 0x1117 JUMP JUMPDEST PUSH1 0x40 MLOAD DUP1 SWAP2 SUB SWAP1 LOG2 JUMP JUMPDEST PUSH0 PUSH0 SWAP1 SLOAD SWAP1 PUSH2 0x100 EXP SWAP1 DIV PUSH20 0xFFFFFFFFFFFFFFFFFFFFFFFFFFFFFFFFFFFFFFFF AND PUSH20 0xFFFFFFFFFFFFFFFFFFFFFFFFFFFFFFFFFFFFFFFF AND CALLER PUSH20 0xFFFFFFFFFFFFFFFFFFFFFFFFFFFFFFFFFFFFFFFF AND EQ PUSH2 0x82C JUMPI PUSH1 0x40 MLOAD PUSH32 0x8C379A000000000000000000000000000000000000000000000000000000000 DUP2 MSTORE PUSH1 0x4 ADD PUSH2 0x823 SWAP1 PUSH2 0x16DC JUMP JUMPDEST PUSH1 0x40 MLOAD DUP1 SWAP2 SUB SWAP1 REVERT JUMPDEST PUSH0 SELFBALANCE SWAP1 POP PUSH0 DUP2 GT PUSH2 0x872 JUMPI PUSH1 0x40 MLOAD PUSH32 0x8C379A000000000000000000000000000000000000000000000000000000000 DUP2 MSTORE PUSH1 0x4 ADD PUSH2 0x869 SWAP1 PUSH2 0x1B9A JUMP JUMPDEST PUSH1 0x40 MLOAD DUP1 SWAP2 SUB SWAP1 REVERT JUMPDEST PUSH0 PUSH1 0x2 DUP1 SLOAD SWAP1 POP GT PUSH2 0x8B9 JUMPI PUSH1 0x40 MLOAD PUSH32 0x8C379A000000000000000000000000000000000000000000000000000000000 DUP2 MSTORE PUSH1 0x4 ADD PUSH2 0x8B0 SWAP1 PUSH2 0x1C02 JUMP JUMPDEST PUSH1 0x40 MLOAD DUP1 SWAP2 SUB SWAP1 REVERT JUMPDEST PUSH0 PUSH0 SWAP1 POP JUMPDEST PUSH1 0x2 DUP1 SLOAD SWAP1 POP DUP2 LT ISZERO PUSH2 0x96B JUMPI PUSH0 PUSH1 0x64 PUSH1 0x2 DUP4 DUP2 SLOAD DUP2 LT PUSH2 0x8E2 JUMPI PUSH2 0x8E1 PUSH2 0x1762 JUMP JUMPDEST JUMPDEST SWAP1 PUSH0 MSTORE PUSH1 0x20 PUSH0 KECCAK256 SWAP1 PUSH1 0x3 MUL ADD PUSH1 0x2 ADD SLOAD DUP5 PUSH2 0x8FD SWAP2 SWAP1 PUSH2 0x1C20 JUMP JUMPDEST PUSH2 0x907 SWAP2 SWAP1 PUSH2 0x1C8E JUMP JUMPDEST SWAP1 POP PUSH0 DUP2 GT ISZERO PUSH2 0x95D JUMPI PUSH2 0x95C PUSH1 0x2 DUP4 DUP2 SLOAD DUP2 LT PUSH2 0x928 JUMPI PUSH2 0x927 PUSH2 0x1762 JUMP JUMPDEST JUMPDEST SWAP1 PUSH0 MSTORE PUSH1 0x20 PUSH0 KECCAK256 SWAP1 PUSH1 0x3 MUL ADD PUSH0 ADD PUSH0 SWAP1 SLOAD SWAP1 PUSH2 0x100 EXP SWAP1 DIV PUSH20 0xFFFFFFFFFFFFFFFFFFFFFFFFFFFFFFFFFFFFFFFF AND DUP3 PUSH2 0xFFA JUMP JUMPDEST JUMPDEST POP DUP1 DUP1 PUSH1 0x1 ADD SWAP2 POP POP PUSH2 0x8BE JUMP JUMPDEST POP PUSH32 0xE61FBBCBB80212A215DDAB6C39A899BC47D7B2D8FF904EDB54864650D368AA80 DUP2 TIMESTAMP PUSH1 0x40 MLOAD PUSH2 0x99D SWAP3 SWAP2 SWAP1 PUSH2 0x1CBE JUMP JUMPDEST PUSH1 0x40 MLOAD DUP1 SWAP2 SUB SWAP1 LOG1 POP JUMP JUMPDEST PUSH1 0x3 PUSH1 0x20 MSTORE DUP1 PUSH0 MSTORE PUSH1 0x40 PUSH0 KECCAK256 PUSH0 SWAP2 POP SLOAD SWAP1 PUSH2 0x100 EXP SWAP1 DIV PUSH1 0xFF AND DUP2 JUMP JUMPDEST PUSH0 PUSH0 SWAP1 SLOAD SWAP1 PUSH2 0x100 EXP SWAP1 DIV PUSH20 0xFFFFFFFFFFFFFFFFFFFFFFFFFFFFFFFFFFFFFFFF AND DUP2 JUMP JUMPDEST PUSH0 PUSH0 SWAP1 SLOAD SWAP1 PUSH2 0x100 EXP SWAP1 DIV PUSH20 0xFFFFFFFFFFFFFFFFFFFFFFFFFFFFFFFFFFFFFFFF AND PUSH20 0xFFFFFFFFFFFFFFFFFFFFFFFFFFFFFFFFFFFFFFFF AND CALLER PUSH20 0xFFFFFFFFFFFFFFFFFFFFFFFFFFFFFFFFFFFFFFFF AND EQ PUSH2 0xA77 JUMPI PUSH1 0x40 MLOAD PUSH32 0x8C379A000000000000000000000000000000000000000000000000000000000 DUP2 MSTORE PUSH1 0x4 ADD PUSH2 0xA6E SWAP1 PUSH2 0x16DC JUMP JUMPDEST PUSH1 0x40 MLOAD DUP1 SWAP2 SUB SWAP1 REVERT JUMPDEST PUSH0 PUSH20 0xFFFFFFFFFFFFFFFFFFFFFFFFFFFFFFFFFFFFFFFF AND DUP4 PUSH20 0xFFFFFFFFFFFFFFFFFFFFFFFFFFFFFFFFFFFFFFFF AND SUB PUSH2 0xAE5 JUMPI PUSH1 0x40 MLOAD PUSH32 0x8C379A000000000000000000000000000000000000000000000000000000000 DUP2 MSTORE PUSH1 0x4 ADD PUSH2 0xADC SWAP1 PUSH2 0x1D2F JUMP JUMPDEST PUSH1 0x40 MLOAD DUP1 SWAP2 SUB SWAP1 REVERT JUMPDEST PUSH0 DUP2 GT PUSH2 0xB27 JUMPI PUSH1 0x40 MLOAD PUSH32 0x8C379A000000000000000000000000000000000000000000000000000000000 DUP2 MSTORE PUSH1 0x4 ADD PUSH2 0xB1E SWAP1 PUSH2 0x1D97 JUMP JUMPDEST PUSH1 0x40 MLOAD DUP1 SWAP2 SUB SWAP1 REVERT JUMPDEST PUSH1 0x3 PUSH0 DUP5 PUSH20 0xFFFFFFFFFFFFFFFFFFFFFFFFFFFFFFFFFFFFFFFF AND PUSH20 0xFFFFFFFFFFFFFFFFFFFFFFFFFFFFFFFFFFFFFFFF AND DUP2 MSTORE PUSH1 0x20 ADD SWAP1 DUP2 MSTORE PUSH1 0x20 ADD PUSH0 KECCAK256 PUSH0 SWAP1 SLOAD SWAP1 PUSH2 0x100 EXP SWAP1 DIV PUSH1 0xFF AND ISZERO PUSH2 0xBB1 JUMPI PUSH1 0x40 MLOAD PUSH32 0x8C379A000000000000000000000000000000000000000000000000000000000 DUP2 MSTORE PUSH1 0x4 ADD PUSH2 0xBA8 SWAP1 PUSH2 0x1DFF JUMP JUMPDEST PUSH1 0x40 MLOAD DUP1 SWAP2 SUB SWAP1 REVERT JUMPDEST PUSH1 0x64 DUP2 PUSH1 0x1 SLOAD PUSH2 0xBC1 SWAP2 SWAP1 PUSH2 0x1E1D JUMP JUMPDEST GT ISZERO PUSH2 0xC02 JUMPI PUSH1 0x40 MLOAD PUSH32 0x8C379A000000000000000000000000000000000000000000000000000000000 DUP2 MSTORE PUSH1 0x4 ADD PUSH2 0xBF9 SWAP1 PUSH2 0x1E9A JUMP JUMPDEST PUSH1 0x40 MLOAD DUP1 SWAP2 SUB SWAP1 REVERT JUMPDEST PUSH1 0x2 PUSH1 0x40 MLOAD DUP1 PUSH1 0x60 ADD PUSH1 0x40 MSTORE DUP1 DUP6 PUSH20 0xFFFFFFFFFFFFFFFFFFFFFFFFFFFFFFFFFFFFFFFF AND DUP2 MSTORE PUSH1 0x20 ADD DUP5 DUP2 MSTORE PUSH1 0x20 ADD DUP4 DUP2 MSTORE POP SWAP1 DUP1 PUSH1 0x1 DUP2 SLOAD ADD DUP1 DUP3 SSTORE DUP1 SWAP2 POP POP PUSH1 0x1 SWAP1 SUB SWAP1 PUSH0 MSTORE PUSH1 0x20 PUSH0 KECCAK256 SWAP1 PUSH1 0x3 MUL ADD PUSH0 SWAP1 SWAP2 SWAP1 SWAP2 SWAP1 SWAP2 POP PUSH0 DUP3 ADD MLOAD DUP2 PUSH0 ADD PUSH0 PUSH2 0x100 EXP DUP2 SLOAD DUP2 PUSH20 0xFFFFFFFFFFFFFFFFFFFFFFFFFFFFFFFFFFFFFFFF MUL NOT AND SWAP1 DUP4 PUSH20 0xFFFFFFFFFFFFFFFFFFFFFFFFFFFFFFFFFFFFFFFF AND MUL OR SWAP1 SSTORE POP PUSH1 0x20 DUP3 ADD MLOAD DUP2 PUSH1 0x1 ADD SWAP1 DUP2 PUSH2 0xCB4 SWAP2 SWAP1 PUSH2 0x19EC JUMP JUMPDEST POP PUSH1 0x40 DUP3 ADD MLOAD DUP2 PUSH1 0x2 ADD SSTORE POP POP PUSH1 0x1 PUSH1 0x3 PUSH0 DUP6 PUSH20 0xFFFFFFFFFFFFFFFFFFFFFFFFFFFFFFFFFFFFFFFF AND PUSH20 0xFFFFFFFFFFFFFFFFFFFFFFFFFFFFFFFFFFFFFFFF AND DUP2 MSTORE PUSH1 0x20 ADD SWAP1 DUP2 MSTORE PUSH1 0x20 ADD PUSH0 KECCAK256 PUSH0 PUSH2 0x100 EXP DUP2 SLOAD DUP2 PUSH1 0xFF MUL NOT AND SWAP1 DUP4 ISZERO ISZERO MUL OR SWAP1 SSTORE POP PUSH1 0x1 PUSH1 0x2 DUP1 SLOAD SWAP1 POP PUSH2 0xD28 SWAP2 SWAP1 PUSH2 0x17BC JUMP JUMPDEST PUSH1 0x4 PUSH0 DUP6 PUSH20 0xFFFFFFFFFFFFFFFFFFFFFFFFFFFFFFFFFFFFFFFF AND PUSH20 0xFFFFFFFFFFFFFFFFFFFFFFFFFFFFFFFFFFFFFFFF AND DUP2 MSTORE PUSH1 0x20 ADD SWAP1 DUP2 MSTORE PUSH1 0x20 ADD PUSH0 KECCAK256 DUP2 SWAP1 SSTORE POP DUP1 PUSH1 0x1 PUSH0 DUP3 DUP3 SLOAD PUSH2 0xD7A SWAP2 SWAP1 PUSH2 0x1E1D JUMP JUMPDEST SWAP3 POP POP DUP2 SWAP1 SSTORE POP DUP3 PUSH20 0xFFFFFFFFFFFFFFFFFFFFFFFFFFFFFFFFFFFFFFFF AND PUSH32 0x5DA355631BC21E0E9851931F277F2DCB08DE611F14D70ECA9B0B7274A861377A DUP4 DUP4 PUSH1 0x40 MLOAD PUSH2 0xDC9 SWAP3 SWAP2 SWAP1 PUSH2 0x1EB8 JUMP JUMPDEST PUSH1 0x40 MLOAD DUP1 SWAP2 SUB SWAP1 LOG2 POP POP POP JUMP JUMPDEST PUSH1 0x2 DUP2 DUP2 SLOAD DUP2 LT PUSH2 0xDE5 JUMPI PUSH0 DUP1 REVERT JUMPDEST SWAP1 PUSH0 MSTORE PUSH1 0x20 PUSH0 KECCAK256 SWAP1 PUSH1 0x3 MUL ADD PUSH0 SWAP2 POP SWAP1 POP DUP1 PUSH0 ADD PUSH0 SWAP1 SLOAD SWAP1 PUSH2 0x100 EXP SWAP1 DIV PUSH20 0xFFFFFFFFFFFFFFFFFFFFFFFFFFFFFFFFFFFFFFFF AND SWAP1 DUP1 PUSH1 0x1 ADD DUP1 SLOAD PUSH2 0xE29 SWAP1 PUSH2 0x181C JUMP JUMPDEST DUP1 PUSH1 0x1F ADD PUSH1 0x20 DUP1 SWAP2 DIV MUL PUSH1 0x20 ADD PUSH1 0x40 MLOAD SWAP1 DUP2 ADD PUSH1 0x40 MSTORE DUP1 SWAP3 SWAP2 SWAP1 DUP2 DUP2 MSTORE PUSH1 0x20 ADD DUP3 DUP1 SLOAD PUSH2 0xE55 SWAP1 PUSH2 0x181C JUMP JUMPDEST DUP1 ISZERO PUSH2 0xEA0 JUMPI DUP1 PUSH1 0x1F LT PUSH2 0xE77 JUMPI PUSH2 0x100 DUP1 DUP4 SLOAD DIV MUL DUP4 MSTORE SWAP2 PUSH1 0x20 ADD SWAP2 PUSH2 0xEA0 JUMP JUMPDEST DUP3 ADD SWAP2 SWAP1 PUSH0 MSTORE PUSH1 0x20 PUSH0 KECCAK256 SWAP1 JUMPDEST DUP2 SLOAD DUP2 MSTORE SWAP1 PUSH1 0x1 ADD SWAP1 PUSH1 0x20 ADD DUP1 DUP4 GT PUSH2 0xE83 JUMPI DUP3 SWAP1 SUB PUSH1 0x1F AND DUP3 ADD SWAP2 JUMPDEST POP POP POP POP POP SWAP1 DUP1 PUSH1 0x2 ADD SLOAD SWAP1 POP DUP4 JUMP JUMPDEST PUSH1 0x60 PUSH1 0x2 DUP1 SLOAD DUP1 PUSH1 0x20 MUL PUSH1 0x20 ADD PUSH1 0x40 MLOAD SWAP1 DUP2 ADD PUSH1 0x40 MSTORE DUP1 SWAP3 SWAP2 SWAP1 DUP2 DUP2 MSTORE PUSH1 0x20 ADD PUSH0 SWAP1 JUMPDEST DUP3 DUP3 LT ISZERO PUSH2 0xFF1 JUMPI DUP4 DUP3 SWAP1 PUSH0 MSTORE PUSH1 0x20 PUSH0 KECCAK256 SWAP1 PUSH1 0x3 MUL ADD PUSH1 0x40 MLOAD DUP1 PUSH1 0x60 ADD PUSH1 0x40 MSTORE SWAP1 DUP2 PUSH0 DUP3 ADD PUSH0 SWAP1 SLOAD SWAP1 PUSH2 0x100 EXP SWAP1 DIV PUSH20 0xFFFFFFFFFFFFFFFFFFFFFFFFFFFFFFFFFFFFFFFF AND PUSH20 0xFFFFFFFFFFFFFFFFFFFFFFFFFFFFFFFFFFFFFFFF AND PUSH20 0xFFFFFFFFFFFFFFFFFFFFFFFFFFFFFFFFFFFFFFFF AND DUP2 MSTORE PUSH1 0x20 ADD PUSH1 0x1 DUP3 ADD DUP1 SLOAD PUSH2 0xF58 SWAP1 PUSH2 0x181C JUMP JUMPDEST DUP1 PUSH1 0x1F ADD PUSH1 0x20 DUP1 SWAP2 DIV MUL PUSH1 0x20 ADD PUSH1 0x40 MLOAD SWAP1 DUP2 ADD PUSH1 0x40 MSTORE DUP1 SWAP3 SWAP2 SWAP1 DUP2 DUP2 MSTORE PUSH1 0x20 ADD DUP3 DUP1 SLOAD PUSH2 0xF84 SWAP1 PUSH2 0x181C JUMP JUMPDEST DUP1 ISZERO PUSH2 0xFCF JUMPI DUP1 PUSH1 0x1F LT PUSH2 0xFA6 JUMPI PUSH2 0x100 DUP1 DUP4 SLOAD DIV MUL DUP4 MSTORE SWAP2 PUSH1 0x20 ADD SWAP2 PUSH2 0xFCF JUMP JUMPDEST DUP3 ADD SWAP2 SWAP1 PUSH0 MSTORE PUSH1 0x20 PUSH0 KECCAK256 SWAP1 JUMPDEST DUP2 SLOAD DUP2 MSTORE SWAP1 PUSH1 0x1 ADD SWAP1 PUSH1 0x20 ADD DUP1 DUP4 GT PUSH2 0xFB2 JUMPI DUP3 SWAP1 SUB PUSH1 0x1F AND DUP3 ADD SWAP2 JUMPDEST POP POP POP POP POP DUP2 MSTORE PUSH1 0x20 ADD PUSH1 0x2 DUP3 ADD SLOAD DUP2 MSTORE POP POP DUP2 MSTORE PUSH1 0x20 ADD SWAP1 PUSH1 0x1 ADD SWAP1 PUSH2 0xED3 JUMP JUMPDEST POP POP POP POP SWAP1 POP SWAP1 JUMP JUMPDEST PUSH0 DUP3 PUSH20 0xFFFFFFFFFFFFFFFFFFFFFFFFFFFFFFFFFFFFFFFF AND DUP3 PUSH1 0x40 MLOAD PUSH2 0x101F SWAP1 PUSH2 0x1F13 JUMP JUMPDEST PUSH0 PUSH1 0x40 MLOAD DUP1 DUP4 SUB DUP2 DUP6 DUP8 GAS CALL SWAP3 POP POP POP RETURNDATASIZE DUP1 PUSH0 DUP2 EQ PUSH2 0x1059 JUMPI PUSH1 0x40 MLOAD SWAP2 POP PUSH1 0x1F NOT PUSH1 0x3F RETURNDATASIZE ADD AND DUP3 ADD PUSH1 0x40 MSTORE RETURNDATASIZE DUP3 MSTORE RETURNDATASIZE PUSH0 PUSH1 0x20 DUP5 ADD RETURNDATACOPY PUSH2 0x105E JUMP JUMPDEST PUSH1 0x60 SWAP2 POP JUMPDEST POP POP SWAP1 POP DUP1 PUSH2 0x10A2 JUMPI PUSH1 0x40 MLOAD PUSH32 0x8C379A000000000000000000000000000000000000000000000000000000000 DUP2 MSTORE PUSH1 0x4 ADD PUSH2 0x1099 SWAP1 PUSH2 0x1F71 JUMP JUMPDEST PUSH1 0x40 MLOAD DUP1 SWAP2 SUB SWAP1 REVERT JUMPDEST POP POP POP JUMP JUMPDEST POP DUP1 SLOAD PUSH2 0x10B3 SWAP1 PUSH2 0x181C JUMP JUMPDEST PUSH0 DUP3 SSTORE DUP1 PUSH1 0x1F LT PUSH2 0x10C4 JUMPI POP PUSH2 0x10E1 JUMP JUMPDEST PUSH1 0x1F ADD PUSH1 0x20 SWAP1 DIV SWAP1 PUSH0 MSTORE PUSH1 0x20 PUSH0 KECCAK256 SWAP1 DUP2 ADD SWAP1 PUSH2 0x10E0 SWAP2 SWAP1 PUSH2 0x10E4 JUMP JUMPDEST JUMPDEST POP JUMP JUMPDEST JUMPDEST DUP1 DUP3 GT ISZERO PUSH2 0x10FB JUMPI PUSH0 DUP2 PUSH0 SWAP1 SSTORE POP PUSH1 0x1 ADD PUSH2 0x10E5 JUMP JUMPDEST POP SWAP1 JUMP JUMPDEST PUSH0 DUP2 SWAP1 POP SWAP2 SWAP1 POP JUMP JUMPDEST PUSH2 0x1111 DUP2 PUSH2 0x10FF JUMP JUMPDEST DUP3 MSTORE POP POP JUMP JUMPDEST PUSH0 PUSH1 0x20 DUP3 ADD SWAP1 POP PUSH2 0x112A PUSH0 DUP4 ADD DUP5 PUSH2 0x1108 JUMP JUMPDEST SWAP3 SWAP2 POP POP JUMP JUMPDEST PUSH0 PUSH1 0x40 MLOAD SWAP1 POP SWAP1 JUMP JUMPDEST PUSH0 PUSH0 REVERT JUMPDEST PUSH0 PUSH0 REVERT JUMPDEST PUSH0 PUSH20 0xFFFFFFFFFFFFFFFFFFFFFFFFFFFFFFFFFFFFFFFF DUP3 AND SWAP1 POP SWAP2 SWAP1 POP JUMP JUMPDEST PUSH0 PUSH2 0x116A DUP3 PUSH2 0x1141 JUMP JUMPDEST SWAP1 POP SWAP2 SWAP1 POP JUMP JUMPDEST PUSH2 0x117A DUP2 PUSH2 0x1160 JUMP JUMPDEST DUP2 EQ PUSH2 0x1184 JUMPI PUSH0 PUSH0 REVERT JUMPDEST POP JUMP JUMPDEST PUSH0 DUP2 CALLDATALOAD SWAP1 POP PUSH2 0x1195 DUP2 PUSH2 0x1171 JUMP JUMPDEST SWAP3 SWAP2 POP POP JUMP JUMPDEST PUSH0 PUSH1 0x20 DUP3 DUP5 SUB SLT ISZERO PUSH2 0x11B0 JUMPI PUSH2 0x11AF PUSH2 0x1139 JUMP JUMPDEST JUMPDEST PUSH0 PUSH2 0x11BD DUP5 DUP3 DUP6 ADD PUSH2 0x1187 JUMP JUMPDEST SWAP2 POP POP SWAP3 SWAP2 POP POP JUMP JUMPDEST PUSH0 DUP2 ISZERO ISZERO SWAP1 POP SWAP2 SWAP1 POP JUMP JUMPDEST PUSH2 0x11DA DUP2 PUSH2 0x11C6 JUMP JUMPDEST DUP3 MSTORE POP POP JUMP JUMPDEST PUSH0 PUSH1 0x20 DUP3 ADD SWAP1 POP PUSH2 0x11F3 PUSH0 DUP4 ADD DUP5 PUSH2 0x11D1 JUMP JUMPDEST SWAP3 SWAP2 POP POP JUMP JUMPDEST PUSH2 0x1202 DUP2 PUSH2 0x1160 JUMP JUMPDEST DUP3 MSTORE POP POP JUMP JUMPDEST PUSH0 PUSH1 0x20 DUP3 ADD SWAP1 POP PUSH2 0x121B PUSH0 DUP4 ADD DUP5 PUSH2 0x11F9 JUMP JUMPDEST SWAP3 SWAP2 POP POP JUMP JUMPDEST PUSH0 PUSH2 0x122B DUP3 PUSH2 0x1141 JUMP JUMPDEST SWAP1 POP SWAP2 SWAP1 POP JUMP JUMPDEST PUSH2 0x123B DUP2 PUSH2 0x1221 JUMP JUMPDEST DUP2 EQ PUSH2 0x1245 JUMPI PUSH0 PUSH0 REVERT JUMPDEST POP JUMP JUMPDEST PUSH0 DUP2 CALLDATALOAD SWAP1 POP PUSH2 0x1256 DUP2 PUSH2 0x1232 JUMP JUMPDEST SWAP3 SWAP2 POP POP JUMP JUMPDEST PUSH0 PUSH0 REVERT JUMPDEST PUSH0 PUSH0 REVERT JUMPDEST PUSH0 PUSH1 0x1F NOT PUSH1 0x1F DUP4 ADD AND SWAP1 POP SWAP2 SWAP1 POP JUMP JUMPDEST PUSH32 0x4E487B7100000000000000000000000000000000000000000000000000000000 PUSH0 MSTORE PUSH1 0x41 PUSH1 0x4 MSTORE PUSH1 0x24 PUSH0 REVERT JUMPDEST PUSH2 0x12AA DUP3 PUSH2 0x1264 JUMP JUMPDEST DUP2 ADD DUP2 DUP2 LT PUSH8 0xFFFFFFFFFFFFFFFF DUP3 GT OR ISZERO PUSH2 0x12C9 JUMPI PUSH2 0x12C8 PUSH2 0x1274 JUMP JUMPDEST JUMPDEST DUP1 PUSH1 0x40 MSTORE POP POP POP JUMP JUMPDEST PUSH0 PUSH2 0x12DB PUSH2 0x1130 JUMP JUMPDEST SWAP1 POP PUSH2 0x12E7 DUP3 DUP3 PUSH2 0x12A1 JUMP JUMPDEST SWAP2 SWAP1 POP JUMP JUMPDEST PUSH0 PUSH8 0xFFFFFFFFFFFFFFFF DUP3 GT ISZERO PUSH2 0x1306 JUMPI PUSH2 0x1305 PUSH2 0x1274 JUMP JUMPDEST JUMPDEST PUSH2 0x130F DUP3 PUSH2 0x1264 JUMP JUMPDEST SWAP1 POP PUSH1 0x20 DUP2 ADD SWAP1 POP SWAP2 SWAP1 POP JUMP JUMPDEST DUP3 DUP2 DUP4 CALLDATACOPY PUSH0 DUP4 DUP4 ADD MSTORE POP POP POP JUMP JUMPDEST PUSH0 PUSH2 0x133C PUSH2 0x1337 DUP5 PUSH2 0x12EC JUMP JUMPDEST PUSH2 0x12D2 JUMP JUMPDEST SWAP1 POP DUP3 DUP2 MSTORE PUSH1 0x20 DUP2 ADD DUP5 DUP5 DUP5 ADD GT ISZERO PUSH2 0x1358 JUMPI PUSH2 0x1357 PUSH2 0x1260 JUMP JUMPDEST JUMPDEST PUSH2 0x1363 DUP5 DUP3 DUP6 PUSH2 0x131C JUMP JUMPDEST POP SWAP4 SWAP3 POP POP POP JUMP JUMPDEST PUSH0 DUP3 PUSH1 0x1F DUP4 ADD SLT PUSH2 0x137F JUMPI PUSH2 0x137E PUSH2 0x125C JUMP JUMPDEST JUMPDEST DUP2 CALLDATALOAD PUSH2 0x138F DUP5 DUP3 PUSH1 0x20 DUP7 ADD PUSH2 0x132A JUMP JUMPDEST SWAP2 POP POP SWAP3 SWAP2 POP POP JUMP JUMPDEST PUSH2 0x13A1 DUP2 PUSH2 0x10FF JUMP JUMPDEST DUP2 EQ PUSH2 0x13AB JUMPI PUSH0 PUSH0 REVERT JUMPDEST POP JUMP JUMPDEST PUSH0 DUP2 CALLDATALOAD SWAP1 POP PUSH2 0x13BC DUP2 PUSH2 0x1398 JUMP JUMPDEST SWAP3 SWAP2 POP POP JUMP JUMPDEST PUSH0 PUSH0 PUSH0 PUSH1 0x60 DUP5 DUP7 SUB SLT ISZERO PUSH2 0x13D9 JUMPI PUSH2 0x13D8 PUSH2 0x1139 JUMP JUMPDEST JUMPDEST PUSH0 PUSH2 0x13E6 DUP7 DUP3 DUP8 ADD PUSH2 0x1248 JUMP JUMPDEST SWAP4 POP POP PUSH1 0x20 DUP5 ADD CALLDATALOAD PUSH8 0xFFFFFFFFFFFFFFFF DUP2 GT ISZERO PUSH2 0x1407 JUMPI PUSH2 0x1406 PUSH2 0x113D JUMP JUMPDEST JUMPDEST PUSH2 0x1413 DUP7 DUP3 DUP8 ADD PUSH2 0x136B JUMP JUMPDEST SWAP3 POP POP PUSH1 0x40 PUSH2 0x1424 DUP7 DUP3 DUP8 ADD PUSH2 0x13AE JUMP JUMPDEST SWAP2 POP POP SWAP3 POP SWAP3 POP SWAP3 JUMP JUMPDEST PUSH0 PUSH1 0x20 DUP3 DUP5 SUB SLT ISZERO PUSH2 0x1443 JUMPI PUSH2 0x1442 PUSH2 0x1139 JUMP JUMPDEST JUMPDEST PUSH0 PUSH2 0x1450 DUP5 DUP3 DUP6 ADD PUSH2 0x13AE JUMP JUMPDEST SWAP2 POP POP SWAP3 SWAP2 POP POP JUMP JUMPDEST PUSH2 0x1462 DUP2 PUSH2 0x1221 JUMP JUMPDEST DUP3 MSTORE POP POP JUMP JUMPDEST PUSH0 DUP2 MLOAD SWAP1 POP SWAP2 SWAP1 POP JUMP JUMPDEST PUSH0 DUP3 DUP3 MSTORE PUSH1 0x20 DUP3 ADD SWAP1 POP SWAP3 SWAP2 POP POP JUMP JUMPDEST DUP3 DUP2 DUP4 MCOPY PUSH0 DUP4 DUP4 ADD MSTORE POP POP POP JUMP JUMPDEST PUSH0 PUSH2 0x149A DUP3 PUSH2 0x1468 JUMP JUMPDEST PUSH2 0x14A4 DUP2 DUP6 PUSH2 0x1472 JUMP JUMPDEST SWAP4 POP PUSH2 0x14B4 DUP2 DUP6 PUSH1 0x20 DUP7 ADD PUSH2 0x1482 JUMP JUMPDEST PUSH2 0x14BD DUP2 PUSH2 0x1264 JUMP JUMPDEST DUP5 ADD SWAP2 POP POP SWAP3 SWAP2 POP POP JUMP JUMPDEST PUSH0 PUSH1 0x60 DUP3 ADD SWAP1 POP PUSH2 0x14DB PUSH0 DUP4 ADD DUP7 PUSH2 0x1459 JUMP JUMPDEST DUP2 DUP2 SUB PUSH1 0x20 DUP4 ADD MSTORE PUSH2 0x14ED DUP2 DUP6 PUSH2 0x1490 JUMP JUMPDEST SWAP1 POP PUSH2 0x14FC PUSH1 0x40 DUP4 ADD DUP5 PUSH2 0x1108 JUMP JUMPDEST SWAP5 SWAP4 POP POP POP POP JUMP JUMPDEST PUSH0 DUP2 MLOAD SWAP1 POP SWAP2 SWAP1 POP JUMP JUMPDEST PUSH0 DUP3 DUP3 MSTORE PUSH1 0x20 DUP3 ADD SWAP1 POP SWAP3 SWAP2 POP POP JUMP JUMPDEST PUSH0 DUP2 SWAP1 POP PUSH1 0x20 DUP3 ADD SWAP1 POP SWAP2 SWAP1 POP JUMP JUMPDEST PUSH2 0x1536 DUP2 PUSH2 0x1221 JUMP JUMPDEST DUP3 MSTORE POP POP JUMP JUMPDEST PUSH0 DUP3 DUP3 MSTORE PUSH1 0x20 DUP3 ADD SWAP1 POP SWAP3 SWAP2 POP POP JUMP JUMPDEST PUSH0 PUSH2 0x1556 DUP3 PUSH2 0x1468 JUMP JUMPDEST PUSH2 0x1560 DUP2 DUP6 PUSH2 0x153C JUMP JUMPDEST SWAP4 POP PUSH2 0x1570 DUP2 DUP6 PUSH1 0x20 DUP7 ADD PUSH2 0x1482 JUMP JUMPDEST PUSH2 0x1579 DUP2 PUSH2 0x1264 JUMP JUMPDEST DUP5 ADD SWAP2 POP POP SWAP3 SWAP2 POP POP JUMP JUMPDEST PUSH2 0x158D DUP2 PUSH2 0x10FF JUMP JUMPDEST DUP3 MSTORE POP POP JUMP JUMPDEST PUSH0 PUSH1 0x60 DUP4 ADD PUSH0 DUP4 ADD MLOAD PUSH2 0x15A8 PUSH0 DUP7 ADD DUP3 PUSH2 0x152D JUMP JUMPDEST POP PUSH1 0x20 DUP4 ADD MLOAD DUP5 DUP3 SUB PUSH1 0x20 DUP7 ADD MSTORE PUSH2 0x15C0 DUP3 DUP3 PUSH2 0x154C JUMP JUMPDEST SWAP2 POP POP PUSH1 0x40 DUP4 ADD MLOAD PUSH2 0x15D5 PUSH1 0x40 DUP7 ADD DUP3 PUSH2 0x1584 JUMP JUMPDEST POP DUP1 SWAP2 POP POP SWAP3 SWAP2 POP POP JUMP JUMPDEST PUSH0 PUSH2 0x15EB DUP4 DUP4 PUSH2 0x1593 JUMP JUMPDEST SWAP1 POP SWAP3 SWAP2 POP POP JUMP JUMPDEST PUSH0 PUSH1 0x20 DUP3 ADD SWAP1 POP SWAP2 SWAP1 POP JUMP JUMPDEST PUSH0 PUSH2 0x1609 DUP3 PUSH2 0x1504 JUMP JUMPDEST PUSH2 0x1613 DUP2 DUP6 PUSH2 0x150E JUMP JUMPDEST SWAP4 POP DUP4 PUSH1 0x20 DUP3 MUL DUP6 ADD PUSH2 0x1625 DUP6 PUSH2 0x151E JUMP JUMPDEST DUP1 PUSH0 JUMPDEST DUP6 DUP2 LT ISZERO PUSH2 0x1660 JUMPI DUP5 DUP5 SUB DUP10 MSTORE DUP2 MLOAD PUSH2 0x1641 DUP6 DUP3 PUSH2 0x15E0 JUMP JUMPDEST SWAP5 POP PUSH2 0x164C DUP4 PUSH2 0x15F3 JUMP JUMPDEST SWAP3 POP PUSH1 0x20 DUP11 ADD SWAP10 POP POP PUSH1 0x1 DUP2 ADD SWAP1 POP PUSH2 0x1628 JUMP JUMPDEST POP DUP3 SWAP8 POP DUP8 SWAP6 POP POP POP POP POP POP SWAP3 SWAP2 POP POP JUMP JUMPDEST PUSH0 PUSH1 0x20 DUP3 ADD SWAP1 POP DUP2 DUP2 SUB PUSH0 DUP4 ADD MSTORE PUSH2 0x168A DUP2 DUP5 PUSH2 0x15FF JUMP JUMPDEST SWAP1 POP SWAP3 SWAP2 POP POP JUMP JUMPDEST PUSH32 0x4F6E6C79206F776E65722063616E2063616C6C00000000000000000000000000 PUSH0 DUP3 ADD MSTORE POP JUMP JUMPDEST PUSH0 PUSH2 0x16C6 PUSH1 0x13 DUP4 PUSH2 0x1472 JUMP JUMPDEST SWAP2 POP PUSH2 0x16D1 DUP3 PUSH2 0x1692 JUMP JUMPDEST PUSH1 0x20 DUP3 ADD SWAP1 POP SWAP2 SWAP1 POP JUMP JUMPDEST PUSH0 PUSH1 0x20 DUP3 ADD SWAP1 POP DUP2 DUP2 SUB PUSH0 DUP4 ADD MSTORE PUSH2 0x16F3 DUP2 PUSH2 0x16BA JUMP JUMPDEST SWAP1 POP SWAP2 SWAP1 POP JUMP JUMPDEST PUSH32 0x5761697472657373206E6F7420666F756E640000000000000000000000000000 PUSH0 DUP3 ADD MSTORE POP JUMP JUMPDEST PUSH0 PUSH2 0x172E PUSH1 0x12 DUP4 PUSH2 0x1472 JUMP JUMPDEST SWAP2 POP PUSH2 0x1739 DUP3 PUSH2 0x16FA JUMP JUMPDEST PUSH1 0x20 DUP3 ADD SWAP1 POP SWAP2 SWAP1 POP JUMP JUMPDEST PUSH0 PUSH1 0x20 DUP3 ADD SWAP1 POP DUP2 DUP2 SUB PUSH0 DUP4 ADD MSTORE PUSH2 0x175B DUP2 PUSH2 0x1722 JUMP JUMPDEST SWAP1 POP SWAP2 SWAP1 POP JUMP JUMPDEST PUSH32 0x4E487B7100000000000000000000000000000000000000000000000000000000 PUSH0 MSTORE PUSH1 0x32 PUSH1 0x4 MSTORE PUSH1 0x24 PUSH0 REVERT JUMPDEST PUSH32 0x4E487B7100000000000000000000000000000000000000000000000000000000 PUSH0 MSTORE PUSH1 0x11 PUSH1 0x4 MSTORE PUSH1 0x24 PUSH0 REVERT JUMPDEST PUSH0 PUSH2 0x17C6 DUP3 PUSH2 0x10FF JUMP JUMPDEST SWAP2 POP PUSH2 0x17D1 DUP4 PUSH2 0x10FF JUMP JUMPDEST SWAP3 POP DUP3 DUP3 SUB SWAP1 POP DUP2 DUP2 GT ISZERO PUSH2 0x17E9 JUMPI PUSH2 0x17E8 PUSH2 0x178F JUMP JUMPDEST JUMPDEST SWAP3 SWAP2 POP POP JUMP JUMPDEST PUSH32 0x4E487B7100000000000000000000000000000000000000000000000000000000 PUSH0 MSTORE PUSH1 0x22 PUSH1 0x4 MSTORE PUSH1 0x24 PUSH0 REVERT JUMPDEST PUSH0 PUSH1 0x2 DUP3 DIV SWAP1 POP PUSH1 0x1 DUP3 AND DUP1 PUSH2 0x1833 JUMPI PUSH1 0x7F DUP3 AND SWAP2 POP JUMPDEST PUSH1 0x20 DUP3 LT DUP2 SUB PUSH2 0x1846 JUMPI PUSH2 0x1845 PUSH2 0x17EF JUMP JUMPDEST JUMPDEST POP SWAP2 SWAP1 POP JUMP JUMPDEST PUSH0 DUP2 SWAP1 POP DUP2 PUSH0 MSTORE PUSH1 0x20 PUSH0 KECCAK256 SWAP1 POP SWAP2 SWAP1 POP JUMP JUMPDEST PUSH0 PUSH1 0x20 PUSH1 0x1F DUP4 ADD DIV SWAP1 POP SWAP2 SWAP1 POP JUMP JUMPDEST PUSH0 DUP3 DUP3 SHL SWAP1 POP SWAP3 SWAP2 POP POP JUMP JUMPDEST PUSH0 PUSH1 0x8 DUP4 MUL PUSH2 0x18A8 PUSH32 0xFFFFFFFFFFFFFFFFFFFFFFFFFFFFFFFFFFFFFFFFFFFFFFFFFFFFFFFFFFFFFFFF DUP3 PUSH2 0x186D JUMP JUMPDEST PUSH2 0x18B2 DUP7 DUP4 PUSH2 0x186D JUMP JUMPDEST SWAP6 POP DUP1 NOT DUP5 AND SWAP4 POP DUP1 DUP7 AND DUP5 OR SWAP3 POP POP POP SWAP4 SWAP3 POP POP POP JUMP JUMPDEST PUSH0 DUP2 SWAP1 POP SWAP2 SWAP1 POP JUMP JUMPDEST PUSH0 PUSH2 0x18ED PUSH2 0x18E8 PUSH2 0x18E3 DUP5 PUSH2 0x10FF JUMP JUMPDEST PUSH2 0x18CA JUMP JUMPDEST PUSH2 0x10FF JUMP JUMPDEST SWAP1 POP SWAP2 SWAP1 POP JUMP JUMPDEST PUSH0 DUP2 SWAP1 POP SWAP2 SWAP1 POP JUMP JUMPDEST PUSH2 0x1906 DUP4 PUSH2 0x18D3 JUMP JUMPDEST PUSH2 0x191A PUSH2 0x1912 DUP3 PUSH2 0x18F4 JUMP JUMPDEST DUP5 DUP5 SLOAD PUSH2 0x1879 JUMP JUMPDEST DUP3 SSTORE POP POP POP POP JUMP JUMPDEST PUSH0 PUSH0 SWAP1 POP SWAP1 JUMP JUMPDEST PUSH2 0x1931 PUSH2 0x1922 JUMP JUMPDEST PUSH2 0x193C DUP2 DUP5 DUP5 PUSH2 0x18FD JUMP JUMPDEST POP POP POP JUMP JUMPDEST JUMPDEST DUP2 DUP2 LT ISZERO PUSH2 0x195F JUMPI PUSH2 0x1954 PUSH0 DUP3 PUSH2 0x1929 JUMP JUMPDEST PUSH1 0x1 DUP2 ADD SWAP1 POP PUSH2 0x1942 JUMP JUMPDEST POP POP JUMP JUMPDEST PUSH1 0x1F DUP3 GT ISZERO PUSH2 0x19A4 JUMPI PUSH2 0x1975 DUP2 PUSH2 0x184C JUMP JUMPDEST PUSH2 0x197E DUP5 PUSH2 0x185E JUMP JUMPDEST DUP2 ADD PUSH1 0x20 DUP6 LT ISZERO PUSH2 0x198D JUMPI DUP2 SWAP1 POP JUMPDEST PUSH2 0x19A1 PUSH2 0x1999 DUP6 PUSH2 0x185E JUMP JUMPDEST DUP4 ADD DUP3 PUSH2 0x1941 JUMP JUMPDEST POP POP JUMPDEST POP POP POP JUMP JUMPDEST PUSH0 DUP3 DUP3 SHR SWAP1 POP SWAP3 SWAP2 POP POP JUMP JUMPDEST PUSH0 PUSH2 0x19C4 PUSH0 NOT DUP5 PUSH1 0x8 MUL PUSH2 0x19A9 JUMP JUMPDEST NOT DUP1 DUP4 AND SWAP2 POP POP SWAP3 SWAP2 POP POP JUMP JUMPDEST PUSH0 PUSH2 0x19DC DUP4 DUP4 PUSH2 0x19B5 JUMP JUMPDEST SWAP2 POP DUP3 PUSH1 0x2 MUL DUP3 OR SWAP1 POP SWAP3 SWAP2 POP POP JUMP JUMPDEST PUSH2 0x19F5 DUP3 PUSH2 0x1468 JUMP JUMPDEST PUSH8 0xFFFFFFFFFFFFFFFF DUP2 GT ISZERO PUSH2 0x1A0E JUMPI PUSH2 0x1A0D PUSH2 0x1274 JUMP JUMPDEST JUMPDEST PUSH2 0x1A18 DUP3 SLOAD PUSH2 0x181C JUMP JUMPDEST PUSH2 0x1A23 DUP3 DUP3 DUP6 PUSH2 0x1963 JUMP JUMPDEST PUSH0 PUSH1 0x20 SWAP1 POP PUSH1 0x1F DUP4 GT PUSH1 0x1 DUP2 EQ PUSH2 0x1A54 JUMPI PUSH0 DUP5 ISZERO PUSH2 0x1A42 JUMPI DUP3 DUP8 ADD MLOAD SWAP1 POP JUMPDEST PUSH2 0x1A4C DUP6 DUP3 PUSH2 0x19D1 JUMP JUMPDEST DUP7 SSTORE POP PUSH2 0x1AB3 JUMP JUMPDEST PUSH1 0x1F NOT DUP5 AND PUSH2 0x1A62 DUP7 PUSH2 0x184C JUMP JUMPDEST PUSH0 JUMPDEST DUP3 DUP2 LT ISZERO PUSH2 0x1A89 JUMPI DUP5 DUP10 ADD MLOAD DUP3 SSTORE PUSH1 0x1 DUP3 ADD SWAP2 POP PUSH1 0x20 DUP6 ADD SWAP5 POP PUSH1 0x20 DUP2 ADD SWAP1 POP PUSH2 0x1A64 JUMP JUMPDEST DUP7 DUP4 LT ISZERO PUSH2 0x1AA6 JUMPI DUP5 DUP10 ADD MLOAD PUSH2 0x1AA2 PUSH1 0x1F DUP10 AND DUP3 PUSH2 0x19B5 JUMP JUMPDEST DUP4 SSTORE POP JUMPDEST PUSH1 0x1 PUSH1 0x2 DUP9 MUL ADD DUP9 SSTORE POP POP POP JUMPDEST POP POP POP POP POP POP JUMP JUMPDEST PUSH32 0x4E487B7100000000000000000000000000000000000000000000000000000000 PUSH0 MSTORE PUSH1 0x31 PUSH1 0x4 MSTORE PUSH1 0x24 PUSH0 REVERT JUMPDEST PUSH32 0x546970206D7573742062652067726561746572207468616E2030000000000000 PUSH0 DUP3 ADD MSTORE POP JUMP JUMPDEST PUSH0 PUSH2 0x1B1C PUSH1 0x1A DUP4 PUSH2 0x1472 JUMP JUMPDEST SWAP2 POP PUSH2 0x1B27 DUP3 PUSH2 0x1AE8 JUMP JUMPDEST PUSH1 0x20 DUP3 ADD SWAP1 POP SWAP2 SWAP1 POP JUMP JUMPDEST PUSH0 PUSH1 0x20 DUP3 ADD SWAP1 POP DUP2 DUP2 SUB PUSH0 DUP4 ADD MSTORE PUSH2 0x1B49 DUP2 PUSH2 0x1B10 JUMP JUMPDEST SWAP1 POP SWAP2 SWAP1 POP JUMP JUMPDEST PUSH32 0x4E6F204D6F6E657920746F206469737472696275746500000000000000000000 PUSH0 DUP3 ADD MSTORE POP JUMP JUMPDEST PUSH0 PUSH2 0x1B84 PUSH1 0x16 DUP4 PUSH2 0x1472 JUMP JUMPDEST SWAP2 POP PUSH2 0x1B8F DUP3 PUSH2 0x1B50 JUMP JUMPDEST PUSH1 0x20 DUP3 ADD SWAP1 POP SWAP2 SWAP1 POP JUMP JUMPDEST PUSH0 PUSH1 0x20 DUP3 ADD SWAP1 POP DUP2 DUP2 SUB PUSH0 DUP4 ADD MSTORE PUSH2 0x1BB1 DUP2 PUSH2 0x1B78 JUMP JUMPDEST SWAP1 POP SWAP2 SWAP1 POP JUMP JUMPDEST PUSH32 0x4E6F207761697472657373657320746F20706179000000000000000000000000 PUSH0 DUP3 ADD MSTORE POP JUMP JUMPDEST PUSH0 PUSH2 0x1BEC PUSH1 0x14 DUP4 PUSH2 0x1472 JUMP JUMPDEST SWAP2 POP PUSH2 0x1BF7 DUP3 PUSH2 0x1BB8 JUMP JUMPDEST PUSH1 0x20 DUP3 ADD SWAP1 POP SWAP2 SWAP1 POP JUMP JUMPDEST PUSH0 PUSH1 0x20 DUP3 ADD SWAP1 POP DUP2 DUP2 SUB PUSH0 DUP4 ADD MSTORE PUSH2 0x1C19 DUP2 PUSH2 0x1BE0 JUMP JUMPDEST SWAP1 POP SWAP2 SWAP1 POP JUMP JUMPDEST PUSH0 PUSH2 0x1C2A DUP3 PUSH2 0x10FF JUMP JUMPDEST SWAP2 POP PUSH2 0x1C35 DUP4 PUSH2 0x10FF JUMP JUMPDEST SWAP3 POP DUP3 DUP3 MUL PUSH2 0x1C43 DUP2 PUSH2 0x10FF JUMP JUMPDEST SWAP2 POP DUP3 DUP3 DIV DUP5 EQ DUP4 ISZERO OR PUSH2 0x1C5A JUMPI PUSH2 0x1C59 PUSH2 0x178F JUMP JUMPDEST JUMPDEST POP SWAP3 SWAP2 POP POP JUMP JUMPDEST PUSH32 0x4E487B7100000000000000000000000000000000000000000000000000000000 PUSH0 MSTORE PUSH1 0x12 PUSH1 0x4 MSTORE PUSH1 0x24 PUSH0 REVERT JUMPDEST PUSH0 PUSH2 0x1C98 DUP3 PUSH2 0x10FF JUMP JUMPDEST SWAP2 POP PUSH2 0x1CA3 DUP4 PUSH2 0x10FF JUMP JUMPDEST SWAP3 POP DUP3 PUSH2 0x1CB3 JUMPI PUSH2 0x1CB2 PUSH2 0x1C61 JUMP JUMPDEST JUMPDEST DUP3 DUP3 DIV SWAP1 POP SWAP3 SWAP2 POP POP JUMP JUMPDEST PUSH0 PUSH1 0x40 DUP3 ADD SWAP1 POP PUSH2 0x1CD1 PUSH0 DUP4 ADD DUP6 PUSH2 0x1108 JUMP JUMPDEST PUSH2 0x1CDE PUSH1 0x20 DUP4 ADD DUP5 PUSH2 0x1108 JUMP JUMPDEST SWAP4 SWAP3 POP POP POP JUMP JUMPDEST PUSH32 0x496E76616C696420616464726573730000000000000000000000000000000000 PUSH0 DUP3 ADD MSTORE POP JUMP JUMPDEST PUSH0 PUSH2 0x1D19 PUSH1 0xF DUP4 PUSH2 0x1472 JUMP JUMPDEST SWAP2 POP PUSH2 0x1D24 DUP3 PUSH2 0x1CE5 JUMP JUMPDEST PUSH1 0x20 DUP3 ADD SWAP1 POP SWAP2 SWAP1 POP JUMP JUMPDEST PUSH0 PUSH1 0x20 DUP3 ADD SWAP1 POP DUP2 DUP2 SUB PUSH0 DUP4 ADD MSTORE PUSH2 0x1D46 DUP2 PUSH2 0x1D0D JUMP JUMPDEST SWAP1 POP SWAP2 SWAP1 POP JUMP JUMPDEST PUSH32 0x50657263656E74206D757374206265203E203000000000000000000000000000 PUSH0 DUP3 ADD MSTORE POP JUMP JUMPDEST PUSH0 PUSH2 0x1D81 PUSH1 0x13 DUP4 PUSH2 0x1472 JUMP JUMPDEST SWAP2 POP PUSH2 0x1D8C DUP3 PUSH2 0x1D4D JUMP JUMPDEST PUSH1 0x20 DUP3 ADD SWAP1 POP SWAP2 SWAP1 POP JUMP JUMPDEST PUSH0 PUSH1 0x20 DUP3 ADD SWAP1 POP DUP2 DUP2 SUB PUSH0 DUP4 ADD MSTORE PUSH2 0x1DAE DUP2 PUSH2 0x1D75 JUMP JUMPDEST SWAP1 POP SWAP2 SWAP1 POP JUMP JUMPDEST PUSH32 0x576169747265737320616C726561647920657869737473000000000000000000 PUSH0 DUP3 ADD MSTORE POP JUMP JUMPDEST PUSH0 PUSH2 0x1DE9 PUSH1 0x17 DUP4 PUSH2 0x1472 JUMP JUMPDEST SWAP2 POP PUSH2 0x1DF4 DUP3 PUSH2 0x1DB5 JUMP JUMPDEST PUSH1 0x20 DUP3 ADD SWAP1 POP SWAP2 SWAP1 POP JUMP JUMPDEST PUSH0 PUSH1 0x20 DUP3 ADD SWAP1 POP DUP2 DUP2 SUB PUSH0 DUP4 ADD MSTORE PUSH2 0x1E16 DUP2 PUSH2 0x1DDD JUMP JUMPDEST SWAP1 POP SWAP2 SWAP1 POP JUMP JUMPDEST PUSH0 PUSH2 0x1E27 DUP3 PUSH2 0x10FF JUMP JUMPDEST SWAP2 POP PUSH2 0x1E32 DUP4 PUSH2 0x10FF JUMP JUMPDEST SWAP3 POP DUP3 DUP3 ADD SWAP1 POP DUP1 DUP3 GT ISZERO PUSH2 0x1E4A JUMPI PUSH2 0x1E49 PUSH2 0x178F JUMP JUMPDEST JUMPDEST SWAP3 SWAP2 POP POP JUMP JUMPDEST PUSH32 0x546F74616C207368617265732063616E6E6F7420657863656564203130302500 PUSH0 DUP3 ADD MSTORE POP JUMP JUMPDEST PUSH0 PUSH2 0x1E84 PUSH1 0x1F DUP4 PUSH2 0x1472 JUMP JUMPDEST SWAP2 POP PUSH2 0x1E8F DUP3 PUSH2 0x1E50 JUMP JUMPDEST PUSH1 0x20 DUP3 ADD SWAP1 POP SWAP2 SWAP1 POP JUMP JUMPDEST PUSH0 PUSH1 0x20 DUP3 ADD SWAP1 POP DUP2 DUP2 SUB PUSH0 DUP4 ADD MSTORE PUSH2 0x1EB1 DUP2 PUSH2 0x1E78 JUMP JUMPDEST SWAP1 POP SWAP2 SWAP1 POP JUMP JUMPDEST PUSH0 PUSH1 0x40 DUP3 ADD SWAP1 POP DUP2 DUP2 SUB PUSH0 DUP4 ADD MSTORE PUSH2 0x1ED0 DUP2 DUP6 PUSH2 0x1490 JUMP JUMPDEST SWAP1 POP PUSH2 0x1EDF PUSH1 0x20 DUP4 ADD DUP5 PUSH2 0x1108 JUMP JUMPDEST SWAP4 SWAP3 POP POP POP JUMP JUMPDEST PUSH0 DUP2 SWAP1 POP SWAP3 SWAP2 POP POP JUMP JUMPDEST POP JUMP JUMPDEST PUSH0 PUSH2 0x1EFE PUSH0 DUP4 PUSH2 0x1EE6 JUMP JUMPDEST SWAP2 POP PUSH2 0x1F09 DUP3 PUSH2 0x1EF0 JUMP JUMPDEST PUSH0 DUP3 ADD SWAP1 POP SWAP2 SWAP1 POP JUMP JUMPDEST PUSH0 PUSH2 0x1F1D DUP3 PUSH2 0x1EF3 JUMP JUMPDEST SWAP2 POP DUP2 SWAP1 POP SWAP2 SWAP1 POP JUMP JUMPDEST PUSH32 0x5472616E73666572206661696C65642E00000000000000000000000000000000 PUSH0 DUP3 ADD MSTORE POP JUMP JUMPDEST PUSH0 PUSH2 0x1F5B PUSH1 0x10 DUP4 PUSH2 0x1472 JUMP JUMPDEST SWAP2 POP PUSH2 0x1F66 DUP3 PUSH2 0x1F27 JUMP JUMPDEST PUSH1 0x20 DUP3 ADD SWAP1 POP SWAP2 SWAP1 POP JUMP JUMPDEST PUSH0 PUSH1 0x20 DUP3 ADD SWAP1 POP DUP2 DUP2 SUB PUSH0 DUP4 ADD MSTORE PUSH2 0x1F88 DUP2 PUSH2 0x1F4F JUMP JUMPDEST SWAP1 POP SWAP2 SWAP1 POP JUMP INVALID LOG2 PUSH5 0x6970667358 0x22 SLT KECCAK256 DUP9 JUMP NOT DUP12 CREATE SHL 0x26 MOD 0xED EOFCREATE 0x92 DUP16 SLT 0xA9 CODECOPY ORIGIN PUSH5 0x4FAB71CBE5 DUP2 CALLDATALOAD 0xB5 DUP6 0x29 PUSH15 0x57154A6564736F6C634300081F0033 "
				},
				"gasEstimates": {
					"creation": {
						"codeDepositCost": "1626600",
						"executionCost": "25970",
						"totalCost": "1652570"
					},
					"external": {
						"addWaitress(address,string,uint256)": "infinite",
						"addtips()": "1777",
						"distributeBalance()": "infinite",
						"isWaitress(address)": "2833",
						"owner()": "2529",
						"removeWaitress(address)": "infinite",
						"totalShares()": "2470",
						"viewWaitress()": "infinite",
						"viewtips()": "335",
						"waitresses(uint256)": "infinite"
					},
					"internal": {
						"_transferFunds(address payable,uint256)": "infinite"
					}
				},
				"methodIdentifiers": {
					"addWaitress(address,string,uint256)": "b499b79a",
					"addtips()": "6e7301fd",
					"distributeBalance()": "7943da69",
					"isWaitress(address)": "85d739cd",
					"owner()": "8da5cb5b",
					"removeWaitress(address)": "369a489d",
					"totalShares()": "3a98ef39",
					"viewWaitress()": "e83a1b00",
					"viewtips()": "2a08deda",
					"waitresses(uint256)": "ccbf1234"
				}
			},
			"storageLayout": {
				"storage": [
					{
						"astId": 3,
						"contract": "tipjar.sol:Tips",
						"label": "owner",
						"offset": 0,
						"slot": "0",
						"type": "t_address"
					},
					{
						"astId": 5,
						"contract": "tipjar.sol:Tips",
						"label": "totalShares",
						"offset": 0,
						"slot": "1",
						"type": "t_uint256"
					},
					{
						"astId": 16,
						"contract": "tipjar.sol:Tips",
						"label": "waitresses",
						"offset": 0,
						"slot": "2",
						"type": "t_array(t_struct(Waitress)12_storage)dyn_storage"
					},
					{
						"astId": 20,
						"contract": "tipjar.sol:Tips",
						"label": "isWaitress",
						"offset": 0,
						"slot": "3",
						"type": "t_mapping(t_address,t_bool)"
					},
					{
						"astId": 24,
						"contract": "tipjar.sol:Tips",
						"label": "waitressIndex",
						"offset": 0,
						"slot": "4",
						"type": "t_mapping(t_address,t_uint256)"
					}
				],
				"types": {
					"t_address": {
						"encoding": "inplace",
						"label": "address",
						"numberOfBytes": "20"
					},
					"t_address_payable": {
						"encoding": "inplace",
						"label": "address payable",
						"numberOfBytes": "20"
					},
					"t_array(t_struct(Waitress)12_storage)dyn_storage": {
						"base": "t_struct(Waitress)12_storage",
						"encoding": "dynamic_array",
						"label": "struct Tips.Waitress[]",
						"numberOfBytes": "32"
					},
					"t_bool": {
						"encoding": "inplace",
						"label": "bool",
						"numberOfBytes": "1"
					},
					"t_mapping(t_address,t_bool)": {
						"encoding": "mapping",
						"key": "t_address",
						"label": "mapping(address => bool)",
						"numberOfBytes": "32",
						"value": "t_bool"
					},
					"t_mapping(t_address,t_uint256)": {
						"encoding": "mapping",
						"key": "t_address",
						"label": "mapping(address => uint256)",
						"numberOfBytes": "32",
						"value": "t_uint256"
					},
					"t_string_storage": {
						"encoding": "bytes",
						"label": "string",
						"numberOfBytes": "32"
					},
					"t_struct(Waitress)12_storage": {
						"encoding": "inplace",
						"label": "struct Tips.Waitress",
						"members": [
							{
								"astId": 7,
								"contract": "tipjar.sol:Tips",
								"label": "walletAddress",
								"offset": 0,
								"slot": "0",
								"type": "t_address_payable"
							},
							{
								"astId": 9,
								"contract": "tipjar.sol:Tips",
								"label": "name",
								"offset": 0,
								"slot": "1",
								"type": "t_string_storage"
							},
							{
								"astId": 11,
								"contract": "tipjar.sol:Tips",
								"label": "percent",
								"offset": 0,
								"slot": "2",
								"type": "t_uint256"
							}
						],
						"numberOfBytes": "96"
					},
					"t_uint256": {
						"encoding": "inplace",
						"label": "uint256",
						"numberOfBytes": "32"
					}
				}
			},
			"userdoc": {
				"kind": "user",
				"methods": {},
				"version": 1
			}
		}
	}
}