{
	"tipjar.sol": {
		"tips": {
			"abi": [
				{
					"inputs": [],
					"stateMutability": "nonpayable",
					"type": "constructor"
				},
				{
					"inputs": [
						{
							"internalType": "address payable",
							"name": "walletAddress",
							"type": "address"
						},
						{
							"internalType": "string",
							"name": "name",
							"type": "string"
						},
						{
							"internalType": "uint256",
							"name": "percent",
							"type": "uint256"
						}
					],
					"name": "addWaitress",
					"outputs": [],
					"stateMutability": "nonpayable",
					"type": "function"
				},
				{
					"inputs": [],
					"name": "addtips",
					"outputs": [],
					"stateMutability": "payable",
					"type": "function"
				},
				{
					"inputs": [],
					"name": "viewWaitress",
					"outputs": [
						{
							"components": [
								{
									"internalType": "address payable",
									"name": "walletAddress",
									"type": "address"
								},
								{
									"internalType": "string",
									"name": "name",
									"type": "string"
								},
								{
									"internalType": "uint256",
									"name": "percent",
									"type": "uint256"
								}
							],
							"internalType": "struct tips.Waitress[]",
							"name": "",
							"type": "tuple[]"
						}
					],
					"stateMutability": "view",
					"type": "function"
				},
				{
					"inputs": [],
					"name": "viewtips",
					"outputs": [
						{
							"internalType": "uint256",
							"name": "",
							"type": "uint256"
						}
					],
					"stateMutability": "view",
					"type": "function"
				},
				{
					"inputs": [
						{
							"internalType": "uint256",
							"name": "",
							"type": "uint256"
						}
					],
					"name": "waitress",
					"outputs": [
						{
							"internalType": "address payable",
							"name": "walletAddress",
							"type": "address"
						},
						{
							"internalType": "string",
							"name": "name",
							"type": "string"
						},
						{
							"internalType": "uint256",
							"name": "percent",
							"type": "uint256"
						}
					],
					"stateMutability": "view",
					"type": "function"
				}
			],
			"devdoc": {
				"kind": "dev",
				"methods": {},
				"version": 1
			},
			"evm": {
				"assembly": "    /* \"tipjar.sol\":67:1439  contract tips {... */\n  mstore(0x40, 0x80)\n    /* \"tipjar.sol\":332:383  constructor() {... */\n  callvalue\n  dup1\n  iszero\n  tag_1\n  jumpi\n  revert(0x00, 0x00)\ntag_1:\n  pop\n    /* \"tipjar.sol\":365:375  msg.sender */\n  caller\n    /* \"tipjar.sol\":357:362  owner */\n  0x00\n  0x00\n    /* \"tipjar.sol\":357:375  owner = msg.sender */\n  0x0100\n  exp\n  dup2\n  sload\n  dup2\n  0xffffffffffffffffffffffffffffffffffffffff\n  mul\n  not\n  and\n  swap1\n  dup4\n  0xffffffffffffffffffffffffffffffffffffffff\n  and\n  mul\n  or\n  swap1\n  sstore\n  pop\n    /* \"tipjar.sol\":67:1439  contract tips {... */\n  dataSize(sub_0)\n  dup1\n  dataOffset(sub_0)\n  0x00\n  codecopy\n  0x00\n  return\nstop\n\nsub_0: assembly {\n        /* \"tipjar.sol\":67:1439  contract tips {... */\n      mstore(0x40, 0x80)\n      jumpi(tag_1, lt(calldatasize, 0x04))\n      shr(0xe0, calldataload(0x00))\n      dup1\n      0x2a08deda\n      eq\n      tag_2\n      jumpi\n      dup1\n      0x6e7301fd\n      eq\n      tag_3\n      jumpi\n      dup1\n      0xb499b79a\n      eq\n      tag_4\n      jumpi\n      dup1\n      0xe83a1b00\n      eq\n      tag_5\n      jumpi\n      dup1\n      0xec066e3a\n      eq\n      tag_6\n      jumpi\n    tag_1:\n      revert(0x00, 0x00)\n        /* \"tipjar.sol\":497:590  function viewtips() public view returns(uint) {... */\n    tag_2:\n      callvalue\n      dup1\n      iszero\n      tag_7\n      jumpi\n      revert(0x00, 0x00)\n    tag_7:\n      pop\n      tag_8\n      tag_9\n      jump\t// in\n    tag_8:\n      mload(0x40)\n      tag_10\n      swap2\n      swap1\n      tag_11\n      jump\t// in\n    tag_10:\n      mload(0x40)\n      dup1\n      swap2\n      sub\n      swap1\n      return\n        /* \"tipjar.sol\":429:465  function addtips() payable public {} */\n    tag_3:\n      tag_12\n      tag_13\n      jump\t// in\n    tag_12:\n      stop\n        /* \"tipjar.sol\":840:1436  function addWaitress(... */\n    tag_4:\n      callvalue\n      dup1\n      iszero\n      tag_14\n      jumpi\n      revert(0x00, 0x00)\n    tag_14:\n      pop\n      tag_15\n      0x04\n      dup1\n      calldatasize\n      sub\n      dup2\n      add\n      swap1\n      tag_16\n      swap2\n      swap1\n      tag_17\n      jump\t// in\n    tag_16:\n      tag_18\n      jump\t// in\n    tag_15:\n      stop\n        /* \"tipjar.sol\":623:721  function viewWaitress() public view returns (Waitress[] memory) {... */\n    tag_5:\n      callvalue\n      dup1\n      iszero\n      tag_19\n      jumpi\n      revert(0x00, 0x00)\n    tag_19:\n      pop\n      tag_20\n      tag_21\n      jump\t// in\n    tag_20:\n      mload(0x40)\n      tag_22\n      swap2\n      swap1\n      tag_23\n      jump\t// in\n    tag_22:\n      mload(0x40)\n      dup1\n      swap2\n      sub\n      swap1\n      return\n        /* \"tipjar.sol\":297:323  Waitress[] public waitress */\n    tag_6:\n      callvalue\n      dup1\n      iszero\n      tag_24\n      jumpi\n      revert(0x00, 0x00)\n    tag_24:\n      pop\n      tag_25\n      0x04\n      dup1\n      calldatasize\n      sub\n      dup2\n      add\n      swap1\n      tag_26\n      swap2\n      swap1\n      tag_27\n      jump\t// in\n    tag_26:\n      tag_28\n      jump\t// in\n    tag_25:\n      mload(0x40)\n      tag_29\n      swap4\n      swap3\n      swap2\n      swap1\n      tag_30\n      jump\t// in\n    tag_29:\n      mload(0x40)\n      dup1\n      swap2\n      sub\n      swap1\n      return\n        /* \"tipjar.sol\":497:590  function viewtips() public view returns(uint) {... */\n    tag_9:\n        /* \"tipjar.sol\":537:541  uint */\n      0x00\n        /* \"tipjar.sol\":561:582  address(this).balance */\n      selfbalance\n        /* \"tipjar.sol\":554:582  return address(this).balance */\n      swap1\n      pop\n        /* \"tipjar.sol\":497:590  function viewtips() public view returns(uint) {... */\n      swap1\n      jump\t// out\n        /* \"tipjar.sol\":429:465  function addtips() payable public {} */\n    tag_13:\n      jump\t// out\n        /* \"tipjar.sol\":840:1436  function addWaitress(... */\n    tag_18:\n        /* \"tipjar.sol\":783:788  owner */\n      0x00\n      0x00\n      swap1\n      sload\n      swap1\n      0x0100\n      exp\n      swap1\n      div\n      0xffffffffffffffffffffffffffffffffffffffff\n      and\n        /* \"tipjar.sol\":769:788  msg.sender == owner */\n      0xffffffffffffffffffffffffffffffffffffffff\n      and\n        /* \"tipjar.sol\":769:779  msg.sender */\n      caller\n        /* \"tipjar.sol\":769:788  msg.sender == owner */\n      0xffffffffffffffffffffffffffffffffffffffff\n      and\n      eq\n        /* \"tipjar.sol\":761:812  require(msg.sender == owner, \"Only owner can call\") */\n      tag_34\n      jumpi\n      mload(0x40)\n      0x08c379a000000000000000000000000000000000000000000000000000000000\n      dup2\n      mstore\n      0x04\n      add\n      tag_35\n      swap1\n      tag_36\n      jump\t// in\n    tag_35:\n      mload(0x40)\n      dup1\n      swap2\n      sub\n      swap1\n      revert\n    tag_34:\n        /* \"tipjar.sol\":990:1008  bool waitressExist */\n      0x00\n        /* \"tipjar.sol\":1011:1016  false */\n      0x00\n        /* \"tipjar.sol\":990:1016  bool waitressExist = false */\n      swap1\n      pop\n        /* \"tipjar.sol\":1052:1053  1 */\n      0x01\n        /* \"tipjar.sol\":1033:1041  waitress */\n      dup1\n        /* \"tipjar.sol\":1033:1048  waitress.length */\n      dup1\n      sload\n      swap1\n      pop\n        /* \"tipjar.sol\":1033:1053  waitress.length >= 1 */\n      lt\n        /* \"tipjar.sol\":1029:1285  if (waitress.length >= 1) {... */\n      tag_38\n      jumpi\n        /* \"tipjar.sol\":1103:1109  uint i */\n      0x00\n        /* \"tipjar.sol\":1110:1111  0 */\n      0x00\n        /* \"tipjar.sol\":1103:1111  uint i=0 */\n      swap1\n      pop\n        /* \"tipjar.sol\":1099:1274  for(uint i=0; i<waitress.length; i++){... */\n    tag_39:\n        /* \"tipjar.sol\":1115:1123  waitress */\n      0x01\n        /* \"tipjar.sol\":1115:1130  waitress.length */\n      dup1\n      sload\n      swap1\n      pop\n        /* \"tipjar.sol\":1113:1114  i */\n      dup2\n        /* \"tipjar.sol\":1113:1130  i<waitress.length */\n      lt\n        /* \"tipjar.sol\":1099:1274  for(uint i=0; i<waitress.length; i++){... */\n      iszero\n      tag_40\n      jumpi\n        /* \"tipjar.sol\":1186:1199  walletAddress */\n      dup5\n        /* \"tipjar.sol\":1157:1199  waitress[i].walletAddress == walletAddress */\n      0xffffffffffffffffffffffffffffffffffffffff\n      and\n        /* \"tipjar.sol\":1157:1165  waitress */\n      0x01\n        /* \"tipjar.sol\":1166:1167  i */\n      dup3\n        /* \"tipjar.sol\":1157:1168  waitress[i] */\n      dup2\n      sload\n      dup2\n      lt\n      tag_42\n      jumpi\n      tag_43\n      tag_44\n      jump\t// in\n    tag_43:\n    tag_42:\n      swap1\n      0x00\n      mstore\n      keccak256(0x00, 0x20)\n      swap1\n      0x03\n      mul\n      add\n        /* \"tipjar.sol\":1157:1182  waitress[i].walletAddress */\n      0x00\n      add\n      0x00\n      swap1\n      sload\n      swap1\n      0x0100\n      exp\n      swap1\n      div\n      0xffffffffffffffffffffffffffffffffffffffff\n      and\n        /* \"tipjar.sol\":1157:1199  waitress[i].walletAddress == walletAddress */\n      0xffffffffffffffffffffffffffffffffffffffff\n      and\n      sub\n        /* \"tipjar.sol\":1154:1258  if(waitress[i].walletAddress == walletAddress){... */\n      tag_46\n      jumpi\n        /* \"tipjar.sol\":1235:1239  true */\n      0x01\n        /* \"tipjar.sol\":1219:1239  waitressExist = true */\n      swap2\n      pop\n        /* \"tipjar.sol\":1154:1258  if(waitress[i].walletAddress == walletAddress){... */\n    tag_46:\n        /* \"tipjar.sol\":1132:1135  i++ */\n      dup1\n      dup1\n      0x01\n      add\n      swap2\n      pop\n      pop\n        /* \"tipjar.sol\":1099:1274  for(uint i=0; i<waitress.length; i++){... */\n      jump(tag_39)\n    tag_40:\n      pop\n        /* \"tipjar.sol\":1029:1285  if (waitress.length >= 1) {... */\n    tag_38:\n        /* \"tipjar.sol\":1302:1315  waitressExist */\n      dup1\n        /* \"tipjar.sol\":1297:1429  if (!waitressExist) {... */\n      tag_47\n      jumpi\n        /* \"tipjar.sol\":1332:1340  waitress */\n      0x01\n        /* \"tipjar.sol\":1364:1402  Waitress(walletAddress, name, percent) */\n      mload(0x40)\n      dup1\n      0x60\n      add\n      0x40\n      mstore\n      dup1\n        /* \"tipjar.sol\":1373:1386  walletAddress */\n      dup7\n        /* \"tipjar.sol\":1364:1402  Waitress(walletAddress, name, percent) */\n      0xffffffffffffffffffffffffffffffffffffffff\n      and\n      dup2\n      mstore\n      0x20\n      add\n        /* \"tipjar.sol\":1388:1392  name */\n      dup6\n        /* \"tipjar.sol\":1364:1402  Waitress(walletAddress, name, percent) */\n      dup2\n      mstore\n      0x20\n      add\n        /* \"tipjar.sol\":1394:1401  percent */\n      dup5\n        /* \"tipjar.sol\":1364:1402  Waitress(walletAddress, name, percent) */\n      dup2\n      mstore\n      pop\n        /* \"tipjar.sol\":1332:1417  waitress.push(... */\n      swap1\n      dup1\n      0x01\n      dup2\n      sload\n      add\n      dup1\n      dup3\n      sstore\n      dup1\n      swap2\n      pop\n      pop\n      0x01\n      swap1\n      sub\n      swap1\n      0x00\n      mstore\n      keccak256(0x00, 0x20)\n      swap1\n      0x03\n      mul\n      add\n      0x00\n      swap1\n      swap2\n      swap1\n      swap2\n      swap1\n      swap2\n      pop\n      0x00\n      dup3\n      add\n      mload\n      dup2\n      0x00\n      add\n      exp(0x0100, 0x00)\n      dup2\n      sload\n      dup2\n      0xffffffffffffffffffffffffffffffffffffffff\n      mul\n      not\n      and\n      swap1\n      dup4\n      0xffffffffffffffffffffffffffffffffffffffff\n      and\n      mul\n      or\n      swap1\n      sstore\n      pop\n      0x20\n      dup3\n      add\n      mload\n      dup2\n      0x01\n      add\n      swap1\n      dup2\n      tag_49\n      swap2\n      swap1\n      tag_50\n      jump\t// in\n    tag_49:\n      pop\n      0x40\n      dup3\n      add\n      mload\n      dup2\n      0x02\n      add\n      sstore\n      pop\n      pop\n        /* \"tipjar.sol\":1297:1429  if (!waitressExist) {... */\n    tag_47:\n        /* \"tipjar.sol\":977:1436  {... */\n      pop\n        /* \"tipjar.sol\":840:1436  function addWaitress(... */\n      pop\n      pop\n      pop\n      jump\t// out\n        /* \"tipjar.sol\":623:721  function viewWaitress() public view returns (Waitress[] memory) {... */\n    tag_21:\n        /* \"tipjar.sol\":668:685  Waitress[] memory */\n      0x60\n        /* \"tipjar.sol\":705:713  waitress */\n      0x01\n        /* \"tipjar.sol\":698:713  return waitress */\n      dup1\n      sload\n      dup1\n      0x20\n      mul\n      0x20\n      add\n      mload(0x40)\n      swap1\n      dup2\n      add\n      0x40\n      mstore\n      dup1\n      swap3\n      swap2\n      swap1\n      dup2\n      dup2\n      mstore\n      0x20\n      add\n      0x00\n      swap1\n    tag_52:\n      dup3\n      dup3\n      lt\n      iszero\n      tag_53\n      jumpi\n      dup4\n      dup3\n      swap1\n      0x00\n      mstore\n      keccak256(0x00, 0x20)\n      swap1\n      0x03\n      mul\n      add\n      mload(0x40)\n      dup1\n      0x60\n      add\n      0x40\n      mstore\n      swap1\n      dup2\n      0x00\n      dup3\n      add\n      0x00\n      swap1\n      sload\n      swap1\n      0x0100\n      exp\n      swap1\n      div\n      0xffffffffffffffffffffffffffffffffffffffff\n      and\n      0xffffffffffffffffffffffffffffffffffffffff\n      and\n      0xffffffffffffffffffffffffffffffffffffffff\n      and\n      dup2\n      mstore\n      0x20\n      add\n      0x01\n      dup3\n      add\n      dup1\n      sload\n      tag_55\n      swap1\n      tag_56\n      jump\t// in\n    tag_55:\n      dup1\n      0x1f\n      add\n      0x20\n      dup1\n      swap2\n      div\n      mul\n      0x20\n      add\n      mload(0x40)\n      swap1\n      dup2\n      add\n      0x40\n      mstore\n      dup1\n      swap3\n      swap2\n      swap1\n      dup2\n      dup2\n      mstore\n      0x20\n      add\n      dup3\n      dup1\n      sload\n      tag_57\n      swap1\n      tag_56\n      jump\t// in\n    tag_57:\n      dup1\n      iszero\n      tag_58\n      jumpi\n      dup1\n      0x1f\n      lt\n      tag_59\n      jumpi\n      0x0100\n      dup1\n      dup4\n      sload\n      div\n      mul\n      dup4\n      mstore\n      swap2\n      0x20\n      add\n      swap2\n      jump(tag_58)\n    tag_59:\n      dup3\n      add\n      swap2\n      swap1\n      0x00\n      mstore\n      keccak256(0x00, 0x20)\n      swap1\n    tag_60:\n      dup2\n      sload\n      dup2\n      mstore\n      swap1\n      0x01\n      add\n      swap1\n      0x20\n      add\n      dup1\n      dup4\n      gt\n      tag_60\n      jumpi\n      dup3\n      swap1\n      sub\n      0x1f\n      and\n      dup3\n      add\n      swap2\n    tag_58:\n      pop\n      pop\n      pop\n      pop\n      pop\n      dup2\n      mstore\n      0x20\n      add\n      0x02\n      dup3\n      add\n      sload\n      dup2\n      mstore\n      pop\n      pop\n      dup2\n      mstore\n      0x20\n      add\n      swap1\n      0x01\n      add\n      swap1\n      jump(tag_52)\n    tag_53:\n      pop\n      pop\n      pop\n      pop\n      swap1\n      pop\n        /* \"tipjar.sol\":623:721  function viewWaitress() public view returns (Waitress[] memory) {... */\n      swap1\n      jump\t// out\n        /* \"tipjar.sol\":297:323  Waitress[] public waitress */\n    tag_28:\n      0x01\n      dup2\n      dup2\n      sload\n      dup2\n      lt\n      tag_61\n      jumpi\n      0x00\n      dup1\n      revert\n    tag_61:\n      swap1\n      0x00\n      mstore\n      keccak256(0x00, 0x20)\n      swap1\n      0x03\n      mul\n      add\n      0x00\n      swap2\n      pop\n      swap1\n      pop\n      dup1\n      0x00\n      add\n      0x00\n      swap1\n      sload\n      swap1\n      0x0100\n      exp\n      swap1\n      div\n      0xffffffffffffffffffffffffffffffffffffffff\n      and\n      swap1\n      dup1\n      0x01\n      add\n      dup1\n      sload\n      tag_63\n      swap1\n      tag_56\n      jump\t// in\n    tag_63:\n      dup1\n      0x1f\n      add\n      0x20\n      dup1\n      swap2\n      div\n      mul\n      0x20\n      add\n      mload(0x40)\n      swap1\n      dup2\n      add\n      0x40\n      mstore\n      dup1\n      swap3\n      swap2\n      swap1\n      dup2\n      dup2\n      mstore\n      0x20\n      add\n      dup3\n      dup1\n      sload\n      tag_64\n      swap1\n      tag_56\n      jump\t// in\n    tag_64:\n      dup1\n      iszero\n      tag_65\n      jumpi\n      dup1\n      0x1f\n      lt\n      tag_66\n      jumpi\n      0x0100\n      dup1\n      dup4\n      sload\n      div\n      mul\n      dup4\n      mstore\n      swap2\n      0x20\n      add\n      swap2\n      jump(tag_65)\n    tag_66:\n      dup3\n      add\n      swap2\n      swap1\n      0x00\n      mstore\n      keccak256(0x00, 0x20)\n      swap1\n    tag_67:\n      dup2\n      sload\n      dup2\n      mstore\n      swap1\n      0x01\n      add\n      swap1\n      0x20\n      add\n      dup1\n      dup4\n      gt\n      tag_67\n      jumpi\n      dup3\n      swap1\n      sub\n      0x1f\n      and\n      dup3\n      add\n      swap2\n    tag_65:\n      pop\n      pop\n      pop\n      pop\n      pop\n      swap1\n      dup1\n      0x02\n      add\n      sload\n      swap1\n      pop\n      dup4\n      jump\t// out\n        /* \"#utility.yul\":7:84   */\n    tag_68:\n        /* \"#utility.yul\":44:51   */\n      0x00\n        /* \"#utility.yul\":73:78   */\n      dup2\n        /* \"#utility.yul\":62:78   */\n      swap1\n      pop\n        /* \"#utility.yul\":7:84   */\n      swap2\n      swap1\n      pop\n      jump\t// out\n        /* \"#utility.yul\":90:208   */\n    tag_69:\n        /* \"#utility.yul\":177:201   */\n      tag_126\n        /* \"#utility.yul\":195:200   */\n      dup2\n        /* \"#utility.yul\":177:201   */\n      tag_68\n      jump\t// in\n    tag_126:\n        /* \"#utility.yul\":172:175   */\n      dup3\n        /* \"#utility.yul\":165:202   */\n      mstore\n        /* \"#utility.yul\":90:208   */\n      pop\n      pop\n      jump\t// out\n        /* \"#utility.yul\":214:436   */\n    tag_11:\n        /* \"#utility.yul\":307:311   */\n      0x00\n        /* \"#utility.yul\":345:347   */\n      0x20\n        /* \"#utility.yul\":334:343   */\n      dup3\n        /* \"#utility.yul\":330:348   */\n      add\n        /* \"#utility.yul\":322:348   */\n      swap1\n      pop\n        /* \"#utility.yul\":358:429   */\n      tag_128\n        /* \"#utility.yul\":426:427   */\n      0x00\n        /* \"#utility.yul\":415:424   */\n      dup4\n        /* \"#utility.yul\":411:428   */\n      add\n        /* \"#utility.yul\":402:408   */\n      dup5\n        /* \"#utility.yul\":358:429   */\n      tag_69\n      jump\t// in\n    tag_128:\n        /* \"#utility.yul\":214:436   */\n      swap3\n      swap2\n      pop\n      pop\n      jump\t// out\n        /* \"#utility.yul\":442:517   */\n    tag_70:\n        /* \"#utility.yul\":475:481   */\n      0x00\n        /* \"#utility.yul\":508:510   */\n      0x40\n        /* \"#utility.yul\":502:511   */\n      mload\n        /* \"#utility.yul\":492:511   */\n      swap1\n      pop\n        /* \"#utility.yul\":442:517   */\n      swap1\n      jump\t// out\n        /* \"#utility.yul\":523:640   */\n    tag_71:\n        /* \"#utility.yul\":632:633   */\n      0x00\n        /* \"#utility.yul\":629:630   */\n      0x00\n        /* \"#utility.yul\":622:634   */\n      revert\n        /* \"#utility.yul\":646:763   */\n    tag_72:\n        /* \"#utility.yul\":755:756   */\n      0x00\n        /* \"#utility.yul\":752:753   */\n      0x00\n        /* \"#utility.yul\":745:757   */\n      revert\n        /* \"#utility.yul\":769:895   */\n    tag_73:\n        /* \"#utility.yul\":806:813   */\n      0x00\n        /* \"#utility.yul\":846:888   */\n      0xffffffffffffffffffffffffffffffffffffffff\n        /* \"#utility.yul\":839:844   */\n      dup3\n        /* \"#utility.yul\":835:889   */\n      and\n        /* \"#utility.yul\":824:889   */\n      swap1\n      pop\n        /* \"#utility.yul\":769:895   */\n      swap2\n      swap1\n      pop\n      jump\t// out\n        /* \"#utility.yul\":901:1005   */\n    tag_74:\n        /* \"#utility.yul\":946:953   */\n      0x00\n        /* \"#utility.yul\":975:999   */\n      tag_134\n        /* \"#utility.yul\":993:998   */\n      dup3\n        /* \"#utility.yul\":975:999   */\n      tag_73\n      jump\t// in\n    tag_134:\n        /* \"#utility.yul\":964:999   */\n      swap1\n      pop\n        /* \"#utility.yul\":901:1005   */\n      swap2\n      swap1\n      pop\n      jump\t// out\n        /* \"#utility.yul\":1011:1149   */\n    tag_75:\n        /* \"#utility.yul\":1092:1124   */\n      tag_136\n        /* \"#utility.yul\":1118:1123   */\n      dup2\n        /* \"#utility.yul\":1092:1124   */\n      tag_74\n      jump\t// in\n    tag_136:\n        /* \"#utility.yul\":1085:1090   */\n      dup2\n        /* \"#utility.yul\":1082:1125   */\n      eq\n        /* \"#utility.yul\":1072:1143   */\n      tag_137\n      jumpi\n        /* \"#utility.yul\":1139:1140   */\n      0x00\n        /* \"#utility.yul\":1136:1137   */\n      0x00\n        /* \"#utility.yul\":1129:1141   */\n      revert\n        /* \"#utility.yul\":1072:1143   */\n    tag_137:\n        /* \"#utility.yul\":1011:1149   */\n      pop\n      jump\t// out\n        /* \"#utility.yul\":1155:1310   */\n    tag_76:\n        /* \"#utility.yul\":1209:1214   */\n      0x00\n        /* \"#utility.yul\":1247:1253   */\n      dup2\n        /* \"#utility.yul\":1234:1254   */\n      calldataload\n        /* \"#utility.yul\":1225:1254   */\n      swap1\n      pop\n        /* \"#utility.yul\":1263:1304   */\n      tag_139\n        /* \"#utility.yul\":1298:1303   */\n      dup2\n        /* \"#utility.yul\":1263:1304   */\n      tag_75\n      jump\t// in\n    tag_139:\n        /* \"#utility.yul\":1155:1310   */\n      swap3\n      swap2\n      pop\n      pop\n      jump\t// out\n        /* \"#utility.yul\":1316:1433   */\n    tag_77:\n        /* \"#utility.yul\":1425:1426   */\n      0x00\n        /* \"#utility.yul\":1422:1423   */\n      0x00\n        /* \"#utility.yul\":1415:1427   */\n      revert\n        /* \"#utility.yul\":1439:1556   */\n    tag_78:\n        /* \"#utility.yul\":1548:1549   */\n      0x00\n        /* \"#utility.yul\":1545:1546   */\n      0x00\n        /* \"#utility.yul\":1538:1550   */\n      revert\n        /* \"#utility.yul\":1562:1664   */\n    tag_79:\n        /* \"#utility.yul\":1603:1609   */\n      0x00\n        /* \"#utility.yul\":1654:1656   */\n      0x1f\n        /* \"#utility.yul\":1650:1657   */\n      not\n        /* \"#utility.yul\":1645:1647   */\n      0x1f\n        /* \"#utility.yul\":1638:1643   */\n      dup4\n        /* \"#utility.yul\":1634:1648   */\n      add\n        /* \"#utility.yul\":1630:1658   */\n      and\n        /* \"#utility.yul\":1620:1658   */\n      swap1\n      pop\n        /* \"#utility.yul\":1562:1664   */\n      swap2\n      swap1\n      pop\n      jump\t// out\n        /* \"#utility.yul\":1670:1850   */\n    tag_80:\n        /* \"#utility.yul\":1718:1795   */\n      0x4e487b7100000000000000000000000000000000000000000000000000000000\n        /* \"#utility.yul\":1715:1716   */\n      0x00\n        /* \"#utility.yul\":1708:1796   */\n      mstore\n        /* \"#utility.yul\":1815:1819   */\n      0x41\n        /* \"#utility.yul\":1812:1813   */\n      0x04\n        /* \"#utility.yul\":1805:1820   */\n      mstore\n        /* \"#utility.yul\":1839:1843   */\n      0x24\n        /* \"#utility.yul\":1836:1837   */\n      0x00\n        /* \"#utility.yul\":1829:1844   */\n      revert\n        /* \"#utility.yul\":1856:2137   */\n    tag_81:\n        /* \"#utility.yul\":1939:1966   */\n      tag_145\n        /* \"#utility.yul\":1961:1965   */\n      dup3\n        /* \"#utility.yul\":1939:1966   */\n      tag_79\n      jump\t// in\n    tag_145:\n        /* \"#utility.yul\":1931:1937   */\n      dup2\n        /* \"#utility.yul\":1927:1967   */\n      add\n        /* \"#utility.yul\":2069:2075   */\n      dup2\n        /* \"#utility.yul\":2057:2067   */\n      dup2\n        /* \"#utility.yul\":2054:2076   */\n      lt\n        /* \"#utility.yul\":2033:2051   */\n      0xffffffffffffffff\n        /* \"#utility.yul\":2021:2031   */\n      dup3\n        /* \"#utility.yul\":2018:2052   */\n      gt\n        /* \"#utility.yul\":2015:2077   */\n      or\n        /* \"#utility.yul\":2012:2100   */\n      iszero\n      tag_146\n      jumpi\n        /* \"#utility.yul\":2080:2098   */\n      tag_147\n      tag_80\n      jump\t// in\n    tag_147:\n        /* \"#utility.yul\":2012:2100   */\n    tag_146:\n        /* \"#utility.yul\":2120:2130   */\n      dup1\n        /* \"#utility.yul\":2116:2118   */\n      0x40\n        /* \"#utility.yul\":2109:2131   */\n      mstore\n        /* \"#utility.yul\":1899:2137   */\n      pop\n        /* \"#utility.yul\":1856:2137   */\n      pop\n      pop\n      jump\t// out\n        /* \"#utility.yul\":2143:2272   */\n    tag_82:\n        /* \"#utility.yul\":2177:2183   */\n      0x00\n        /* \"#utility.yul\":2204:2224   */\n      tag_149\n      tag_70\n      jump\t// in\n    tag_149:\n        /* \"#utility.yul\":2194:2224   */\n      swap1\n      pop\n        /* \"#utility.yul\":2233:2266   */\n      tag_150\n        /* \"#utility.yul\":2261:2265   */\n      dup3\n        /* \"#utility.yul\":2253:2259   */\n      dup3\n        /* \"#utility.yul\":2233:2266   */\n      tag_81\n      jump\t// in\n    tag_150:\n        /* \"#utility.yul\":2143:2272   */\n      swap2\n      swap1\n      pop\n      jump\t// out\n        /* \"#utility.yul\":2278:2586   */\n    tag_83:\n        /* \"#utility.yul\":2340:2344   */\n      0x00\n        /* \"#utility.yul\":2430:2448   */\n      0xffffffffffffffff\n        /* \"#utility.yul\":2422:2428   */\n      dup3\n        /* \"#utility.yul\":2419:2449   */\n      gt\n        /* \"#utility.yul\":2416:2472   */\n      iszero\n      tag_152\n      jumpi\n        /* \"#utility.yul\":2452:2470   */\n      tag_153\n      tag_80\n      jump\t// in\n    tag_153:\n        /* \"#utility.yul\":2416:2472   */\n    tag_152:\n        /* \"#utility.yul\":2490:2519   */\n      tag_154\n        /* \"#utility.yul\":2512:2518   */\n      dup3\n        /* \"#utility.yul\":2490:2519   */\n      tag_79\n      jump\t// in\n    tag_154:\n        /* \"#utility.yul\":2482:2519   */\n      swap1\n      pop\n        /* \"#utility.yul\":2574:2578   */\n      0x20\n        /* \"#utility.yul\":2568:2572   */\n      dup2\n        /* \"#utility.yul\":2564:2579   */\n      add\n        /* \"#utility.yul\":2556:2579   */\n      swap1\n      pop\n        /* \"#utility.yul\":2278:2586   */\n      swap2\n      swap1\n      pop\n      jump\t// out\n        /* \"#utility.yul\":2592:2740   */\n    tag_84:\n        /* \"#utility.yul\":2690:2696   */\n      dup3\n        /* \"#utility.yul\":2685:2688   */\n      dup2\n        /* \"#utility.yul\":2680:2683   */\n      dup4\n        /* \"#utility.yul\":2667:2697   */\n      calldatacopy\n        /* \"#utility.yul\":2731:2732   */\n      0x00\n        /* \"#utility.yul\":2722:2728   */\n      dup4\n        /* \"#utility.yul\":2717:2720   */\n      dup4\n        /* \"#utility.yul\":2713:2729   */\n      add\n        /* \"#utility.yul\":2706:2733   */\n      mstore\n        /* \"#utility.yul\":2592:2740   */\n      pop\n      pop\n      pop\n      jump\t// out\n        /* \"#utility.yul\":2746:3171   */\n    tag_85:\n        /* \"#utility.yul\":2824:2829   */\n      0x00\n        /* \"#utility.yul\":2849:2915   */\n      tag_157\n        /* \"#utility.yul\":2865:2914   */\n      tag_158\n        /* \"#utility.yul\":2907:2913   */\n      dup5\n        /* \"#utility.yul\":2865:2914   */\n      tag_83\n      jump\t// in\n    tag_158:\n        /* \"#utility.yul\":2849:2915   */\n      tag_82\n      jump\t// in\n    tag_157:\n        /* \"#utility.yul\":2840:2915   */\n      swap1\n      pop\n        /* \"#utility.yul\":2938:2944   */\n      dup3\n        /* \"#utility.yul\":2931:2936   */\n      dup2\n        /* \"#utility.yul\":2924:2945   */\n      mstore\n        /* \"#utility.yul\":2976:2980   */\n      0x20\n        /* \"#utility.yul\":2969:2974   */\n      dup2\n        /* \"#utility.yul\":2965:2981   */\n      add\n        /* \"#utility.yul\":3014:3017   */\n      dup5\n        /* \"#utility.yul\":3005:3011   */\n      dup5\n        /* \"#utility.yul\":3000:3003   */\n      dup5\n        /* \"#utility.yul\":2996:3012   */\n      add\n        /* \"#utility.yul\":2993:3018   */\n      gt\n        /* \"#utility.yul\":2990:3102   */\n      iszero\n      tag_159\n      jumpi\n        /* \"#utility.yul\":3021:3100   */\n      tag_160\n      tag_78\n      jump\t// in\n    tag_160:\n        /* \"#utility.yul\":2990:3102   */\n    tag_159:\n        /* \"#utility.yul\":3111:3165   */\n      tag_161\n        /* \"#utility.yul\":3158:3164   */\n      dup5\n        /* \"#utility.yul\":3153:3156   */\n      dup3\n        /* \"#utility.yul\":3148:3151   */\n      dup6\n        /* \"#utility.yul\":3111:3165   */\n      tag_84\n      jump\t// in\n    tag_161:\n        /* \"#utility.yul\":2830:3171   */\n      pop\n        /* \"#utility.yul\":2746:3171   */\n      swap4\n      swap3\n      pop\n      pop\n      pop\n      jump\t// out\n        /* \"#utility.yul\":3191:3531   */\n    tag_86:\n        /* \"#utility.yul\":3247:3252   */\n      0x00\n        /* \"#utility.yul\":3296:3299   */\n      dup3\n        /* \"#utility.yul\":3289:3293   */\n      0x1f\n        /* \"#utility.yul\":3281:3287   */\n      dup4\n        /* \"#utility.yul\":3277:3294   */\n      add\n        /* \"#utility.yul\":3273:3300   */\n      slt\n        /* \"#utility.yul\":3263:3385   */\n      tag_163\n      jumpi\n        /* \"#utility.yul\":3304:3383   */\n      tag_164\n      tag_77\n      jump\t// in\n    tag_164:\n        /* \"#utility.yul\":3263:3385   */\n    tag_163:\n        /* \"#utility.yul\":3421:3427   */\n      dup2\n        /* \"#utility.yul\":3408:3428   */\n      calldataload\n        /* \"#utility.yul\":3446:3525   */\n      tag_165\n        /* \"#utility.yul\":3521:3524   */\n      dup5\n        /* \"#utility.yul\":3513:3519   */\n      dup3\n        /* \"#utility.yul\":3506:3510   */\n      0x20\n        /* \"#utility.yul\":3498:3504   */\n      dup7\n        /* \"#utility.yul\":3494:3511   */\n      add\n        /* \"#utility.yul\":3446:3525   */\n      tag_85\n      jump\t// in\n    tag_165:\n        /* \"#utility.yul\":3437:3525   */\n      swap2\n      pop\n        /* \"#utility.yul\":3253:3531   */\n      pop\n        /* \"#utility.yul\":3191:3531   */\n      swap3\n      swap2\n      pop\n      pop\n      jump\t// out\n        /* \"#utility.yul\":3537:3659   */\n    tag_87:\n        /* \"#utility.yul\":3610:3634   */\n      tag_167\n        /* \"#utility.yul\":3628:3633   */\n      dup2\n        /* \"#utility.yul\":3610:3634   */\n      tag_68\n      jump\t// in\n    tag_167:\n        /* \"#utility.yul\":3603:3608   */\n      dup2\n        /* \"#utility.yul\":3600:3635   */\n      eq\n        /* \"#utility.yul\":3590:3653   */\n      tag_168\n      jumpi\n        /* \"#utility.yul\":3649:3650   */\n      0x00\n        /* \"#utility.yul\":3646:3647   */\n      0x00\n        /* \"#utility.yul\":3639:3651   */\n      revert\n        /* \"#utility.yul\":3590:3653   */\n    tag_168:\n        /* \"#utility.yul\":3537:3659   */\n      pop\n      jump\t// out\n        /* \"#utility.yul\":3665:3804   */\n    tag_88:\n        /* \"#utility.yul\":3711:3716   */\n      0x00\n        /* \"#utility.yul\":3749:3755   */\n      dup2\n        /* \"#utility.yul\":3736:3756   */\n      calldataload\n        /* \"#utility.yul\":3727:3756   */\n      swap1\n      pop\n        /* \"#utility.yul\":3765:3798   */\n      tag_170\n        /* \"#utility.yul\":3792:3797   */\n      dup2\n        /* \"#utility.yul\":3765:3798   */\n      tag_87\n      jump\t// in\n    tag_170:\n        /* \"#utility.yul\":3665:3804   */\n      swap3\n      swap2\n      pop\n      pop\n      jump\t// out\n        /* \"#utility.yul\":3810:4625   */\n    tag_17:\n        /* \"#utility.yul\":3905:3911   */\n      0x00\n        /* \"#utility.yul\":3913:3919   */\n      0x00\n        /* \"#utility.yul\":3921:3927   */\n      0x00\n        /* \"#utility.yul\":3970:3972   */\n      0x60\n        /* \"#utility.yul\":3958:3967   */\n      dup5\n        /* \"#utility.yul\":3949:3956   */\n      dup7\n        /* \"#utility.yul\":3945:3968   */\n      sub\n        /* \"#utility.yul\":3941:3973   */\n      slt\n        /* \"#utility.yul\":3938:4057   */\n      iszero\n      tag_172\n      jumpi\n        /* \"#utility.yul\":3976:4055   */\n      tag_173\n      tag_71\n      jump\t// in\n    tag_173:\n        /* \"#utility.yul\":3938:4057   */\n    tag_172:\n        /* \"#utility.yul\":4096:4097   */\n      0x00\n        /* \"#utility.yul\":4121:4182   */\n      tag_174\n        /* \"#utility.yul\":4174:4181   */\n      dup7\n        /* \"#utility.yul\":4165:4171   */\n      dup3\n        /* \"#utility.yul\":4154:4163   */\n      dup8\n        /* \"#utility.yul\":4150:4172   */\n      add\n        /* \"#utility.yul\":4121:4182   */\n      tag_76\n      jump\t// in\n    tag_174:\n        /* \"#utility.yul\":4111:4182   */\n      swap4\n      pop\n        /* \"#utility.yul\":4067:4192   */\n      pop\n        /* \"#utility.yul\":4259:4261   */\n      0x20\n        /* \"#utility.yul\":4248:4257   */\n      dup5\n        /* \"#utility.yul\":4244:4262   */\n      add\n        /* \"#utility.yul\":4231:4263   */\n      calldataload\n        /* \"#utility.yul\":4290:4308   */\n      0xffffffffffffffff\n        /* \"#utility.yul\":4282:4288   */\n      dup2\n        /* \"#utility.yul\":4279:4309   */\n      gt\n        /* \"#utility.yul\":4276:4393   */\n      iszero\n      tag_175\n      jumpi\n        /* \"#utility.yul\":4312:4391   */\n      tag_176\n      tag_72\n      jump\t// in\n    tag_176:\n        /* \"#utility.yul\":4276:4393   */\n    tag_175:\n        /* \"#utility.yul\":4417:4480   */\n      tag_177\n        /* \"#utility.yul\":4472:4479   */\n      dup7\n        /* \"#utility.yul\":4463:4469   */\n      dup3\n        /* \"#utility.yul\":4452:4461   */\n      dup8\n        /* \"#utility.yul\":4448:4470   */\n      add\n        /* \"#utility.yul\":4417:4480   */\n      tag_86\n      jump\t// in\n    tag_177:\n        /* \"#utility.yul\":4407:4480   */\n      swap3\n      pop\n        /* \"#utility.yul\":4202:4490   */\n      pop\n        /* \"#utility.yul\":4529:4531   */\n      0x40\n        /* \"#utility.yul\":4555:4608   */\n      tag_178\n        /* \"#utility.yul\":4600:4607   */\n      dup7\n        /* \"#utility.yul\":4591:4597   */\n      dup3\n        /* \"#utility.yul\":4580:4589   */\n      dup8\n        /* \"#utility.yul\":4576:4598   */\n      add\n        /* \"#utility.yul\":4555:4608   */\n      tag_88\n      jump\t// in\n    tag_178:\n        /* \"#utility.yul\":4545:4608   */\n      swap2\n      pop\n        /* \"#utility.yul\":4500:4618   */\n      pop\n        /* \"#utility.yul\":3810:4625   */\n      swap3\n      pop\n      swap3\n      pop\n      swap3\n      jump\t// out\n        /* \"#utility.yul\":4631:4769   */\n    tag_89:\n        /* \"#utility.yul\":4722:4728   */\n      0x00\n        /* \"#utility.yul\":4756:4761   */\n      dup2\n        /* \"#utility.yul\":4750:4762   */\n      mload\n        /* \"#utility.yul\":4740:4762   */\n      swap1\n      pop\n        /* \"#utility.yul\":4631:4769   */\n      swap2\n      swap1\n      pop\n      jump\t// out\n        /* \"#utility.yul\":4775:4983   */\n    tag_90:\n        /* \"#utility.yul\":4898:4909   */\n      0x00\n        /* \"#utility.yul\":4932:4938   */\n      dup3\n        /* \"#utility.yul\":4927:4930   */\n      dup3\n        /* \"#utility.yul\":4920:4939   */\n      mstore\n        /* \"#utility.yul\":4972:4976   */\n      0x20\n        /* \"#utility.yul\":4967:4970   */\n      dup3\n        /* \"#utility.yul\":4963:4977   */\n      add\n        /* \"#utility.yul\":4948:4977   */\n      swap1\n      pop\n        /* \"#utility.yul\":4775:4983   */\n      swap3\n      swap2\n      pop\n      pop\n      jump\t// out\n        /* \"#utility.yul\":4989:5145   */\n    tag_91:\n        /* \"#utility.yul\":5080:5084   */\n      0x00\n        /* \"#utility.yul\":5103:5106   */\n      dup2\n        /* \"#utility.yul\":5095:5106   */\n      swap1\n      pop\n        /* \"#utility.yul\":5133:5137   */\n      0x20\n        /* \"#utility.yul\":5128:5131   */\n      dup3\n        /* \"#utility.yul\":5124:5138   */\n      add\n        /* \"#utility.yul\":5116:5138   */\n      swap1\n      pop\n        /* \"#utility.yul\":4989:5145   */\n      swap2\n      swap1\n      pop\n      jump\t// out\n        /* \"#utility.yul\":5151:5283   */\n    tag_92:\n        /* \"#utility.yul\":5244:5276   */\n      tag_183\n        /* \"#utility.yul\":5270:5275   */\n      dup2\n        /* \"#utility.yul\":5244:5276   */\n      tag_74\n      jump\t// in\n    tag_183:\n        /* \"#utility.yul\":5239:5242   */\n      dup3\n        /* \"#utility.yul\":5232:5277   */\n      mstore\n        /* \"#utility.yul\":5151:5283   */\n      pop\n      pop\n      jump\t// out\n        /* \"#utility.yul\":5289:5388   */\n    tag_93:\n        /* \"#utility.yul\":5341:5347   */\n      0x00\n        /* \"#utility.yul\":5375:5380   */\n      dup2\n        /* \"#utility.yul\":5369:5381   */\n      mload\n        /* \"#utility.yul\":5359:5381   */\n      swap1\n      pop\n        /* \"#utility.yul\":5289:5388   */\n      swap2\n      swap1\n      pop\n      jump\t// out\n        /* \"#utility.yul\":5394:5553   */\n    tag_94:\n        /* \"#utility.yul\":5468:5479   */\n      0x00\n        /* \"#utility.yul\":5502:5508   */\n      dup3\n        /* \"#utility.yul\":5497:5500   */\n      dup3\n        /* \"#utility.yul\":5490:5509   */\n      mstore\n        /* \"#utility.yul\":5542:5546   */\n      0x20\n        /* \"#utility.yul\":5537:5540   */\n      dup3\n        /* \"#utility.yul\":5533:5547   */\n      add\n        /* \"#utility.yul\":5518:5547   */\n      swap1\n      pop\n        /* \"#utility.yul\":5394:5553   */\n      swap3\n      swap2\n      pop\n      pop\n      jump\t// out\n        /* \"#utility.yul\":5559:5698   */\n    tag_95:\n        /* \"#utility.yul\":5648:5654   */\n      dup3\n        /* \"#utility.yul\":5643:5646   */\n      dup2\n        /* \"#utility.yul\":5638:5641   */\n      dup4\n        /* \"#utility.yul\":5632:5655   */\n      mcopy\n        /* \"#utility.yul\":5689:5690   */\n      0x00\n        /* \"#utility.yul\":5680:5686   */\n      dup4\n        /* \"#utility.yul\":5675:5678   */\n      dup4\n        /* \"#utility.yul\":5671:5687   */\n      add\n        /* \"#utility.yul\":5664:5691   */\n      mstore\n        /* \"#utility.yul\":5559:5698   */\n      pop\n      pop\n      pop\n      jump\t// out\n        /* \"#utility.yul\":5704:6061   */\n    tag_96:\n        /* \"#utility.yul\":5782:5785   */\n      0x00\n        /* \"#utility.yul\":5810:5849   */\n      tag_188\n        /* \"#utility.yul\":5843:5848   */\n      dup3\n        /* \"#utility.yul\":5810:5849   */\n      tag_93\n      jump\t// in\n    tag_188:\n        /* \"#utility.yul\":5865:5926   */\n      tag_189\n        /* \"#utility.yul\":5919:5925   */\n      dup2\n        /* \"#utility.yul\":5914:5917   */\n      dup6\n        /* \"#utility.yul\":5865:5926   */\n      tag_94\n      jump\t// in\n    tag_189:\n        /* \"#utility.yul\":5858:5926   */\n      swap4\n      pop\n        /* \"#utility.yul\":5935:6000   */\n      tag_190\n        /* \"#utility.yul\":5993:5999   */\n      dup2\n        /* \"#utility.yul\":5988:5991   */\n      dup6\n        /* \"#utility.yul\":5981:5985   */\n      0x20\n        /* \"#utility.yul\":5974:5979   */\n      dup7\n        /* \"#utility.yul\":5970:5986   */\n      add\n        /* \"#utility.yul\":5935:6000   */\n      tag_95\n      jump\t// in\n    tag_190:\n        /* \"#utility.yul\":6025:6054   */\n      tag_191\n        /* \"#utility.yul\":6047:6053   */\n      dup2\n        /* \"#utility.yul\":6025:6054   */\n      tag_79\n      jump\t// in\n    tag_191:\n        /* \"#utility.yul\":6020:6023   */\n      dup5\n        /* \"#utility.yul\":6016:6055   */\n      add\n        /* \"#utility.yul\":6009:6055   */\n      swap2\n      pop\n        /* \"#utility.yul\":5786:6061   */\n      pop\n        /* \"#utility.yul\":5704:6061   */\n      swap3\n      swap2\n      pop\n      pop\n      jump\t// out\n        /* \"#utility.yul\":6067:6175   */\n    tag_97:\n        /* \"#utility.yul\":6144:6168   */\n      tag_193\n        /* \"#utility.yul\":6162:6167   */\n      dup2\n        /* \"#utility.yul\":6144:6168   */\n      tag_68\n      jump\t// in\n    tag_193:\n        /* \"#utility.yul\":6139:6142   */\n      dup3\n        /* \"#utility.yul\":6132:6169   */\n      mstore\n        /* \"#utility.yul\":6067:6175   */\n      pop\n      pop\n      jump\t// out\n        /* \"#utility.yul\":6233:7029   */\n    tag_98:\n        /* \"#utility.yul\":6340:6343   */\n      0x00\n        /* \"#utility.yul\":6376:6380   */\n      0x60\n        /* \"#utility.yul\":6371:6374   */\n      dup4\n        /* \"#utility.yul\":6367:6381   */\n      add\n        /* \"#utility.yul\":6472:6476   */\n      0x00\n        /* \"#utility.yul\":6465:6470   */\n      dup4\n        /* \"#utility.yul\":6461:6477   */\n      add\n        /* \"#utility.yul\":6455:6478   */\n      mload\n        /* \"#utility.yul\":6491:6570   */\n      tag_195\n        /* \"#utility.yul\":6564:6568   */\n      0x00\n        /* \"#utility.yul\":6559:6562   */\n      dup7\n        /* \"#utility.yul\":6555:6569   */\n      add\n        /* \"#utility.yul\":6541:6553   */\n      dup3\n        /* \"#utility.yul\":6491:6570   */\n      tag_92\n      jump\t// in\n    tag_195:\n        /* \"#utility.yul\":6391:6580   */\n      pop\n        /* \"#utility.yul\":6662:6666   */\n      0x20\n        /* \"#utility.yul\":6655:6660   */\n      dup4\n        /* \"#utility.yul\":6651:6667   */\n      add\n        /* \"#utility.yul\":6645:6668   */\n      mload\n        /* \"#utility.yul\":6715:6718   */\n      dup5\n        /* \"#utility.yul\":6709:6713   */\n      dup3\n        /* \"#utility.yul\":6705:6719   */\n      sub\n        /* \"#utility.yul\":6698:6702   */\n      0x20\n        /* \"#utility.yul\":6693:6696   */\n      dup7\n        /* \"#utility.yul\":6689:6703   */\n      add\n        /* \"#utility.yul\":6682:6720   */\n      mstore\n        /* \"#utility.yul\":6741:6814   */\n      tag_196\n        /* \"#utility.yul\":6809:6813   */\n      dup3\n        /* \"#utility.yul\":6795:6807   */\n      dup3\n        /* \"#utility.yul\":6741:6814   */\n      tag_96\n      jump\t// in\n    tag_196:\n        /* \"#utility.yul\":6733:6814   */\n      swap2\n      pop\n        /* \"#utility.yul\":6590:6825   */\n      pop\n        /* \"#utility.yul\":6910:6914   */\n      0x40\n        /* \"#utility.yul\":6903:6908   */\n      dup4\n        /* \"#utility.yul\":6899:6915   */\n      add\n        /* \"#utility.yul\":6893:6916   */\n      mload\n        /* \"#utility.yul\":6929:6992   */\n      tag_197\n        /* \"#utility.yul\":6986:6990   */\n      0x40\n        /* \"#utility.yul\":6981:6984   */\n      dup7\n        /* \"#utility.yul\":6977:6991   */\n      add\n        /* \"#utility.yul\":6963:6975   */\n      dup3\n        /* \"#utility.yul\":6929:6992   */\n      tag_97\n      jump\t// in\n    tag_197:\n        /* \"#utility.yul\":6835:7002   */\n      pop\n        /* \"#utility.yul\":7019:7023   */\n      dup1\n        /* \"#utility.yul\":7012:7023   */\n      swap2\n      pop\n        /* \"#utility.yul\":6345:7029   */\n      pop\n        /* \"#utility.yul\":6233:7029   */\n      swap3\n      swap2\n      pop\n      pop\n      jump\t// out\n        /* \"#utility.yul\":7035:7287   */\n    tag_99:\n        /* \"#utility.yul\":7152:7162   */\n      0x00\n        /* \"#utility.yul\":7187:7281   */\n      tag_199\n        /* \"#utility.yul\":7277:7280   */\n      dup4\n        /* \"#utility.yul\":7269:7275   */\n      dup4\n        /* \"#utility.yul\":7187:7281   */\n      tag_98\n      jump\t// in\n    tag_199:\n        /* \"#utility.yul\":7173:7281   */\n      swap1\n      pop\n        /* \"#utility.yul\":7035:7287   */\n      swap3\n      swap2\n      pop\n      pop\n      jump\t// out\n        /* \"#utility.yul\":7293:7430   */\n    tag_100:\n        /* \"#utility.yul\":7387:7391   */\n      0x00\n        /* \"#utility.yul\":7419:7423   */\n      0x20\n        /* \"#utility.yul\":7414:7417   */\n      dup3\n        /* \"#utility.yul\":7410:7424   */\n      add\n        /* \"#utility.yul\":7402:7424   */\n      swap1\n      pop\n        /* \"#utility.yul\":7293:7430   */\n      swap2\n      swap1\n      pop\n      jump\t// out\n        /* \"#utility.yul\":7492:8595   */\n    tag_101:\n        /* \"#utility.yul\":7659:7662   */\n      0x00\n        /* \"#utility.yul\":7688:7766   */\n      tag_202\n        /* \"#utility.yul\":7760:7765   */\n      dup3\n        /* \"#utility.yul\":7688:7766   */\n      tag_89\n      jump\t// in\n    tag_202:\n        /* \"#utility.yul\":7782:7892   */\n      tag_203\n        /* \"#utility.yul\":7885:7891   */\n      dup2\n        /* \"#utility.yul\":7880:7883   */\n      dup6\n        /* \"#utility.yul\":7782:7892   */\n      tag_90\n      jump\t// in\n    tag_203:\n        /* \"#utility.yul\":7775:7892   */\n      swap4\n      pop\n        /* \"#utility.yul\":7918:7921   */\n      dup4\n        /* \"#utility.yul\":7963:7967   */\n      0x20\n        /* \"#utility.yul\":7955:7961   */\n      dup3\n        /* \"#utility.yul\":7951:7968   */\n      mul\n        /* \"#utility.yul\":7946:7949   */\n      dup6\n        /* \"#utility.yul\":7942:7969   */\n      add\n        /* \"#utility.yul\":7993:8073   */\n      tag_204\n        /* \"#utility.yul\":8067:8072   */\n      dup6\n        /* \"#utility.yul\":7993:8073   */\n      tag_91\n      jump\t// in\n    tag_204:\n        /* \"#utility.yul\":8096:8103   */\n      dup1\n        /* \"#utility.yul\":8127:8128   */\n      0x00\n        /* \"#utility.yul\":8112:8550   */\n    tag_205:\n        /* \"#utility.yul\":8137:8143   */\n      dup6\n        /* \"#utility.yul\":8134:8135   */\n      dup2\n        /* \"#utility.yul\":8131:8144   */\n      lt\n        /* \"#utility.yul\":8112:8550   */\n      iszero\n      tag_207\n      jumpi\n        /* \"#utility.yul\":8208:8217   */\n      dup5\n        /* \"#utility.yul\":8202:8206   */\n      dup5\n        /* \"#utility.yul\":8198:8218   */\n      sub\n        /* \"#utility.yul\":8193:8196   */\n      dup10\n        /* \"#utility.yul\":8186:8219   */\n      mstore\n        /* \"#utility.yul\":8259:8265   */\n      dup2\n        /* \"#utility.yul\":8253:8266   */\n      mload\n        /* \"#utility.yul\":8287:8399   */\n      tag_208\n        /* \"#utility.yul\":8394:8398   */\n      dup6\n        /* \"#utility.yul\":8379:8392   */\n      dup3\n        /* \"#utility.yul\":8287:8399   */\n      tag_99\n      jump\t// in\n    tag_208:\n        /* \"#utility.yul\":8279:8399   */\n      swap5\n      pop\n        /* \"#utility.yul\":8422:8506   */\n      tag_209\n        /* \"#utility.yul\":8499:8505   */\n      dup4\n        /* \"#utility.yul\":8422:8506   */\n      tag_100\n      jump\t// in\n    tag_209:\n        /* \"#utility.yul\":8412:8506   */\n      swap3\n      pop\n        /* \"#utility.yul\":8535:8539   */\n      0x20\n        /* \"#utility.yul\":8530:8533   */\n      dup11\n        /* \"#utility.yul\":8526:8540   */\n      add\n        /* \"#utility.yul\":8519:8540   */\n      swap10\n      pop\n        /* \"#utility.yul\":8172:8550   */\n      pop\n        /* \"#utility.yul\":8159:8160   */\n      0x01\n        /* \"#utility.yul\":8156:8157   */\n      dup2\n        /* \"#utility.yul\":8152:8161   */\n      add\n        /* \"#utility.yul\":8147:8161   */\n      swap1\n      pop\n        /* \"#utility.yul\":8112:8550   */\n      jump(tag_205)\n    tag_207:\n        /* \"#utility.yul\":8116:8130   */\n      pop\n        /* \"#utility.yul\":8566:8570   */\n      dup3\n        /* \"#utility.yul\":8559:8570   */\n      swap8\n      pop\n        /* \"#utility.yul\":8586:8589   */\n      dup8\n        /* \"#utility.yul\":8579:8589   */\n      swap6\n      pop\n        /* \"#utility.yul\":7664:8595   */\n      pop\n      pop\n      pop\n      pop\n      pop\n        /* \"#utility.yul\":7492:8595   */\n      swap3\n      swap2\n      pop\n      pop\n      jump\t// out\n        /* \"#utility.yul\":8601:9070   */\n    tag_23:\n        /* \"#utility.yul\":8792:8796   */\n      0x00\n        /* \"#utility.yul\":8830:8832   */\n      0x20\n        /* \"#utility.yul\":8819:8828   */\n      dup3\n        /* \"#utility.yul\":8815:8833   */\n      add\n        /* \"#utility.yul\":8807:8833   */\n      swap1\n      pop\n        /* \"#utility.yul\":8879:8888   */\n      dup2\n        /* \"#utility.yul\":8873:8877   */\n      dup2\n        /* \"#utility.yul\":8869:8889   */\n      sub\n        /* \"#utility.yul\":8865:8866   */\n      0x00\n        /* \"#utility.yul\":8854:8863   */\n      dup4\n        /* \"#utility.yul\":8850:8867   */\n      add\n        /* \"#utility.yul\":8843:8890   */\n      mstore\n        /* \"#utility.yul\":8907:9063   */\n      tag_211\n        /* \"#utility.yul\":9058:9062   */\n      dup2\n        /* \"#utility.yul\":9049:9055   */\n      dup5\n        /* \"#utility.yul\":8907:9063   */\n      tag_101\n      jump\t// in\n    tag_211:\n        /* \"#utility.yul\":8899:9063   */\n      swap1\n      pop\n        /* \"#utility.yul\":8601:9070   */\n      swap3\n      swap2\n      pop\n      pop\n      jump\t// out\n        /* \"#utility.yul\":9076:9405   */\n    tag_27:\n        /* \"#utility.yul\":9135:9141   */\n      0x00\n        /* \"#utility.yul\":9184:9186   */\n      0x20\n        /* \"#utility.yul\":9172:9181   */\n      dup3\n        /* \"#utility.yul\":9163:9170   */\n      dup5\n        /* \"#utility.yul\":9159:9182   */\n      sub\n        /* \"#utility.yul\":9155:9187   */\n      slt\n        /* \"#utility.yul\":9152:9271   */\n      iszero\n      tag_213\n      jumpi\n        /* \"#utility.yul\":9190:9269   */\n      tag_214\n      tag_71\n      jump\t// in\n    tag_214:\n        /* \"#utility.yul\":9152:9271   */\n    tag_213:\n        /* \"#utility.yul\":9310:9311   */\n      0x00\n        /* \"#utility.yul\":9335:9388   */\n      tag_215\n        /* \"#utility.yul\":9380:9387   */\n      dup5\n        /* \"#utility.yul\":9371:9377   */\n      dup3\n        /* \"#utility.yul\":9360:9369   */\n      dup6\n        /* \"#utility.yul\":9356:9378   */\n      add\n        /* \"#utility.yul\":9335:9388   */\n      tag_88\n      jump\t// in\n    tag_215:\n        /* \"#utility.yul\":9325:9388   */\n      swap2\n      pop\n        /* \"#utility.yul\":9281:9398   */\n      pop\n        /* \"#utility.yul\":9076:9405   */\n      swap3\n      swap2\n      pop\n      pop\n      jump\t// out\n        /* \"#utility.yul\":9411:9553   */\n    tag_102:\n        /* \"#utility.yul\":9514:9546   */\n      tag_217\n        /* \"#utility.yul\":9540:9545   */\n      dup2\n        /* \"#utility.yul\":9514:9546   */\n      tag_74\n      jump\t// in\n    tag_217:\n        /* \"#utility.yul\":9509:9512   */\n      dup3\n        /* \"#utility.yul\":9502:9547   */\n      mstore\n        /* \"#utility.yul\":9411:9553   */\n      pop\n      pop\n      jump\t// out\n        /* \"#utility.yul\":9559:9728   */\n    tag_103:\n        /* \"#utility.yul\":9643:9654   */\n      0x00\n        /* \"#utility.yul\":9677:9683   */\n      dup3\n        /* \"#utility.yul\":9672:9675   */\n      dup3\n        /* \"#utility.yul\":9665:9684   */\n      mstore\n        /* \"#utility.yul\":9717:9721   */\n      0x20\n        /* \"#utility.yul\":9712:9715   */\n      dup3\n        /* \"#utility.yul\":9708:9722   */\n      add\n        /* \"#utility.yul\":9693:9722   */\n      swap1\n      pop\n        /* \"#utility.yul\":9559:9728   */\n      swap3\n      swap2\n      pop\n      pop\n      jump\t// out\n        /* \"#utility.yul\":9734:10111   */\n    tag_104:\n        /* \"#utility.yul\":9822:9825   */\n      0x00\n        /* \"#utility.yul\":9850:9889   */\n      tag_220\n        /* \"#utility.yul\":9883:9888   */\n      dup3\n        /* \"#utility.yul\":9850:9889   */\n      tag_93\n      jump\t// in\n    tag_220:\n        /* \"#utility.yul\":9905:9976   */\n      tag_221\n        /* \"#utility.yul\":9969:9975   */\n      dup2\n        /* \"#utility.yul\":9964:9967   */\n      dup6\n        /* \"#utility.yul\":9905:9976   */\n      tag_103\n      jump\t// in\n    tag_221:\n        /* \"#utility.yul\":9898:9976   */\n      swap4\n      pop\n        /* \"#utility.yul\":9985:10050   */\n      tag_222\n        /* \"#utility.yul\":10043:10049   */\n      dup2\n        /* \"#utility.yul\":10038:10041   */\n      dup6\n        /* \"#utility.yul\":10031:10035   */\n      0x20\n        /* \"#utility.yul\":10024:10029   */\n      dup7\n        /* \"#utility.yul\":10020:10036   */\n      add\n        /* \"#utility.yul\":9985:10050   */\n      tag_95\n      jump\t// in\n    tag_222:\n        /* \"#utility.yul\":10075:10104   */\n      tag_223\n        /* \"#utility.yul\":10097:10103   */\n      dup2\n        /* \"#utility.yul\":10075:10104   */\n      tag_79\n      jump\t// in\n    tag_223:\n        /* \"#utility.yul\":10070:10073   */\n      dup5\n        /* \"#utility.yul\":10066:10105   */\n      add\n        /* \"#utility.yul\":10059:10105   */\n      swap2\n      pop\n        /* \"#utility.yul\":9826:10111   */\n      pop\n        /* \"#utility.yul\":9734:10111   */\n      swap3\n      swap2\n      pop\n      pop\n      jump\t// out\n        /* \"#utility.yul\":10117:10682   */\n    tag_30:\n        /* \"#utility.yul\":10302:10306   */\n      0x00\n        /* \"#utility.yul\":10340:10342   */\n      0x60\n        /* \"#utility.yul\":10329:10338   */\n      dup3\n        /* \"#utility.yul\":10325:10343   */\n      add\n        /* \"#utility.yul\":10317:10343   */\n      swap1\n      pop\n        /* \"#utility.yul\":10353:10440   */\n      tag_225\n        /* \"#utility.yul\":10437:10438   */\n      0x00\n        /* \"#utility.yul\":10426:10435   */\n      dup4\n        /* \"#utility.yul\":10422:10439   */\n      add\n        /* \"#utility.yul\":10413:10419   */\n      dup7\n        /* \"#utility.yul\":10353:10440   */\n      tag_102\n      jump\t// in\n    tag_225:\n        /* \"#utility.yul\":10487:10496   */\n      dup2\n        /* \"#utility.yul\":10481:10485   */\n      dup2\n        /* \"#utility.yul\":10477:10497   */\n      sub\n        /* \"#utility.yul\":10472:10474   */\n      0x20\n        /* \"#utility.yul\":10461:10470   */\n      dup4\n        /* \"#utility.yul\":10457:10475   */\n      add\n        /* \"#utility.yul\":10450:10498   */\n      mstore\n        /* \"#utility.yul\":10515:10593   */\n      tag_226\n        /* \"#utility.yul\":10588:10592   */\n      dup2\n        /* \"#utility.yul\":10579:10585   */\n      dup6\n        /* \"#utility.yul\":10515:10593   */\n      tag_104\n      jump\t// in\n    tag_226:\n        /* \"#utility.yul\":10507:10593   */\n      swap1\n      pop\n        /* \"#utility.yul\":10603:10675   */\n      tag_227\n        /* \"#utility.yul\":10671:10673   */\n      0x40\n        /* \"#utility.yul\":10660:10669   */\n      dup4\n        /* \"#utility.yul\":10656:10674   */\n      add\n        /* \"#utility.yul\":10647:10653   */\n      dup5\n        /* \"#utility.yul\":10603:10675   */\n      tag_69\n      jump\t// in\n    tag_227:\n        /* \"#utility.yul\":10117:10682   */\n      swap5\n      swap4\n      pop\n      pop\n      pop\n      pop\n      jump\t// out\n        /* \"#utility.yul\":10688:10857   */\n    tag_105:\n        /* \"#utility.yul\":10828:10849   */\n      0x4f6e6c79206f776e65722063616e2063616c6c00000000000000000000000000\n        /* \"#utility.yul\":10824:10825   */\n      0x00\n        /* \"#utility.yul\":10816:10822   */\n      dup3\n        /* \"#utility.yul\":10812:10826   */\n      add\n        /* \"#utility.yul\":10805:10850   */\n      mstore\n        /* \"#utility.yul\":10688:10857   */\n      pop\n      jump\t// out\n        /* \"#utility.yul\":10863:11229   */\n    tag_106:\n        /* \"#utility.yul\":11005:11008   */\n      0x00\n        /* \"#utility.yul\":11026:11093   */\n      tag_230\n        /* \"#utility.yul\":11090:11092   */\n      0x13\n        /* \"#utility.yul\":11085:11088   */\n      dup4\n        /* \"#utility.yul\":11026:11093   */\n      tag_103\n      jump\t// in\n    tag_230:\n        /* \"#utility.yul\":11019:11093   */\n      swap2\n      pop\n        /* \"#utility.yul\":11102:11195   */\n      tag_231\n        /* \"#utility.yul\":11191:11194   */\n      dup3\n        /* \"#utility.yul\":11102:11195   */\n      tag_105\n      jump\t// in\n    tag_231:\n        /* \"#utility.yul\":11220:11222   */\n      0x20\n        /* \"#utility.yul\":11215:11218   */\n      dup3\n        /* \"#utility.yul\":11211:11223   */\n      add\n        /* \"#utility.yul\":11204:11223   */\n      swap1\n      pop\n        /* \"#utility.yul\":10863:11229   */\n      swap2\n      swap1\n      pop\n      jump\t// out\n        /* \"#utility.yul\":11235:11654   */\n    tag_36:\n        /* \"#utility.yul\":11401:11405   */\n      0x00\n        /* \"#utility.yul\":11439:11441   */\n      0x20\n        /* \"#utility.yul\":11428:11437   */\n      dup3\n        /* \"#utility.yul\":11424:11442   */\n      add\n        /* \"#utility.yul\":11416:11442   */\n      swap1\n      pop\n        /* \"#utility.yul\":11488:11497   */\n      dup2\n        /* \"#utility.yul\":11482:11486   */\n      dup2\n        /* \"#utility.yul\":11478:11498   */\n      sub\n        /* \"#utility.yul\":11474:11475   */\n      0x00\n        /* \"#utility.yul\":11463:11472   */\n      dup4\n        /* \"#utility.yul\":11459:11476   */\n      add\n        /* \"#utility.yul\":11452:11499   */\n      mstore\n        /* \"#utility.yul\":11516:11647   */\n      tag_233\n        /* \"#utility.yul\":11642:11646   */\n      dup2\n        /* \"#utility.yul\":11516:11647   */\n      tag_106\n      jump\t// in\n    tag_233:\n        /* \"#utility.yul\":11508:11647   */\n      swap1\n      pop\n        /* \"#utility.yul\":11235:11654   */\n      swap2\n      swap1\n      pop\n      jump\t// out\n        /* \"#utility.yul\":11660:11840   */\n    tag_44:\n        /* \"#utility.yul\":11708:11785   */\n      0x4e487b7100000000000000000000000000000000000000000000000000000000\n        /* \"#utility.yul\":11705:11706   */\n      0x00\n        /* \"#utility.yul\":11698:11786   */\n      mstore\n        /* \"#utility.yul\":11805:11809   */\n      0x32\n        /* \"#utility.yul\":11802:11803   */\n      0x04\n        /* \"#utility.yul\":11795:11810   */\n      mstore\n        /* \"#utility.yul\":11829:11833   */\n      0x24\n        /* \"#utility.yul\":11826:11827   */\n      0x00\n        /* \"#utility.yul\":11819:11834   */\n      revert\n        /* \"#utility.yul\":11846:12026   */\n    tag_107:\n        /* \"#utility.yul\":11894:11971   */\n      0x4e487b7100000000000000000000000000000000000000000000000000000000\n        /* \"#utility.yul\":11891:11892   */\n      0x00\n        /* \"#utility.yul\":11884:11972   */\n      mstore\n        /* \"#utility.yul\":11991:11995   */\n      0x22\n        /* \"#utility.yul\":11988:11989   */\n      0x04\n        /* \"#utility.yul\":11981:11996   */\n      mstore\n        /* \"#utility.yul\":12015:12019   */\n      0x24\n        /* \"#utility.yul\":12012:12013   */\n      0x00\n        /* \"#utility.yul\":12005:12020   */\n      revert\n        /* \"#utility.yul\":12032:12352   */\n    tag_56:\n        /* \"#utility.yul\":12076:12082   */\n      0x00\n        /* \"#utility.yul\":12113:12114   */\n      0x02\n        /* \"#utility.yul\":12107:12111   */\n      dup3\n        /* \"#utility.yul\":12103:12115   */\n      div\n        /* \"#utility.yul\":12093:12115   */\n      swap1\n      pop\n        /* \"#utility.yul\":12160:12161   */\n      0x01\n        /* \"#utility.yul\":12154:12158   */\n      dup3\n        /* \"#utility.yul\":12150:12162   */\n      and\n        /* \"#utility.yul\":12181:12199   */\n      dup1\n        /* \"#utility.yul\":12171:12252   */\n      tag_237\n      jumpi\n        /* \"#utility.yul\":12237:12241   */\n      0x7f\n        /* \"#utility.yul\":12229:12235   */\n      dup3\n        /* \"#utility.yul\":12225:12242   */\n      and\n        /* \"#utility.yul\":12215:12242   */\n      swap2\n      pop\n        /* \"#utility.yul\":12171:12252   */\n    tag_237:\n        /* \"#utility.yul\":12299:12301   */\n      0x20\n        /* \"#utility.yul\":12291:12297   */\n      dup3\n        /* \"#utility.yul\":12288:12302   */\n      lt\n        /* \"#utility.yul\":12268:12286   */\n      dup2\n        /* \"#utility.yul\":12265:12303   */\n      sub\n        /* \"#utility.yul\":12262:12346   */\n      tag_238\n      jumpi\n        /* \"#utility.yul\":12318:12336   */\n      tag_239\n      tag_107\n      jump\t// in\n    tag_239:\n        /* \"#utility.yul\":12262:12346   */\n    tag_238:\n        /* \"#utility.yul\":12083:12352   */\n      pop\n        /* \"#utility.yul\":12032:12352   */\n      swap2\n      swap1\n      pop\n      jump\t// out\n        /* \"#utility.yul\":12358:12499   */\n    tag_108:\n        /* \"#utility.yul\":12407:12411   */\n      0x00\n        /* \"#utility.yul\":12430:12433   */\n      dup2\n        /* \"#utility.yul\":12422:12433   */\n      swap1\n      pop\n        /* \"#utility.yul\":12453:12456   */\n      dup2\n        /* \"#utility.yul\":12450:12451   */\n      0x00\n        /* \"#utility.yul\":12443:12457   */\n      mstore\n        /* \"#utility.yul\":12487:12491   */\n      0x20\n        /* \"#utility.yul\":12484:12485   */\n      0x00\n        /* \"#utility.yul\":12474:12492   */\n      keccak256\n        /* \"#utility.yul\":12466:12492   */\n      swap1\n      pop\n        /* \"#utility.yul\":12358:12499   */\n      swap2\n      swap1\n      pop\n      jump\t// out\n        /* \"#utility.yul\":12505:12598   */\n    tag_109:\n        /* \"#utility.yul\":12542:12548   */\n      0x00\n        /* \"#utility.yul\":12589:12591   */\n      0x20\n        /* \"#utility.yul\":12584:12586   */\n      0x1f\n        /* \"#utility.yul\":12577:12582   */\n      dup4\n        /* \"#utility.yul\":12573:12587   */\n      add\n        /* \"#utility.yul\":12569:12592   */\n      div\n        /* \"#utility.yul\":12559:12592   */\n      swap1\n      pop\n        /* \"#utility.yul\":12505:12598   */\n      swap2\n      swap1\n      pop\n      jump\t// out\n        /* \"#utility.yul\":12604:12711   */\n    tag_110:\n        /* \"#utility.yul\":12648:12656   */\n      0x00\n        /* \"#utility.yul\":12698:12703   */\n      dup3\n        /* \"#utility.yul\":12692:12696   */\n      dup3\n        /* \"#utility.yul\":12688:12704   */\n      shl\n        /* \"#utility.yul\":12667:12704   */\n      swap1\n      pop\n        /* \"#utility.yul\":12604:12711   */\n      swap3\n      swap2\n      pop\n      pop\n      jump\t// out\n        /* \"#utility.yul\":12717:13110   */\n    tag_111:\n        /* \"#utility.yul\":12786:12792   */\n      0x00\n        /* \"#utility.yul\":12836:12837   */\n      0x08\n        /* \"#utility.yul\":12824:12834   */\n      dup4\n        /* \"#utility.yul\":12820:12838   */\n      mul\n        /* \"#utility.yul\":12859:12956   */\n      tag_244\n        /* \"#utility.yul\":12889:12955   */\n      0xffffffffffffffffffffffffffffffffffffffffffffffffffffffffffffffff\n        /* \"#utility.yul\":12878:12887   */\n      dup3\n        /* \"#utility.yul\":12859:12956   */\n      tag_110\n      jump\t// in\n    tag_244:\n        /* \"#utility.yul\":12977:13016   */\n      tag_245\n        /* \"#utility.yul\":13007:13015   */\n      dup7\n        /* \"#utility.yul\":12996:13005   */\n      dup4\n        /* \"#utility.yul\":12977:13016   */\n      tag_110\n      jump\t// in\n    tag_245:\n        /* \"#utility.yul\":12965:13016   */\n      swap6\n      pop\n        /* \"#utility.yul\":13049:13053   */\n      dup1\n        /* \"#utility.yul\":13045:13054   */\n      not\n        /* \"#utility.yul\":13038:13043   */\n      dup5\n        /* \"#utility.yul\":13034:13055   */\n      and\n        /* \"#utility.yul\":13025:13055   */\n      swap4\n      pop\n        /* \"#utility.yul\":13098:13102   */\n      dup1\n        /* \"#utility.yul\":13088:13096   */\n      dup7\n        /* \"#utility.yul\":13084:13103   */\n      and\n        /* \"#utility.yul\":13077:13082   */\n      dup5\n        /* \"#utility.yul\":13074:13104   */\n      or\n        /* \"#utility.yul\":13064:13104   */\n      swap3\n      pop\n        /* \"#utility.yul\":12793:13110   */\n      pop\n      pop\n        /* \"#utility.yul\":12717:13110   */\n      swap4\n      swap3\n      pop\n      pop\n      pop\n      jump\t// out\n        /* \"#utility.yul\":13116:13176   */\n    tag_112:\n        /* \"#utility.yul\":13144:13147   */\n      0x00\n        /* \"#utility.yul\":13165:13170   */\n      dup2\n        /* \"#utility.yul\":13158:13170   */\n      swap1\n      pop\n        /* \"#utility.yul\":13116:13176   */\n      swap2\n      swap1\n      pop\n      jump\t// out\n        /* \"#utility.yul\":13182:13324   */\n    tag_113:\n        /* \"#utility.yul\":13232:13241   */\n      0x00\n        /* \"#utility.yul\":13265:13318   */\n      tag_248\n        /* \"#utility.yul\":13283:13317   */\n      tag_249\n        /* \"#utility.yul\":13292:13316   */\n      tag_250\n        /* \"#utility.yul\":13310:13315   */\n      dup5\n        /* \"#utility.yul\":13292:13316   */\n      tag_68\n      jump\t// in\n    tag_250:\n        /* \"#utility.yul\":13283:13317   */\n      tag_112\n      jump\t// in\n    tag_249:\n        /* \"#utility.yul\":13265:13318   */\n      tag_68\n      jump\t// in\n    tag_248:\n        /* \"#utility.yul\":13252:13318   */\n      swap1\n      pop\n        /* \"#utility.yul\":13182:13324   */\n      swap2\n      swap1\n      pop\n      jump\t// out\n        /* \"#utility.yul\":13330:13405   */\n    tag_114:\n        /* \"#utility.yul\":13373:13376   */\n      0x00\n        /* \"#utility.yul\":13394:13399   */\n      dup2\n        /* \"#utility.yul\":13387:13399   */\n      swap1\n      pop\n        /* \"#utility.yul\":13330:13405   */\n      swap2\n      swap1\n      pop\n      jump\t// out\n        /* \"#utility.yul\":13411:13680   */\n    tag_115:\n        /* \"#utility.yul\":13521:13560   */\n      tag_253\n        /* \"#utility.yul\":13552:13559   */\n      dup4\n        /* \"#utility.yul\":13521:13560   */\n      tag_113\n      jump\t// in\n    tag_253:\n        /* \"#utility.yul\":13582:13673   */\n      tag_254\n        /* \"#utility.yul\":13631:13672   */\n      tag_255\n        /* \"#utility.yul\":13655:13671   */\n      dup3\n        /* \"#utility.yul\":13631:13672   */\n      tag_114\n      jump\t// in\n    tag_255:\n        /* \"#utility.yul\":13623:13629   */\n      dup5\n        /* \"#utility.yul\":13616:13620   */\n      dup5\n        /* \"#utility.yul\":13610:13621   */\n      sload\n        /* \"#utility.yul\":13582:13673   */\n      tag_111\n      jump\t// in\n    tag_254:\n        /* \"#utility.yul\":13576:13580   */\n      dup3\n        /* \"#utility.yul\":13569:13674   */\n      sstore\n        /* \"#utility.yul\":13487:13680   */\n      pop\n        /* \"#utility.yul\":13411:13680   */\n      pop\n      pop\n      pop\n      jump\t// out\n        /* \"#utility.yul\":13686:13759   */\n    tag_116:\n        /* \"#utility.yul\":13731:13734   */\n      0x00\n        /* \"#utility.yul\":13752:13753   */\n      0x00\n        /* \"#utility.yul\":13745:13753   */\n      swap1\n      pop\n        /* \"#utility.yul\":13686:13759   */\n      swap1\n      jump\t// out\n        /* \"#utility.yul\":13765:13954   */\n    tag_117:\n        /* \"#utility.yul\":13842:13874   */\n      tag_258\n      tag_116\n      jump\t// in\n    tag_258:\n        /* \"#utility.yul\":13883:13948   */\n      tag_259\n        /* \"#utility.yul\":13941:13947   */\n      dup2\n        /* \"#utility.yul\":13933:13939   */\n      dup5\n        /* \"#utility.yul\":13927:13931   */\n      dup5\n        /* \"#utility.yul\":13883:13948   */\n      tag_115\n      jump\t// in\n    tag_259:\n        /* \"#utility.yul\":13818:13954   */\n      pop\n        /* \"#utility.yul\":13765:13954   */\n      pop\n      pop\n      jump\t// out\n        /* \"#utility.yul\":13960:14146   */\n    tag_118:\n        /* \"#utility.yul\":14020:14140   */\n    tag_261:\n        /* \"#utility.yul\":14037:14040   */\n      dup2\n        /* \"#utility.yul\":14030:14035   */\n      dup2\n        /* \"#utility.yul\":14027:14041   */\n      lt\n        /* \"#utility.yul\":14020:14140   */\n      iszero\n      tag_263\n      jumpi\n        /* \"#utility.yul\":14091:14130   */\n      tag_264\n        /* \"#utility.yul\":14128:14129   */\n      0x00\n        /* \"#utility.yul\":14121:14126   */\n      dup3\n        /* \"#utility.yul\":14091:14130   */\n      tag_117\n      jump\t// in\n    tag_264:\n        /* \"#utility.yul\":14064:14065   */\n      0x01\n        /* \"#utility.yul\":14057:14062   */\n      dup2\n        /* \"#utility.yul\":14053:14066   */\n      add\n        /* \"#utility.yul\":14044:14066   */\n      swap1\n      pop\n        /* \"#utility.yul\":14020:14140   */\n      jump(tag_261)\n    tag_263:\n        /* \"#utility.yul\":13960:14146   */\n      pop\n      pop\n      jump\t// out\n        /* \"#utility.yul\":14152:14695   */\n    tag_119:\n        /* \"#utility.yul\":14253:14255   */\n      0x1f\n        /* \"#utility.yul\":14248:14251   */\n      dup3\n        /* \"#utility.yul\":14245:14256   */\n      gt\n        /* \"#utility.yul\":14242:14688   */\n      iszero\n      tag_266\n      jumpi\n        /* \"#utility.yul\":14287:14325   */\n      tag_267\n        /* \"#utility.yul\":14319:14324   */\n      dup2\n        /* \"#utility.yul\":14287:14325   */\n      tag_108\n      jump\t// in\n    tag_267:\n        /* \"#utility.yul\":14371:14400   */\n      tag_268\n        /* \"#utility.yul\":14389:14399   */\n      dup5\n        /* \"#utility.yul\":14371:14400   */\n      tag_109\n      jump\t// in\n    tag_268:\n        /* \"#utility.yul\":14361:14369   */\n      dup2\n        /* \"#utility.yul\":14357:14401   */\n      add\n        /* \"#utility.yul\":14554:14556   */\n      0x20\n        /* \"#utility.yul\":14542:14552   */\n      dup6\n        /* \"#utility.yul\":14539:14557   */\n      lt\n        /* \"#utility.yul\":14536:14585   */\n      iszero\n      tag_269\n      jumpi\n        /* \"#utility.yul\":14575:14583   */\n      dup2\n        /* \"#utility.yul\":14560:14583   */\n      swap1\n      pop\n        /* \"#utility.yul\":14536:14585   */\n    tag_269:\n        /* \"#utility.yul\":14598:14678   */\n      tag_270\n        /* \"#utility.yul\":14654:14676   */\n      tag_271\n        /* \"#utility.yul\":14672:14675   */\n      dup6\n        /* \"#utility.yul\":14654:14676   */\n      tag_109\n      jump\t// in\n    tag_271:\n        /* \"#utility.yul\":14644:14652   */\n      dup4\n        /* \"#utility.yul\":14640:14677   */\n      add\n        /* \"#utility.yul\":14627:14638   */\n      dup3\n        /* \"#utility.yul\":14598:14678   */\n      tag_118\n      jump\t// in\n    tag_270:\n        /* \"#utility.yul\":14257:14688   */\n      pop\n      pop\n        /* \"#utility.yul\":14242:14688   */\n    tag_266:\n        /* \"#utility.yul\":14152:14695   */\n      pop\n      pop\n      pop\n      jump\t// out\n        /* \"#utility.yul\":14701:14818   */\n    tag_120:\n        /* \"#utility.yul\":14755:14763   */\n      0x00\n        /* \"#utility.yul\":14805:14810   */\n      dup3\n        /* \"#utility.yul\":14799:14803   */\n      dup3\n        /* \"#utility.yul\":14795:14811   */\n      shr\n        /* \"#utility.yul\":14774:14811   */\n      swap1\n      pop\n        /* \"#utility.yul\":14701:14818   */\n      swap3\n      swap2\n      pop\n      pop\n      jump\t// out\n        /* \"#utility.yul\":14824:14993   */\n    tag_121:\n        /* \"#utility.yul\":14868:14874   */\n      0x00\n        /* \"#utility.yul\":14901:14952   */\n      tag_274\n        /* \"#utility.yul\":14949:14950   */\n      0x00\n        /* \"#utility.yul\":14945:14951   */\n      not\n        /* \"#utility.yul\":14937:14942   */\n      dup5\n        /* \"#utility.yul\":14934:14935   */\n      0x08\n        /* \"#utility.yul\":14930:14943   */\n      mul\n        /* \"#utility.yul\":14901:14952   */\n      tag_120\n      jump\t// in\n    tag_274:\n        /* \"#utility.yul\":14897:14953   */\n      not\n        /* \"#utility.yul\":14982:14986   */\n      dup1\n        /* \"#utility.yul\":14976:14980   */\n      dup4\n        /* \"#utility.yul\":14972:14987   */\n      and\n        /* \"#utility.yul\":14962:14987   */\n      swap2\n      pop\n        /* \"#utility.yul\":14875:14993   */\n      pop\n        /* \"#utility.yul\":14824:14993   */\n      swap3\n      swap2\n      pop\n      pop\n      jump\t// out\n        /* \"#utility.yul\":14998:15293   */\n    tag_122:\n        /* \"#utility.yul\":15074:15078   */\n      0x00\n        /* \"#utility.yul\":15220:15249   */\n      tag_276\n        /* \"#utility.yul\":15245:15248   */\n      dup4\n        /* \"#utility.yul\":15239:15243   */\n      dup4\n        /* \"#utility.yul\":15220:15249   */\n      tag_121\n      jump\t// in\n    tag_276:\n        /* \"#utility.yul\":15212:15249   */\n      swap2\n      pop\n        /* \"#utility.yul\":15282:15285   */\n      dup3\n        /* \"#utility.yul\":15279:15280   */\n      0x02\n        /* \"#utility.yul\":15275:15286   */\n      mul\n        /* \"#utility.yul\":15269:15273   */\n      dup3\n        /* \"#utility.yul\":15266:15287   */\n      or\n        /* \"#utility.yul\":15258:15287   */\n      swap1\n      pop\n        /* \"#utility.yul\":14998:15293   */\n      swap3\n      swap2\n      pop\n      pop\n      jump\t// out\n        /* \"#utility.yul\":15298:16693   */\n    tag_50:\n        /* \"#utility.yul\":15415:15452   */\n      tag_278\n        /* \"#utility.yul\":15448:15451   */\n      dup3\n        /* \"#utility.yul\":15415:15452   */\n      tag_93\n      jump\t// in\n    tag_278:\n        /* \"#utility.yul\":15517:15535   */\n      0xffffffffffffffff\n        /* \"#utility.yul\":15509:15515   */\n      dup2\n        /* \"#utility.yul\":15506:15536   */\n      gt\n        /* \"#utility.yul\":15503:15559   */\n      iszero\n      tag_279\n      jumpi\n        /* \"#utility.yul\":15539:15557   */\n      tag_280\n      tag_80\n      jump\t// in\n    tag_280:\n        /* \"#utility.yul\":15503:15559   */\n    tag_279:\n        /* \"#utility.yul\":15583:15621   */\n      tag_281\n        /* \"#utility.yul\":15615:15619   */\n      dup3\n        /* \"#utility.yul\":15609:15620   */\n      sload\n        /* \"#utility.yul\":15583:15621   */\n      tag_56\n      jump\t// in\n    tag_281:\n        /* \"#utility.yul\":15668:15735   */\n      tag_282\n        /* \"#utility.yul\":15728:15734   */\n      dup3\n        /* \"#utility.yul\":15720:15726   */\n      dup3\n        /* \"#utility.yul\":15714:15718   */\n      dup6\n        /* \"#utility.yul\":15668:15735   */\n      tag_119\n      jump\t// in\n    tag_282:\n        /* \"#utility.yul\":15762:15763   */\n      0x00\n        /* \"#utility.yul\":15786:15790   */\n      0x20\n        /* \"#utility.yul\":15773:15790   */\n      swap1\n      pop\n        /* \"#utility.yul\":15818:15820   */\n      0x1f\n        /* \"#utility.yul\":15810:15816   */\n      dup4\n        /* \"#utility.yul\":15807:15821   */\n      gt\n        /* \"#utility.yul\":15835:15836   */\n      0x01\n        /* \"#utility.yul\":15830:16448   */\n      dup2\n      eq\n      tag_284\n      jumpi\n        /* \"#utility.yul\":16492:16493   */\n      0x00\n        /* \"#utility.yul\":16509:16515   */\n      dup5\n        /* \"#utility.yul\":16506:16583   */\n      iszero\n      tag_285\n      jumpi\n        /* \"#utility.yul\":16558:16567   */\n      dup3\n        /* \"#utility.yul\":16553:16556   */\n      dup8\n        /* \"#utility.yul\":16549:16568   */\n      add\n        /* \"#utility.yul\":16543:16569   */\n      mload\n        /* \"#utility.yul\":16534:16569   */\n      swap1\n      pop\n        /* \"#utility.yul\":16506:16583   */\n    tag_285:\n        /* \"#utility.yul\":16609:16676   */\n      tag_286\n        /* \"#utility.yul\":16669:16675   */\n      dup6\n        /* \"#utility.yul\":16662:16667   */\n      dup3\n        /* \"#utility.yul\":16609:16676   */\n      tag_122\n      jump\t// in\n    tag_286:\n        /* \"#utility.yul\":16603:16607   */\n      dup7\n        /* \"#utility.yul\":16596:16677   */\n      sstore\n        /* \"#utility.yul\":16465:16687   */\n      pop\n        /* \"#utility.yul\":15800:16687   */\n      jump(tag_283)\n        /* \"#utility.yul\":15830:16448   */\n    tag_284:\n        /* \"#utility.yul\":15882:15886   */\n      0x1f\n        /* \"#utility.yul\":15878:15887   */\n      not\n        /* \"#utility.yul\":15870:15876   */\n      dup5\n        /* \"#utility.yul\":15866:15888   */\n      and\n        /* \"#utility.yul\":15916:15953   */\n      tag_287\n        /* \"#utility.yul\":15948:15952   */\n      dup7\n        /* \"#utility.yul\":15916:15953   */\n      tag_108\n      jump\t// in\n    tag_287:\n        /* \"#utility.yul\":15975:15976   */\n      0x00\n        /* \"#utility.yul\":15989:16197   */\n    tag_288:\n        /* \"#utility.yul\":16003:16010   */\n      dup3\n        /* \"#utility.yul\":16000:16001   */\n      dup2\n        /* \"#utility.yul\":15997:16011   */\n      lt\n        /* \"#utility.yul\":15989:16197   */\n      iszero\n      tag_290\n      jumpi\n        /* \"#utility.yul\":16082:16091   */\n      dup5\n        /* \"#utility.yul\":16077:16080   */\n      dup10\n        /* \"#utility.yul\":16073:16092   */\n      add\n        /* \"#utility.yul\":16067:16093   */\n      mload\n        /* \"#utility.yul\":16059:16065   */\n      dup3\n        /* \"#utility.yul\":16052:16094   */\n      sstore\n        /* \"#utility.yul\":16133:16134   */\n      0x01\n        /* \"#utility.yul\":16125:16131   */\n      dup3\n        /* \"#utility.yul\":16121:16135   */\n      add\n        /* \"#utility.yul\":16111:16135   */\n      swap2\n      pop\n        /* \"#utility.yul\":16180:16182   */\n      0x20\n        /* \"#utility.yul\":16169:16178   */\n      dup6\n        /* \"#utility.yul\":16165:16183   */\n      add\n        /* \"#utility.yul\":16152:16183   */\n      swap5\n      pop\n        /* \"#utility.yul\":16026:16030   */\n      0x20\n        /* \"#utility.yul\":16023:16024   */\n      dup2\n        /* \"#utility.yul\":16019:16031   */\n      add\n        /* \"#utility.yul\":16014:16031   */\n      swap1\n      pop\n        /* \"#utility.yul\":15989:16197   */\n      jump(tag_288)\n    tag_290:\n        /* \"#utility.yul\":16225:16231   */\n      dup7\n        /* \"#utility.yul\":16216:16223   */\n      dup4\n        /* \"#utility.yul\":16213:16232   */\n      lt\n        /* \"#utility.yul\":16210:16389   */\n      iszero\n      tag_291\n      jumpi\n        /* \"#utility.yul\":16283:16292   */\n      dup5\n        /* \"#utility.yul\":16278:16281   */\n      dup10\n        /* \"#utility.yul\":16274:16293   */\n      add\n        /* \"#utility.yul\":16268:16294   */\n      mload\n        /* \"#utility.yul\":16326:16374   */\n      tag_292\n        /* \"#utility.yul\":16368:16372   */\n      0x1f\n        /* \"#utility.yul\":16360:16366   */\n      dup10\n        /* \"#utility.yul\":16356:16373   */\n      and\n        /* \"#utility.yul\":16345:16354   */\n      dup3\n        /* \"#utility.yul\":16326:16374   */\n      tag_121\n      jump\t// in\n    tag_292:\n        /* \"#utility.yul\":16318:16324   */\n      dup4\n        /* \"#utility.yul\":16311:16375   */\n      sstore\n        /* \"#utility.yul\":16233:16389   */\n      pop\n        /* \"#utility.yul\":16210:16389   */\n    tag_291:\n        /* \"#utility.yul\":16435:16436   */\n      0x01\n        /* \"#utility.yul\":16431:16432   */\n      0x02\n        /* \"#utility.yul\":16423:16429   */\n      dup9\n        /* \"#utility.yul\":16419:16433   */\n      mul\n        /* \"#utility.yul\":16415:16437   */\n      add\n        /* \"#utility.yul\":16409:16413   */\n      dup9\n        /* \"#utility.yul\":16402:16438   */\n      sstore\n        /* \"#utility.yul\":15837:16448   */\n      pop\n      pop\n      pop\n        /* \"#utility.yul\":15800:16687   */\n    tag_283:\n      pop\n        /* \"#utility.yul\":15390:16693   */\n      pop\n      pop\n      pop\n        /* \"#utility.yul\":15298:16693   */\n      pop\n      pop\n      jump\t// out\n\n    auxdata: 0xa2646970667358221220ff4195ea7206c2df7969f38c009c320cb5c32055a410c75baf57d4bed276f0d764736f6c634300081f0033\n}\n",
				"bytecode": {
					"linkReferences": {},
					"object": "6080604052348015600e575f5ffd5b50335f5f6101000a81548173ffffffffffffffffffffffffffffffffffffffff021916908373ffffffffffffffffffffffffffffffffffffffff160217905550610daa8061005b5f395ff3fe608060405260043610610049575f3560e01c80632a08deda1461004d5780636e7301fd14610077578063b499b79a14610081578063e83a1b00146100a9578063ec066e3a146100d3575b5f5ffd5b348015610058575f5ffd5b50610061610111565b60405161006e9190610559565b60405180910390f35b61007f610118565b005b34801561008c575f5ffd5b506100a760048036038101906100a29190610743565b61011a565b005b3480156100b4575f5ffd5b506100bd61031d565b6040516100ca9190610935565b60405180910390f35b3480156100de575f5ffd5b506100f960048036038101906100f49190610955565b610467565b604051610108939291906109d7565b60405180910390f35b5f47905090565b565b5f5f9054906101000a900473ffffffffffffffffffffffffffffffffffffffff1673ffffffffffffffffffffffffffffffffffffffff163373ffffffffffffffffffffffffffffffffffffffff16146101a8576040517f08c379a000000000000000000000000000000000000000000000000000000000815260040161019f90610a5d565b60405180910390fd5b5f5f90506001808054905010610252575f5f90505b600180549050811015610250578473ffffffffffffffffffffffffffffffffffffffff16600182815481106101f5576101f4610a7b565b5b905f5260205f2090600302015f015f9054906101000a900473ffffffffffffffffffffffffffffffffffffffff1673ffffffffffffffffffffffffffffffffffffffff160361024357600191505b80806001019150506101bd565b505b8061031757600160405180606001604052808673ffffffffffffffffffffffffffffffffffffffff16815260200185815260200184815250908060018154018082558091505060019003905f5260205f2090600302015f909190919091505f820151815f015f6101000a81548173ffffffffffffffffffffffffffffffffffffffff021916908373ffffffffffffffffffffffffffffffffffffffff16021790555060208201518160010190816103099190610ca5565b506040820151816002015550505b50505050565b60606001805480602002602001604051908101604052809291908181526020015f905b8282101561045e578382905f5260205f2090600302016040518060600160405290815f82015f9054906101000a900473ffffffffffffffffffffffffffffffffffffffff1673ffffffffffffffffffffffffffffffffffffffff1673ffffffffffffffffffffffffffffffffffffffff1681526020016001820180546103c590610ad5565b80601f01602080910402602001604051908101604052809291908181526020018280546103f190610ad5565b801561043c5780601f106104135761010080835404028352916020019161043c565b820191905f5260205f20905b81548152906001019060200180831161041f57829003601f168201915b5050505050815260200160028201548152505081526020019060010190610340565b50505050905090565b60018181548110610476575f80fd5b905f5260205f2090600302015f91509050805f015f9054906101000a900473ffffffffffffffffffffffffffffffffffffffff16908060010180546104ba90610ad5565b80601f01602080910402602001604051908101604052809291908181526020018280546104e690610ad5565b80156105315780601f1061050857610100808354040283529160200191610531565b820191905f5260205f20905b81548152906001019060200180831161051457829003601f168201915b5050505050908060020154905083565b5f819050919050565b61055381610541565b82525050565b5f60208201905061056c5f83018461054a565b92915050565b5f604051905090565b5f5ffd5b5f5ffd5b5f73ffffffffffffffffffffffffffffffffffffffff82169050919050565b5f6105ac82610583565b9050919050565b6105bc816105a2565b81146105c6575f5ffd5b50565b5f813590506105d7816105b3565b92915050565b5f5ffd5b5f5ffd5b5f601f19601f8301169050919050565b7f4e487b71000000000000000000000000000000000000000000000000000000005f52604160045260245ffd5b61062b826105e5565b810181811067ffffffffffffffff8211171561064a576106496105f5565b5b80604052505050565b5f61065c610572565b90506106688282610622565b919050565b5f67ffffffffffffffff821115610687576106866105f5565b5b610690826105e5565b9050602081019050919050565b828183375f83830152505050565b5f6106bd6106b88461066d565b610653565b9050828152602081018484840111156106d9576106d86105e1565b5b6106e484828561069d565b509392505050565b5f82601f830112610700576106ff6105dd565b5b81356107108482602086016106ab565b91505092915050565b61072281610541565b811461072c575f5ffd5b50565b5f8135905061073d81610719565b92915050565b5f5f5f6060848603121561075a5761075961057b565b5b5f610767868287016105c9565b935050602084013567ffffffffffffffff8111156107885761078761057f565b5b610794868287016106ec565b92505060406107a58682870161072f565b9150509250925092565b5f81519050919050565b5f82825260208201905092915050565b5f819050602082019050919050565b6107e1816105a2565b82525050565b5f81519050919050565b5f82825260208201905092915050565b8281835e5f83830152505050565b5f610819826107e7565b61082381856107f1565b9350610833818560208601610801565b61083c816105e5565b840191505092915050565b61085081610541565b82525050565b5f606083015f83015161086b5f8601826107d8565b5060208301518482036020860152610883828261080f565b91505060408301516108986040860182610847565b508091505092915050565b5f6108ae8383610856565b905092915050565b5f602082019050919050565b5f6108cc826107af565b6108d681856107b9565b9350836020820285016108e8856107c9565b805f5b85811015610923578484038952815161090485826108a3565b945061090f836108b6565b925060208a019950506001810190506108eb565b50829750879550505050505092915050565b5f6020820190508181035f83015261094d81846108c2565b905092915050565b5f6020828403121561096a5761096961057b565b5b5f6109778482850161072f565b91505092915050565b610989816105a2565b82525050565b5f82825260208201905092915050565b5f6109a9826107e7565b6109b3818561098f565b93506109c3818560208601610801565b6109cc816105e5565b840191505092915050565b5f6060820190506109ea5f830186610980565b81810360208301526109fc818561099f565b9050610a0b604083018461054a565b949350505050565b7f4f6e6c79206f776e65722063616e2063616c6c000000000000000000000000005f82015250565b5f610a4760138361098f565b9150610a5282610a13565b602082019050919050565b5f6020820190508181035f830152610a7481610a3b565b9050919050565b7f4e487b71000000000000000000000000000000000000000000000000000000005f52603260045260245ffd5b7f4e487b71000000000000000000000000000000000000000000000000000000005f52602260045260245ffd5b5f6002820490506001821680610aec57607f821691505b602082108103610aff57610afe610aa8565b5b50919050565b5f819050815f5260205f209050919050565b5f6020601f8301049050919050565b5f82821b905092915050565b5f60088302610b617fffffffffffffffffffffffffffffffffffffffffffffffffffffffffffffffff82610b26565b610b6b8683610b26565b95508019841693508086168417925050509392505050565b5f819050919050565b5f610ba6610ba1610b9c84610541565b610b83565b610541565b9050919050565b5f819050919050565b610bbf83610b8c565b610bd3610bcb82610bad565b848454610b32565b825550505050565b5f5f905090565b610bea610bdb565b610bf5818484610bb6565b505050565b5b81811015610c1857610c0d5f82610be2565b600181019050610bfb565b5050565b601f821115610c5d57610c2e81610b05565b610c3784610b17565b81016020851015610c46578190505b610c5a610c5285610b17565b830182610bfa565b50505b505050565b5f82821c905092915050565b5f610c7d5f1984600802610c62565b1980831691505092915050565b5f610c958383610c6e565b9150826002028217905092915050565b610cae826107e7565b67ffffffffffffffff811115610cc757610cc66105f5565b5b610cd18254610ad5565b610cdc828285610c1c565b5f60209050601f831160018114610d0d575f8415610cfb578287015190505b610d058582610c8a565b865550610d6c565b601f198416610d1b86610b05565b5f5b82811015610d4257848901518255600182019150602085019450602081019050610d1d565b86831015610d5f5784890151610d5b601f891682610c6e565b8355505b6001600288020188555050505b50505050505056fea2646970667358221220ff4195ea7206c2df7969f38c009c320cb5c32055a410c75baf57d4bed276f0d764736f6c634300081f0033",
					"opcodes": "PUSH1 0x80 PUSH1 0x40 MSTORE CALLVALUE DUP1 ISZERO PUSH1 0xE JUMPI PUSH0 PUSH0 REVERT JUMPDEST POP CALLER PUSH0 PUSH0 PUSH2 0x100 EXP DUP2 SLOAD DUP2 PUSH20 0xFFFFFFFFFFFFFFFFFFFFFFFFFFFFFFFFFFFFFFFF MUL NOT AND SWAP1 DUP4 PUSH20 0xFFFFFFFFFFFFFFFFFFFFFFFFFFFFFFFFFFFFFFFF AND MUL OR SWAP1 SSTORE POP PUSH2 0xDAA DUP1 PUSH2 0x5B PUSH0 CODECOPY PUSH0 RETURN INVALID PUSH1 0x80 PUSH1 0x40 MSTORE PUSH1 0x4 CALLDATASIZE LT PUSH2 0x49 JUMPI PUSH0 CALLDATALOAD PUSH1 0xE0 SHR DUP1 PUSH4 0x2A08DEDA EQ PUSH2 0x4D JUMPI DUP1 PUSH4 0x6E7301FD EQ PUSH2 0x77 JUMPI DUP1 PUSH4 0xB499B79A EQ PUSH2 0x81 JUMPI DUP1 PUSH4 0xE83A1B00 EQ PUSH2 0xA9 JUMPI DUP1 PUSH4 0xEC066E3A EQ PUSH2 0xD3 JUMPI JUMPDEST PUSH0 PUSH0 REVERT JUMPDEST CALLVALUE DUP1 ISZERO PUSH2 0x58 JUMPI PUSH0 PUSH0 REVERT JUMPDEST POP PUSH2 0x61 PUSH2 0x111 JUMP JUMPDEST PUSH1 0x40 MLOAD PUSH2 0x6E SWAP2 SWAP1 PUSH2 0x559 JUMP JUMPDEST PUSH1 0x40 MLOAD DUP1 SWAP2 SUB SWAP1 RETURN JUMPDEST PUSH2 0x7F PUSH2 0x118 JUMP JUMPDEST STOP JUMPDEST CALLVALUE DUP1 ISZERO PUSH2 0x8C JUMPI PUSH0 PUSH0 REVERT JUMPDEST POP PUSH2 0xA7 PUSH1 0x4 DUP1 CALLDATASIZE SUB DUP2 ADD SWAP1 PUSH2 0xA2 SWAP2 SWAP1 PUSH2 0x743 JUMP JUMPDEST PUSH2 0x11A JUMP JUMPDEST STOP JUMPDEST CALLVALUE DUP1 ISZERO PUSH2 0xB4 JUMPI PUSH0 PUSH0 REVERT JUMPDEST POP PUSH2 0xBD PUSH2 0x31D JUMP JUMPDEST PUSH1 0x40 MLOAD PUSH2 0xCA SWAP2 SWAP1 PUSH2 0x935 JUMP JUMPDEST PUSH1 0x40 MLOAD DUP1 SWAP2 SUB SWAP1 RETURN JUMPDEST CALLVALUE DUP1 ISZERO PUSH2 0xDE JUMPI PUSH0 PUSH0 REVERT JUMPDEST POP PUSH2 0xF9 PUSH1 0x4 DUP1 CALLDATASIZE SUB DUP2 ADD SWAP1 PUSH2 0xF4 SWAP2 SWAP1 PUSH2 0x955 JUMP JUMPDEST PUSH2 0x467 JUMP JUMPDEST PUSH1 0x40 MLOAD PUSH2 0x108 SWAP4 SWAP3 SWAP2 SWAP1 PUSH2 0x9D7 JUMP JUMPDEST PUSH1 0x40 MLOAD DUP1 SWAP2 SUB SWAP1 RETURN JUMPDEST PUSH0 SELFBALANCE SWAP1 POP SWAP1 JUMP JUMPDEST JUMP JUMPDEST PUSH0 PUSH0 SWAP1 SLOAD SWAP1 PUSH2 0x100 EXP SWAP1 DIV PUSH20 0xFFFFFFFFFFFFFFFFFFFFFFFFFFFFFFFFFFFFFFFF AND PUSH20 0xFFFFFFFFFFFFFFFFFFFFFFFFFFFFFFFFFFFFFFFF AND CALLER PUSH20 0xFFFFFFFFFFFFFFFFFFFFFFFFFFFFFFFFFFFFFFFF AND EQ PUSH2 0x1A8 JUMPI PUSH1 0x40 MLOAD PUSH32 0x8C379A000000000000000000000000000000000000000000000000000000000 DUP2 MSTORE PUSH1 0x4 ADD PUSH2 0x19F SWAP1 PUSH2 0xA5D JUMP JUMPDEST PUSH1 0x40 MLOAD DUP1 SWAP2 SUB SWAP1 REVERT JUMPDEST PUSH0 PUSH0 SWAP1 POP PUSH1 0x1 DUP1 DUP1 SLOAD SWAP1 POP LT PUSH2 0x252 JUMPI PUSH0 PUSH0 SWAP1 POP JUMPDEST PUSH1 0x1 DUP1 SLOAD SWAP1 POP DUP2 LT ISZERO PUSH2 0x250 JUMPI DUP5 PUSH20 0xFFFFFFFFFFFFFFFFFFFFFFFFFFFFFFFFFFFFFFFF AND PUSH1 0x1 DUP3 DUP2 SLOAD DUP2 LT PUSH2 0x1F5 JUMPI PUSH2 0x1F4 PUSH2 0xA7B JUMP JUMPDEST JUMPDEST SWAP1 PUSH0 MSTORE PUSH1 0x20 PUSH0 KECCAK256 SWAP1 PUSH1 0x3 MUL ADD PUSH0 ADD PUSH0 SWAP1 SLOAD SWAP1 PUSH2 0x100 EXP SWAP1 DIV PUSH20 0xFFFFFFFFFFFFFFFFFFFFFFFFFFFFFFFFFFFFFFFF AND PUSH20 0xFFFFFFFFFFFFFFFFFFFFFFFFFFFFFFFFFFFFFFFF AND SUB PUSH2 0x243 JUMPI PUSH1 0x1 SWAP2 POP JUMPDEST DUP1 DUP1 PUSH1 0x1 ADD SWAP2 POP POP PUSH2 0x1BD JUMP JUMPDEST POP JUMPDEST DUP1 PUSH2 0x317 JUMPI PUSH1 0x1 PUSH1 0x40 MLOAD DUP1 PUSH1 0x60 ADD PUSH1 0x40 MSTORE DUP1 DUP7 PUSH20 0xFFFFFFFFFFFFFFFFFFFFFFFFFFFFFFFFFFFFFFFF AND DUP2 MSTORE PUSH1 0x20 ADD DUP6 DUP2 MSTORE PUSH1 0x20 ADD DUP5 DUP2 MSTORE POP SWAP1 DUP1 PUSH1 0x1 DUP2 SLOAD ADD DUP1 DUP3 SSTORE DUP1 SWAP2 POP POP PUSH1 0x1 SWAP1 SUB SWAP1 PUSH0 MSTORE PUSH1 0x20 PUSH0 KECCAK256 SWAP1 PUSH1 0x3 MUL ADD PUSH0 SWAP1 SWAP2 SWAP1 SWAP2 SWAP1 SWAP2 POP PUSH0 DUP3 ADD MLOAD DUP2 PUSH0 ADD PUSH0 PUSH2 0x100 EXP DUP2 SLOAD DUP2 PUSH20 0xFFFFFFFFFFFFFFFFFFFFFFFFFFFFFFFFFFFFFFFF MUL NOT AND SWAP1 DUP4 PUSH20 0xFFFFFFFFFFFFFFFFFFFFFFFFFFFFFFFFFFFFFFFF AND MUL OR SWAP1 SSTORE POP PUSH1 0x20 DUP3 ADD MLOAD DUP2 PUSH1 0x1 ADD SWAP1 DUP2 PUSH2 0x309 SWAP2 SWAP1 PUSH2 0xCA5 JUMP JUMPDEST POP PUSH1 0x40 DUP3 ADD MLOAD DUP2 PUSH1 0x2 ADD SSTORE POP POP JUMPDEST POP POP POP POP JUMP JUMPDEST PUSH1 0x60 PUSH1 0x1 DUP1 SLOAD DUP1 PUSH1 0x20 MUL PUSH1 0x20 ADD PUSH1 0x40 MLOAD SWAP1 DUP2 ADD PUSH1 0x40 MSTORE DUP1 SWAP3 SWAP2 SWAP1 DUP2 DUP2 MSTORE PUSH1 0x20 ADD PUSH0 SWAP1 JUMPDEST DUP3 DUP3 LT ISZERO PUSH2 0x45E JUMPI DUP4 DUP3 SWAP1 PUSH0 MSTORE PUSH1 0x20 PUSH0 KECCAK256 SWAP1 PUSH1 0x3 MUL ADD PUSH1 0x40 MLOAD DUP1 PUSH1 0x60 ADD PUSH1 0x40 MSTORE SWAP1 DUP2 PUSH0 DUP3 ADD PUSH0 SWAP1 SLOAD SWAP1 PUSH2 0x100 EXP SWAP1 DIV PUSH20 0xFFFFFFFFFFFFFFFFFFFFFFFFFFFFFFFFFFFFFFFF AND PUSH20 0xFFFFFFFFFFFFFFFFFFFFFFFFFFFFFFFFFFFFFFFF AND PUSH20 0xFFFFFFFFFFFFFFFFFFFFFFFFFFFFFFFFFFFFFFFF AND DUP2 MSTORE PUSH1 0x20 ADD PUSH1 0x1 DUP3 ADD DUP1 SLOAD PUSH2 0x3C5 SWAP1 PUSH2 0xAD5 JUMP JUMPDEST DUP1 PUSH1 0x1F ADD PUSH1 0x20 DUP1 SWAP2 DIV MUL PUSH1 0x20 ADD PUSH1 0x40 MLOAD SWAP1 DUP2 ADD PUSH1 0x40 MSTORE DUP1 SWAP3 SWAP2 SWAP1 DUP2 DUP2 MSTORE PUSH1 0x20 ADD DUP3 DUP1 SLOAD PUSH2 0x3F1 SWAP1 PUSH2 0xAD5 JUMP JUMPDEST DUP1 ISZERO PUSH2 0x43C JUMPI DUP1 PUSH1 0x1F LT PUSH2 0x413 JUMPI PUSH2 0x100 DUP1 DUP4 SLOAD DIV MUL DUP4 MSTORE SWAP2 PUSH1 0x20 ADD SWAP2 PUSH2 0x43C JUMP JUMPDEST DUP3 ADD SWAP2 SWAP1 PUSH0 MSTORE PUSH1 0x20 PUSH0 KECCAK256 SWAP1 JUMPDEST DUP2 SLOAD DUP2 MSTORE SWAP1 PUSH1 0x1 ADD SWAP1 PUSH1 0x20 ADD DUP1 DUP4 GT PUSH2 0x41F JUMPI DUP3 SWAP1 SUB PUSH1 0x1F AND DUP3 ADD SWAP2 JUMPDEST POP POP POP POP POP DUP2 MSTORE PUSH1 0x20 ADD PUSH1 0x2 DUP3 ADD SLOAD DUP2 MSTORE POP POP DUP2 MSTORE PUSH1 0x20 ADD SWAP1 PUSH1 0x1 ADD SWAP1 PUSH2 0x340 JUMP JUMPDEST POP POP POP POP SWAP1 POP SWAP1 JUMP JUMPDEST PUSH1 0x1 DUP2 DUP2 SLOAD DUP2 LT PUSH2 0x476 JUMPI PUSH0 DUP1 REVERT JUMPDEST SWAP1 PUSH0 MSTORE PUSH1 0x20 PUSH0 KECCAK256 SWAP1 PUSH1 0x3 MUL ADD PUSH0 SWAP2 POP SWAP1 POP DUP1 PUSH0 ADD PUSH0 SWAP1 SLOAD SWAP1 PUSH2 0x100 EXP SWAP1 DIV PUSH20 0xFFFFFFFFFFFFFFFFFFFFFFFFFFFFFFFFFFFFFFFF AND SWAP1 DUP1 PUSH1 0x1 ADD DUP1 SLOAD PUSH2 0x4BA SWAP1 PUSH2 0xAD5 JUMP JUMPDEST DUP1 PUSH1 0x1F ADD PUSH1 0x20 DUP1 SWAP2 DIV MUL PUSH1 0x20 ADD PUSH1 0x40 MLOAD SWAP1 DUP2 ADD PUSH1 0x40 MSTORE DUP1 SWAP3 SWAP2 SWAP1 DUP2 DUP2 MSTORE PUSH1 0x20 ADD DUP3 DUP1 SLOAD PUSH2 0x4E6 SWAP1 PUSH2 0xAD5 JUMP JUMPDEST DUP1 ISZERO PUSH2 0x531 JUMPI DUP1 PUSH1 0x1F LT PUSH2 0x508 JUMPI PUSH2 0x100 DUP1 DUP4 SLOAD DIV MUL DUP4 MSTORE SWAP2 PUSH1 0x20 ADD SWAP2 PUSH2 0x531 JUMP JUMPDEST DUP3 ADD SWAP2 SWAP1 PUSH0 MSTORE PUSH1 0x20 PUSH0 KECCAK256 SWAP1 JUMPDEST DUP2 SLOAD DUP2 MSTORE SWAP1 PUSH1 0x1 ADD SWAP1 PUSH1 0x20 ADD DUP1 DUP4 GT PUSH2 0x514 JUMPI DUP3 SWAP1 SUB PUSH1 0x1F AND DUP3 ADD SWAP2 JUMPDEST POP POP POP POP POP SWAP1 DUP1 PUSH1 0x2 ADD SLOAD SWAP1 POP DUP4 JUMP JUMPDEST PUSH0 DUP2 SWAP1 POP SWAP2 SWAP1 POP JUMP JUMPDEST PUSH2 0x553 DUP2 PUSH2 0x541 JUMP JUMPDEST DUP3 MSTORE POP POP JUMP JUMPDEST PUSH0 PUSH1 0x20 DUP3 ADD SWAP1 POP PUSH2 0x56C PUSH0 DUP4 ADD DUP5 PUSH2 0x54A JUMP JUMPDEST SWAP3 SWAP2 POP POP JUMP JUMPDEST PUSH0 PUSH1 0x40 MLOAD SWAP1 POP SWAP1 JUMP JUMPDEST PUSH0 PUSH0 REVERT JUMPDEST PUSH0 PUSH0 REVERT JUMPDEST PUSH0 PUSH20 0xFFFFFFFFFFFFFFFFFFFFFFFFFFFFFFFFFFFFFFFF DUP3 AND SWAP1 POP SWAP2 SWAP1 POP JUMP JUMPDEST PUSH0 PUSH2 0x5AC DUP3 PUSH2 0x583 JUMP JUMPDEST SWAP1 POP SWAP2 SWAP1 POP JUMP JUMPDEST PUSH2 0x5BC DUP2 PUSH2 0x5A2 JUMP JUMPDEST DUP2 EQ PUSH2 0x5C6 JUMPI PUSH0 PUSH0 REVERT JUMPDEST POP JUMP JUMPDEST PUSH0 DUP2 CALLDATALOAD SWAP1 POP PUSH2 0x5D7 DUP2 PUSH2 0x5B3 JUMP JUMPDEST SWAP3 SWAP2 POP POP JUMP JUMPDEST PUSH0 PUSH0 REVERT JUMPDEST PUSH0 PUSH0 REVERT JUMPDEST PUSH0 PUSH1 0x1F NOT PUSH1 0x1F DUP4 ADD AND SWAP1 POP SWAP2 SWAP1 POP JUMP JUMPDEST PUSH32 0x4E487B7100000000000000000000000000000000000000000000000000000000 PUSH0 MSTORE PUSH1 0x41 PUSH1 0x4 MSTORE PUSH1 0x24 PUSH0 REVERT JUMPDEST PUSH2 0x62B DUP3 PUSH2 0x5E5 JUMP JUMPDEST DUP2 ADD DUP2 DUP2 LT PUSH8 0xFFFFFFFFFFFFFFFF DUP3 GT OR ISZERO PUSH2 0x64A JUMPI PUSH2 0x649 PUSH2 0x5F5 JUMP JUMPDEST JUMPDEST DUP1 PUSH1 0x40 MSTORE POP POP POP JUMP JUMPDEST PUSH0 PUSH2 0x65C PUSH2 0x572 JUMP JUMPDEST SWAP1 POP PUSH2 0x668 DUP3 DUP3 PUSH2 0x622 JUMP JUMPDEST SWAP2 SWAP1 POP JUMP JUMPDEST PUSH0 PUSH8 0xFFFFFFFFFFFFFFFF DUP3 GT ISZERO PUSH2 0x687 JUMPI PUSH2 0x686 PUSH2 0x5F5 JUMP JUMPDEST JUMPDEST PUSH2 0x690 DUP3 PUSH2 0x5E5 JUMP JUMPDEST SWAP1 POP PUSH1 0x20 DUP2 ADD SWAP1 POP SWAP2 SWAP1 POP JUMP JUMPDEST DUP3 DUP2 DUP4 CALLDATACOPY PUSH0 DUP4 DUP4 ADD MSTORE POP POP POP JUMP JUMPDEST PUSH0 PUSH2 0x6BD PUSH2 0x6B8 DUP5 PUSH2 0x66D JUMP JUMPDEST PUSH2 0x653 JUMP JUMPDEST SWAP1 POP DUP3 DUP2 MSTORE PUSH1 0x20 DUP2 ADD DUP5 DUP5 DUP5 ADD GT ISZERO PUSH2 0x6D9 JUMPI PUSH2 0x6D8 PUSH2 0x5E1 JUMP JUMPDEST JUMPDEST PUSH2 0x6E4 DUP5 DUP3 DUP6 PUSH2 0x69D JUMP JUMPDEST POP SWAP4 SWAP3 POP POP POP JUMP JUMPDEST PUSH0 DUP3 PUSH1 0x1F DUP4 ADD SLT PUSH2 0x700 JUMPI PUSH2 0x6FF PUSH2 0x5DD JUMP JUMPDEST JUMPDEST DUP2 CALLDATALOAD PUSH2 0x710 DUP5 DUP3 PUSH1 0x20 DUP7 ADD PUSH2 0x6AB JUMP JUMPDEST SWAP2 POP POP SWAP3 SWAP2 POP POP JUMP JUMPDEST PUSH2 0x722 DUP2 PUSH2 0x541 JUMP JUMPDEST DUP2 EQ PUSH2 0x72C JUMPI PUSH0 PUSH0 REVERT JUMPDEST POP JUMP JUMPDEST PUSH0 DUP2 CALLDATALOAD SWAP1 POP PUSH2 0x73D DUP2 PUSH2 0x719 JUMP JUMPDEST SWAP3 SWAP2 POP POP JUMP JUMPDEST PUSH0 PUSH0 PUSH0 PUSH1 0x60 DUP5 DUP7 SUB SLT ISZERO PUSH2 0x75A JUMPI PUSH2 0x759 PUSH2 0x57B JUMP JUMPDEST JUMPDEST PUSH0 PUSH2 0x767 DUP7 DUP3 DUP8 ADD PUSH2 0x5C9 JUMP JUMPDEST SWAP4 POP POP PUSH1 0x20 DUP5 ADD CALLDATALOAD PUSH8 0xFFFFFFFFFFFFFFFF DUP2 GT ISZERO PUSH2 0x788 JUMPI PUSH2 0x787 PUSH2 0x57F JUMP JUMPDEST JUMPDEST PUSH2 0x794 DUP7 DUP3 DUP8 ADD PUSH2 0x6EC JUMP JUMPDEST SWAP3 POP POP PUSH1 0x40 PUSH2 0x7A5 DUP7 DUP3 DUP8 ADD PUSH2 0x72F JUMP JUMPDEST SWAP2 POP POP SWAP3 POP SWAP3 POP SWAP3 JUMP JUMPDEST PUSH0 DUP2 MLOAD SWAP1 POP SWAP2 SWAP1 POP JUMP JUMPDEST PUSH0 DUP3 DUP3 MSTORE PUSH1 0x20 DUP3 ADD SWAP1 POP SWAP3 SWAP2 POP POP JUMP JUMPDEST PUSH0 DUP2 SWAP1 POP PUSH1 0x20 DUP3 ADD SWAP1 POP SWAP2 SWAP1 POP JUMP JUMPDEST PUSH2 0x7E1 DUP2 PUSH2 0x5A2 JUMP JUMPDEST DUP3 MSTORE POP POP JUMP JUMPDEST PUSH0 DUP2 MLOAD SWAP1 POP SWAP2 SWAP1 POP JUMP JUMPDEST PUSH0 DUP3 DUP3 MSTORE PUSH1 0x20 DUP3 ADD SWAP1 POP SWAP3 SWAP2 POP POP JUMP JUMPDEST DUP3 DUP2 DUP4 MCOPY PUSH0 DUP4 DUP4 ADD MSTORE POP POP POP JUMP JUMPDEST PUSH0 PUSH2 0x819 DUP3 PUSH2 0x7E7 JUMP JUMPDEST PUSH2 0x823 DUP2 DUP6 PUSH2 0x7F1 JUMP JUMPDEST SWAP4 POP PUSH2 0x833 DUP2 DUP6 PUSH1 0x20 DUP7 ADD PUSH2 0x801 JUMP JUMPDEST PUSH2 0x83C DUP2 PUSH2 0x5E5 JUMP JUMPDEST DUP5 ADD SWAP2 POP POP SWAP3 SWAP2 POP POP JUMP JUMPDEST PUSH2 0x850 DUP2 PUSH2 0x541 JUMP JUMPDEST DUP3 MSTORE POP POP JUMP JUMPDEST PUSH0 PUSH1 0x60 DUP4 ADD PUSH0 DUP4 ADD MLOAD PUSH2 0x86B PUSH0 DUP7 ADD DUP3 PUSH2 0x7D8 JUMP JUMPDEST POP PUSH1 0x20 DUP4 ADD MLOAD DUP5 DUP3 SUB PUSH1 0x20 DUP7 ADD MSTORE PUSH2 0x883 DUP3 DUP3 PUSH2 0x80F JUMP JUMPDEST SWAP2 POP POP PUSH1 0x40 DUP4 ADD MLOAD PUSH2 0x898 PUSH1 0x40 DUP7 ADD DUP3 PUSH2 0x847 JUMP JUMPDEST POP DUP1 SWAP2 POP POP SWAP3 SWAP2 POP POP JUMP JUMPDEST PUSH0 PUSH2 0x8AE DUP4 DUP4 PUSH2 0x856 JUMP JUMPDEST SWAP1 POP SWAP3 SWAP2 POP POP JUMP JUMPDEST PUSH0 PUSH1 0x20 DUP3 ADD SWAP1 POP SWAP2 SWAP1 POP JUMP JUMPDEST PUSH0 PUSH2 0x8CC DUP3 PUSH2 0x7AF JUMP JUMPDEST PUSH2 0x8D6 DUP2 DUP6 PUSH2 0x7B9 JUMP JUMPDEST SWAP4 POP DUP4 PUSH1 0x20 DUP3 MUL DUP6 ADD PUSH2 0x8E8 DUP6 PUSH2 0x7C9 JUMP JUMPDEST DUP1 PUSH0 JUMPDEST DUP6 DUP2 LT ISZERO PUSH2 0x923 JUMPI DUP5 DUP5 SUB DUP10 MSTORE DUP2 MLOAD PUSH2 0x904 DUP6 DUP3 PUSH2 0x8A3 JUMP JUMPDEST SWAP5 POP PUSH2 0x90F DUP4 PUSH2 0x8B6 JUMP JUMPDEST SWAP3 POP PUSH1 0x20 DUP11 ADD SWAP10 POP POP PUSH1 0x1 DUP2 ADD SWAP1 POP PUSH2 0x8EB JUMP JUMPDEST POP DUP3 SWAP8 POP DUP8 SWAP6 POP POP POP POP POP POP SWAP3 SWAP2 POP POP JUMP JUMPDEST PUSH0 PUSH1 0x20 DUP3 ADD SWAP1 POP DUP2 DUP2 SUB PUSH0 DUP4 ADD MSTORE PUSH2 0x94D DUP2 DUP5 PUSH2 0x8C2 JUMP JUMPDEST SWAP1 POP SWAP3 SWAP2 POP POP JUMP JUMPDEST PUSH0 PUSH1 0x20 DUP3 DUP5 SUB SLT ISZERO PUSH2 0x96A JUMPI PUSH2 0x969 PUSH2 0x57B JUMP JUMPDEST JUMPDEST PUSH0 PUSH2 0x977 DUP5 DUP3 DUP6 ADD PUSH2 0x72F JUMP JUMPDEST SWAP2 POP POP SWAP3 SWAP2 POP POP JUMP JUMPDEST PUSH2 0x989 DUP2 PUSH2 0x5A2 JUMP JUMPDEST DUP3 MSTORE POP POP JUMP JUMPDEST PUSH0 DUP3 DUP3 MSTORE PUSH1 0x20 DUP3 ADD SWAP1 POP SWAP3 SWAP2 POP POP JUMP JUMPDEST PUSH0 PUSH2 0x9A9 DUP3 PUSH2 0x7E7 JUMP JUMPDEST PUSH2 0x9B3 DUP2 DUP6 PUSH2 0x98F JUMP JUMPDEST SWAP4 POP PUSH2 0x9C3 DUP2 DUP6 PUSH1 0x20 DUP7 ADD PUSH2 0x801 JUMP JUMPDEST PUSH2 0x9CC DUP2 PUSH2 0x5E5 JUMP JUMPDEST DUP5 ADD SWAP2 POP POP SWAP3 SWAP2 POP POP JUMP JUMPDEST PUSH0 PUSH1 0x60 DUP3 ADD SWAP1 POP PUSH2 0x9EA PUSH0 DUP4 ADD DUP7 PUSH2 0x980 JUMP JUMPDEST DUP2 DUP2 SUB PUSH1 0x20 DUP4 ADD MSTORE PUSH2 0x9FC DUP2 DUP6 PUSH2 0x99F JUMP JUMPDEST SWAP1 POP PUSH2 0xA0B PUSH1 0x40 DUP4 ADD DUP5 PUSH2 0x54A JUMP JUMPDEST SWAP5 SWAP4 POP POP POP POP JUMP JUMPDEST PUSH32 0x4F6E6C79206F776E65722063616E2063616C6C00000000000000000000000000 PUSH0 DUP3 ADD MSTORE POP JUMP JUMPDEST PUSH0 PUSH2 0xA47 PUSH1 0x13 DUP4 PUSH2 0x98F JUMP JUMPDEST SWAP2 POP PUSH2 0xA52 DUP3 PUSH2 0xA13 JUMP JUMPDEST PUSH1 0x20 DUP3 ADD SWAP1 POP SWAP2 SWAP1 POP JUMP JUMPDEST PUSH0 PUSH1 0x20 DUP3 ADD SWAP1 POP DUP2 DUP2 SUB PUSH0 DUP4 ADD MSTORE PUSH2 0xA74 DUP2 PUSH2 0xA3B JUMP JUMPDEST SWAP1 POP SWAP2 SWAP1 POP JUMP JUMPDEST PUSH32 0x4E487B7100000000000000000000000000000000000000000000000000000000 PUSH0 MSTORE PUSH1 0x32 PUSH1 0x4 MSTORE PUSH1 0x24 PUSH0 REVERT JUMPDEST PUSH32 0x4E487B7100000000000000000000000000000000000000000000000000000000 PUSH0 MSTORE PUSH1 0x22 PUSH1 0x4 MSTORE PUSH1 0x24 PUSH0 REVERT JUMPDEST PUSH0 PUSH1 0x2 DUP3 DIV SWAP1 POP PUSH1 0x1 DUP3 AND DUP1 PUSH2 0xAEC JUMPI PUSH1 0x7F DUP3 AND SWAP2 POP JUMPDEST PUSH1 0x20 DUP3 LT DUP2 SUB PUSH2 0xAFF JUMPI PUSH2 0xAFE PUSH2 0xAA8 JUMP JUMPDEST JUMPDEST POP SWAP2 SWAP1 POP JUMP JUMPDEST PUSH0 DUP2 SWAP1 POP DUP2 PUSH0 MSTORE PUSH1 0x20 PUSH0 KECCAK256 SWAP1 POP SWAP2 SWAP1 POP JUMP JUMPDEST PUSH0 PUSH1 0x20 PUSH1 0x1F DUP4 ADD DIV SWAP1 POP SWAP2 SWAP1 POP JUMP JUMPDEST PUSH0 DUP3 DUP3 SHL SWAP1 POP SWAP3 SWAP2 POP POP JUMP JUMPDEST PUSH0 PUSH1 0x8 DUP4 MUL PUSH2 0xB61 PUSH32 0xFFFFFFFFFFFFFFFFFFFFFFFFFFFFFFFFFFFFFFFFFFFFFFFFFFFFFFFFFFFFFFFF DUP3 PUSH2 0xB26 JUMP JUMPDEST PUSH2 0xB6B DUP7 DUP4 PUSH2 0xB26 JUMP JUMPDEST SWAP6 POP DUP1 NOT DUP5 AND SWAP4 POP DUP1 DUP7 AND DUP5 OR SWAP3 POP POP POP SWAP4 SWAP3 POP POP POP JUMP JUMPDEST PUSH0 DUP2 SWAP1 POP SWAP2 SWAP1 POP JUMP JUMPDEST PUSH0 PUSH2 0xBA6 PUSH2 0xBA1 PUSH2 0xB9C DUP5 PUSH2 0x541 JUMP JUMPDEST PUSH2 0xB83 JUMP JUMPDEST PUSH2 0x541 JUMP JUMPDEST SWAP1 POP SWAP2 SWAP1 POP JUMP JUMPDEST PUSH0 DUP2 SWAP1 POP SWAP2 SWAP1 POP JUMP JUMPDEST PUSH2 0xBBF DUP4 PUSH2 0xB8C JUMP JUMPDEST PUSH2 0xBD3 PUSH2 0xBCB DUP3 PUSH2 0xBAD JUMP JUMPDEST DUP5 DUP5 SLOAD PUSH2 0xB32 JUMP JUMPDEST DUP3 SSTORE POP POP POP POP JUMP JUMPDEST PUSH0 PUSH0 SWAP1 POP SWAP1 JUMP JUMPDEST PUSH2 0xBEA PUSH2 0xBDB JUMP JUMPDEST PUSH2 0xBF5 DUP2 DUP5 DUP5 PUSH2 0xBB6 JUMP JUMPDEST POP POP POP JUMP JUMPDEST JUMPDEST DUP2 DUP2 LT ISZERO PUSH2 0xC18 JUMPI PUSH2 0xC0D PUSH0 DUP3 PUSH2 0xBE2 JUMP JUMPDEST PUSH1 0x1 DUP2 ADD SWAP1 POP PUSH2 0xBFB JUMP JUMPDEST POP POP JUMP JUMPDEST PUSH1 0x1F DUP3 GT ISZERO PUSH2 0xC5D JUMPI PUSH2 0xC2E DUP2 PUSH2 0xB05 JUMP JUMPDEST PUSH2 0xC37 DUP5 PUSH2 0xB17 JUMP JUMPDEST DUP2 ADD PUSH1 0x20 DUP6 LT ISZERO PUSH2 0xC46 JUMPI DUP2 SWAP1 POP JUMPDEST PUSH2 0xC5A PUSH2 0xC52 DUP6 PUSH2 0xB17 JUMP JUMPDEST DUP4 ADD DUP3 PUSH2 0xBFA JUMP JUMPDEST POP POP JUMPDEST POP POP POP JUMP JUMPDEST PUSH0 DUP3 DUP3 SHR SWAP1 POP SWAP3 SWAP2 POP POP JUMP JUMPDEST PUSH0 PUSH2 0xC7D PUSH0 NOT DUP5 PUSH1 0x8 MUL PUSH2 0xC62 JUMP JUMPDEST NOT DUP1 DUP4 AND SWAP2 POP POP SWAP3 SWAP2 POP POP JUMP JUMPDEST PUSH0 PUSH2 0xC95 DUP4 DUP4 PUSH2 0xC6E JUMP JUMPDEST SWAP2 POP DUP3 PUSH1 0x2 MUL DUP3 OR SWAP1 POP SWAP3 SWAP2 POP POP JUMP JUMPDEST PUSH2 0xCAE DUP3 PUSH2 0x7E7 JUMP JUMPDEST PUSH8 0xFFFFFFFFFFFFFFFF DUP2 GT ISZERO PUSH2 0xCC7 JUMPI PUSH2 0xCC6 PUSH2 0x5F5 JUMP JUMPDEST JUMPDEST PUSH2 0xCD1 DUP3 SLOAD PUSH2 0xAD5 JUMP JUMPDEST PUSH2 0xCDC DUP3 DUP3 DUP6 PUSH2 0xC1C JUMP JUMPDEST PUSH0 PUSH1 0x20 SWAP1 POP PUSH1 0x1F DUP4 GT PUSH1 0x1 DUP2 EQ PUSH2 0xD0D JUMPI PUSH0 DUP5 ISZERO PUSH2 0xCFB JUMPI DUP3 DUP8 ADD MLOAD SWAP1 POP JUMPDEST PUSH2 0xD05 DUP6 DUP3 PUSH2 0xC8A JUMP JUMPDEST DUP7 SSTORE POP PUSH2 0xD6C JUMP JUMPDEST PUSH1 0x1F NOT DUP5 AND PUSH2 0xD1B DUP7 PUSH2 0xB05 JUMP JUMPDEST PUSH0 JUMPDEST DUP3 DUP2 LT ISZERO PUSH2 0xD42 JUMPI DUP5 DUP10 ADD MLOAD DUP3 SSTORE PUSH1 0x1 DUP3 ADD SWAP2 POP PUSH1 0x20 DUP6 ADD SWAP5 POP PUSH1 0x20 DUP2 ADD SWAP1 POP PUSH2 0xD1D JUMP JUMPDEST DUP7 DUP4 LT ISZERO PUSH2 0xD5F JUMPI DUP5 DUP10 ADD MLOAD PUSH2 0xD5B PUSH1 0x1F DUP10 AND DUP3 PUSH2 0xC6E JUMP JUMPDEST DUP4 SSTORE POP JUMPDEST PUSH1 0x1 PUSH1 0x2 DUP9 MUL ADD DUP9 SSTORE POP POP POP JUMPDEST POP POP POP POP POP POP JUMP INVALID LOG2 PUSH5 0x6970667358 0x22 SLT KECCAK256 SELFDESTRUCT COINBASE SWAP6 0xEA PUSH19 0x6C2DF7969F38C009C320CB5C32055A410C75B 0xAF JUMPI 0xD4 0xBE 0xD2 PUSH23 0xF0D764736F6C634300081F003300000000000000000000 "
				},
				"gasEstimates": {
					"creation": {
						"codeDepositCost": "699600",
						"executionCost": "24996",
						"totalCost": "724596"
					},
					"external": {
						"addWaitress(address,string,uint256)": "infinite",
						"addtips()": "119",
						"viewWaitress()": "infinite",
						"viewtips()": "312",
						"waitress(uint256)": "infinite"
					}
				},
				"methodIdentifiers": {
					"addWaitress(address,string,uint256)": "b499b79a",
					"addtips()": "6e7301fd",
					"viewWaitress()": "e83a1b00",
					"viewtips()": "2a08deda",
					"waitress(uint256)": "ec066e3a"
				}
			},
			"storageLayout": {
				"storage": [
					{
						"astId": 3,
						"contract": "tipjar.sol:tips",
						"label": "owner",
						"offset": 0,
						"slot": "0",
						"type": "t_address"
					},
					{
						"astId": 14,
						"contract": "tipjar.sol:tips",
						"label": "waitress",
						"offset": 0,
						"slot": "1",
						"type": "t_array(t_struct(Waitress)10_storage)dyn_storage"
					}
				],
				"types": {
					"t_address": {
						"encoding": "inplace",
						"label": "address",
						"numberOfBytes": "20"
					},
					"t_address_payable": {
						"encoding": "inplace",
						"label": "address payable",
						"numberOfBytes": "20"
					},
					"t_array(t_struct(Waitress)10_storage)dyn_storage": {
						"base": "t_struct(Waitress)10_storage",
						"encoding": "dynamic_array",
						"label": "struct tips.Waitress[]",
						"numberOfBytes": "32"
					},
					"t_string_storage": {
						"encoding": "bytes",
						"label": "string",
						"numberOfBytes": "32"
					},
					"t_struct(Waitress)10_storage": {
						"encoding": "inplace",
						"label": "struct tips.Waitress",
						"members": [
							{
								"astId": 5,
								"contract": "tipjar.sol:tips",
								"label": "walletAddress",
								"offset": 0,
								"slot": "0",
								"type": "t_address_payable"
							},
							{
								"astId": 7,
								"contract": "tipjar.sol:tips",
								"label": "name",
								"offset": 0,
								"slot": "1",
								"type": "t_string_storage"
							},
							{
								"astId": 9,
								"contract": "tipjar.sol:tips",
								"label": "percent",
								"offset": 0,
								"slot": "2",
								"type": "t_uint256"
							}
						],
						"numberOfBytes": "96"
					},
					"t_uint256": {
						"encoding": "inplace",
						"label": "uint256",
						"numberOfBytes": "32"
					}
				}
			},
			"userdoc": {
				"kind": "user",
				"methods": {},
				"version": 1
			}
		}
	}
}